:020000040800F2
:10000000E89B00209D01000855320008092F0008D8
:1000100029310008D9270008C58F0008000000001A
:1000200000000000000000000000000089880008B7
:10003000812C000800000000D5060008A954000823
:10004000D7010008D7010008D7010008D701000830
:10005000D7010008D7010008852C0008D701000847
:10006000D7010008D7010008D7010008D701000810
:10007000D7010008D7010008D7010008D701000800
:10008000D7010008D7010008D7010008D7010008F0
:10009000D7010008D7010008D7010008D7010008E0
:1000A000D7010008D7010008D7010008D7010008D0
:1000B000D7010008D7010008D7010008D7010008C0
:1000C000D7010008D7010008D7010008D7010008B0
:1000D000D7010008998B0008E18B0008298C0008E3
:1000E000AD2C0008D7010008D7010008D70100088F
:1000F000D7010008D7010008D7010008D701000880
:10010000D7010008D7010008D7010008D70100086F
:10011000D7010008D7010008218A0008D70100088C
:10012000D7010008D7010008D7010008D70100084F
:10013000D7010008D7010008D7010008D70100083F
:10014000D7010008D7010008D7010008D70100082F
:10015000D7010008D7010008D7010008D70100081F
:10016000D7010008D7010008D7010008D70100080F
:10017000D7010008D7010008D7010008D7010008FF
:10018000D7010008D7010008DFF80CD000F00CFA06
:1001900000480047CD950008E89B0020DFF83800B4
:1001A000016841F470010160BFF34F8FDFF82C004C
:1001B000016821F040410160BFF36F8F084880471C
:1001C00008480047FEE7FEE7FEE7FEE7FEE7FEE73A
:1001D000FEE7FEE7FEE7FEE788ED00E034EF00E033
:1001E000B98900088901000872B6704762B6704785
:1001F000EFF3108072B6704780F31088704730BFFD
:10020000704720BF7047B0FA80F0704790FAA0F0B6
:10021000B0FA80F0704790FAA0F070472DE9F05FD7
:100220000546002092469B46884606468146402465
:100230001BE0284641464746224600F048F953460F
:100240005A46C01A914110D311461846224600F072
:100250002FF92D1A67EB01084F4622460120002195
:1002600000F026F917EB00094E41201EA4F101040D
:10027000DFDC484631462A464346BDE8F09F40EA67
:1002800001039B0703D009E008C9121F08C0042A14
:10029000FAD203E011F8013B00F8013B521EF9D2FB
:1002A00070472DE9FE4F81EA030404F0004421F079
:1002B000004100944FF0000B23F0004350EA01048A
:1002C0005ED052EA03045BD0C3F30A54C1F30A556B
:1002D0002C44A4F2F3340194A0FB0254C1F31301A3
:1002E00041F48011C3F3130343F4801301FB024470
:1002F00000FB034E840A970A44EA815447EA835775
:10030000A4FB076802958D0A05FB07854FEA932C2D
:1003100004FB0C542705029D4FEA065847EA16379E
:10032000B5EB08056EEB070C870E920E47EA8117B6
:1003300042EA8312A7FB0201B6EB0B0164EB000457
:100340002B0D43EA0C335E1844EB1C50DA46514641
:10035000E7FB0201C5F313044FEA0B3343EA1453DE
:100360004FEA0432019C43EA0603A4F10C04029410
:10037000009CCDE900B400F0C9F803B0BDE8F08FEF
:1003800000200146F9E72DE9F04D81EA030404F06D
:10039000004B21F0004514464FF0000A23F00041C5
:1003A00050EA050220D054EA01021DD0C5F30A57D5
:1003B0000246C5F31303C1F31300C1F30A5640F418
:1003C000801543F48013A7EB0608101BD64608F2ED
:1003D000FD3873EB050002D308F1010801E0921823
:1003E0005B41B8F1000F03DA00200146BDE8F08D53
:1003F00000204FF48011064684460EE0171B73EB75
:10040000050705D3121B63EB050306434CEA010CF9
:1004100049084FEA300092185B4150EA0107EDD1DC
:1004200052EA030012D082EA040083EA050108437D
:1004300005D0101BAB4106D20122002306E00022AA
:100440004FF0004302E06FF0010253101AEB060078
:100450004CEB085110EB0A0041EB0B01BDE8F04DED
:1004600000F045B80EB540F2334102910021CDE9CC
:1004700000110A460B4600F049F803B000BDC1F375
:100480000A5210B5C1F3130140F2FF3341F4801159
:100490009A4201DA002010BD40F233439A42A2F2A0
:1004A000334203DC524200F012F810BD904010BD00
:1004B000202A04DB203A00FA02F100207047914024
:1004C000C2F1200320FA03F3194390407047202A19
:1004D00004DB203A21FA02F00021704721FA02F3EE
:1004E000D040C2F12002914008431946704710B530
:1004F000141E73F1000408DA401C41F10001921847
:100500005B411A4301D120F0010010BD2DE9F04DEF
:1005100092469B4611B1B1FA81F202E0B0FA80F244
:1005200020329046FFF7C4FF04460F4640EA0A0017
:1005300041EA0B0153465A46084313D0114653EA89
:10054000010019D0C8F140025046FFF7C0FF054630
:100550000E46504659464246FFF7AAFF084305D0CB
:10056000012004E020463946BDE8F08D0020054317
:1005700046EAE0762C4337430A986305E40AA0EB89
:1005800008000022FD0A44EA47540A3002D5002040
:100590000146E9E7010510196941DDE9084500193F
:1005A0006941BDE8F04DA2E7064C074D06E0E06862
:1005B00040F0010394E8070098471034AC42F6D3AA
:1005C000FFF7E6FDD49D0008F49D000870B58C1877
:1005D00010F8015B15F0070301D110F8013B2A1157
:1005E00006D110F8012B03E010F8016B01F8016B44
:1005F0005B1EF9D12B0705D40023521E0DD401F840
:10060000013BFAE710F8013BCB1A921C03E013F808
:10061000015B01F8015B521EF9D5A142D8D300203D
:1006200070BD0000EFF3098141B1F1EE101A40F8FE
:10063000041D20ED200A3B490A6810607047B0ECA9
:10064000200A02C8E1EE101A37490A6810607047A4
:1006500072B64EF62250CEF2000040F2FF01C0F218
:100660000001017040F23010C2F20000016881F315
:10067000088840F29E00C2F2000040F29F01C2F2E0
:1006800000010A78027040F22815C2F2000540F21B
:100690002C11C2F200010A682A60106880F30988F0
:1006A000EFF3148040F0020080F31488BFF36F8FE3
:1006B000BDE8F00F0FBCBDE8005006BC62B60847AD
:1006C0001A484FF080510160704718484FF0805130
:1006D0000160704772B6EFF3098020E9F00F40F235
:1006E0002815C2F200052E683060744604F0A8FD9B
:1006F00040F29E00C2F2000040F29F01C2F20001EF
:100700000A78027040F22C11C2F200010A682A60D5
:1007100044F0F40E1068B0E8F00F80F3098862B678
:1007200070470000280100202C01002004ED00E0AB
:100730001CB501215A2008F003F801208DF80400AF
:1007400000208DF806008DF8070003208DF80500C5
:100750004FF4007000906946224802F05DFB4FF4B0
:100760008060009069461F4802F056FB012000900F
:1007700069461D4802F050FB4FF400400090694666
:100780001A4802F049FB4FF40050009069461748A0
:1007900002F042FB4FF4805000906946144802F08A
:1007A0003BFB4FF4004000906946114802F034FBD7
:1007B0004FF400500D49488340100D491A3108800C
:1007C00000208DF804008DF806008DF80700022047
:1007D0008DF80500400300906946044802F01CFBB8
:1007E0001CBD0000000C024000040240001002404A
:1007F000001802402DE9FF4700245DE0324830F840
:10080000140085B2314830F9140000282BDA684210
:1008100085B20A2095FBF0F100FB1156642095FB90
:10082000F0F100FB11500A2190FBF1F74FF47A70C0
:1008300095FBF0F100FB1150642190FBF1F84FF4AF
:100840007A7095FBF0F92148CDE90098CDE9027660
:1008500030F8140083B21D4830F91420611C1CA02C
:1008600008F0B2FB26E00A2095FBF0F100FB1156E0
:10087000642095FBF0F100FB11500A2190FBF1F789
:100880004FF47A7095FBF0F100FB1150642190FB5E
:10089000F1F84FF47A7095FBF0F90C48CDE9009827
:1008A000CDE9027630F9143030F91420611C12A021
:1008B00008F08AFB601C84B2082C9FDB082118A07A
:1008C00008F082FBBDE8FF87A8670020B86700201A
:1008D0002043482564203D202536642C307825307F
:1008E000345820282D25642E25642564256420563F
:1008F00029200D0A000000002043482564203D20E7
:100900002536642C30782530345820282025642E54
:10091000256425642564205629200D0A0000000066
:100920001B5B25644100000010B500234DE0184614
:1009300000F054F800B2264921F81300084630F9B7
:10094000130000281EDB084630F8130084B221484B
:10095000007858B941F28830604347F6FF7190FB48
:10096000F1F000B21C4921F813002CE042F21070A3
:10097000604347F6FF7190FBF1F000B2164921F891
:10098000130020E0124830F81300404284B21148AE
:10099000007860B941F288306043404247F6FF7109
:1009A00090FBF1F000B20C4921F813000BE042F289
:1009B00010706043404247F6FF7190FBF1F000B2C7
:1009C000054921F81300581CC3B2082BAFDB10BD3A
:1009D000B867002010000020A86700200146012011
:1009E00080F3108800BF044830F81120002080F305
:1009F000108800BF104670479867002010B54FF46C
:100A00000041114802F07EFA4FF400710F4802F0E5
:100A100077FA4FF400710D4802F074FA4FF4007148
:100A20000A4802F06FFA4FF40071084802F06AFABF
:100A30004FF40071054802F065FA4FF40071034865
:100A400002F05EFA10BD000000100240000C0240EF
:100A500010B54FF48041134802F049FA00BB4FF43F
:100A60000041104802F04CFA002410E008F036FD76
:100A70000D4921F8140008F031FD0B4911F814104C
:100A800000EB0120084921F81400601CC4B2082CB6
:100A9000ECDB4FF40041034802F034FA00F016F8A2
:100AA00010BD0000001002409867002010B50446F9
:100AB00024B90121044802F023FA03E0012102488D
:100AC00002F020FA10BD00000004024010B54FF4FF
:100AD0008061094802F014FA4FF48061064802F080
:100AE0000FFA4FF48061044802F00AFA4FF4806173
:100AF000014802F007FA10BD000C02402DE9F04F4A
:100B000085B006460F4615463EA103C9CDE903014F
:100B10003E4801783EA008F057FA3E4830F81500EC
:100B200084B2F0B28DF80F00F8B28DF811009DF884
:100B300011009DF810109DF80F20CDE900210290C2
:100B40009DF80E309DF80D209DF80C1032A008F095
:100B50003BFA354830F91500002824DA604284B2A7
:100B60000A2094FBF0F100FB1148642094FBF0F1A3
:100B700000FB11400A2190FBF1F94FF47A7094FBCD
:100B8000F0F100FB1140642190FBF1FA4FF47A7010
:100B900094FBF0FB4B465246594624A0CDF800800A
:100BA00008F012FA21E00A2094FBF0F100FB114852
:100BB000642094FBF0F100FB11400A2190FBF1F955
:100BC0004FF47A7094FBF0F100FB1140642190FB2C
:100BD000F1FA4FF47A7094FBF0FB4B4652465946BB
:100BE00016A0CDF8008008F0EFF91848C078009002
:100BF000164883784278017808A008F0E5F905B036
:100C0000BDE8F08FB11000000000000011000020CE
:100C100025630000A86700202563256325632563FD
:100C20002563256300000000B86700202D25642E91
:100C30002564256425642056000000002B25642EC1
:100C40002564256425642056000000001200002061
:100C500008B500246DE000BF00BF00BFFFF7C8FA71
:100C6000044600BF01F054FE00BF32480078401C2B
:100C70003049087008460078012801D105F08EFE41
:100C800000BF01F05FFE00BF2046FFF7B5FA00BFCE
:100C900000BF00BF012028490870FFF7D9FEFFF709
:100CA00043FE002205210846FFF728FF2348B0F93C
:100CB00000200621052002F029F900BF00BF00BF77
:100CC000FFF796FA044600BF01F022FE00BF194864
:100CD0000078401E1749087008460078D0B905F022
:100CE0006BFE1748008800280BDD00BF01F02AFECC
:100CF00000BF2046FFF780FA00BF00BF05F024FECA
:100D000011E000BF01F01EFE00BF2046FFF774FA9D
:100D100000BF08E000BF01F015FE00BF2046FFF74E
:100D20006BFA00BF00BF00BF6A4600210A2004F032
:100D3000F1FA90E7B800002010000020A86700201A
:100D40007C0000208CB00025012002F08DF901E22A
:100D50000BA800230AAA19460090184603F07CFD50
:100D600004462146FCA008F02FF92079E1780A22F8
:100D700012FB0100F94948600846406807287DD207
:100D8000DFE800F07C04C5C6FEFDFC00A079002869
:100D90005BD100BF00BF00BFFFF72AFA054600BFC6
:100DA00001F0B6FD00BFEE480078401CEC49087029
:100DB00008460078012801D105F0F0FD00BF01F0E0
:100DC000C1FD00BF2846FFF717FA00BF00BF00BFF4
:100DD000032002F049F900BF00BF00BFFFF708FA87
:100DE000054600BF01F094FD00BFDD480078401EBD
:100DF000DB49087008460078D0B905F0DDFDD94818
:100E0000008800280BDD00BF01F09CFD00BF2846D4
:100E1000FFF7F2F900BF00BF05F096FD11E000BF3B
:100E200001F090FD00BF2846FFF7E6F900BF08E09B
:100E300000BF01F087FD00BF2846FFF7DDF900BFC6
:100E400000BF00BF0120C5490860A07901285DD11D
:100E500000BF00BF00BFFFF7CBF9054600BF01F0A0
:100E600057FD00BFBE480078401CBD4908700846C9
:100E70000078012801D105F091FD00E063E100BF99
:100E800001F060FD00BF2846FFF7B6F900BF00BFC4
:100E900000BF022002F0E8F800BF00BF00BFFFF76C
:100EA000A7F9054600BF01F033FD00BFAC4800784C
:100EB000401EAB49087008460078D0B905F07CFDAB
:100EC000A848008800280BDD00BF01F03BFD00BFF3
:100ED0002846FFF791F900BF00BF05F035FD11E08E
:100EE00000BF01F02FFD00BF2846FFF785F900BFC6
:100EF00008E000BF01F026FD00BF2846FFF77CF99F
:100F000000BF00BF00BF0020944908601CE11BE146
:100F1000A0799249886000BF00BF00BFFFF768F961
:100F2000054600BF01F0F4FC00BF8D480078401C6E
:100F30008B49087008460078012801D105F02EFD84
:100F400000BF01F0FFFC00BF2846FFF755F900BFC6
:100F500000BF00BF042002F087F800BF00BF00BF41
:100F6000FFF746F9054600BF01F0D2FC00BF7C4800
:100F70000078401E7A490870084602E0CAE09BE00B
:100F800027E00078D0B905F017FD764800880028E2
:100F90000BDD00BF01F0D6FC00BF2846FFF72CF99F
:100FA00000BF00BF05F0D0FC11E000BF01F0CAFC9B
:100FB00000BF2846FFF720F900BF08E000BF01F09E
:100FC000C1FC00BF2846FFF717F900BF00BF00BFF4
:100FD000BAE0A07902280ED1E07AA17A00EB0120D4
:100FE0005E49C8600846C368A079401CC1B20022AF
:100FF000042001F0EBFFA07904280ED1E07AA17A59
:1010000000EB01205549086108460369A079401C9E
:10101000C1B20022042001F0D9FFA07906280ED128
:10102000E07AA17A00EB01204C4948610846436907
:10103000A079401CC1B20022042001F0C7FFA079B2
:1010400008280ED1E07AA17A00EB0120434988619B
:1010500008468369A079401CC1B20022042001F037
:10106000B5FFA0790A280ED1E07AA17A00EB012021
:101070003A49C8610846C369A079401CC1B2002240
:10108000042001F0A3FFA0790C2814D1E07AA17A02
:1010900000EB012031494862607A217A00EB01209F
:1010A0002E4908620846436A026AA079401CC1B210
:1010B000042001F08BFF47E0A079E8B900231A462D
:1010C0000421052001F082FF0BA8032100220592D4
:1010D000CDE90621089005204FF400713322224B00
:1010E000CDE90132CDE90310062000231F4A20A1DB
:1010F0000090234803F024F9A079012809D1642342
:1011000000220421052001F061FF0BA91C4803F017
:1011100063FA19E00BA8032100220592CDE906210C
:10112000089005204FF400713322164BCDE90132AF
:10113000CDE9031004200023134A14A1009017489E
:1011400003F0FEF800BF00BF00BF0BAA2146144801
:1011500002F05EFBFCE5000025730000C86700207C
:10116000B80000207C00002098430020510C0008AB
:10117000417070205461736B20416463650000000E
:101180009C0D0020985B002079270008417070209A
:101190005461736B20576F726B00000000100020C9
:1011A000380100200EB511E002A8002301AA19465B
:1011B0000090184603F050FB0446214604A007F0B7
:1011C00003FF02AA2146034802F022FBECE70000DD
:1011D000257300003801002008B500240CE02046EB
:1011E00001F0A6FCB4F5486F00DD002432346A46F5
:1011F00000210A2004F08EF8F1E708B54FF44864A6
:101200000CE0204601F0FEFC0A2C01DA4FF44864A1
:10121000323C6A4600210A2004F07CF8F1E7000025
:1012200008B50027684604F039F9054601F0ADFA23
:101230000646FBE36B4600221146104603F0B4FC61
:1012400001F050FB044600BF00BF00BFFEF7D0FF17
:10125000074600BF01F05CFB00BFF5480078401C6A
:10126000F349087008460078012801D105F096FB83
:1012700000BF01F067FB00BF3846FEF7BDFF00BFAF
:1012800000BF00BF642095FBF0F100FB115842F253
:10129000107095FBF0F100FB1150642190FBF1F907
:1012A00042F2107095FBF0FA43464A465146E1A0DF
:1012B00007F08AFEE748B6FBF0F84146E6A007F0E3
:1012C00083FEE448B6FBF0F0B4FBF0F84146E7A03B
:1012D00007F07AFEDF48B6FBF0F0EA490968B1FB97
:1012E000F0F84146E8A007F06FFEEE480168EEA076
:1012F00007F06AFEF2480088642190FBF1F201FBDE
:101300001208EF48008890FBF1F942464946EDA0EB
:1013100007F05AFEF1480088642190FBF1F201FBCE
:101320001208EE48008890FBF1F942464946ECA0CD
:1013300007F04AFEF148B0F89000642190FBF1F20A
:1013400001FB1208ED48B0F8900090FBF1F942461D
:101350004946EBA007F038FEE848B0F89200642157
:1013600090FBF1F201FB1208E448B0F8920090FB08
:10137000F1F942464946EAA007F026FEF148B0F8E6
:101380009000642190FBF1F201FB1208ED48B0F8E7
:10139000900090FBF1F942464946EBA007F014FE9D
:1013A000E848B0F89200642190FBF1F201FB1208CA
:1013B000E448B0F8920090FBF1F942464946EAA0B1
:1013C00007F002FEF148B0F89000642190FBF1F2C2
:1013D00001FB1208ED48B0F8900090FBF1F942468D
:1013E0004946EBA007F0F0FDE848B0F89200642110
:1013F00090FBF1F201FB1208E448B0F8920090FB78
:10140000F1F942464946EAA007F0DEFDF148B0F89E
:101410009000642190FBF1F201FB1208ED48B0F856
:10142000900090FBF1F942464946EBA007F0CCFD55
:10143000E848B0F89200642190FBF1F201FB120839
:10144000E448B0F8920090FBF1F942464946EAA020
:1014500007F0BAFDF248B0F89000642190FBF1F279
:1014600001FB1208EE48B0F8900090FBF1F94246FB
:101470004946ECA007F0A8FDE948B0F892006421C5
:1014800090FBF1F201FB1208E548B0F8920090FBE6
:10149000F1F942464946EBA007F096FDF348B0F853
:1014A0009000642190FBF1F201FB1208EF48B0F8C4
:1014B000900090FBF1F942464946EDA007F084FD0B
:1014C000EA48B0F89200642190FBF1F201FB1208A7
:1014D000E648B0F8920090FBF1F942464946ECA08C
:1014E00007F072FDF448B0F89000642190FBF1F22F
:1014F00001FB1208F048B0F8900090FBF1F9424669
:101500004946EEA007F060FDEB48B0F89200642178
:1015100090FBF1F201FB1208E748B0F8920090FB53
:10152000F1F942464946EDA007F04EFDF548B0F806
:101530009000642190FBF1F201FB1208F148B0F831
:10154000900090FBF1F942464946EFA007F03CFDC0
:10155000EC48B0F89200642190FBF1F201FB120814
:10156000E848B0F8920090FBF1F942464946EEA0F7
:1015700007F02AFDF648B0F89000642190FBF1F2E4
:1015800001FB1208F248B0F8900090FBF1F94246D6
:101590004946F0A007F018FDED48B0F8920064212C
:1015A00090FBF1F201FB1208E948B0F8920090FBC1
:1015B000F1F942464946F0A007F006FDF948B0F8B7
:1015C0009000642190FBF1F201FB1208F548B0F89D
:1015D000900090FBF1F942464946F3A007F0F4FC75
:1015E000F048B0F89200642190FBF1F201FB120880
:1015F000EC48B0F8920090FBF1F942464946F4A05D
:1016000007F0E2FCFE48B0F89000642190FBF1F294
:1016100001FB1208FA48B0F8900090FBF1F942463D
:101620004946F8A007F0D0FCF548B0F89200FEE17A
:10163000B80000200D0A75432F4F53B0E6B1BEBA73
:10164000C5A3BA5625642E253032642E2530326467
:101650000D0A000040420F00435055D6F7C6B5A30F
:10166000BA2564204D487A0D0A000000D7EEB4F385
:10167000D6D0B6CFCAB1BCE4A3BA25642075730D29
:101680000A000000B0000020D7EEB4F3CBF8B5F7A5
:10169000B6C8C6F7CAB1BCE4A3BA25642075730DF9
:1016A0000A000000E4000020C8CECEF1C7D0BBBBCA
:1016B000D7DCB4CECAFDA3BA25640D0A0000000031
:1016C000CC000020435055CAB9D3C3C2CAA3BA251F
:1016D000642E256425250D0A00000000CE000020A0
:1016E000435055D7EEB4F3CAB9D3C3C2CAA3BA257F
:1016F000642E256425250D0A000000003C0700200B
:10170000B4AEBFDA31C8CECEF1B5C4435055CAB974
:10171000D3C3C2CAA3BA25642E256425250D0A00A9
:10172000B4AEBFDA31C8CECEF1B5C4435055D7EE12
:10173000B4F3CAB9D3C3C2CAA3BA25642E2564259B
:10174000250D0A0008080020B4AEBFDA32C8CECE9C
:10175000F1B5C4435055CAB9D3C3C2CAA3BA2564AC
:101760002E256425250D0A00B4AEBFDA32C8CECED0
:10177000F1B5C4435055D7EEB4F3CAB9D3C3C2CA06
:10178000A3BA25642E256425250D0A00D40800205F
:10179000B4AEBFDA33C8CECEF1B5C4435055CAB9E2
:1017A000D3C3C2CAA3BA25642E256425250D0A0019
:1017B000B4AEBFDA33C8CECEF1B5C4435055D7EE80
:1017C000B4F3CAB9D3C3C2CAA3BA25642E2564250B
:1017D000250D0A00A0090020B0B4BCFC31C8CECE53
:1017E000F1B5C4435055CAB9D3C3C2CAA3BA25641C
:1017F0002E256425250D0A00B0B4BCFC31C8CECE20
:10180000F1B5C4435055D7EEB4F3CAB9D3C3C2CA75
:10181000A3BA25642E25642525202020200D0A004A
:101820006C0A0020B0B4BCFC32C8CECEF1B5C443C3
:101830005055CAB9D3C3C2CAA3BA25642E2564259C
:10184000250D0A00B0B4BCFC32C8CECEF1B5C443FD
:101850005055D7EEB4F3CAB9D3C3C2CAA3BA2564EC
:101860002E25642525202020200D0A00380B00207D
:101870004C4544C8CECEF1B5C4435055CAB9D3C3C4
:10188000C2CAA3BA25642E256425250D0A000000CE
:101890004C4544C8CECEF1B5C4435055D7EEB4F351
:1018A000CAB9D3C3C2CAA3BA25642E25642525208C
:1018B0002020200D0A000000040C00204441433188
:1018C000C8CECEF1B5C4435055CAB9D3C3C2CAA31A
:1018D000BA25642E256425250D0A000044414331B4
:1018E000C8CECEF1B5C4435055D7EEB4F3CAB9D380
:1018F000C3C2CAA3BA25642E256425252020202032
:101900000D0A0000D00C002044414332C8CECEF175
:10191000B5C4435055CAB9D3C3C2CAA3BA25642EAD
:10192000256425250D0A000044414332C8CECEF17E
:10193000B5C4435055D7EEB4F3CAB9D3C3C2CAA392
:10194000BA25642E25642525202020200D0A0000BC
:101950009C0D002041444320657874C8CECEF1B57B
:10196000C4435055CAB9D3C3C2CAA3BA25642E25ED
:101970006425250D0A00000041444320657874C8A1
:10198000CECEF1B5C4435055D7EEB4F3CAB9D3C3E4
:10199000C2CAA3BA25642E25642525202020200D47
:1019A0000A000000680E0020434D44204C4344BD13
:1019B000E2CEF6C8CECEF1B5C4435055CAB9D3C3B2
:1019C000C2CAA3BA25642E256425250D0A0000008D
:1019D000434D44204C4344BDE2CEF6C8CECEF1B5D3
:1019E000C4435055D7EEB4F3CAB9D3C3C2CAA3BADD
:1019F00025642E25642525202020200D0A000000C6
:101A0000340F0020434D44205043BDE2CEF6C8CEF3
:101A1000CEF1B5C4435055CAB9D3C3C2CAA3BA257F
:101A2000642E256425250D0A000000009DE0642138
:101A300090FBF1F201FB12084D48B0F8920090FBC8
:101A4000F1F9424649464BA007F0BEFA5548D0F896
:101A5000B420D0F8B01054A007F0B6FA5E48D0F821
:101A6000B420D0F8B0105DA007F0AEFA6748D0F807
:101A7000B420D0F8B01066A007F0A6FA7048D0F8ED
:101A8000B420D0F8B0106FA007F09EFA7948D0F8D3
:101A9000B420D0F8B01078A007F096FA8248D0F8B9
:101AA000B420D0F8B01081A007F08EFA8A48D0F8A0
:101AB000B420D0F8B01089A007F086FA9248D0F888
:101AC000B420D0F8B01091A007F07EFA9A48D0F870
:101AD000B420D0F8B01099A007F076FAA348D0F857
:101AE000B420D0F8B010A2A007F06EFA2048D0F8C9
:101AF000B420D0F8B010ABA007F066FA00BF00BF6A
:101B000000BFFEF775FB074600BF00F001FF00BFF6
:101B1000B1480078401EB049087008460078D0B936
:101B200004F04AFFAD48008800280BDD00BF00F03C
:101B300009FF00BF3846FEF75FFB00BF00BF04F09F
:101B400003FF11E000BF00F0FDFE00BF3846FEF7C6
:101B500053FB00BF08E000BF00F0F4FE00BF3846B2
:101B6000FEF74AFB00BF00BF00BFFFF763BB0000EA
:101B7000340F0020434D44205043BDE2CEF6C8CE82
:101B8000CEF1B5C4435055D7EEB4F3CAB9D3C3C2EE
:101B9000CAA3BA25642E25642525202020200D0AFD
:101BA000000000003C070020B4AEBFDA31C8CECE42
:101BB000F1B5C4D2D1D3C3BACDBFD5CFD0B6D1D56C
:101BC000BBB4F3D0A1B7D6B1F0CEAAA3BA25642C8A
:101BD00025640D0A0000000008080020B4AEBFDA3A
:101BE00032C8CECEF1B5C4D2D1D3C3BACDBFD5CFD2
:101BF000D0B6D1D5BBB4F3D0A1B7D6B1F0CEAAA39D
:101C0000BA25642C25640D0A00000000D4080020C9
:101C1000B4AEBFDA33C8CECEF1B5C4D2D1D3C3BAD5
:101C2000CDBFD5CFD0B6D1D5BBB4F3D0A1B7D6B147
:101C3000F0CEAAA3BA25642C25640D0A000000008A
:101C4000A0090020B0B4BCFC31C8CECEF1B5C4D2DE
:101C5000D1D3C3BACDBFD5CFD0B6D1D5BBB4F3D0D5
:101C6000A1B7D6B1F0CEAAA3BA25642C25640D0A7B
:101C7000000000006C0A0020B0B4BCFC32C8CECE1C
:101C8000F1B5C4D2D1D3C3BACDBFD5CFD0B6D1D59B
:101C9000BBB4F3D0A1B7D6B1F0CEAAA3BA25642CB9
:101CA00025640D0A00000000380B00204C4544C894
:101CB000CECEF1B5C4D2D1D3C3BACDBFD5CFD0B675
:101CC000D1D5BBB4F3D0A1B7D6B1F0CEAAA3BA2573
:101CD000642C25640D0A0000040C002044414331AB
:101CE000C8CECEF1B5C4D2D1D3C3BACDBFD5CFD033
:101CF000B6D1D5BBB4F3D0A1B7D6B1F0CEAAA3BAB2
:101D000025642C25640D0A00D00C00204441433288
:101D1000C8CECEF1B5C4D2D1D3C3BACDBFD5CFD002
:101D2000B6D1D5BBB4F3D0A1B7D6B1F0CEAAA3BA81
:101D300025642C25640D0A009C0D0020414443209D
:101D4000657874C8CECEF1B5C4D2D1D3C3BACDBFF5
:101D5000D5CFD0B6D1D5BBB4F3D0A1B7D6B1F0CEE4
:101D6000AAA3BA25642C25640D0A0000680E002081
:101D7000434D44204C4344BDE2CEF6C8CECEF1B52F
:101D8000C4D2D1D3C3BACDBFD5CFD0B6D1D5BBB4D1
:101D9000F3D0A1B7D6B1F0CEAAA3BA25642C25649E
:101DA0000D0A0000434D44205043BDE2CEF6C8CE9C
:101DB000CEF1B5C4D2D1D3C3BACDBFD5CFD0B6D171
:101DC000D5BBB4F3D0A1B7D6B1F0CEAAA3BA2564DF
:101DD0002C25640D0A000000B80000207C000020C3
:101DE00008B5002460E06B4600221146104602F060
:101DF000DBFE00BF00BF00BFFEF7FAF9044600BFDC
:101E000000F086FD00BF29480078401C2749087073
:101E100008460078012801D104F0C0FD00BF00F0A1
:101E200091FD00BF2046FEF7E7F900BF00BF00BFED
:101E30001F4807F00FFCFEF7DDFC00BF00BF00BF2E
:101E4000FEF7D6F9044600BF00F062FD00BF174858
:101E50000078401E1549087008460078D0B904F093
:101E6000ABFD1448008800280BDD00BF00F06AFDC0
:101E700000BF2046FEF7C0F900BF00BF04F064FDBC
:101E800011E000BF00F05EFD00BF2046FEF7B4F990
:101E900000BF08E000BF00F055FD00BF2046FEF780
:101EA000ABF900BF00BF00BF9DE70000B8000020F5
:101EB000C86700207C00002008B511E009480068D0
:101EC00080F00100074908600748006880F00800BA
:101ED000054908606A4600214FF4FA7003F01AFAC7
:101EE000ECE7000014080240140C024000B58DB06D
:101EF00000F074FC00F050FC00F047FC0C90964998
:101F00000C980968B0FBF1F00B900B9803F0ECFA19
:101F100001F016F90AA802F089F900F0CDFC0AAA2E
:101F20000021012002F01EF80AA8042146238B4A52
:101F3000CDE900108AA18E4801F090FB0AA8032188
:101F400000220592CDE90621089032204FF400715D
:101F50003322884BCDE90132CDE903100420002360
:101F6000854A86A10090894802F0EAF90AA803216F
:101F700000220592CDE90621089032204FF400712D
:101F80003322834BCDE90132CDE903100420002335
:101F9000804A81A10090844802F0D2F90AA8032166
:101FA00000220592CDE90621089032204FF40071FD
:101FB00033227E4BCDE90132CDE90310042000230A
:101FC0007B4A7CA100907F4802F0BAF90AA803215D
:101FD00000220592CDE90621089032204FF480714D
:101FE0001922794BCDE90132CDE903100A200023F3
:101FF000764A77A100907A4802F0A2F90AA8032154
:1020000000220592CDE90621089032204FF480711C
:102010001922744BCDE90132CDE903100A200023C7
:10202000714A72A10090754802F08AF90AA803214A
:1020300000220592CDE906210890052080210C227E
:102040006F4BCDE90132CDE903100A2000236D4A20
:102050006DA10090704802F073F90AA803210022D4
:102060000592CDE90621089005204FF480711922D0
:102070006A4BCDE90132CDE9031003200023684A01
:1020800068A100906B4802F05BF90AA803210022C6
:102090000592CDE90621089005204FF480711922A0
:1020A000654BCDE90132CDE9031003200023634ADB
:1020B00063A10090664802F043F90AA803210022B8
:1020C0000592CDE90621089005204FF400713322D6
:1020D000604BCDE90132CDE90310042000235E4AB4
:1020E0005EA10090624802F02BF90AA803210022A9
:1020F0000592CDE90621089005204FF400713322A6
:102100005C4BCDE90132CDE90310042000235A4A8B
:102110005AA100905D4802F013F90AA80321002299
:102120000592CDE90621089005204FF4807119220F
:10213000574BCDE90132CDE903100A200023554A5F
:1021400055A10090584802F0FBF80AA9002002F0BF
:1021500043FA0DB000BD0000989A00085801002015
:102160004D656D20466F7220546573740000000049
:1021700038010020981900201D24000841707020AB
:102180005461736B20557361727431003C070020F9
:1021900098210020A5250008417070205461736BC0
:1021A00020557361727432000808002098290020BD
:1021B00039270008417070205461736B205573619A
:1021C00072743300D40800209831002021120008D6
:1021D000417070205461736B204B657931000000B1
:1021E000A009002098350020E11D000841707020F2
:1021F0005461736B204B6579320000006C0A00203B
:1022000098390020B91E0008417070205461736B2A
:10221000204C656400000000380B0020983B002033
:10222000D9110008417070205461736B20446163C0
:1022300031000000040C0020983F0020FB11000832
:10224000417070205461736B204461633200000060
:10225000D00C0020984B0020450D000841707020E4
:102260005461736B20436D64204C63640000000074
:10227000680E002098530020A511000841707020BE
:102280005461736B20436D6420506300340F002051
:1022900098630020AD220008417070205461736B78
:1022A0002054455354000000CC100020E8B04849A9
:1022B00003C9669165904FF4C872464901A8FDF7BD
:1022C000DEFF002582E000BF00BF00BFFDF790FFEA
:1022D000054600BF00F01CFB00BF3F480078401CD3
:1022E0003D49087008460078012801D104F056FBEA
:1022F00000BF00F027FB00BF2846FDF77DFF00BFB1
:1023000000BF00BF07F0A0FA07F064FA0446142CDF
:102310001CD165A807F08DFA01AB4FF48072002143
:1023200065A807F0B7FA044601AB4FF48072114676
:1023300065A807F0AFFA0446142C03D127A006F0D5
:1023400043FE07E029A006F03FFE03E021462AA055
:1023500006F03AFE00BF00BF00BFFDF749FF05468B
:1023600000BF00F0D5FA00BF1B480078401E1A4994
:10237000087008460078D0B904F01EFB2548008894
:1023800000280BDD00BF00F0DDFA00BF2846FDF796
:1023900033FF00BF00BF04F0D7FA11E000BF00F028
:1023A000D1FA00BF2846FDF727FF00BF08E000BFB5
:1023B00000F0C8FA00BF2846FDF71EFF00BF00BFAF
:1023C00000BF67AA0021144802F0A4FF7BE70000C9
:1023D0002C9A0008389C0008B800002046494C455B
:1023E00043524541544544210D0A00004552524F85
:1023F00052210D0A000000000D0A444953434F4E7C
:102400004E454354210D0A434F44453A202530326E
:10241000580D0A007C000020A08601009EB0002517
:102420000026B4E01DA800231CAA194600901846F7
:1024300002F012FA0446207855490978884200D102
:102440000126012E7ED1207803A94855681CC5B20B
:10245000207850490978884229D1FF208DF808005A
:102460009DF80900FC280DD19DF80A00FF2809D12C
:102470008DF80B00002600222846691CCDB203A966
:102480000A5414E09DF80900FC2806D1FF208DF8BD
:102490000A0000208DF80B0009E0FF208DF80800ED
:1024A00000208DF809008DF80A008DF80B002078C7
:1024B00038494978884210D19DF80800FF2803D197
:1024C000FC208DF8090008E000208DF808008DF848
:1024D00009008DF80A008DF80B0020782E49C97884
:1024E00088421ED19DF80800FF2811D19DF80900EF
:1024F000FC280DD19DF80A00FF2809D18DF80B00AA
:10250000002600222846691CCDB203A90A5408E01F
:1025100000208DF808008DF809008DF80A008DF86C
:102520000B0020781B490978884214D0207819497B
:10253000497888420FD020781749C97888420AD054
:10254000002000E01EE08DF808008DF809008DF8ED
:102550000A008DF80B009DF80B00FF2812D1002017
:102560008DF808008DF809008DF80A008DF80B0031
:102570001DA800232A4603A90090084802F086FA05
:10258000002500261DAA2146054801F041F949E72A
:10259000110000201200002016000020680E00200C
:1025A000380100209EB000250026BAE01DA80023B7
:1025B0001CAA19460090184602F04EF904462078ED
:1025C00058490978884200D10126012E7ED1207811
:1025D00003A94855681CC5B2207853490978884238
:1025E00029D1FF208DF808009DF80900FC280DD1A5
:1025F0009DF80A00FF2809D18DF80B000026002263
:102600002846691CCDB203A90A5414E09DF80900BC
:10261000FC2806D1FF208DF80A0000208DF80B0061
:1026200009E0FF208DF8080000208DF809008DF8E2
:102630000A008DF80B0020783B494978884210D178
:102640009DF80800FF2803D1FC208DF8090008E060
:1026500000208DF808008DF809008DF80A008DF82B
:102660000B0020783149C978884224D19DF80800B0
:10267000FF2817D19DF80900FC2813D19DF80A0006
:10268000FF280FD18DF80B00002600222846691C78
:10269000CDB203A90A549DF80C00401CC0B28DF8BD
:1026A0000C0008E000208DF808008DF809008DF876
:1026B0000A008DF80B0020781B490978884214D055
:1026C00020781949497888420FD000E024E020782A
:1026D0001649C978884208D000208DF808008DF886
:1026E00009008DF80A008DF80B009DF80B00FF28FB
:1026F00012D100208DF808008DF809008DF80A002D
:102700008DF80B001DA800232A4603A90090084855
:1027100002F0BCF9002500261DAA2146054801F05B
:1027200077F843E711000020120000201A00002073
:10273000340F0020380100200EB518E002A8002355
:1027400001AA19460090184602F086F8044621783E
:10275000074806F046FB00BF8021054806F076FAE0
:102760000028F9D002AA2146024801F051F8E5E715
:10277000004800403801002008B505E06A46002105
:102780004FF47A7002F0C6FDF8E71FB5684606F010
:1027900007F8019804B010BD10B500F0F9FA00F088
:1027A00099FC06F023FB00F097F90021084600F0A1
:1027B00073F900F0FBF90021084600F07DF906F0FE
:1027C00055FE01200349087006F0AEFE06F0C8F978
:1027D00010BD00001000002000BFFEE710B500F0A3
:1027E000FDF800F003F800F0F3F810BD70B5002616
:1027F00000201849088018490880184908601849BD
:1028000008601849086018490860184908600024E1
:1028100000BFFDF7EDFC064600BF00250BE00020E1
:102820001049086000F074F800F08CF80D4800685A
:102830000444681C85B2002DF1D00C4804600020CF
:10284000084908600849086000BF3046FDF7D4FC1D
:1028500000BF70BD240000202600002028000020BA
:102860002C00002034000020380000203000002020
:1028700001460846044A1268904203D9024A126887
:10288000801A00E0002070473000002070B500255D
:1028900000BFFDF7ADFC054600BF0648046800BF59
:1028A0002846FDF7A9FC00BF2046FFF7E1FF0646DA
:1028B000304670BD3400002070B50025FFF7E6FFFC
:1028C000044600BFFDF794FC054600BF0020044904
:1028D000086000BF2846FDF78FFC00BF204670BD92
:1028E0003400002070B5002500BFFDF781FC0546CF
:1028F00000BF0648046800BF2846FDF77DFC00BF06
:102900002046FFF7B5FF0646304670BD3800002070
:1029100010B509480088401C07490880074800880E
:1029200018B900F085F80649086004480088401C82
:102930000249088010BD000024000020260000206D
:102940002800002010B50F480088401E0D4908805F
:1029500008460088A0B900F06BF80B4908600846EB
:1029600000680A490968441A09480068A04201D26F
:102970000748046007480068A04201D20548046087
:1029800010BD0000260000202C00002028000020A0
:10299000340000203800002010B5002400BF00BF24
:1029A000FDF726FC044600BFFFF7B2FF00BF102171
:1029B000064800F0BBFB00BFFFF7C4FF00BF204686
:1029C000FDF71AFC00BF00BF10BD000036680020F4
:1029D00010B5FFF7E1FF10BD00BFFEE710B5002006
:1029E0000249086000F00AF810BD00002000002035
:1029F00001490860704700002000002010B5FFF773
:102A0000C4FE04460848006840F08070064908602B
:102A10000020064948600846006840F00100086050
:102A20002046FFF7E5FF10BDFCED00E0001000E0E0
:102A30000149486870470000001000E039B1084AB9
:102A40001268012383401A43054B1A6006E0044ACA
:102A50001268012383409A43014B1A6070470000BB
:102A60000074004030B5002200230A4C226840F672
:102A7000FE748440A243D1E900452C438D682C4369
:102A8000CD6844EA050303FA00F42243014C2260B6
:102A900030BD00000074004008B500220092054AD5
:102AA000009200F10802009B1A440092009A116003
:102AB00008BD00000074004008B500220092054ADD
:102AC000009200F11402009B1A440092009A1160D7
:102AD00008BD00000074004000B587B00121084621
:102AE00005F02EFE0121480705F03AFE1020059062
:102AF00003208DF8180002208DF81B0005A90B4853
:102B000000F08AF9002001900290039002200490C6
:102B100001A90020FFF7A6FF01210020FFF78EFF8B
:102B200000210846FFF7B8FF07B000BD00000240D3
:102B300070B52DED048B04462046FDF793FC41EC67
:102B4000180B9FED140B53EC102B51EC180BFDF7E9
:102B50001AFC41EC180B9FED110B53EC102B51ECB0
:102B6000180BFDF79EFB41EC190B9FED0E0B53EC80
:102B7000102BFDF708FC41EC180B51EC180BFDF77E
:102B80007EFC85B229460020FFF786FFBDEC048B52
:102B900070BD00000000000000408F4000000000F9
:102BA0000000B0406666666666660A4000B587B09B
:102BB0000121084605F0C4FD0121480705F0D0FDBC
:102BC0002020059003208DF8180002208DF81B00AE
:102BD00005A90B4800F020F9002001900290039015
:102BE0000220049001A91020FFF73CFF01211020D2
:102BF000FFF724FF00210846FFF75EFF07B000BD86
:102C00000000024070B52DED048B04462046FDF710
:102C100029FC41EC180B9FED140B53EC102B51ECDD
:102C2000180BFDF7B0FB41EC180B9FED110B53ECAB
:102C3000102B51EC180BFDF734FB41EC190B9FEDF9
:102C40000E0B53EC102BFDF79EFB41EC180B51ECD7
:102C5000180BFDF714FC85B229460020FFF72CFF66
:102C6000BDEC048B70BD00000000000000408F40F0
:102C7000000000000000B0406666666666660A40B6
:102C80007047000008B500F065FC012000F02AF84C
:102C900038B16A460021044802F0A2F8012000F091
:102CA0001BF800F06DFC08BDA009002008B500F07D
:102CB00051FC4FF4006000F015F840B16A46002165
:102CC000044802F08DF84FF4006000F005F800F0C1
:102CD00057FC08BD6C0A00200149086070470000DD
:102CE000143C014001460020034A12680A400AB120
:102CF000012000E000207047143C014000212349DE
:102D00008279002A3AD00A46126803689A430B4631
:102D10001A600A1D126803689A430B1D1A60027933
:102D200011440A6803681A430A60184A0832126894
:102D300003689A43154B08331A601A1D126803681A
:102D40009A43124B0C331A604279102A0ED11A1F83
:102D5000126803681A430D4B08331A601A1D126873
:102D600003681A43094B0C331A600DE00749427996
:102D700011440A6803681A430A6005E002791144A5
:102D80000A6803689A430A6070470000003C0140EB
:102D90001FB50121880305F0F3FC0121084605F069
:102DA000CFFC0120029000208DF80C0002208DF84D
:102DB0000F0002A9164800F02FF80121202005F08D
:102DC000BFFC4FF40060029002A9124800F024F802
:102DD0000021084605F05AFD0B21052005F056FD9F
:102DE0000120009000208DF8040008208DF80500D7
:102DF00001208DF806006846FFF780FF4FF4006061
:102E000000906846FFF77AFF00F025FA1FBD00002A
:102E10000000024000140240F0B50A4600210023E1
:102E2000002400BF3DE0012505FA01F3156805EA1D
:102E300003049C4234D105684F000326BE40B543CD
:102E4000056015794E00B540066835430560157973
:102E5000012D02D01579022D16D185684F00032669
:102E6000BE40B543856055794E00B5408668354310
:102E70008560456801268E40B54345604568967972
:102E80008E40B6B235434560C5684F000326BE404C
:102E9000B543C560D5794E00B540C6683543C560B9
:102EA000491C1029BFD3F0BDF0B5002300244D0705
:102EB000ED0E02FA05F3CE1000F1200555F826506C
:102EC0004E07F70E0F26BE40B543CF1000F1200687
:102ED00046F82750CE1000F1200555F8265045EA57
:102EE0000304CE1000F1200545F82640F0BD02464F
:102EF000002013690B400BB1012000E00020704757
:102F0000418370470183704700BFFEE7F0B589B089
:102F100004460D4616461FA2D2E900109268CDE97C
:102F2000070206911E4801781EA006F04DF88DF8A4
:102F30001B408DF81D509DF820009DF81F109DF836
:102F40001E209DF81D30CDE90232CDE904109DF818
:102F50001C009DF81B10CDE900109DF81A309DF85B
:102F600019209DF8181010A006F02EF8304606F033
:102F70005FFB074639460BA006F026F80F48C078DD
:102F800000900E488378427801780DA006F01CF876
:102F900009B0F0BDB13200000000000001000000E7
:102FA0001100002025630000256325632563256348
:102FB0002563256325632563256300001200002037
:102FC000256325632563256300000000F0B585B007
:102FD00005460E4614461F4619A103C9CDE9030153
:102FE0001948017819A005F0EFFF8DF80F508DF802
:102FF00011609DF811009DF810109DF80F20CDE98B
:10300000002102909DF80E309DF80D209DF80C10C7
:103010000FA005F0D9FF1CB1214611A005F0D4FF87
:1030200039460FA005F0D0FF0E48C07800900D483B
:1030300083784278017807A005F0C6FF05B0F0BD9F
:10304000B110000000000000110000202563000006
:103050002563256325632563256325630000000040
:1030600025640000120000201CB5044612480068C8
:1030700001901248017812A005F0A6FF9DF8070004
:103080002044C0B28DF807009DF8070000909DF81D
:1030900006309DF805209DF804100AA005F094FF65
:1030A0000B48C07800900A4883784278017805A0E0
:1030B00005F08AFF1CBD0000349A000811000020B2
:1030C0002563000025632563256325630000000058
:1030D000120000201CB501210C2005F031FB01205D
:1030E00000908DF8040000208DF8060001208DF876
:1030F000070000208DF8050069460948FFF78CFE9F
:103100000820009069460748FFF786FE0120044921
:1031100018310880082003491A3108801CBD0000BE
:1031200000080240000C024000BFFEE730B5054633
:103130000C4622460021284600F062F830BD00000F
:103140003EB500200C4908600C4C02A801214FF448
:1031500040632246CDE9001009490AA000F016F8A4
:10316000BDF8080042F21071884203D000BFFFF79B
:1031700033FC00BF3EBD00003C000020486800203A
:103180004874002048656170000000002DE9F84F88
:1031900005460E4617461C46DDE90A894FF0000A2F
:1031A00000BF00BFFDF724F8824600BFFFF7B0FB69
:1031B00000BF43463A4631462846009400F010F8D6
:1031C00000BFFFF7BFFB00BF5046FDF715F800BF7B
:1031D00000BF42F21070A9F80000BDE8F88F0000AF
:1031E00030B5039C0A60651E15444D608A60034D2E
:1031F0002D68CD600B61014D296030BD3C00002081
:103200002DE9F04105460B4694460027002402E0D4
:103210003F021F43641C042CFAD3604605F00306EA
:10322000294646B1344603E001F8013B401E641CC8
:1032300008B1042CF8D30A4601E080C2001F04281C
:10324000FBD2114602E001F8013B401E0028FAD1F2
:10325000BDE8F081704708B54FF4C06000F08AF80F
:1032600006208DF8000000208DF801008DF8020086
:1032700001208DF80300684600F040F828208DF802
:103280000000684600F03AF808BD08B54FF4E06069
:1032900000F070F825208DF8000000208DF8010066
:1032A00001208DF802008DF80300684600F026F832
:1032B0004FF4E06000F05EF826208DF8000000205A
:1032C0008DF8010001208DF802008DF8030068469A
:1032D00000F014F84FF4E06000F04CF827208DF86F
:1032E000000000208DF8010001208DF802008DF80B
:1032F0000300684600F002F808BD000070B5002128
:1033000000230F22C4781CB3174C246804F4E06433
:10331000C4F5E064C4F30721C1F10404E3B20A4137
:1033200044789C40E1B28478144021430C07210E7C
:103330000E4C05786155047804F01F050124AC405B
:1033400005786D11AD0005F1E025C5F8004109E0F3
:10335000047804F01F050124AC40054D0678761171
:1033600045F8264070BD00000CED00E000E400E0F0
:1033700080E100E002490143024A11607047000009
:103380000000FA050CED00E07047000010B503489E
:10339000006810B101480068804710BD540000204B
:1033A00070B5044600F0C2F800204849087048494A
:1033B0000870484908704849086048490860484909
:1033C00008704849087048490870484908604849E9
:1033D00008604849086048490870484800680A2160
:1033E000B0FBF1F0464908604648006858B14648CD
:1033F000056845B14348066803E0761E0020286052
:103400002D1D002EF9D10020404908604049086078
:1034100040490860404908604049086040490860E8
:10342000404908604049087003F0D8F803F0D6F925
:10343000204602F047F9208800B170BD204602F016
:1034400079FD208800B1F8E7204602F07FFD208852
:1034500000B1F2E7204602F007FF208800B1ECE758
:10346000204603F0EBF8208800B1E6E7204603F0A1
:1034700037FB208800B1E0E7204603F00FFF2088EB
:1034800000B1DAE7204602F0ADFC208800B1D4E7B5
:10349000204602F0B9FA208800B1CEE7204604F0B9
:1034A000CDFF208800B1C8E7204603F0CBFD20887F
:1034B00000B1C2E7204605F025F8208800B1BCE73E
:1034C00002F02AF8FFF760FF00BFB6E768000020AF
:1034D00070000020B8000020280100202C010020EE
:1034E0009E0000209F000020A0000020AC000020D3
:1034F000B0000020B4000020C0000020989A00080E
:10350000BC000020689A0008649A00084800002067
:103510004C000020500000205400002058000020E3
:103520005C00002060000020EE00002006480068DB
:103530000649096800EB81000549086008460068F3
:1035400020F0070008607047649A0008689A000835
:103550003001002008480078012800D07047074853
:103560000078FA2800DBF9E704480078401C03499A
:10357000087000BFF2E70000700000206800002023
:1035800010B500242D480078012800D010BD00BFE0
:10359000FCF72EFE044600BF2948007828B900BF7A
:1035A0002046FCF729FE00BFF0E725480078401EC2
:1035B0002349087008460078002805DD00BF204632
:1035C000FCF71AFE00BFE1E71E480078002805DD81
:1035D00000BF2046FCF710FE00BFD7E702F0EAFF6D
:1035E000194908700846007800EB4000174951F867
:1035F0002000174908600846006816490968884293
:1036000005D100BF2046FCF7F7FD00BFBEE710481C
:103610000068D0F89400401C0D490968C1F8940076
:103620000D480068401C0C490860FDF74EF800BFCB
:103630002046FCF7E1FD00BF00BFA7E770000020B7
:1036400068000020B80000209F0000205086002065
:103650002C01002028010020E40000202DE9FF4F6C
:1036600083B0044615461F46DDE910960020009001
:103670002DB945F2BB60308007B0BDE8F08F022F56
:1036800003DA45F2BC603080F6E7B9F1040F03D2EB
:1036900045F2C1603080EFE74FF0030ABAF1000F46
:1036A0000DD005EA0A0018B145F2BB603080E3E7AF
:1036B00009EA0A0018B145F2C1603080DCE7AB4688
:1036C000A846781E80B201900020029007E0C8440E
:1036D000CBF80080C3460298401C80B20290DDE91E
:1036E00001108842F3DB0020CBF8000000BF00BFD0
:1036F00000BFFCF77DFD009000BFFFF709F900BF98
:1037000024480078401C23490870084600780128A6
:1037100001D103F043F900BFFFF714F900BF00988F
:10372000FCF76AFD00BF00BF00BF1B482060049883
:10373000A0606560E560A7826782A4F810902046CB
:1037400002F0E4FB15480088401C1449088000BFC3
:1037500000BF00BFFCF74CFD009000BFFFF7D8F89A
:1037600000BF0C480078401E0A49087008460078DF
:1037700008B903F021F900BFFFF7E4F800BF009893
:10378000FCF73AFD00BF00BF00BF0020308000BF43
:1037900072E70000B80000204D454D209400002045
:1037A0002DE9F04104460D4600272CB945F2BF60D3
:1037B00028800020BDE8F08100BF00BFFCF718FDA5
:1037C000074600BFFFF7A4F800BFA08A68B900BF92
:1037D000FFF7B8F800BF3846FCF70EFD00BF00BF8A
:1037E00045F2C26028800020E4E7E6683068E060C7
:1037F000A08A401EA08200BFFFF7A4F800BF384691
:10380000FCF7FAFC00BF00BF002028803046D1E75B
:103810002DE9F04104460E461546002724B945F22D
:10382000BF602880BDE8F0811EB945F2BE602880E7
:10383000F8E700BF00BFFCF7DBFC074600BFFFF75F
:1038400067F800BFA08A618A88420CDB00BFFFF7DF
:1038500079F800BF3846FCF7CFFC00BF00BF45F247
:10386000BA602880DEE7E0683060E660A08A401C2D
:10387000A08200BFFFF766F800BF3846FCF7BCFC2B
:1038800000BF00BF0020288000BFCBE72DE9F0413A
:1038900004460E461546002724B945F6C350288035
:1038A000BDE8F08100BF00BF00BFFCF7A1FC0746E8
:1038B00000BFFFF72DF800BF25480078401C2449C1
:1038C000087008460078012801D103F067F800BFAE
:1038D000FFF738F800BF3846FCF78EFC00BF00BF8A
:1038E00000BF1C482060666000202062606284F88F
:1038F0002800E06204F1080002F067FD204602F0B3
:1039000043FC15480088401C1349088000BF00BFD5
:1039100000BFFCF76DFC074600BFFEF7F9FF00BFD4
:103920000B480078401E0A4908700846007808B91C
:1039300003F042F800BFFFF705F800BF3846FCF778
:103940005BFC00BF00BF00BF0020288000BFA7E7CE
:10395000B80000204D5554589C0000202DE9F04738
:1039600088B00546894617461C46109E4FF0000A4F
:103970002DB945F6C350308008B0BDE8F0871FB1BF
:10398000B7F5004F02D100E000BF03E045F6256027
:103990003080F1E700BF7F492868884203D045F6B0
:1039A000C4503080E8E70CB10020206000BF00BFA9
:1039B000FCF71EFC824600BFFEF7AAFF00BF95F889
:1039C0002800C8B9744800686862012085F828009A
:1039D0000CB1E86A206029466F48006802F0ECFBF1
:1039E00000BFFEF7AFFF00BF5046FCF705FC00BF6D
:1039F00000BF00203080BFE76749686A09688842D5
:103A000014D195F82800401C85F828000CB1E86A0C
:103A1000206000BFFEF796FF00BF5046FCF7ECFBAE
:103A200000BF00BF45F282703080A5E707F4004078
:103A300060B100BFFEF786FF00BF5046FCF7DCFB1D
:103A400000BF00BF46F2B010308095E753480078C1
:103A500000280CDD00BFFEF775FF00BF5046FCF7E5
:103A6000CBFB00BF00BF46F66350308084E700BF49
:103A70004A480078401C49490870084600780128E7
:103A800001D102F08BFF00BFFEF75CFF00BF504684
:103A9000FCF7B2FB00BF00BF00BFD5F8248098F848
:103AA00037003D49096891F83710884206DD3A48E9
:103AB000006890F83710404603F040FB4B46042264
:103AC0002946684602F0DCFB00BF00BF00BFFCF7E0
:103AD0008FFB824600BFFEF71BFF00BF2F48007818
:103AE000401E2E4908700846007808B902F064FFAD
:103AF00000BFFEF727FF00BF5046FCF77DFB00BF6D
:103B000000BF00BF00F0A8F900BF00BFFCF770FBCA
:103B1000824600BFFEF7FCFE00BF1F48006890F819
:103B2000350030B101280CD002281AD0032821D149
:103B300010E01CB118480068806C206000203080C4
:103B40001CE01CB114480068806C206046F2A9108B
:103B5000308013E00CB10020206047F2D920308083
:103B60000CE01CB10C480068806C206045F6C25027
:103B7000308003E046F62E60308000BF00BF00BFFB
:103B8000FEF7E0FE00BF5046FCF736FB00BF00BF6B
:103B900000BFF1E64D55545828010020B800002020
:103BA0002DE9F84F0446894615464FF0000B24B91D
:103BB00045F6C3502880BDE8F88FB9F1000F03D057
:103BC000B9F5004F02D100E000BF03E045F62560E3
:103BD0002880F0E700BF9B492068884203D045F663
:103BE000C4502880E7E700BF00BFFCF701FB834615
:103BF00000BFFEF78DFE00BF9349606A09688842E6
:103C00000CD000BFFEF79EFE00BF5846FCF7F4FA4A
:103C100000BF00BF45F281702880CCE700BF8B4811
:103C20000078401C8949087008460078012801D1B5
:103C300002F0B4FE00BFFEF785FE00BF5846FCF759
:103C4000DBFA00BF00BF00BFFEF7F2FE804628345B
:103C5000C4F804802078401E207014F82809002839
:103C60003ADD00BF00BF00BFFCF7C2FA834600BFC9
:103C7000FEF74EFE00BF75480078401E734908707D
:103C800008460078D0B902F097FE714800880028F5
:103C90000BDD00BFFEF756FE00BF5846FCF7ACFA3E
:103CA00000BF00BF02F050FE11E000BFFEF74AFE69
:103CB00000BF5846FCF7A0FA00BF08E000BFFEF7BF
:103CC00041FE00BF5846FCF797FA00BF00BF00BF97
:103CD00045F2837028806EE721465B48006802F059
:103CE000B5FA04F1080ABAF8080080BB0020606247
:103CF00084F8280000BF00BF00BFFCF779FA8346B4
:103D000000BFFEF705FE00BF50480078401E4F4937
:103D1000087008460078D8B902F04EFE4C4800887A
:103D200000280BDD00BFFEF70DFE00BF5846FCF774
:103D300063FA00BF00BF02F007FE12E000BFFEF70B
:103D400001FE00BF5846FCF757FA00BF09E00CE03F
:103D500000BFFEF7F7FD00BF5846FCF74DFA00BF65
:103D600000BF00BF0020288025E73748006890F892
:103D700037003549096891F83810884228D0324810
:103D8000006802F04DFA06462F48006890F8381097
:103D9000B14204DA2C48006890F8380000E0304660
:103DA00006462948006890F83700B04210DA2648E5
:103DB000006802F09BFD2448006880F837603046B8
:103DC00002F018FC2048006802F050FD21480670FF
:103DD000DAF8000087686762012084F8280021462D
:103DE000384602F0E9F900231A4639462046CDF854
:103DF000008002F05DFB00BF00BF00BFFCF7F8F9D8
:103E0000834600BFFEF784FD00BF10480078401EC7
:103E10000E4908700846007808B902F0CDFD00BFD1
:103E2000FEF790FD00BF5846FCF7E6F900BF00BF63
:103E300000BF09F4004008B900F00EF80020288007
:103E400000BFB8E64D55545828010020B8000020A6
:103E50007C0000209E00002010B50024204800783F
:103E6000002800DD10BD1F480078002800DDF9E7BC
:103E700000BFFCF7BDF9044600BF02F09BFB1A49E6
:103E800008700846007800EB4000184951F82000FF
:103E9000174908600846006816490968884205D134
:103EA00000BF2046FCF7A8F900BFDBE71048006818
:103EB000D0F89400401C0E490968C1F894000E48DF
:103EC0000068401C0C490860FCF7FAFB00BF204664
:103ED000FCF792F900BFBFF36F8F00BFC2E700008D
:103EE00068000020B80000209F00002050860020BD
:103EF0002C01002028010020E400002070B50446B9
:103F0000002516480078012803D045F689602080F6
:103F100070BD13480078FA2803DB45F209202080A1
:103F2000F6E700BF00BFFCF763F9054600BFFEF7E8
:103F3000EFFC00BF0A480078401C0949087002F0F5
:103F40002DFD00BFFEF7FEFC00BF2846FCF754F92C
:103F500000BF00BF0020208000BFD9E77000002014
:103F6000B80000202DE9F04105460C461646002712
:103F700000BF00BFFCF73CF9074600BFFEF7C8FCD6
:103F800000BF012D03D000200E49087002E001207F
:103F90000C49087014B10C48046006E00B48006836
:103FA0000A21B0FBF1F00849086000BFFEF7CAFC27
:103FB00000BF3846FCF720F900BF00BF002030806A
:103FC000BDE8F081C0000020BC000020989A0008E5
:103FD00070B5044600251F480078012803D045F637
:103FE0008960208070BD1C48007818B946F664507E
:103FF0002080F7E700BF00BFFCF7FAF8054600BFD6
:10400000FEF786FC00BF14480078401E1249087075
:104010000846007800280CDD00BFFEF793FC00BFC7
:104020002846FCF7E9F800BF00BF46F66350208041
:10403000D8E702F0C1FC00BFFEF784FC00BF2846B1
:10404000FCF7DAF800BF00BFFFF706FF0020208072
:1040500000BFC7E770000020B800002010B504467C
:1040600012480078E8B902F0A5FA1149087008462C
:104070000078104908700E48007800EB40000E49A7
:1040800051F820000D490860084600680C49086096
:10409000012006490870FCF7DBFA43F699202080DE
:1040A00002E045F68A60208010BD0000700000200C
:1040B0009F0000209E000020508600202C01002040
:1040C000280100202DE9F04107464FF0000800BF0D
:1040D00000BFFCF78DF8804600BFFEF719FC00BF5B
:1040E00000204749086047490880474908804749F8
:1040F00008604749086047490860474908604749E0
:1041000008604749088100BFFEF71CFC00BF40461D
:10411000FCF772F800BF00BF00BF00BFFCF768F8F3
:10412000804600BFFEF7F4FB00BF3E48046800BFB6
:10413000FEF708FC00BF4046FCF75EF800BF00BF7A
:1041400026E000BF00BFFCF753F8804600BFFEF733
:10415000DFFB00BF00207C34E0632064206020632C
:10416000A061A082E0826062A062FEF761FC206232
:104170007C3C04F168060020B081D4F8C44000BF44
:10418000FEF7E0FB00BF4046FCF736F800BF00BF7B
:10419000002CD6D100BF00BFFCF72AF8804600BF34
:1041A000FEF7B6FB00BF2048056800BFFEF7CAFB5C
:1041B00000BF4046FCF720F800BF00BF16E000BF7C
:1041C00000BFFCF715F8804600BFFEF7A1FB00BF5B
:1041D00005F120060020B081AD6900BFFEF7B2FBFB
:1041E00000BF4046FCF708F800BF00BF002DE6D135
:1041F00003F036FF04F02CFA00203880BDE8F0818F
:10420000840000207E000020CE000020E00000207E
:10421000F4000020180100206C000020B0000020F5
:1042200044860020E8000020A4000020F8B50446E1
:1042300000266946364800F0D3FFBDF8000018B1EB
:10424000BDF800002080F8BD6A460021022001F080
:1042500061F8BDF8000018B1BDF800002080F2E759
:1042600000BF00BFFBF7C4FF064600BFFEF750FBD0
:1042700000BF00202749086000BFFEF763FB00BFB6
:104280003046FBF7B9FF00BF00BF00252248006899
:1042900022490968884205D91F4800681F490968F2
:1042A000B0FBF1F525B91C4800680A21B0FBF1F517
:1042B0006A460021284601F02DF86946144800F0AE
:1042C00023FCBDF8000018B1BDF800002080BAE75B
:1042D00000BF00BFFBF78CFF064600BFFEF718FBD0
:1042E00000BF00200E4908600A4800680D490860B8
:1042F00001200D49087000BFFEF724FB00BF3046C7
:10430000FBF77AFF00BF00BF0020208000BF9AE7C4
:10431000188B0020D0000020989A0008809A00088E
:10432000E0000020D4000020DC00002010B503488D
:10433000006810B101480068804710BD5800002097
:104340002DE9FF4F87B004469146DDE91BA5DDF856
:104350005C80DDE91467002003902CB947F2AD10B2
:1043600028800BB0BDE8F08FB9F1000F03D147F200
:104370004F102880F5E71FB946F62F602880F0E738
:1043800087480068804503D246F630602880E8E719
:104390001698404503D346F631602880E1E7402E69
:1043A00003D346F273202880DBE736B97D48844288
:1043B00003D046F273202880D3E73F2E06D17A48F7
:1043C000844203D046F273202880CAE7204602F0D8
:1043D00075FF002028800AF0010090B10AF0020069
:1043E00078B105970020069008E00021059801604B
:1043F0000598001D05900698401C069006984045BB
:10440000F3D3169807EB80000490CDE9008A3A4672
:104410004846049B0A9900F081FD0590C4F8289055
:104420000A98E0620898206284F8376084F838605F
:10443000059820600498A0601998A065199818B98B
:104440005A480068E06501E01998E0651A986060D4
:104450006762C4F84080A4F844A04FF0000B08E065
:10446000002104F1800040F82B100BF1010000F056
:10447000FF0BBBF1000FF3D004F16800189901F0B5
:10448000F9FD204600F09CF800BF00BF00BFFBF71D
:10449000AFFE039000BFFEF73BFA00BF4448007830
:1044A000401C4349087008460078012801D102F0F9
:1044B00075FA00BFFEF746FA00BF0398FBF79CFEB3
:1044C00000BF00BF00BF94F8370002F093F8204609
:1044D00002F0CCF9204602F0A7FE36480088401CC6
:1044E0003449088034480078012837D000BF00BF25
:1044F00000BFFBF77DFE039000BFFEF709FA00BF87
:104500002B480078401E2A49087008460078D0B928
:1045100002F052FA2948008800280BDD00BFFEF7A0
:1045200011FA00BF0398FBF767FE00BF00BF02F05F
:104530000BFA11E000BFFEF705FA00BF0398FBF786
:104540005BFE00BF08E000BFFEF7FCF900BF039868
:10455000FBF752FE00BF00BF00BF02E700BF00BF75
:1045600000BFFBF745FE039000BFFEF7D1F900BF87
:104570000F480078401E0E4908700846007808B9B8
:1045800002F01AFA00BFFEF7DDF900BF0398FBF74F
:1045900033FE00BF00BF00BFFFF75EFC00BFE0E6D8
:1045A000949A000878850020AC840020BC0000208C
:1045B000B8000020EC000020700000207C000020EB
:1045C00010B504460348006818B12046014909683F
:1045D000884710BD480000202DE9F04104460E46F2
:1045E0004FF000089048844204D147F24C103080CC
:1045F000BDE8F0818D48844203D147F24D103080F0
:10460000F6E79CB900BF00BFFBF7F2FD804600BF94
:10461000FEF77EF900BF8648046800BFFEF792F9F6
:1046200000BF4046FBF7E8FD00BF00BF00BF00BF72
:1046300000BFFBF7DDFD804600BFFEF769F900BF54
:104640007C480078401C7B490870084600780128A7
:1046500001D102F0A3F900BFFEF774F900BF404694
:10466000FBF7CAFD00BF00BF00BF94F83600082862
:1046700060D2DFE800F004090E10080A0F1120468E
:1046800002F034F991E090E000BF204603F0BCFC5A
:104690008BE000BF00BF00BF94F8340008283BD275
:1046A000DFE800F0040705080E090A0600BF00BF96
:1046B00033E000BF00BF00BF204601F0BEFE2CE08B
:1046C000206BC068456A15F8377F204601F0B5FEBB
:1046D00028786978373D884212D095F8370094F8E9
:1046E000371088420CD1284601F09AFD074695F80C
:1046F0003800B84202DA95F8380000E0384607463C
:10470000002084F8340095F83700B84203D03946C9
:10471000284602F013FD00E000BF00BF94F8360009
:10472000032803D094F83600072802D1204603F06E
:104730006BFC3AE000BF00BF00BFFBF759FD8046AD
:1047400000BFFEF7E5F800BF3A480078401E39493F
:10475000087008460078D0B902F02EF93648008873
:1047600000280BDD00BFFEF7EDF800BF4046FBF769
:1047700043FD00BF00BF02F0E7F811E000BFFEF705
:10478000E1F800BF4046FBF737FD00BF08E000BF7F
:10479000FEF7D8F800BF4046FBF72EFD00BF00BF74
:1047A00000BF46F62D60308022E700BFE06B10B1FD
:1047B000204601F005FD04F1680001F005FC2046EB
:1047C00000F03EF8204602F047FD1C480088401EDD
:1047D0001A490880204602F071FDFF2084F8360057
:1047E00000BF00BF00BFFBF703FD804600BFFEF720
:1047F0008FF800BF0F480078401E0E490870084629
:10480000007808B902F0D8F800BFFEF79BF800BFA7
:104810004046FBF7F1FC00BF00BF00BF0020308026
:10482000FFF71AFB00BFE3E6AC8400207885002088
:1048300028010020B80000207C000020EC000020AF
:1048400010B504460348006818B1204601490968BC
:10485000884710BD4C0000202DE9F05F80460F46D0
:1048600016461C460A9D4FF0000B2EB946F2D52085
:1048700028800020BDE8F09F1FB1B7F5004F02D19E
:1048800000E000BF04E045F6256028800020F1E745
:1048900000BF0CB10020206000BF00BFFBF7A8FCE8
:1048A000834600BFFEF734F800BF7648006800F189
:1048B00068092B4622463146484601F0A7FB82464E
:1048C000288800BBA4B1FEF7B3F82168401A6D49EF
:1048D000096888676B480068C06F6A490968896F12
:1048E000884205D267480068806F66490968C867D2
:1048F00000BFFEF727F800BF5846FBF77DFC00BF5E
:1049000000BF5046B6E707F4004068B146F2B01069
:10491000288000BFFEF716F800BF5846FBF76CFC76
:1049200000BF00BF0020A5E75748007800280DDD34
:1049300000BFFEF707F800BF5846FBF75DFC00BF5D
:1049400000BF46F663502880002093E700BF4E4822
:104950000078401C4C49087008460078012801D1B5
:1049600002F01CF800BFFDF7EDFF00BF5846FBF753
:1049700043FC00BF00BF00BF43460222002108469F
:1049800001F07EFC00BF00BF00BFFBF731FC834697
:1049900000BFFDF7BDFF00BF3B480078401E3A490D
:1049A00008700846007808B902F006F800BFFDF765
:1049B000C9FF00BF5846FBF71FFC00BF00BF00BF88
:1049C000FFF74AFA00BF00BFFBF712FC834600BFA7
:1049D000FDF79EFF00BF2B48006890F8350020B11E
:1049E00001282AD0032832D132E026480068D0F8C6
:1049F00060A024480068B0F864003080D4B1214839
:104A00000068806C2060FEF713F81E490968896C05
:104A1000401A1C49096888671A480068C06F19491C
:104A20000968896F884205D216480068806F154969
:104A30000968C8670020288017E04FF0000A0020AE
:104A4000308004B1206046F2A91028800DE000BF3C
:104A50004FF0000A002030801CB10A480068806CCA
:104A6000206047F2D920288000BF00BF00BFFDF7BB
:104A700069FF00BF5846FBF7BFFB00BF00BF5046B1
:104A8000F8E6000028010020B80000202DE9FF47CB
:104A90000746884691461D460C9E4DB1102D08D004
:104AA000B5F5004F06D0A5F50040103820B902E05A
:104AB00000BF00BF00BF04E045F625603080BDE8C0
:104AC000FF8700BFFDF7B4FF04460D4800780028BB
:104AD0000BDD00204B4642463946CDE90246CDE982
:104AE0000005084800F0C8FFE9E72B464A46414662
:104AF0003846CDE9004602F049FC00BFDFE7000080
:104B000068000020544D53477FB504460D460026EB
:104B100000BF00BFFBF76CFB064600BFFDF7F8FEC9
:104B200000BF1CB11748006884420CD100BFFDF7DC
:104B300009FF00BF3046FBF75FFB00BF00BF47F235
:104B4000571028807FBD00BFFDF7FCFE00BF304638
:104B5000FBF752FB00BF00BF0B48007800280BDDBD
:104B6000002000900190034602462146CDE902054F
:104B7000064800F081FFE5E72946204602F03CFDAB
:104B800000BFDFE728010020680000205452455391
:104B900010B504460348006818B120460149096869
:104BA000884710BD500000202DE9F04780460E4692
:104BB00014461D464FF000091EB1B6F5004F02D154
:104BC00000E000BF05E045F6256028800020BDE834
:104BD000F08700BF0CB10020206000BF00BFFBF7D2
:104BE00007FB814600BFFDF793FE00BF7A480068CF
:104BF000C06CB8B378480068C06C401E764909683C
:104C0000C86475480068C76C1CB173480068806C44
:104C10002060FDF70DFF70490968896C401A6E49E4
:104C20000968C1F8A8006C480068D0F8AC006A496F
:104C30000968D1F8A810884207D267480068D0F800
:104C4000A80065490968C1F8AC0000BFFDF77AFE0D
:104C500000BF4846FBF7D0FA00BF00BF0020288005
:104C60003846B4E7FFE706F4004068B100BFFDF73F
:104C700069FE00BF4846FBF7BFFA00BF00BF46F21F
:104C8000B01028800020A2E75448007800280DDDED
:104C900000BFFDF757FE00BF4846FBF7ADFA00BF67
:104CA00000BF46F663502880002090E700BF4B48C5
:104CB0000078401C4949087008460078012801D155
:104CC00001F06CFE00BFFDF73DFE00BF4846FBF75C
:104CD00093FA00BF00BF00BF4346072200210846E9
:104CE00001F0CEFA00BF00BF00BFFBF781FA81469A
:104CF00000BFFDF70DFE00BF38480078401E374961
:104D000008700846007808B901F056FE00BFFDF7AC
:104D100019FE00BF4846FBF76FFA00BF00BF00BF97
:104D2000FFF79AF800BF00BFFBF762FA814600BFA9
:104D3000FDF7EEFD00BF2848006890F8350020B16F
:104D4000012826D0032834D12CE0FCB12248006889
:104D5000806C2060FDF76CFE1F490968896C401A61
:104D60001D490968C1F8A8001B480068D0F8AC00CC
:104D700019490968D1F8A810884207D21648006876
:104D8000D0F8A80014490968C1F8AC0000202880B8
:104D900013E01CB110480068806C206046F2A91036
:104DA00028800AE00CB10020206047F2D92028803A
:104DB00003E046F62E60288000BF00BF064800686A
:104DC000C76C00BFFDF7BEFD00BF4846FBF714FAF5
:104DD00000BF00BF3846FAE628010020B8000020D6
:104DE0002DE9FF4106460F4614461FB1B7F5004FA7
:104DF00002D100E000BF06E045F6256020800020DB
:104E000004B0BDE8F08100BFFDF712FE05460D4875
:104E1000007800280CDD0020009003460246314651
:104E2000CDE902540190084800F026FE0020E7E793
:104E300023462A463946304602F0A8FC80464046C2
:104E4000DEE7000068000020545349472DE9F04791
:104E500004460E4617461D464FF0000A26B946F294
:104E6000D5202880BDE8F0871FB946F2D5202880DC
:104E7000F8E700BF00BFFBF7BBF9824600BFFDF7B4
:104E800047FD00BF0CB924480468206878B900BF0A
:104E9000FDF758FD00BF5046FBF7AEF900BF00BF5D
:104EA00000203060386047F252102880DAE794F82A
:104EB000440000F0010078B900BFFDF743FD00BFDA
:104EC0005046FBF799F900BF00BF00203060386002
:104ED00047F254102880C5E700BFFDF733FD00BF3F
:104EE0005046FBF789F900BF00BF4FF00008D4F827
:104EF000249003E009F1040908F10108D9F8000041
:104F00000028F7D0C6F80080206CA0EB08003860BD
:104F10000020288000BFA5E728010020F0B5044646
:104F2000DDE9055602EB850020F007004FF0807C9C
:104F3000071F3846C7F800C0071F38463C60DFF837
:104F400034C2071F3846C7F800C04FF0123C071F95
:104F50003846C7F800C04FF0033C071F3846C7F873
:104F600000C04FF0023C071F3846C7F800C0071FBB
:104F700038463B60071F384639604FF0113C071F29
:104F80003846C7F800C04FF0103C071F3846C7F836
:104F900000C04FF0093C071F3846C7F800C04FF06B
:104FA000083C071F3846C7F800C04FF0073C071FF2
:104FB0003846C7F800C04FF0063C071F3846C7F810
:104FC00000C04FF0053C071F3846C7F800C04FF03F
:104FD000043C071F3846C7F800C006F00407002F3E
:104FE0007ED04FF0007C071F3846C7F800C0DFF8BE
:104FF00088C1071F3846C7F800C0DFF880C1071F07
:105000003846C7F800C0DFF878C1071F3846C7F830
:1050100000C0DFF870C1071F3846C7F800C0DFF8CE
:1050200068C1071F3846C7F800C0DFF860C1071F16
:105030003846C7F800C0DFF858C1071F3846C7F820
:1050400000C0DFF850C1071F3846C7F800C0DFF8BE
:1050500048C1071F3846C7F800C0DFF840C1071F26
:105060003846C7F800C0DFF838C1071F3846C7F810
:1050700000C0DFF830C1071F3846C7F800C0DFF8AE
:1050800028C1071F3846C7F800C0DFF820C1071F36
:105090003846C7F800C0DFF818C1071F3846C7F800
:1050A00000C04FF0834C071F3846C7F800C0DFF838
:1050B00004C1071F3846C7F800C0DFF8FCC0071F4F
:1050C0003846C7F800C0DFF8F4C0071F3846C7F8F5
:1050D00000C0DFF8ECC0071F3846C7F800C000E08A
:1050E00047E0DFF8E0C0071F3846C7F800C0DFF828
:1050F000D8C0071F3846C7F800C0DFF8D0C0071F68
:105100003846C7F800C04FF0824C071F3846C7F832
:1051100000C0DFF8BCC0071F3846C7F800C0DFF882
:10512000B4C0071F3846C7F800C0DFF8ACC0071F7F
:105130003846C7F800C04FF0814C071F3846C7F803
:1051400000C0DFF898C0071F3846C7F800C04FF00E
:10515000804C071F3846C7F800C04FF07E5C071F21
:105160003846C7F800C04FF0000C071F3846C7F894
:1051700000C0F0BD757700080000F8410000F04164
:105180000000E8410000E0410000D8410000D041AB
:105190000000C8410000C0410000B8410000B0411B
:1051A0000000A8410000A04100009841000090418B
:1051B0000000884100007041000060410000504143
:1051C000000040410000304100002041000010413B
:1051D0000000E0400000C0400000A040000040404F
:1051E0007FB505460C461248854203D147F25B1055
:1051F00020807FBD0F48854203D147F25C1020809C
:10520000F7E70D48007800280BDD002000900190A2
:10521000034602462946CDE90204084800F02CFC6A
:10522000E7E72146284602F085FD00BFE1E70000E0
:10523000AC8400207885002068000020545355532A
:1052400070B53048006890F8440000F0040020B1C8
:105250002C4909680868FBF7E5F92B48006890F8C5
:10526000440000F0040020B1274909680868FBF7F2
:10527000E6F92648006810B1244800688047FDF729
:10528000D7FB04461F4800681F490968884215D0AB
:105290001C480068D0F89C00201A1A490968C1F817
:1052A000980018480068D0F8A00016490968D1F89D
:1052B0009810084413490968C1F8A0001248006812
:1052C000C0F89C40FDF7F8FA05460E480068D0F893
:1052D000B800A84203D20B480068C0F8B85009488B
:1052E0000068D0F8BC000A490968884205D208481D
:1052F000006804490968C1F8BC000020044908603E
:1053000070BD0000280100202C0100205C0000205E
:10531000B40000202DE9F04105460E461446002752
:1053200046480078002804DD46F663502080BDE83A
:10533000F08136B1022E05D0042E0AD0082E09D1F4
:1053400001E000BF00BF1DB947F27E202080EEE7DC
:1053500004E003E045F625602080E8E700BF00BFD9
:1053600000BF00BFFAF744FF074600BFFDF7D0FAC1
:1053700000BF32480078401C304908700846007869
:10538000012801D101F00AFB00BFFDF7DBFA00BFE5
:105390003846FAF731FF00BF00BF00BF2346324650
:1053A00029462748006802F0D1FD2088F0B100BFEF
:1053B00000BF00BFFAF71CFF074600BFFDF7A8FAC1
:1053C00000BF1E480078401E1C490870084600783F
:1053D00008B901F0F1FA00BFFDF7B4FA00BF384692
:1053E000FAF70AFF00BF00BF00BFA0E7144800683B
:1053F00001F07CFA00BF00BF00BFFAF7F9FE0746D4
:1054000000BFFDF785FA00BF0C480078401E0B492D
:1054100008700846007808B901F0CEFA00BFFDF721
:1054200091FA00BF3846FAF7E7FE00BF00BF00BFA1
:10543000FEF712FD0020208000BF78E7B8000020B2
:105440002801002010B586B000F01EF8FDF7F0FA34
:10545000044605A800210091CDE9011403900748F6
:10546000007800EB4000064A02EB800100231A4658
:10547000044800F001FB06B010BD00009E000020B3
:10548000508600205449434B10B50348006810B1C2
:1054900001480068804710BD6000002001460020E0
:1054A000088047F2C460704710B5002400BF00BFF9
:1054B000FAF79EFE044600BFFDF72AFA00BF09482E
:1054C0000078401C0749087000BFFDF73BFA00BF99
:1054D0002046FAF791FE00BF00BFFFF7B3FFFEF7CB
:1054E0004FF810BD6800002001464A1E4FF0E0232F
:1054F0005A61084A106820F07F4000BF10601A46C9
:10550000126942F005021A611A46126942F002025B
:105510001A61704720ED00E0244A2549254A264AB1
:105520002649274A2748284A284A294A294A2A48F0
:105530002A482B482B4A2C482C4A2D482D4A2E48C5
:105540002E482F482F48304A304A314A3148324A93
:10555000324A334833483448344835483548364869
:10556000364A374A374A384A3848394839483A4A31
:105570003A4A3B4A3B483C483C483D493D483E4A04
:105580003E4A3F4A3F4A404A404A414A4148424ACD
:10559000424A43484348444A444A4548454A464AA1
:1055A0004648474800BF00BF00BF7047CC9A00087C
:1055B000349C0008CD9A0008CE9A0008D09A0008C2
:1055C000D49A0008D89A0008D59A0008009B0008D1
:1055D000019B0008029B0008049B0008069B000832
:1055E000089B00080A9B00080C9B00082C9B0008E5
:1055F0002E9B0008309B0008329B0008349B00085B
:10560000369B0008389B0008689B0008699B0008CF
:105610006A9B00086C9B00086E9B00086F9B00084B
:10562000709B0008729B0008749B0008769B000822
:10563000789B00087A9B00087C9B0008AC9B0008C4
:10564000AD9B0008AE9B0008AF9B0008B09B000814
:10565000B29B0008B49B0008DC9B0008DD9B00089F
:10566000DE9B0008DF9B0008E09B0008E29B00082F
:10567000E49B0008E89B0008E99B0008EA9B0008FF
:10568000EB9B0008EC9B0008ED9B0008EE9B0008DC
:10569000EF9B0008F09B0008F29B0008F39B0008BA
:1056A000F49B0008F69B0008F89B0008F99B000893
:1056B000FC9B00082C9C00082D9C00082E9C0008D8
:1056C000309C00080021034A1160034A11800180C8
:1056D00070470000880000208C0000202DE9F04F6A
:1056E00085B00446894692469B46DDF83880002006
:1056F000009000BF00BFFAF77BFD009000BFFDF7F0
:1057000007F900BFBAF1000F0AD0BAF1010F0DD0AE
:10571000BAF5004F05D06FF40040504460B906E080
:1057200000BF206A40EA0900206216E000BF206A3C
:1057300020EA0900206210E000BFFDF703F900BF76
:105740000098FAF759FD00BF00BF45F62560A8F89C
:105750000000002005B0BDE8F08F00BFC4F824B001
:1057600004F1080001900198008968B900BFFDF7B5
:10577000E9F800BF0098FAF73FFD00BF00BF002026
:10578000A8F80000206AE5E700BF71480078401CD7
:105790006F49087008460078012801D101F0FEF831
:1057A00000BFFDF7CFF800BF0098FAF725FD00BF56
:1057B00000BF00BF01980768BD6889E07868029063
:1057C00095F88C0000F00F0003900398012821D079
:1057D00002282ED0042802D0082836D10EE0206AF4
:1057E000D5F8841000EA0106D5F88400B04204D14F
:1057F0005A463146284600F0AFF863E0206AD5F8F3
:10580000841000EA010626B15A463146284600F0C7
:10581000A3F857E0D5F88400216A20EA0106D5F8FC
:105820008400B04204D15A463146284600F094F82C
:1058300048E0D5F88400216A20EA010626B15A46DC
:105840003146284600F088F83CE000BF00BF00BFAA
:10585000FAF7CEFC009000BFFDF75AF800BF3C48B5
:105860000078401E3A49087008460078D0B901F027
:10587000A3F83848008800280BDD00BFFDF762F868
:1058800000BF0098FAF7B8FC00BF00BF01F05CF859
:1058900011E000BFFDF756F800BF0098FAF7ACFC26
:1058A00000BF08E000BFFDF74DF800BF0098FAF711
:1058B000A3FC00BF00BF00BF43F6FF20A8F8000014
:1058C000002047E700BF029F0FB1BD6800E0002540
:1058D000002D7FF473AF00BF00BF00BFFAF788FC54
:1058E000009000BFFDF714F800BF19480078401E73
:1058F000174908700846007808B901F05DF800BF44
:10590000FDF720F800BF0098FAF776FC00BF00BF53
:1059100000BF0AF4004008B9FEF79EFA00BF00BFBE
:10592000FAF766FC009000BFFCF7F2FF00BF206AA8
:10593000049000BFFDF706F800BF0098FAF75CFC82
:1059400000BF00BF0020A8F80000049802E7000094
:10595000B80000207C00002070B504460E461546B5
:10596000343466650020607020706561A078343C36
:1059700008281DD2DFE800F00405080907061718FB
:1059800000BF00BF00BF14E000BF94F8360003283A
:1059900002D1204602F038FB204600F031FF002003
:1059A00084F8360005E000BF042084F8360000E0EB
:1059B00000BF00BF204600F040FD70BD00241DE088
:1059C00000BF00BFFAF714FC044600BFFCF7A0FFBD
:1059D00000BF0B480068401C09490860094800687E
:1059E000401C0849086000BFFCF7ACFF00BF204620
:1059F000FAF702FC00BF00BFFDF7C8FCE0E70000BB
:105A000064000020D000002010B58AB004460020B9
:105A10000E4908600B2000210591CDE9070406918D
:105A200008460B4909680B4A12680B4B1B68CDE905
:105A30000132CDE903103F200023084A08A100905D
:105A40000C48FEF77DFC0AB010BD00006400002089
:105A5000409A00083C9A0008389A0008BD5900088E
:105A600075432F4F532D4949492049646C65205493
:105A700061736B00AC8400202DE9F84F04460D469D
:105A800016461F46DDE90BABDDF82890DDF83480C3
:105A90000020009000BF00BFFAF7AAFB009000BFF3
:105AA000FCF736FF00BF2C4800882C490988884243
:105AB0003EDA29480088401C274908802848008889
:105AC0000988884203DA2448008825490880254847
:105AD0000068046023480068856022480068C6604A
