:020000040800F2
:10000000000400209D0100084B0300087302000853
:1000100049030008E5010008890400080000000009
:100020000000000000000000000000006D03000858
:10003000E7010008000000004D0300082904000843
:10004000B7010008B7010008B7010008B7010008B0
:10005000B7010008B7010008B7010008B7010008A0
:10006000B7010008B7010008B7010008B701000890
:10007000B7010008B7010008B7010008B701000880
:10008000B7010008B7010008B7010008B701000870
:10009000B7010008B7010008B7010008B701000860
:1000A000B7010008B7010008B7010008B701000850
:1000B000B7010008B7010008B7010008B701000840
:1000C000B7010008B7010008B7010008B701000830
:1000D000B7010008B7010008B7010008B701000820
:1000E000B7010008B7010008B7010008B701000810
:1000F000B7010008B7010008B7010008B701000800
:10010000B7010008B7010008B7010008B7010008EF
:10011000B7010008B7010008B7010008B7010008DF
:10012000B7010008B7010008B7010008B7010008CF
:10013000B7010008B7010008B7010008B7010008BF
:10014000B7010008B7010008B7010008B7010008AF
:10015000B7010008B7010008B7010008B70100089F
:10016000B7010008B7010008B7010008B70100088F
:10017000B7010008B7010008B7010008B70100087F
:10018000B7010008B7010008DFF80CD000F018F83C
:1001900000480047A90400080004002006488047E2
:1001A00006480047FEE7FEE7FEE7FEE7FEE7FEE75C
:1001B000FEE7FEE7FEE7FEE72D04000889010008E0
:1001C000064C074D06E0E06840F0010394E80700A4
:1001D00098471034AC42F6D3FFF7DAFFF804000872
:1001E00008050008FEE770472DE9F04100220127CD
:1001F0004FF0030C07FA02F50B682B40AB422CD1F1
:10020000066853000CFA03F4A64306600E79D0F892
:1002100000809E4046EA080606600E79012E01D055
:10022000022E12D18668A64386604E79D0F80880E7
:100230009E4046EA080686604668AE4346604568CA
:100240008E799640B6B235434560C568A543C56012
:10025000CC799C40C3681C43C460521C102AC9D38B
:10026000BDE8F0810246002012690A4200D0012058
:100270007047FEE77CB50121084600F069F80120CF
:10028000009000258DF8045002248DF8074069463F
:100290000848FFF7A9FF0121202000F059F8A0022B
:1002A00000908DF804508DF8074069460248FFF72A
:1002B0009BFF7CBD000002400014024070B5044664
:1002C0000D4629462046FFF7CDFF012801D000202A
:1002D00070BD29462046FFF7C5FF0128F9D001204F
:1002E00070BD00007CB50121042000F031F801242C
:1002F00000948DF8044000258DF806508DF80740D5
:100300008DF8055069460E48FFF76EFF0121082061
:1003100000F01EF8082600968DF804408DF806506F
:100320008DF807408DF8055069460648FFF75CFFD9
:100330000348183004800348183006807CBD000054
:1003400000080240000C0240FEE7704770470000C2
:10035000054A002903D011680143116070471168F4
:100360008143116070470000303802407047000040
:100370000CB50022019200922749086840F48030B1
:1003800008604FF4A043086800F400300090019822
:10039000401C0190009810B901989842F3D1086868
:1003A000800302D50120009000E00092009801280F
:1003B00031D119484030026842F08052026017483B
:1003C000026842F44042026013480830026802604A
:1003D000026842F400420260026842F4A0520260E5
:1003E000021F0F4B13600A6842F080720A600A68AD
:1003F0009201FCD50B4A40F205711160016821F0B1
:1004000003010160016841F0020101600168C1F36C
:1004100081010229FAD10CBD003802400070004071
:1004200019544007003C02407047000010B51248C4
:10043000016841F4700101601048016841F0010158
:1004400001600E4A00210832116002680C4B1A400C
:100450000260031D0B4A1A60026822F480220260C7
:1004600006480C300160FFF783FF03494FF000603E
:100470008039086010BD000088ED00E000380240BF
:10048000FFFFF6FE10300024FEE702E008C8121F4E
:1004900008C1002AFAD170477047002001E001C16D
:1004A000121F002AFBD17047FFF71CFFFFF7E2FE87
:1004B0000E4C0D4EDFF838800E4DE714012130460A
:1004C000FFF7FCFE012803D1206880F001002060C6
:1004D00039464046FFF7F2FE0128EFD1286880F048
:1004E00008002860EAE7000000000240140802400B
:1004F00000140240140C024008050008000000200F
:08050000000400009A04000849
:040000050800018965
:00000001FF
