:020000040800F2
:10000000A06D00209D01000829180008A316000813
:10001000FD160008EF0F00084972000800000000FC
:10002000000000000000000000000000096E000851
:10003000991400080000000025060008293A00086D
:10004000D7010008D7010008D7010008D701000830
:10005000D7010008D70100089D140008D701000847
:10006000D7010008D7010008D7010008D701000810
:10007000D7010008D7010008D7010008D701000800
:10008000D7010008D7010008D7010008D7010008F0
:10009000D7010008D7010008D7010008D7010008E0
:1000A000D7010008D7010008D7010008D7010008D0
:1000B000D7010008D7010008D7010008D7010008C0
:1000C000D7010008D7010008D7010008D7010008B0
:1000D000D7010008A16F0008D7010008D701000868
:1000E000D7010008D7010008D7010008D701000890
:1000F000D7010008D7010008D7010008D701000880
:10010000D7010008D7010008D7010008D70100086F
:10011000D7010008D7010008D7010008D70100085F
:10012000D7010008D7010008D7010008D70100084F
:10013000D7010008D7010008D7010008D70100083F
:10014000D7010008D7010008D7010008D70100082F
:10015000D7010008D7010008D7010008D70100081F
:10016000D7010008D7010008D7010008D70100080F
:10017000D7010008D7010008D7010008D7010008FF
:10018000D7010008D7010008DFF80CD000F0E0F933
:1001900000480047F5750008A06D0020DFF8380022
:1001A000016841F470010160BFF34F8FDFF82C004C
:1001B000016821F040410160BFF36F8F084880471C
:1001C00008480047FEE7FEE7FEE7FEE7FEE7FEE73A
:1001D000FEE7FEE7FEE7FEE788ED00E034EF00E033
:1001E000396F00088901000872B6704762B670471F
:1001F000EFF3108072B6704780F31088704730BFFD
:10020000704720BF7047B0FA80F0704790FAA0F0B6
:10021000B0FA80F0704790FAA0F070472DE9FE4FD9
:1002200081EA030404F0004421F0004100944FF0FF
:10023000000B23F0004350EA01045ED052EA0304AD
:100240005BD0C3F30A54C1F30A552C44A4F2F3342F
:100250000194A0FB0254C1F3130141F48011C3F3D4
:10026000130343F4801301FB024400FB034E840A92
:10027000970A44EA815447EA8357A4FB076802952A
:100280008D0A05FB07854FEA932C04FB0C542705C8
:10029000029D4FEA065847EA1637B5EB08056EEBA4
:1002A000070C870E920E47EA811742EA8312A7FBDA
:1002B0000201B6EB0B0164EB00042B0D43EA0C3397
:1002C0005E1844EB1C50DA465146E7FB0201C5F3C9
:1002D00013044FEA0B3343EA14534FEA0432019CF0
:1002E00043EA0603A4F10C040294009CCDE900B497
:1002F00000F0DFF803B0BDE8F08F00200146F9E719
:100300002DE9F04D81EA030404F0004B21F0004593
:1003100014464FF0000A23F0004150EA050220D0B5
:1003200054EA01021DD0C5F30A570246C5F3130370
:10033000C1F31300C1F30A5640F4801543F480134F
:10034000A7EB0608101BD64608F2FD3873EB050034
:1003500002D308F1010801E092185B41B8F1000FE7
:1003600003DA00200146BDE8F08D00204FF4801133
:10037000064684460EE0171B73EB050705D3121BD8
:1003800063EB050306434CEA010C49084FEA3000D1
:1003900092185B4150EA0107EDD152EA030012D0F6
:1003A00082EA040083EA0501084305D0101BAB4133
:1003B00006D20122002306E000224FF0004302E0B3
:1003C0006FF0010253101AEB06004CEB085110EBD2
:1003D0000A0041EB0B01BDE8F04D00F05BB80EB533
:1003E00040F2334102910021CDE900110A460B464B
:1003F00000F05FF803B000BDC1F30A5210B5C1F3BD
:10040000130140F2FF3341F480119A4201DA0020D7
:1004100010BD40F233439A42A2F2334203DC52420F
:1004200000F028F810BD904010BD30B50B460146D5
:1004300000202022012409E021FA02F59D4205D383
:1004400003FA02F5491B04FA02F52844151EA2F12D
:100450000102F1DC30BD202A04DB203A00FA02F16F
:10046000002070479140C2F1200320FA03F31943A2
:1004700090407047202A04DB203A21FA02F0002144
:10048000704721FA02F3D040C2F1200291400843A4
:100490001946704710B5141E73F1000408DA401CA9
:1004A00041F1000192185B411A4301D120F0010093
:1004B00010BD2DE9F04D92469B4611B1B1FA81F283
:1004C00002E0B0FA80F220329046FFF7C4FF044603
:1004D0000F4640EA0A0041EA0B0153465A460843D8
:1004E00013D0114653EA010019D0C8F1400250461A
:1004F000FFF7C0FF05460E46504659464246FFF7F5
:10050000AAFF084305D0012004E020463946BDE893
:10051000F08D0020054346EAE0762C4337430A98E5
:100520006305E40AA0EB08000022FD0A44EA4754F0
:100530000A3002D500200146E9E70105101969419A
:10054000DDE9084500196941BDE8F04DA2E700006A
:10055000064C074D06E0E06840F0010394E8070010
:1005600098471034AC42F6D3FFF712FE54780008D7
:1005700074780008EFF3098141B1F1EE101A40F8E8
:10058000041D20ED200A3B490A6810607047B0EC5A
:10059000200A02C8E1EE101A37490A681060704755
:1005A00072B64EF62250CEF2000040F2FF01C0F2C9
:1005B0000001017040F22010C2F20000016881F3D6
:1005C000088840F28E00C2F2000040F28F01C2F2B1
:1005D00000010A78027040F21815C2F2000540F2DC
:1005E0001C11C2F200010A682A60106880F30988B1
:1005F000EFF3148040F0020080F31488BFF36F8F94
:10060000BDE8F00F0FBCBDE8005006BC62B608475D
:100610001A484FF080510160704718484FF08051E0
:100620000160704772B6EFF3098020E9F00F40F2E5
:100630001815C2F200052E683060744603F0C0F849
:1006400040F28E00C2F2000040F28F01C2F20001BF
:100650000A78027040F21C11C2F200010A682A6096
:1006600044F0F40E1068B0E8F00F80F3098862B629
:1006700070470000180100201C01002004ED00E07C
:1006800008B500244FF4A06001F034F900F030FE0A
:100690002146002000F00CFE0DE0204600F054FE44
:1006A00040F6DA40844200DD0024641D6A460021E1
:1006B0000A2003F0EFF8F0E708B540F6DA444FF40B
:1006C000A06001F017F900F07DFE2146002000F047
:1006D000FFFD0CE0204600F0A1FE0A2C01DA40F6F6
:1006E000DA44641F6A4600210A2003F0D3F8F1E7D8
:1006F00008B50027684603F091F9054600F068FC4C
:1007000006465EE16B4600221146104602F00CFDE3
:1007100000F0F4FC044600BF00BF00BFFFF768FD17
:10072000074600BF00F000FD00BFA6480078401C4F
:10073000A449087008460078012801D104F0EEFBB6
:1007400000BF00F00BFD00BF3846FFF755FD00BFAE
:1007500000BF00BF642095FBF0F100FB115842F28E
:10076000107095FBF0F100FB1150642190FBF1F942
:1007700042F2107095FBF0FA43464A46514692A069
:1007800006F064FD9848B6FBF0F8414697A006F0E5
:100790005DFD9548B6FBF0F0B4FBF0F8414698A03B
:1007A00006F054FD9048B6FBF0F09B490968B1FB98
:1007B000F0F8414699A006F049FD9F4801689FA0C6
:1007C00006F044FDA3480088642190FBF1F201FB90
:1007D0001208A048008890FBF1F9424649469EA0C5
:1007E00006F034FDA2480088642190FBF1F201FB81
:1007F00012089F48008890FBF1F9424649469DA0A7
:1008000006F024FDA248B0F89000642190FBF1F2BC
:1008100001FB12089E48B0F8900090FBF1F94246A7
:1008200049469CA006F012FD9948B0F89200642158
:1008300090FBF1F201FB12089548B0F8920090FB92
:10084000F1F9424649469BA006F000FDA248B0F8E7
:100850009000642190FBF1F201FB12089E48B0F871
:10086000900090FBF1F9424649469CA006F0EEFC50
:100870009948B0F89200642190FBF1F201FB120854
:100880009548B0F8920090FBF1F9424649469BA08A
:1008900006F0DCFCA348B0F89000642190FBF1F274
:1008A00001FB12089F48B0F8900090FBF1F9424616
:1008B00049469DA006F0CAFC9A48B0F8920064210F
:1008C00090FBF1F201FB12089648B0F8920090FB01
:1008D000F1F9424649469CA006F0B8FCA448B0F89D
:1008E0009000642190FBF1F201FB1208A048B0F8DF
:1008F000900090FBF1F9424649469EA006F0A6FC06
:100900009B48B0F89200642190FBF1F201FB1208C1
:100910009748B0F8920090FBF1F9424649469DA0F5
:1009200006F094FC5A48D0F8B420D0F8B010A3A038
:1009300006F08CFC7B48D0F8B420D0F8B010AAA008
:1009400006F084FC8A48D0F8B420D0F8B010B1A0EA
:1009500006F07CFC00BF00BF00BFFFF749FC074664
:1009600000BF00F0E1FB00BF16480078401E1549AB
:10097000087008460078D0B904F0DEFAB048008864
:1009800000280BDD00BF00F0E9FB00BF3846FFF791
:1009900033FC00BF00BF04F097FA11E000BF00F085
:1009A000DDFB00BF3846FFF727FC00BF08E000BFB3
:1009B00000F0D4FB00BF3846FFF71EFC00BF00BFAD
:1009C00000BF9FE6A80000200D0A75432F4F53B0CB
:1009D000E6B1BEBAC5A3BA5625642E253032642EC0
:1009E000253032640D0A000040420F00435055D6B6
:1009F000F7C6B5A3BA2564204D487A0D0A00000059
:100A0000D7EEB4F3D6D0B6CFCAB1BCE4A3BA25644E
:100A10002075730D0A000000A0000020D7EEB4F38B
:100A2000CBF8B5F7B6C8C6F7CAB1BCE4A3BA25641B
:100A30002075730D0A000000D4000020C8CECEF14E
:100A4000C7D0BBBBD7DCB4CECAFDA3BA25640D0AA0
:100A500000000000BC000020435055CAB9D3C3C2F7
:100A6000CAA3BA25642E256425250D0A00000000BE
:100A7000BE000020435055D7EEB4F3CAB9D3C3C269
:100A8000CAA3BA25642E256425250D0A000000009E
:100A90002C030020B4AEBFDAC8CECEF1B5C44350AB
:100AA00055CAB9D3C3C2CAA3BA25642E2564252565
:100AB0000D0A0000B4AEBFDAC8CECEF1B5C44350C3
:100AC00055D7EEB4F3CAB9D3C3C2CAA3BA25642EAC
:100AD000256425250D0A0000F8030020B0B4BCFCF5
:100AE000C8CECEF1B5C4435055CAB9D3C3C2CAA308
:100AF000BA25642E256425250D0A0000B0B4BCFC7F
:100B0000C8CECEF1B5C4435055D7EEB4F3CAB9D36D
:100B1000C3C2CAA3BA25642E25642525202020201F
:100B20000D0A00005C06002044414331C8CECEF1DE
:100B3000B5C4435055CAB9D3C3C2CAA3BA25642E9B
:100B4000256425250D0A000044414331C8CECEF16D
:100B5000B5C4435055D7EEB4F3CAB9D3C3C2CAA380
:100B6000BA25642E25642525202020200D0A0000AA
:100B70002807002044414332C8CECEF1B5C44350CB
:100B800055CAB9D3C3C2CAA3BA25642E2564252584
:100B90000D0A000044414332C8CECEF1B5C44350E3
:100BA00055D7EEB4F3CAB9D3C3C2CAA3BA25642ECB
:100BB00025642525202020200D0A0000B4AEBFDAD0
:100BC000C8CECEF1B5C4D2D1D3C3BACDBFD5CFD064
:100BD000B6D1D5BBB4F3D0A1B7D6B1F0CEAAA3BAE3
:100BE00025642C25640D0A0044414331C8CECEF162
:100BF000B5C4D2D1D3C3BACDBFD5CFD0B6D1D5BB72
:100C0000B4F3D0A1B7D6B1F0CEAAA3BA25642C25EF
:100C1000640D0A0044414332C8CECEF1B5C4D2D1EE
:100C2000D3C3BACDBFD5CFD0B6D1D5BBB4F3D0A145
:100C3000B7D6B1F0CEAAA3BA25642C25640D0A005C
:100C40006C00002008B50BE00648006880F0010049
:100C5000044908606A4600214FF47A7002F01AFED7
:100C6000F2E700001408024008B50BE006480068EF
:100C700080F00800044908606A4600214FF47A7049
:100C800002F008FEF2E70000140C024070B58AB0D2
:100C9000064600F0AEF900F0A2F900F099F904461A
:100CA00059480068B4FBF0F5284602F0DDFE00F07C
:100CB00031FD09A801F07AFD00F00AFA09AA002125
:100CC000012001F00FFC09A8042146234F4ACDE979
:100CD00000104FA1524800F081FF09A80321002213
:100CE0000592CDE90621089032204FF4007133229D
:100CF0004C4BCDE90132CDE90310032000234A4AD1
:100D00004AA100904D4801F0DBFD09A80321002213
:100D10000592CDE90621089032204FF4007133226C
:100D2000474BCDE90132CDE9031003200023454AAA
:100D300045A10090484801F0C3FD09A80321002205
:100D40000592CDE90621089005204FF40071332269
:100D5000424BCDE90132CDE9031003200023404A84
:100D600040A10090434801F0ABFD09A803210022F7
:100D70000592CDE90621089005204FF40071332239
:100D80003D4BCDE90132CDE90310032000233B4A5E
:100D90003BA100903E4801F093FD09A803210022E9
:100DA0000592CDE90621089005204FF40071332209
:100DB000384BCDE90132CDE9031003200023364A38
:100DC00036A10090394801F07BFD09A803210022DB
:100DD0000592CDE90621089005204FF400713322D9
:100DE000334BCDE90132CDE9031003200023314A12
:100DF00031A10090344801F063FD09A9002001F001
:100E0000ABFE0AB070BD0000B476000848010020B7
:100E10004D656D20466F72205465737400000000AC
:100E200028010020F4090020CD0E00084170702038
:100E30005461736B20557361727400002C030020A1
:100E4000F4110020F1060008417070205461736BAA
:100E5000204B657900000000F8030020F419002001
:100E6000450C0008417070205461736B204C656420
:100E700031000000C4040020F4210020690C0008A7
:100E8000417070205461736B204C65643200000027
:100E900090050020F4290020810600084170702090
:100EA0005461736B20446163310000005C060020D4
:100EB000F4310020B9060008417070205461736B52
:100EC0002044616332000000280700200EB5002591
:100ED0006DE002A8002301AA19460090184601F00F
:100EE0007BFF044600BF00BF00BFFFF781F9054646
:100EF00000BF00F019F900BF2D480078401C2C49B4
:100F0000087008460078012801D104F007F800BFF6
:100F100000F024F900BF2846FFF76EF900BF00BFBC
:100F200000BF217823A006F091F92078312802D162
:100F300021A006F08BF900BF00BF00BFFFF758F9F2
:100F4000054600BF00F0F0F800BF19480078401EC9
:100F50001749087008460078D0B903F0EDFF1A4829
:100F6000008800280BDD00BF00F0F8F800BF28461D
:100F7000FFF742F900BF00BF03F0A6FF11E000BF7A
:100F800000F0ECF800BF2846FFF736F900BF08E094
:100F900000BF00F0E3F800BF2846FFF72DF900BFBF
:100FA00000BF00BF02AA2146084800F0F1FE90E70A
:100FB000A8000020256300002323232323232323C9
:100FC00023232323000000006C00002028010020C0
:100FD0001FB5684605F0A4FE019804B010BD10B519
:100FE00000F0CCFA00F060FB06F0DAF810BD00BFAC
:100FF000FEE710B500F0FEF800F004F800F0F4F899
:1010000010BD000070B5002600201849088018495E
:10101000088018490860184908601849086018498C
:10102000086018490860002400BFFFF7E1F8064691
:1010300000BF00250BE000201049086000F074F8A4
:1010400000F08CF80D4800680444681C85B2002D3F
:10105000F1D00C4804600020084908600849086085
:1010600000BF3046FFF7C8F800BF70BD1400002075
:1010700016000020180000201C0000202400002082
:10108000280000202000002001460846044A12687B
:10109000904203D9024A1268801A00E0002070478B
:1010A0002000002070B5002500BFFFF7A1F805461D
:1010B00000BF0648046800BF2846FFF79DF800BF40
:1010C0002046FFF7E1FF0646304670BD24000020B1
:1010D00070B50025FFF7E6FF044600BFFFF788F86C
:1010E000054600BF00200449086000BF2846FFF7FE
:1010F00083F800BF204670BD2400002070B5002595
:1011000000BFFFF775F8054600BF0648046800BF3A
:101110002846FFF771F800BF2046FFF7B5FF0646E7
:10112000304670BD2800002010B509480088401CDA
:10113000074908800748008818B900F085F8064973
:10114000086004480088401C0249088010BD000067
:1011500014000020160000201800002010B50F48D1
:101160000088401E0D49088008460088A0B900F09C
:101170006BF80B490860084600680A490968441A78
:1011800009480068A04201D2074804600748006887
:10119000A04201D20548046010BD000016000020E6
:1011A0001C0000201800002024000020280000203F
:1011B00010B5002400BF00BFFFF71AF8044600BFB7
:1011C000FFF7B2FF00BF1021064800F099FA00BFF8
:1011D000FFF7C4FF00BF2046FFF70EF800BF00BFB7
:1011E00010BD0000F439002010B5FFF7E1FF10BD7D
:1011F00000BFFEE710B500200249086000F00AF8C1
:1012000010BD000010000020014908607047000078
:101210001000002010B5FFF7DBFE04460848006808
:1012200040F0807006490860002006494860084682
:10123000006840F0010008602046FFF7E5FF10BDA0
:10124000FCED00E0001000E0014948687047000034
:10125000001000E039B1084A1268012383401A43A4
:10126000054B1A6006E0044A1268012383409A4342
:10127000014B1A60704700000074004030B5002236
:1012800000230A4C226840F6FE748440A243D1E950
:1012900000452C438D682C43CD6844EA050303FACE
:1012A00000F42243014C226030BD00000074004075
:1012B00008B500220092054A009200F10802009B46
:1012C0001A440092009A116008BD000000740040AA
:1012D00008B500220092054A009200F11402009B1A
:1012E0001A440092009A116008BD0000007400408A
:1012F00000B587B00121084605F0E2FC012148074E
:1013000005F0EEFC1020059003208DF81800022057
:101310008DF81B0005A90B4800F058F9002001903A
:10132000029003900220049001A90020FFF7A6FF7D
:1013300001210020FFF78EFF00210846FFF7B8FFCC
:1013400007B000BD0000024070B52DED048B0446CF
:101350002046FFF744F841EC180B9FED140B53ECBB
:10136000102B51EC180BFEF7CBFF41EC180B9FED47
:10137000110B53EC102B51EC180BFEF74FFF41EC07
:10138000190B9FED0E0B53EC102BFEF7B9FF41EC40
:10139000180B51EC180BFFF72FF885B229460020E7
:1013A000FFF786FFBDEC048B70BD0000000000005D
:1013B00000408F40000000000000B0406666666696
:1013C00066660A4000B587B00121084605F078FC42
:1013D0000121480705F084FC2020059003208DF8AA
:1013E000180002208DF81B0005A90B4800F0EEF84C
:1013F00000200190029003900220049001A9102087
:10140000FFF73CFF01211020FFF724FF00210846D1
:10141000FFF75EFF07B000BD0000024070B52DED84
:10142000048B04462046FEF7DAFF41EC180B9FEDD3
:10143000140B53EC102B51EC180BFEF761FF41EC31
:10144000180B9FED110B53EC102B51EC180BFEF702
:10145000E5FE41EC190B9FED0E0B53EC102BFEF744
:101460004FFF41EC180B51EC180BFEF7C5FF85B28E
:1014700029460020FFF72CFFBDEC048B70BD000057
:101480000000000000408F40000000000000B0405D
:101490006666666666660A407047000008B500F03A
:1014A00019FB012000F014F838B16A460021044805
:1014B00001F056FF012000F005F800F021FB08BD07
:1014C000F80300200149086070470000143C014007
:1014D00001460020034A12680A400AB1012000E0D8
:1014E00000207047143C0140002123498279002AE2
:1014F0003AD00A46126803689A430B461A600A1DDE
:10150000126803689A430B1D1A60027911440A6835
:1015100003681A430A60184A0832126803689A433B
:10152000154B08331A601A1D126803689A43124B50
:101530000C331A604279102A0ED11A1F1268036800
:101540001A430D4B08331A601A1D126803681A43B8
:10155000094B0C331A600DE00749427911440A68BF
:1015600003681A430A6005E0027911440A680368B7
:101570009A430A6070470000003C01401FB50121FA
:10158000084605F09DFB0120029000208DF80C001C
:1015900002208DF80F0002A90B4800F017F8002177
:1015A000084605F033FC0120009000208DF804006F
:1015B00008208DF8050001208DF806006846FFF729
:1015C00093FF00F032F91FBD00000240F0B50A465B
:1015D00000210023002400BF3DE0012505FA01F3AE
:1015E000156805EA03049C4234D105684F000326C0
:1015F000BE40B543056015794E00B54006683543D9
:1016000005601579012D02D01579022D16D1856856
:101610004F000326BE40B543856055794E00B54066
:10162000866835438560456801268E40B543456030
:10163000456896798E40B6B235434560C5684F001F
:101640000326BE40B543C560D5794E00B540C66897
:101650003543C560491C1029BFD3F0BDF0B5002348
:1016600000244D07ED0E02FA05F3CE1000F120051F
:1016700055F826504E07F70E0F26BE40B543CF1043
:1016800000F1200646F82750CE1000F1200555F84D
:10169000265045EA0304CE1000F1200545F8264007
:1016A000F0BD00BFFEE700001CB501210C2005F0D5
:1016B00007FB012000908DF8040000208DF8060043
:1016C00001208DF8070000208DF8050069460948C3
:1016D000FFF77CFF0820009069460748FFF776FF78
:1016E0000120044918310880082003491A31088074
:1016F0001CBD000000080240000C024000BFFEE7D5
:1017000030B505460C4622460021284600F062F816
:1017100030BD00003EB500200C4908600C4C02A80A
:1017200001214FF440632246CDE9001009490AA087
:1017300000F016F8BDF8080042F21071884203D09C
:1017400000BFFFF755FD00BF3EBD00002C0000208C
:10175000043A002004460020486561700000000043
:101760002DE9F84F05460E4617461C46DDE90A8965
:101770004FF0000A00BF00BFFEF73AFD824600BFEF
:10178000FFF7D2FC00BF43463A4631462846009454
:1017900000F010F800BFFFF7E1FC00BF5046FEF775
:1017A0002BFD00BF00BF42F21070A9F80000BDE899
:1017B000F88F000030B5039C0A60651E15444D602B
:1017C0008A60034D2D68CD600B61014D296030BDED
:1017D0002C0000202DE9F04105460B4694460027D9
:1017E000002402E03F021F43641C042CFAD360462D
:1017F00005F00306294646B1344603E001F8013BF3
:10180000401E641C08B1042CF8D30A4601E080C2D3
:10181000001F0428FBD2114602E001F8013B401EE4
:101820000028FAD1BDE8F081704708B54FF4C060D8
:1018300000F060F806208DF8000000208DF801000F
:101840008DF8020001208DF80300684600F016F8BC
:1018500008BD08B54FF4E06000F04CF825208DF885
:10186000000000208DF8010001208DF802008DF8A5
:101870000300684600F002F808BD000070B50021C2
:1018800000230F22C4781CB3174C246804F4E064CE
:10189000C4F5E064C4F30721C1F10404E3B20A41D2
:1018A00044789C40E1B28478144021430C07210E17
:1018B0000E4C05786155047804F01F050124AC40F6
:1018C00005786D11AD0005F1E025C5F8004109E08E
:1018D000047804F01F050124AC40054D067876110C
:1018E00045F8264070BD00000CED00E000E400E08B
:1018F00080E100E002490143024A116070470000A4
:101900000000FA050CED00E07047000010B5034838
:10191000006810B101480068804710BD44000020F5
:1019200070B5044600F0C2F80020484908704849E4
:1019300008704849087048490860484908604849A3
:101940000870484908704849087048490860484983
:1019500008604849086048490870484800680A21FA
:10196000B0FBF1F0464908604648006858B1464867
:10197000056845B14348066803E0761E00202860EC
:101980002D1D002EF9D10020404908604049086013
:101990004049086040490860404908604049086083
:1019A000404908604049087003F0D8F803F0D6F9C0
:1019B000204602F047F9208800B170BD204602F0B1
:1019C00079FD208800B1F8E7204602F07FFD2088ED
:1019D00000B1F2E7204602F007FF208800B1ECE7F3
:1019E000204603F0EBF8208800B1E6E7204603F03C
:1019F00037FB208800B1E0E7204603F00FFF208886
:101A000000B1DAE7204602F0ADFC208800B1D4E74F
:101A1000204602F0B9FA208800B1CEE7204604F053
:101A2000CDFF208800B1C8E7204603F0CBFD208819
:101A300000B1C2E7204605F025F8208800B1BCE7D8
:101A400002F02AF8FFF760FF00BFB6E75800002059
:101A500060000020A8000020180100201C010020C8
:101A60008E0000208F000020900000209C000020AD
:101A7000A0000020A4000020B0000020B4760008E0
:101A8000AC00002084760008807600083800002032
:101A90003C000020400000204400002048000020BE
:101AA0004C00002050000020DE00002006480068A6
:101AB0000649096800EB810005490860084600688E
:101AC00020F00700086070478076000884760008E0
:101AD0002001002008480078012800D070470748FE
:101AE0000078FA2800DBF9E704480078401C034935
:101AF000087000BFF2E700006000002058000020DE
:101B000010B500242D480078012800D010BD00BF7A
:101B1000FEF76EFB044600BF2948007828B900BFD5
:101B20002046FEF769FB00BFF0E725480078401E1D
:101B30002349087008460078002805DD00BF2046CC
:101B4000FEF75AFB00BFE1E71E480078002805DDDC
:101B500000BF2046FEF750FB00BFD7E702F0EAFFC8
:101B6000194908700846007800EB4000174951F801
:101B7000200017490860084600681649096888422D
:101B800005D100BF2046FEF737FB00BFBEE7104877
:101B90000068D0F89400401C0D490968C1F8940011
:101BA0000D480068401C0C490860FEF736FD00BF78
:101BB0002046FEF721FB00BF00BFA7E76000002022
:101BC00058000020A80000208F0000200C580020A2
:101BD0001C01002018010020D40000202DE9FF4F37
:101BE00083B0044615461F46DDE91096002000909C
:101BF0002DB945F2BB60308007B0BDE8F08F022FF1
:101C000003DA45F2BC603080F6E7B9F1040F03D285
:101C100045F2C1603080EFE74FF0030ABAF1000FE0
:101C20000DD005EA0A0018B145F2BB603080E3E749
:101C300009EA0A0018B145F2C1603080DCE7AB4622
:101C4000A846781E80B201900020029007E0C844A8
:101C5000CBF80080C3460298401C80B20290DDE9B8
:101C600001108842F3DB0020CBF8000000BF00BF6A
:101C700000BFFEF7BDFA009000BFFFF755FA00BFA6
:101C800024480078401C2349087008460078012841
:101C900001D103F043F900BFFFF760FA00BF0098DD
:101CA000FEF7AAFA00BF00BF00BF1B4820600498DF
:101CB000A0606560E560A7826782A4F81090204666
:101CC00002F0E4FB15480088401C1449088000BF5E
:101CD00000BF00BFFEF78CFA009000BFFFF724FAA8
:101CE00000BF0C480078401E0A490870084600787A
:101CF00008B903F021F900BFFFF730FA00BF0098E0
:101D0000FEF77AFA00BF00BF00BF0020308000BF9E
:101D100072E70000A80000204D454D2084000020FF
:101D20002DE9F04104460D4600272CB945F2BF606D
:101D300028800020BDE8F08100BF00BFFEF758FA00
:101D4000074600BFFFF7F0F900BFA08A68B900BFDF
:101D5000FFF704FA00BF3846FEF74EFA00BF00BF97
:101D600045F2C26028800020E4E7E6683068E06061
:101D7000A08A401EA08200BFFFF7F0F900BF3846DE
:101D8000FEF73AFA00BF00BF002028803046D1E7B6
:101D90002DE9F04104460E461546002724B945F2C8
:101DA000BF602880BDE8F0811EB945F2BE60288082
:101DB000F8E700BF00BFFEF71BFA074600BFFFF7BA
:101DC000B3F900BFA08A618A88420CDB00BFFFF72D
:101DD000C5F900BF3846FEF70FFA00BF00BF45F255
:101DE000BA602880DEE7E0683060E660A08A401CC8
:101DF000A08200BFFFF7B2F900BF3846FEF7FCF93A
:101E000000BF00BF0020288000BFCBE72DE9F041D4
:101E100004460E461546002724B945F6C3502880CF
:101E2000BDE8F08100BF00BF00BFFEF7E1F9074643
:101E300000BFFFF779F900BF25480078401C24490E
:101E4000087008460078012801D103F067F800BF48
:101E5000FFF784F900BF3846FEF7CEF900BF00BF98
:101E600000BF1C482060666000202062606284F829
:101E70002800E06204F1080002F067FD204602F04D
:101E800043FC15480088401C1349088000BF00BF70
:101E900000BFFEF7ADF9074600BFFFF745F900BFE9
:101EA0000B480078401E0A4908700846007808B9B7
:101EB00003F042F800BFFFF751F900BF3846FEF7C4
:101EC0009BF900BF00BF00BF0020288000BFA7E72C
:101ED000A80000204D5554588C0000202DE9F047F3
:101EE00088B00546894617461C46109E4FF0000AEA
:101EF0002DB945F6C350308008B0BDE8F0871FB15A
:101F0000B7F5004F02D100E000BF03E045F62560C1
:101F10003080F1E700BF7F492868884203D045F64A
:101F2000C4503080E8E70CB10020206000BF00BF43
:101F3000FEF75EF9824600BFFFF7F6F800BF95F89E
:101F40002800C8B9744800686862012085F8280034
:101F50000CB1E86A206029466F48006802F0ECFB8B
:101F600000BFFFF7FBF800BF5046FEF745F900BF82
:101F700000BF00203080BFE76749686A096888426F
:101F800014D195F82800401C85F828000CB1E86AA7
:101F9000206000BFFFF7E2F800BF5046FEF72CF9C3
:101FA00000BF00BF45F282703080A5E707F4004013
:101FB00060B100BFFFF7D2F800BF5046FEF71CF932
:101FC00000BF00BF46F2B010308095E7534800785C
:101FD00000280CDD00BFFFF7C1F800BF5046FEF738
:101FE0000BF900BF00BF46F66350308084E700BFA6
:101FF0004A480078401C4949087008460078012882
:1020000001D102F08BFF00BFFFF7A8F800BF5046D8
:10201000FEF7F2F800BF00BF00BFD5F8248098F8A3
:1020200037003D49096891F83710884206DD3A4883
:10203000006890F83710404603F040FB4B460422FE
:102040002946684602F0DCFB00BF00BF00BFFEF778
:10205000CFF8824600BFFFF767F800BF2F4800782F
:10206000401E2E4908700846007808B902F064FF47
:1020700000BFFFF773F800BF5046FEF7BDF800BF82
:1020800000BF00BF00F0A8F900BF00BFFEF7B0F826
:10209000824600BFFFF748F800BF1F48006890F86D
:1020A000350030B101280CD002281AD0032821D1E4
:1020B00010E01CB118480068806C2060002030805F
:1020C0001CE01CB114480068806C206046F2A91026
:1020D000308013E00CB10020206047F2D92030801E
:1020E0000CE01CB10C480068806C206045F6C250C2
:1020F000308003E046F62E60308000BF00BF00BF96
:10210000FFF72CF800BF5046FEF776F800BF00BF7F
:1021100000BFF1E64D55545818010020A8000020DA
:102120002DE9F84F0446894615464FF0000B24B9B7
:1021300045F6C3502880BDE8F88FB9F1000F03D0F1
:10214000B9F5004F02D100E000BF03E045F625607D
:102150002880F0E700BF9B492068884203D045F6FD
:10216000C4502880E7E700BF00BFFEF741F8834670
:1021700000BFFEF7D9FF00BF9349606A0968884233
:102180000CD000BFFEF7EAFF00BF5846FEF734F858
:1021900000BF00BF45F281702880CCE700BF8B48AC
:1021A0000078401C8949087008460078012801D150
:1021B00002F0B4FE00BFFEF7D1FF00BF5846FEF7A5
:1021C0001BF800BF00BF00BFFFF73EF88046283471
:1021D000C4F804802078401E207014F828090028D4
:1021E0003ADD00BF00BF00BFFEF702F8834600BF24
:1021F000FEF79AFF00BF75480078401E73490870CB
:1022000008460078D0B902F097FE7148008800288F
:102210000BDD00BFFEF7A2FF00BF5846FDF7ECFF45
:1022200000BF00BF02F050FE11E000BFFEF796FFB6
:1022300000BF5846FDF7E0FF00BF08E000BFFEF713
:102240008DFF00BF5846FDF7D7FF00BF00BF00BF9E
:1022500045F2837028806EE721465B48006802F0F3
:10226000B5FA04F1080ABAF8080080BB00206062E1
:1022700084F8280000BF00BF00BFFDF7B9FF834608
:1022800000BFFEF751FF00BF50480078401E4F4985
:10229000087008460078D8B902F04EFE4C48008815
:1022A00000280BDD00BFFEF759FF00BF5846FDF7C1
:1022B000A3FF00BF00BF02F007FE12E000BFFEF761
:1022C0004DFF00BF5846FDF797FF00BF09E00CE047
:1022D00000BFFEF743FF00BF5846FDF78DFF00BF6C
:1022E00000BF00BF0020288025E73748006890F82D
:1022F00037003549096891F83810884228D03248AB
:10230000006802F04DFA06462F48006890F8381031
:10231000B14204DA2C48006890F8380000E03046FA
:1023200006462948006890F83700B04210DA26487F
:10233000006802F09BFD2448006880F83760304652
:1023400002F018FC2048006802F050FD2148067099
:10235000DAF8000087686762012084F828002146C7
:10236000384602F0E9F900231A4639462046CDF8EE
:10237000008002F05DFB00BF00BF00BFFDF738FF2B
:10238000834600BFFEF7D0FE00BF10480078401E15
:102390000E4908700846007808B902F0CDFD00BF6C
:1023A000FEF7DCFE00BF5846FDF726FF00BF00BF6A
:1023B00000BF09F4004008B900F00EF800202880A2
:1023C00000BFB8E64D55545818010020A800002061
:1023D0006C0000208E00002010B5002420480078FA
:1023E000002800DD10BD1F480078002800DDF9E757
:1023F00000BFFDF7FDFE044600BF02F09BFB1A493B
:1024000008700846007800EB4000184951F8200099
:10241000174908600846006816490968884205D1CE
:1024200000BF2046FDF7E8FE00BFDBE7104800686C
:10243000D0F89400401C0E490968C1F894000E4879
:102440000068401C0C490860FEF7E2F800BF204617
:10245000FDF7D2FE00BFBFF36F8F00BFC2E70000E1
:1024600058000020A80000208F0000200C580020F9
:102470001C01002018010020D400002070B5044683
:10248000002516480078012803D045F68960208091
:1024900070BD13480078FA2803DB45F2092020803C
:1024A000F6E700BF00BFFDF7A3FE054600BFFEF73D
:1024B0003BFE00BF0A480078401C0949087002F042
:1024C0002DFD00BFFEF74AFE00BF2846FDF794FE33
:1024D00000BF00BF0020208000BFD9E760000020BF
:1024E000A80000202DE9F04105460C4616460027BD
:1024F00000BF00BFFDF77CFE074600BFFEF714FEDD
:1025000000BF012D03D000200E49087002E0012019
:102510000C49087014B10C48046006E00B480068D0
:102520000A21B0FBF1F00849086000BFFEF716FE73
:1025300000BF3846FDF760FE00BF00BF00203080BE
:10254000BDE8F081B0000020AC000020B4760008A7
:1025500070B5044600251F480078012803D045F6D1
:102560008960208070BD1C48007818B946F6645018
:102570002080F7E700BF00BFFDF73AFE054600BF29
:10258000FEF7D2FD00BF14480078401E12490870C3
:102590000846007800280CDD00BFFEF7DFFD00BF15
:1025A0002846FDF729FE00BF00BF46F66350208095
:1025B000D8E702F0C1FC00BFFEF7D0FD00BF2846FF
:1025C000FDF71AFE00BF00BFFFF706FF00202080C6
:1025D00000BFC7E760000020A800002010B5044637
:1025E00012480078E8B902F0A5FA114908700846C7
:1025F0000078104908700E48007800EB40000E4942
:1026000051F820000D490860084600680C49086030
:10261000012006490870FDF7C3FF43F6992020808A
:1026200002E045F68A60208010BD000060000020B6
:102630008F0000208E0000200C5800201C0100207C
:10264000180100202DE9F04107464FF0000800BFB7
:1026500000BFFDF7CDFD804600BFFEF765FD00BF62
:102660000020474908604749088047490880474992
:10267000086047490860474908604749086047497A
:1026800008604749088100BFFEF768FD00BF40466B
:10269000FDF7B2FD00BF00BF00BF00BFFDF7A8FD02
:1026A000804600BFFEF740FD00BF3E48046800BF03
:1026B000FEF754FD00BF4046FDF79EFD00BF00BF82
:1026C00026E000BF00BFFDF793FD804600BFFEF788
:1026D0002BFD00BF00207C34E06320642060206379
:1026E000A061A082E0826062A062FEF7ADFD206280
:1026F0007C3C04F168060020B081D4F8C44000BFDF
:10270000FEF72CFD00BF4046FDF776FD00BF00BF81
:10271000002CD6D100BF00BFFDF76AFD804600BF88
:10272000FEF702FD00BF2048056800BFFEF716FD5A
:1027300000BF4046FDF760FD00BF00BF16E000BFD0
:1027400000BFFDF755FD804600BFFEF7EDFC00BF62
:1027500005F120060020B081AD6900BFFEF7FEFC48
:1027600000BF4046FDF748FD00BF00BF002DE6D189
:1027700003F036FF04F02CFA00203880BDE8F08129
:10278000740000206E000020BE000020D000002059
:10279000E4000020080100205C000020A0000020D0
:1027A00000580020D800002094000020F8B504460E
:1027B00000266946364800F0D3FFBDF8000018B186
:1027C000BDF800002080F8BD6A460021022001F01B
:1027D00061F8BDF8000018B1BDF800002080F2E7F4
:1027E00000BF00BFFDF704FD064600BFFEF79CFCDE
:1027F00000BF00202749086000BFFEF7AFFC00BF04
:102800003046FDF7F9FC00BF00BF002522480068F4
:1028100022490968884205D91F4800681F4909688C
:10282000B0FBF1F525B91C4800680A21B0FBF1F5B1
:102830006A460021284601F02DF86946144800F048
:1028400023FCBDF8000018B1BDF800002080BAE7F5
:1028500000BF00BFFDF7CCFC064600BFFEF764FCDE
:1028600000BF00200E4908600A4800680D49086052
:1028700001200D49087000BFFEF770FC00BF304614
:10288000FDF7BAFC00BF00BF0020208000BF9AE720
:10289000D45C0020C0000020B47600089C760008BC
:1028A000D0000020C4000020CC00002010B5034858
:1028B000006810B101480068804710BD4800002042
:1028C0002DE9FF4F87B004469146DDE91BA5DDF8F1
:1028D0005C80DDE91467002003902CB947F2AD104D
:1028E00028800BB0BDE8F08FB9F1000F03D147F29B
:1028F0004F102880F5E71FB946F62F602880F0E7D3
:1029000087480068804503D246F630602880E8E7B3
:102910001698404503D346F631602880E1E7402E03
:1029200003D346F273202880DBE736B97D48844222
:1029300003D046F273202880D3E73F2E06D17A4891
:10294000844203D046F273202880CAE7204602F072
:1029500075FF002028800AF0010090B10AF0020003
:1029600078B105970020069008E0002105980160E5
:102970000598001D05900698401C06900698404555
:10298000F3D3169807EB80000490CDE9008A3A460D
:102990004846049B0A9900F081FD0590C4F82890F0
:1029A0000A98E0620898206284F8376084F83860FA
:1029B000059820600498A0601998A065199818B926
:1029C0005A480068E06501E01998E0651A9860606F
:1029D0006762C4F84080A4F844A04FF0000B08E000
:1029E000002104F1800040F82B100BF1010000F0F1
:1029F000FF0BBBF1000FF3D004F16800189901F050
:102A0000F9FD204600F09CF800BF00BF00BFFDF7B5
:102A1000EFFB039000BFFEF787FB00BF4448007840
:102A2000401C4349087008460078012801D102F093
:102A300075FA00BFFEF792FB00BF0398FDF7DCFBC1
:102A400000BF00BF00BF94F8370002F093F82046A3
:102A500002F0CCF9204602F0A7FE36480088401C60
:102A60003449088034480078012837D000BF00BFBF
:102A700000BFFDF7BDFB039000BFFEF755FB00BF95
:102A80002B480078401E2A49087008460078D0B9C3
:102A900002F052FA2948008800280BDD00BFFEF73B
:102AA0005DFB00BF0398FDF7A7FB00BF00BF02F06E
:102AB0000BFA11E000BFFEF751FB00BF0398FDF7D2
:102AC0009BFB00BF08E000BFFEF748FB00BF039878
:102AD000FDF792FB00BF00BF00BF02E700BF00BFD1
:102AE00000BFFDF785FB039000BFFEF71DFB00BF95
:102AF0000F480078401E0E4908700846007808B953
:102B000002F01AFA00BFFEF729FB00BF0398FDF799
:102B100073FB00BF00BF00BFFFF75EFC00BFE0E635
:102B2000B07600083457002068560020AC00002022
:102B3000A8000020DC000020600000206C000020C5
:102B400010B504460348006818B1204601490968D9
:102B5000884710BD380000202DE9F04104460E469C
:102B60004FF000089048844204D147F24C10308066
:102B7000BDE8F0818D48844203D147F24D1030808A
:102B8000F6E79CB900BF00BFFDF732FB804600BFEF
:102B9000FEF7CAFA00BF8648046800BFFEF7DEFAF7
:102BA00000BF4046FDF728FB00BF00BF00BF00BFCD
:102BB00000BFFDF71DFB804600BFFEF7B5FA00BF62
:102BC0007C480078401C7B49087008460078012842
:102BD00001D102F0A3F900BFFEF7C0FA00BF4046E2
:102BE000FDF70AFB00BF00BF00BF94F836000828BD
:102BF00060D2DFE800F004090E10080A0F11204629
:102C000002F034F991E090E000BF204603F0BCFCF4
:102C10008BE000BF00BF00BF94F8340008283BD20F
:102C2000DFE800F0040705080E090A0600BF00BF30
:102C300033E000BF00BF00BF204601F0BEFE2CE025
:102C4000206BC068456A15F8377F204601F0B5FE55
:102C500028786978373D884212D095F8370094F883
:102C6000371088420CD1284601F09AFD074695F8A6
:102C70003800B84202DA95F8380000E038460746D6
:102C8000002084F8340095F83700B84203D0394664
:102C9000284602F013FD00E000BF00BF94F83600A4
:102CA000032803D094F83600072802D1204603F009
:102CB0006BFC3AE000BF00BF00BFFDF799FA804609
:102CC00000BFFEF731FA00BF3A480078401E39498C
:102CD000087008460078D0B902F02EF9364800880E
:102CE00000280BDD00BFFEF739FA00BF4046FDF7B4
:102CF00083FA00BF00BF02F0E7F811E000BFFEF763
:102D00002DFA00BF4046FDF777FA00BF08E000BF8C
:102D1000FEF724FA00BF4046FDF76EFA00BF00BF81
:102D200000BF46F62D60308022E700BFE06B10B197
:102D3000204601F005FD04F1680001F005FC204685
:102D400000F03EF8204602F047FD1C480088401E77
:102D50001A490880204602F071FDFF2084F83600F1
:102D600000BF00BF00BFFDF743FA804600BFFEF77B
:102D7000DBF900BF0F480078401E0E490870084676
:102D8000007808B902F0D8F800BFFEF7E7F900BFF5
:102D90004046FDF731FA00BF00BF00BF0020308081
:102DA000FFF71AFB00BFE3E6685600203457002007
:102DB00018010020A80000206C000020DC0000208A
:102DC00010B504460348006818B120460149096857
:102DD000884710BD3C0000202DE9F05F80460F467B
:102DE00016461C460A9D4FF0000B2EB946F2D52020
:102DF00028800020BDE8F09F1FB1B7F5004F02D139
:102E000000E000BF04E045F6256028800020F1E7DF
:102E100000BF0CB10020206000BF00BFFDF7E8F943
:102E2000834600BFFEF780F900BF7648006800F1D6
:102E300068092B4622463146484601F0A7FB8246E8
:102E4000288800BBA4B1FEF7FFF92168401A6D493C
:102E5000096888676B480068C06F6A490968896FAC
:102E6000884205D267480068806F66490968C8676C
:102E700000BFFEF773F900BF5846FDF7BDF900BF6C
:102E800000BF5046B6E707F4004068B146F2B01004
:102E9000288000BFFEF762F900BF5846FDF7ACF985
:102EA00000BF00BF0020A5E75748007800280DDDCF
:102EB00000BFFEF753F900BF5846FDF79DF900BF6C
:102EC00000BF46F663502880002093E700BF4E48BD
:102ED0000078401C4C49087008460078012801D150
:102EE00002F01CF800BFFEF739F900BF5846FDF7A5
:102EF00083F900BF00BF00BF4346022200210846FD
:102F000001F07EFC00BF00BF00BFFDF771F98346F2
:102F100000BFFEF709F900BF3B480078401E3A4960
:102F200008700846007808B902F006F800BFFEF7FE
:102F300015F900BF5846FDF75FF900BF00BF00BF9D
:102F4000FFF74AFA00BF00BFFDF752F9834600BF02
:102F5000FEF7EAF800BF2B48006890F8350020B172
:102F600001282AD0032832D132E026480068D0F860
:102F700060A024480068B0F864003080D4B12148D3
:102F80000068806C2060FEF75FF91E490968896C53
:102F9000401A1C49096888671A480068C06F1949B7
:102FA0000968896F884205D216480068806F154904
:102FB0000968C8670020288017E04FF0000A002049
:102FC000308004B1206046F2A91028800DE000BFD7
:102FD0004FF0000A002030801CB10A480068806C65
:102FE000206047F2D920288000BF00BF00BFFEF755
:102FF000B5F800BF5846FDF7FFF800BF00BF5046C8
:10300000F8E6000018010020A80000202DE9FF4785
:103010000746884691461D460C9E4DB1102D08D09E
:10302000B5F5004F06D0A5F50040103820B902E0F4
:1030300000BF00BF00BF04E045F625603080BDE85A
:10304000FF8700BFFEF700F904460D48007800280E
:103050000BDD00204B4642463946CDE90246CDE91C
:103060000005084800F0C8FFE9E72B464A464146FC
:103070003846CDE9004602F049FC00BFDFE700001A
:1030800058000020544D53477FB504460D46002696
:1030900000BF00BFFDF7ACF8064600BFFEF744F8DE
:1030A00000BF1CB11748006884420CD100BFFEF776
:1030B00055F800BF3046FDF79FF800BF00BF47F24C
:1030C000571028807FBD00BFFEF748F800BF30468C
:1030D000FDF792F800BF00BF0B48007800280BDD19
:1030E000002000900190034602462146CDE90205EA
:1030F000064800F081FFE5E72946204602F03CFD46
:1031000000BFDFE71801002058000020545245534B
:1031100010B504460348006818B120460149096803
:10312000884710BD400000202DE9F04780460E463C
:1031300014461D464FF000091EB1B6F5004F02D1EE
:1031400000E000BF05E045F6256028800020BDE8CE
:10315000F08700BF0CB10020206000BF00BFFDF76A
:1031600047F8814600BFFDF7DFFF00BF7A480068DF
:10317000C06CB8B378480068C06C401E76490968D6
:10318000C86475480068C76C1CB173480068806CDF
:103190002060FEF759F870490968896C401A6E4939
:1031A0000968C1F8A8006C480068D0F8AC006A490A
:1031B0000968D1F8A810884207D267480068D0F89B
:1031C000A80065490968C1F8AC0000BFFDF7C6FF5B
:1031D00000BF4846FDF710F800BF00BF0020288060
:1031E0003846B4E7FFE706F4004068B100BFFDF7DA
:1031F000B5FF00BF4846FCF7FFFF00BF00BF46F227
:10320000B01028800020A2E75448007800280DDD87
:1032100000BFFDF7A3FF00BF4846FCF7EDFF00BF6E
:1032200000BF46F663502880002090E700BF4B485F
:103230000078401C4949087008460078012801D1EF
:1032400001F06CFE00BFFDF789FF00BF4846FCF7A8
:10325000D3FF00BF00BF00BF43460722002108463E
:1032600001F0CEFA00BF00BF00BFFCF7C1FF8146EE
:1032700000BFFDF759FF00BF38480078401E3749AE
:1032800008700846007808B901F056FE00BFFDF747
:1032900065FF00BF4846FCF7AFFF00BF00BF00BF9F
:1032A000FFF79AF800BF00BFFCF7A2FF814600BFFE
:1032B000FDF73AFF00BF2848006890F8350020B1BC
:1032C000012826D0032834D12CE0FCB12248006824
:1032D000806C2060FDF7B8FF1F490968896C401AAF
:1032E0001D490968C1F8A8001B480068D0F8AC0067
:1032F00019490968D1F8A810884207D21648006811
:10330000D0F8A80014490968C1F8AC000020288052
:1033100013E01CB110480068806C206046F2A910D0
:1033200028800AE00CB10020206047F2D9202880D4
:1033300003E046F62E60288000BF00BF0648006804
:10334000C76C00BFFDF70AFF00BF4846FCF754FFFB
:1033500000BF00BF3846FAE618010020A800002090
:103360002DE9FF4106460F4614461FB1B7F5004F41
:1033700002D100E000BF06E045F625602080002075
:1033800004B0BDE8F08100BFFDF75EFF05460D48C3
:10339000007800280CDD00200090034602463146EC
:1033A000CDE902540190084800F026FE0020E7E72E
:1033B00023462A463946304602F0A8FC804640465D
:1033C000DEE7000058000020545349472DE9F0473C
:1033D00004460E4617461D464FF0000A26B946F22F
:1033E000D5202880BDE8F0871FB946F2D520288077
:1033F000F8E700BF00BFFCF7FBFE824600BFFDF709
:1034000093FE00BF0CB924480468206878B900BF57
:10341000FDF7A4FE00BF5046FCF7EEFE00BF00BF64
:1034200000203060386047F252102880DAE794F8C4
:10343000440000F0010078B900BFFDF78FFE00BF27
:103440005046FCF7D9FE00BF00BF00203060386056
:1034500047F254102880C5E700BFFDF77FFE00BF8C
:103460005046FCF7C9FE00BF00BF4FF00008D4F87B
:10347000249003E009F1040908F10108D9F80000DB
:103480000028F7D0C6F80080206CA0EB0800386058
:103490000020288000BFA5E718010020F0B50446F1
:1034A000DDE9055602EB850020F007004FF0807C37
:1034B000071F3846C7F800C0071F38463C60DFF8D2
:1034C00034C2071F3846C7F800C04FF0123C071F30
:1034D0003846C7F800C04FF0033C071F3846C7F80E
:1034E00000C04FF0023C071F3846C7F800C0071F56
:1034F00038463B60071F384639604FF0113C071FC4
:103500003846C7F800C04FF0103C071F3846C7F8D0
:1035100000C04FF0093C071F3846C7F800C04FF005
:10352000083C071F3846C7F800C04FF0073C071F8C
:103530003846C7F800C04FF0063C071F3846C7F8AA
:1035400000C04FF0053C071F3846C7F800C04FF0D9
:10355000043C071F3846C7F800C006F00407002FD8
:103560007ED04FF0007C071F3846C7F800C0DFF858
:1035700088C1071F3846C7F800C0DFF880C1071FA1
:103580003846C7F800C0DFF878C1071F3846C7F8CB
:1035900000C0DFF870C1071F3846C7F800C0DFF869
:1035A00068C1071F3846C7F800C0DFF860C1071FB1
:1035B0003846C7F800C0DFF858C1071F3846C7F8BB
:1035C00000C0DFF850C1071F3846C7F800C0DFF859
:1035D00048C1071F3846C7F800C0DFF840C1071FC1
:1035E0003846C7F800C0DFF838C1071F3846C7F8AB
:1035F00000C0DFF830C1071F3846C7F800C0DFF849
:1036000028C1071F3846C7F800C0DFF820C1071FD0
:103610003846C7F800C0DFF818C1071F3846C7F89A
:1036200000C04FF0834C071F3846C7F800C0DFF8D2
:1036300004C1071F3846C7F800C0DFF8FCC0071FE9
:103640003846C7F800C0DFF8F4C0071F3846C7F88F
:1036500000C0DFF8ECC0071F3846C7F800C000E024
:1036600047E0DFF8E0C0071F3846C7F800C0DFF8C2
:10367000D8C0071F3846C7F800C0DFF8D0C0071F02
:103680003846C7F800C04FF0824C071F3846C7F8CD
:1036900000C0DFF8BCC0071F3846C7F800C0DFF81D
:1036A000B4C0071F3846C7F800C0DFF8ACC0071F1A
:1036B0003846C7F800C04FF0814C071F3846C7F89E
:1036C00000C0DFF898C0071F3846C7F800C04FF0A9
:1036D000804C071F3846C7F800C04FF07E5C071FBC
:1036E0003846C7F800C04FF0000C071F3846C7F82F
:1036F00000C0F0BDF55C00080000F8410000F0419A
:103700000000E8410000E0410000D8410000D04145
:103710000000C8410000C0410000B8410000B041B5
:103720000000A8410000A041000098410000904125
:1037300000008841000070410000604100005041DD
:1037400000004041000030410000204100001041D5
:103750000000E0400000C0400000A04000004040E9
:103760007FB505460C461248854203D147F25B10EF
:1037700020807FBD0F48854203D147F25C10208036
:10378000F7E70D48007800280BDD0020009001903D
:10379000034602462946CDE90204084800F02CFC05
:1037A000E7E72146284602F085FD00BFE1E700007B
:1037B00068560020345700205800002054535553B9
:1037C00070B53048006890F8440000F0040020B163
:1037D0002C4909680868FCF7CDFE2B48006890F872
:1037E000440000F0040020B1274909680868FCF78C
:1037F000CEFE2648006810B1244800688047FDF7D7
:1038000023FD04461F4800681F490968884215D0F7
:103810001C480068D0F89C00201A1A490968C1F8B1
:10382000980018480068D0F8A00016490968D1F837
:103830009810084413490968C1F8A00012480068AC
:10384000C0F89C40FDF744FC05460E480068D0F8DF
:10385000B800A84203D20B480068C0F8B850094825
:103860000068D0F8BC000A490968884205D20848B7
:10387000006804490968C1F8BC00002004490860D8
:1038800070BD0000180100201C0100204C00002029
:10389000A40000202DE9F04105460E4614460027FD
:1038A00046480078002804DD46F663502080BDE8D5
:1038B000F08136B1022E05D0042E0AD0082E09D18F
:1038C00001E000BF00BF1DB947F27E202080EEE777
:1038D00004E003E045F625602080E8E700BF00BF74
:1038E00000BF00BFFCF784FC074600BFFDF71CFCCF
:1038F00000BF32480078401C304908700846007804
:10390000012801D101F00AFB00BFFDF727FC00BF31
:103910003846FCF771FC00BF00BF00BF23463246AB
:1039200029462748006802F0D1FD2088F0B100BF89
:1039300000BF00BFFCF75CFC074600BFFDF7F4FBCF
:1039400000BF1E480078401E1C49087008460078D9
:1039500008B901F0F1FA00BFFDF700FC00BF3846DE
:10396000FCF74AFC00BF00BF00BFA0E71448006896
:1039700001F07CFA00BF00BF00BFFCF739FC07462E
:1039800000BFFDF7D1FB00BF0C480078401E0B497B
:1039900008700846007808B901F0CEFA00BFFDF7BC
:1039A000DDFB00BF3846FCF727FC00BF00BF00BFAF
:1039B000FEF712FD0020208000BF78E7A80000205D
:1039C0001801002010B586B000F01EF8FDF73CFC91
:1039D000044605A800210091CDE901140390074891
:1039E000007800EB4000064A02EB800100231A46F3
:1039F000044800F001FB06B010BD00008E0000205E
:103A00000C5800205449434B10B50348006810B1CE
:103A100001480068804710BD50000020014600208A
:103A2000088047F2C460704710B5002400BF00BF93
:103A3000FCF7DEFB044600BFFDF776FB00BF09483C
:103A40000078401C0749087000BFFDF787FB00BFE6
:103A50002046FCF7D1FB00BF00BFFFF7B3FFFEF726
:103A60004FF810BD5800002001464A1E4FF0E023D9
:103A70005A61084A106820F07F4000BF10601A4663
:103A8000126942F005021A611A46126942F00202F6
:103A90001A61704720ED00E0244A2549254A264A4C
:103AA0002649274A2748284A284A294A294A2A488B
:103AB0002A482B482B4A2C482C4A2D482D4A2E4860
:103AC0002E482F482F48304A304A314A3148324A2E
:103AD000324A334833483448344835483548364804
:103AE000364A374A374A384A3848394839483A4ACC
:103AF0003A4A3B4A3B483C483C483D493D483E4A9F
:103B00003E4A3F4A3F4A404A404A414A4148424A67
:103B1000424A43484348444A444A4548454A464A3B
:103B20004648474800BF00BF00BF7047E87600081E
:103B300050780008E9760008EA760008EC7600087C
:103B4000F0760008F4760008F17600081C7700088B
:103B50001D7700081E7700082077000822770008EC
:103B6000247700082677000828770008487700089F
:103B70004A7700084C7700084E7700085077000815
:103B8000527700085477000884770008857700088A
:103B900086770008887700088A7700088B77000806
:103BA0008C7700088E7700089077000892770008DD
:103BB000947700089677000898770008C87700087F
:103BC000C9770008CA770008CB770008CC770008CF
:103BD000CE770008D0770008F8770008F97700085A
:103BE000FA770008FB770008FC770008FE770008EA
:103BF00000780008047800080578000806780008B6
:103C00000778000808780008097800080A78000892
:103C10000B7800080C7800080E7800080F78000870
:103C20001078000812780008147800081578000849
:103C30001878000848780008497800084A78000891
:103C40004C7800080021034A1160034A118001806A
:103C500070470000780000207C0000202DE9F04F24
:103C600085B00446894692469B46DDF838800020A0
:103C7000009000BF00BFFCF7BBFA009000BFFDF74B
:103C800053FA00BFBAF1000F0AD0BAF1010F0DD0FC
:103C9000BAF5004F05D06FF40040504460B906E01B
:103CA00000BF206A40EA0900206216E000BF206AD7
:103CB00020EA0900206210E000BFFDF74FFA00BFC4
:103CC0000098FCF799FA00BF00BF45F62560A8F8F8
:103CD0000000002005B0BDE8F08F00BFC4F824B09C
:103CE00004F1080001900198008968B900BFFDF750
:103CF00035FA00BF0098FCF77FFA00BF00BF002034
:103D0000A8F80000206AE5E700BF71480078401C71
:103D10006F49087008460078012801D101F0FEF8CB
:103D200000BFFDF71BFA00BF0098FCF765FA00BF63
:103D300000BF00BF01980768BD6889E078680290FD
:103D400095F88C0000F00F0003900398012821D013
:103D500002282ED0042802D0082836D10EE0206A8E
:103D6000D5F8841000EA0106D5F88400B04204D1E9
:103D70005A463146284600F0AFF863E0206AD5F88D
:103D8000841000EA010626B15A463146284600F062
:103D9000A3F857E0D5F88400216A20EA0106D5F897
:103DA0008400B04204D15A463146284600F094F8C7
:103DB00048E0D5F88400216A20EA010626B15A4677
:103DC0003146284600F088F83CE000BF00BF00BF45
:103DD000FCF70EFA009000BFFDF7A6F900BF3C48C3
:103DE0000078401E3A49087008460078D0B901F0C2
:103DF000A3F83848008800280BDD00BFFDF7AEF9B6
:103E000000BF0098FCF7F8F900BF00BF01F05CF8B4
:103E100011E000BFFDF7A2F900BF0098FCF7ECF934
:103E200000BF08E000BFFDF799F900BF0098FCF75C
:103E3000E3F900BF00BF00BF43F6FF20A8F8000071
:103E4000002047E700BF029F0FB1BD6800E00025DA
:103E5000002D7FF473AF00BF00BF00BFFCF7C8F9AF
:103E6000009000BFFDF760F900BF19480078401EC0
:103E7000174908700846007808B901F05DF800BFDE
:103E8000FDF76CF900BF0098FCF7B6F900BF00BF62
:103E900000BF0AF4004008B9FEF79EFA00BF00BF59
:103EA000FCF7A6F9009000BFFDF73EF900BF206ABD
:103EB000049000BFFDF752F900BF0098FCF79CF991
:103EC00000BF00BF0020A8F80000049802E700002F
:103ED000A80000206C00002070B504460E46154670
:103EE000343466650020607020706561A078343CD1
:103EF00008281DD2DFE800F0040508090706171896
:103F000000BF00BF00BF14E000BF94F836000328D4
:103F100002D1204602F038FB204600F031FF00209D
:103F200084F8360005E000BF042084F8360000E085
:103F300000BF00BF204600F040FD70BD00241DE022
:103F400000BF00BFFCF754F9044600BFFDF7ECF8D2
:103F500000BF0B480068401C094908600948006818
:103F6000401C0849086000BFFDF7F8F800BF204674
:103F7000FCF742F900BF00BFFDF7C8FCE0E7000016
:103F800054000020C000002010B58AB00446002074
:103F90000E4908600B2000210591CDE90704069128
:103FA00008460B4909680B4A12680B4B1B68CDE9A0
:103FB0000132CDE903103F200023084A08A10090F8
:103FC0000C48FEF77DFC0AB010BD00005400002034
:103FD0005C76000858760008547600083D3F0008DB
:103FE00075432F4F532D4949492049646C6520542E
:103FF00061736B00685600202DE9F84F04460D46AA
:1040000016461F46DDE90BABDDF82890DDF834805D
:104010000020009000BF00BFFCF7EAF8009000BF4E
:10402000FDF782F800BF2C4800882C490988884297
:104030003EDA29480088401C274908802848008823
:104040000988884203DA24480088254908802548E1
:104050000068046023480068856022480068C660E4
:104060002048006807821F480068C0F814901D4867
:104070000068A0F818A01B480068C0F81CB01948D8
:1040800000684068174908600120174908811748EF
:1040900008604860002000F06DFD1548007818B1F8
:1040A00013480078134908700020A8F8000008E0C1
:1040B00011480088401C1049088044F25360A8F859
:1040C000000000BFFDF74AF800BF0098FCF794F825
:1040D00000BF00BFBDE8F88F6C00002068760008C4
:1040E0006E000020640000200C580020345700208F
:1040F0008E00002090000020700000203EB559483E
:1041000000680068584A811A904279D00FDC5749FC
:10411000084400283ED056490844A8B155490844EF
:10412000002860D05449084400286AD13FE0534831
:104130000844002850D052490844002862D0514910
:1041400008440028F1D110E002A8464D00902D68E7
:10415000EB69444D2D682A8B424D2D686969414DAC
:104160002D68A868FFF77AFD7AE002A93D4800684B
:10417000C0693C4DCDE900012D682B8B394D2D6870
:104180002A8A384D2D68E968364D2D68A86800F0F8
:1041900021FD65E0334B1B68DA69324B1B68198BD4
:1041A000304B1B68986802AB00F066FF58E002A92C
:1041B0002C480068C0692B4DCDE900012D682B8B80
:1041C000284D2D682A8A274D2D68E968254D2D68D0
:1041D000A86801F09BFB43E022490968886802A9AE
:1041E00001F0CAFC3CE01F4B1B68DA691D4B1B68E1
:1041F000198B1C4B1B68986802AB01F087FD2FE000
:1042000007E02CE017490968886802A902F052F813
:1042100026E01D49097801EB41011C4A02EB8100AF
:1042200000F0A8FE0F48006802AB0021C2691848E0
:1042300001F06CFD17480068401E164908600846EA
:10424000006858B9144800680860FCF7FDFF044690
:1042500002AB22460021114801F058FD00E000BFEA
:1042600000BF3EBD680000205449434BADBAB2BE0A
:104270000DF90BFAF2F8F7FF0006F6FF00F7FDF76D
:1042800000FFEFFF03FE0FFE900000200C580020FF
:10429000D85B00201401002010010020D45C002015
:1042A000002756E0002652E000BF00BFFBF7A0FF4A
:1042B000074600BFFCF738FF00BF2648008898B9C2
:1042C0000020254908810860486000F065FC00BFB7
:1042D000FCF744FF00BF3846FBF78EFF00BF00BF6E
:1042E000FEF77AF8012632E000BFFCF737FF00BF87
:1042F0003846FBF781FF00BF00BFFCF7A5FF05466E
:10430000FFF7FCFEFCF7A0FF441B14480068A04226
:1043100001D21248046000BF00BFFBF769FF0746E7
:1043200000BFFCF701FF00BF0D48006840680C4962
:10433000086008480088401E0649088000BFFCF756
:104340000DFF00BF3846FBF757FF00BF00BF002E30
:10435000AAD0A7E76C0000200C58002074000020B1
:1043600068000020F0B589B005460020314908807A
:104370003148006820B944F25260288009B0F0BD8D
:104380002E480088022803DA44F254602880F5E7BA
:1043900000202B490860284804682646203600275C
:1043A0000CE0284820600020A060E060208260616E
:1043B0002083666020342036781C87B21F4800882E
:1043C0008742EEDB203C1C48066866601E4806609B
:1043D0001E48066000201E4908801E4908801E48AD
:1043E000006818B944F255602880C7E71B48006888
:1043F0001B490968884203D244F256602880BDE711
:10440000032000210591CDE90705069113480068B6
:10441000144A1268104B1B68CDE90301CDE9013243
:1044200000910B46104A11A11748FEF749FA00BF48
:10443000A4E7000070000020647600086876000899
:10444000740000204E4F4E4564000020680000209C
:104450006C0000206E00002070760008787600085E
:10446000B076000874760008A142000875432F4F0B
:10447000532D49494920495352205175657565208E
:104480005461736B000000003457002000218161EB
:104490000749096811B90021C16105E004490968AB
:1044A000C1610349096888610149086070470000DB
:1044B000800000200021034A1160034A118001801E
:1044C00070470000800000208400002070B5014685
:1044D0001A4D2D681DB945F21E750D8070BD184D21
:1044E0002D881DB945F21D750D80F7E7134D28681D
:1044F0002A681032124D2D886D1EACB2002308E0E0
:104500000260002545600581C560103010325D1CD9
:10451000ABB2A342F4DB0025056045600581C560B0
:10452000064D2D68074E3560054D2D88B580002558
:10453000F58035810D8000BFD0E70000947600083B
:104540008C7600080058002010B5014648894B8938
:10455000002B17DD0A680C4B1B6813600A4C4B6874
:1045600023602346DB884C891B1B074CE3802346D2
:104570009B884C892344044CA38000234B818B816E
:104580000B604B6010BD000000580020F0B50446E1
:104590000D46608940B90020288002B1106046F2C3
:1045A000925018800020F0BD61684E68088928800C
:1045B0000AB1C868106008686060606818B90020B7
:1045C0002060608102E06089401E608108480068C8
:1045D0000860074801608088401C054FB880384655
:1045E000C088401EF880002018803046DBE70000BD
:1045F00000580020018100224281828102604260D5
:10460000704700002DE9F0410D46DDE90674B0F871
:104610000AC0B0F80880C44505DB46F2935CA4F8F4
:1046200000C0BDE8F081DFF8DCC0BCF804C0BCF11C
:10463000000F04D145F21D7CA4F800C0F1E7DFF8BB
:10464000C4C0DCF80010DFF8BC80D1F800C0C8F8A6
:1046500000C0C446BCF804C0ACF1010CA8F804C00A
:10466000C446BCF806C00CF1010CA8F806C0C4464C
:10467000BCF808C0B8F80680C44507DADFF884C083
:10468000BCF806C0DFF87C80A8F808C0B0F80AC003
:10469000BCF1000F0AD1016041604FF0010CA0F89D
:1046A0000AC04FF0000CC1F800C017E003F0100C76
:1046B000BCF1000F07D10668316001604FF0000CBB
:1046C000C1F800C004E0D0F804C0C1F800C04160E7
:1046D000B0F80AC00CF1010CA0F80AC0B0F80CC088
:1046E000B0F80A80C44503DAB0F80AC0A0F80CC0DC
:1046F0004D600A81CF604FF0000CA4F800C000BFED
:104700008FE700000058002009A1C161002141612C
:104710000849096811B90021816105E00549096866
:1047200081610449096848610249086070470000D6
:104730002000000088000020C26B0A62C16370473D
:104740002DE9F8430546EC6B26E0D4F82090FCF701
:104750007BFD0646E6622146284600F037F804F164
:104760000808B8F8080020B9002084F82800606222
:1047700011E0D8F8000087686562012084F82800FD
:1047800021463846FFF7D8FF00231A46394620460F
:10479000009600F04DF94C46002CD6D1BDE8F883C8
:1047A00030B504463F2004F13C010BE00D68AB68D6
:1047B0002BB19D6895F83720824200DA10460D68CB
:1047C00005F120010D68002DF0D130BD024602F147
:1047D0003C0002E0036803F1200003688B42F9D13A
:1047E00003681B6A036070470021034A1160034A93
:1047F0001180018070470000880000208C0000209C
:104800002DE9F04105460C4616461F46154800683E
:1048100080F8346000201349096881F83500394672
:104820001048006800F034FF6CB104F10808EC6037
:10483000012229460B48006800F016F82946404638
:1048400000F088F807E0002006490968A1F8460052
:1048500004490968086303480168204600F018F815
:10486000BDE8F0811801002010B5A0F846200163D2
:1048700000230AE000244C600C600C614C610C8346
:10488000CC61886020315C1CA3B29342F2DB10BD86
:1048900030B548B14568C1F8C85000F10804226835
:1048A00093681D6AC56113E091F83450022D02D05F
:1048B000072D08D103E007A5C1F8C85007E007A5F8
:1048C000C1F8C85003E008A5C1F8C85000BF00BF38
:1048D00030BD00005461736B205100005461736B54
:1048E0002053656D000000002000000030B507A5D2
:1048F000C1F8C85000F1080422681AB193681D6A13
:10490000C56101E001A5C56130BD000020000000C7
:104910002DE9F0410446256BB4F8467011E0D5F856
:104920000C8008F108063089012807D9294630464D
:1049300000F05DF82946304600F00CF82035781E6E
:1049400087B2002FEBD1BDE8F0810021016041600A
:1049500001817047F0B58E6896F8375007893FB9E6
:104960000127078100274F600F600160416023E04D
:1049700007897F1C0781026806E0946894F8377005
:10498000AF4200DD02E05268002AF6D100BF32B922
:1049900000274F6043680B60596041600CE0176866
:1049A0002FB9116000270F604A60016004E01368AE
:1049B0000B604A6059601160F0BD2DE9F04104467A
:1049C000256BB4F846600AE0D5F80C8008F10807BA
:1049D0002946384600F00BF82035701E86B2002EAE
:1049E000F2DC0020A4F846002063BDE8F08110B599
:1049F0000489012C03D100240460446011E00C6898
:104A000024B94A680024146002600AE04C6824B9A2
:104A10000B6800245C60436003E00B684A685A60DE
:104A200013600489641E048100244C600C6010BD76
:104A30002DE9F84306460C4617469846089D94F81B
:104A4000360008285BD2DFE800F0040508090607F5
:104A5000323300BF00BF00BF52E000BF94F8340003
:104A6000032807D143463A4621463046009500F0D8
:104A70004AF803E02766A4F86480A56436B12046AE
:104A8000FFF79BFF21463046FFF730FF94F83600D2
:104A9000032802D1204601F077FD204600F070F98E
:104AA00000203434A070607004F8340928E000BF9E
:104AB00094F83400032807D143463A46214630464D
:104AC000009500F020F803E02766A4F86480A56450
:104AD00036B12046FFF771FF21463046FFF706FF4B
:104AE00094F83600072802D1204601F04DFD04203D
:104AF0003434A0700020607004F8340900E000BF76
:104B000000BFBDE8F883F0B50446059E086BB1F818
:104B100046500AE0C768A74204D10461426103839A
:104B2000C66104E020306F1EBDB2002DF2DC00BF74
:104B3000F0BD000070B50025074C03E005F1200032
:104B4000C5B2241D20680028F8D02068FBF75BFB65
:104B50002844C5B2284670BD30000020002004E083
:104B60000021034A42F82010401C0228F8D3704765
:104B70003000002030B5420900F01F030121C3F1CD
:104B80001F04A140034C54F822400C43014D45F84A
:104B9000224030BD3000002030B5420900F01F0334
:104BA0000121C3F11F04A140034C54F822408C435F
:104BB000014D45F8224030BD300000200021034A5D
:104BC0001160034A118001807047000094000020AA
:104BD000980000202DE9F04F85B007468A4693469D
:104BE0001C460020029000BF00BF00BFFBF700FB87
:104BF000029000BFFCF798FA00BF56480078401CAE
:104C00005449087008460078012801D100F086F95F
:104C100000BFFCF7A3FA00BF0298FBF7EDFA00BF54
:104C200000BF00BF07F10806308900284CD104F00E
:104C3000100010B94FF0000801E04FF01008DDE956
:104C40000E0143465A46CDE90001514607F12000C6
:104C5000FFF7D8FC00BF00BF00BFFBF7C9FA029006
:104C600000BFFCF761FA00BF3A480078401E39499E
:104C7000087008460078D0B900F05EF93648008820
:104C800000280BDD00BFFCF769FA00BF0298FBF7B4
:104C9000B3FA00BF00BF00F017F911E000BFFCF746
:104CA0005DFA00BF0298FBF7A7FA00BF08E000BF5B
:104CB000FCF754FA00BF0298FBF79EFA00BF00BF52
:104CC00000BF05B0BDE8F08F04F4007008B135896D
:104CD00000E00125D6F8009011E0D9F80800039013
:104CE000D9F8040004900E985B465246009038466E
:104CF0000399FFF79DFEDDF81090681E85B2002D28
:104D0000EBD100BF00BF00BFFBF772FA029000BFFB
:104D1000FCF70AFA00BF0F480078401E0D490870E2
:104D20000846007808B900F007F900BFFCF716FA4A
:104D300000BF0298FBF760FA00BF00BF00BF04F499
:104D4000004008B9FDF748FB00210F98018000BF23
:104D5000B7E70000A80000206C00002000210AE056
:104D600001EB4102054B03EB82000022028102604D
:104D700042604A1CD1B24029F2D370470C5800203F
:104D800010B5044694F83700FFF7F4FE94F83700A6
:104D900005490978884203D1204600F027F802E04F
:104DA000204600F003F810BD8E00002010B590F8EA
:104DB000373003EB43030C4C04EB83010B893BB905
:104DC00001230B810023C36003610860486009E090
:104DD0000B895B1C0B810B68C360002303610A68AD
:104DE0001061086010BD00000C58002010B590F84C
:104DF000373003EB43030B4C04EB83010B893BB9C6
:104E000001230B810023C36003610860486008E050
:104E10000B895B1C0B810023C3604A680261D06070
:104E2000486010BD0C58002010B501460C8924B113
:104E3000012C03D0022C0CD101E000BF14E0086863
:104E40004A6802610024C4601461D0600A6048604E
:104E50000AE008684A68C36800241C61C4600261F3
:104E6000D0600B60486000BF00BF10BD2DE9F0416D
:104E7000054695F8370000EB4000124901EB80042D
:104E80002F69EE6887B946B90020208120606060F4
:104E900095F83700FFF780FE0EE02089401E208144
:104EA00000203061266007E02089401E2081FE60DE
:104EB0000EB9676000E0376100202861E860BDE856
:104EC000F08100000C58002010B5002400BFFBF753
:104ED0008FF9044600BF00200C4908700C480D49AA
:104EE000086008460068D0F89400401C0968C1F8C2
:104EF000940009480068401C07490860FBF788FBDC
:104F000000BF2046FBF778F900BF10BD8F000020DE
:104F1000345700201C010020D400002010B50448A4
:104F20000078012803D1FCF78FF90249086010BD11
:104F3000A80000209C00002010B50A48007880B925
:104F4000FCF782F908490968441A08480068A04239
:104F500001D20648046006480068A04201D2044815
:104F6000046010BDA80000209C000020A0000020CC
:104F7000A400002070B505460026354800780128B9
:104F800000D070BD00BF00BFFBF732F9064600BF7E
:104F9000FCF7CAF800BF2C684CB900BFFCF7DEF87C
:104FA00000BF3046FBF728F900BF00BFE9E72948FA
:104FB000844209D100BFFCF7D1F800BF3046FBF7AF
:104FC0001BF900BF00BFDCE7E06D10B1E06D401ED3
:104FD000E065E06D48B100BFFCF7C0F800BF3046A7
:104FE000FBF70AF900BF00BFCBE72889022809DADE
:104FF00000BFFCF7B3F800BF3046FBF7FDF800BF79
:1050000000BFBEE714480078002809DD00BFFCF7A8
:10501000A5F800BF3046FBF7EFF800BF00BFB0E7D0
:105020002846FFF701FF2C68A06D18B90B480068EF
:10503000E06501E0A06DE06500BFFCF78FF800BF00
:105040003046FBF7D9F800BF00BF00BF99E700006A
:10505000B000002068560020A8000020AC0000200E
:105060000021034A1160034A11800180704700004B
:10507000B4000020B80000202DE9FF5F04468846F8
:1050800091461D460020019000BF00BFFBF7B0F81D
:10509000019000BFFCF748F800BF04F10807388909
:1050A000002857D10420012804D0022816D0042853
:1050B0003AD127E0206AFF280FD100BFFCF74EF855
:1050C00000BF0198FBF798F800BF00BF46F6C55037
:1050D0002880002004B0BDE8F09F26E04FF6FF7165
:1050E000206A88420DD100BFFCF738F800BF019854
:1050F000FBF782F800BF00BF46F6C55028800020AD
:10510000E8E712E0206A401C68B900BFFCF726F807
:1051100000BF0198FBF770F800BF00BF46F6C5500E
:1051200028800020D6E700E000BF00BF206A401CB6
:105130002062D4F820A0C4F8249000BFFCF70EF839
:1051400000BF0198FBF758F800BF00BF002028807F
:105150005046BFE700BF2D480078401C2B4908701F
:1051600008460078012801D1FFF7D8FE00BFFBF701
:10517000F5FF00BF0198FBF73FF800BF00BF00BF7D
:1051800008F4007008B13E8900E00126D7F800B0AD
:1051900011E0DBF808000290DBF804000390002324
:1051A0001A46CDF8009020460299FFF741FCDDF841
:1051B0000CB0701E86B2002EEBD1D4F820A000BF38
:1051C00000BF00BFFBF714F8019000BFFBF7ACFF76
:1051D00000BF0E480078401E0C4908700846007851
:1051E00008B9FFF7A9FE00BFFBF7B8FF00BF0198A1
:1051F000FBF702F800BF00BF00BF08F4004008B989
:10520000FDF7EAF800202880504663E7A800002058
:1052100086B00020009006E0D8490968480001AA3D
:105220000021FEF737FBD64800780128F4D101A809
:10523000FDF708FA0027D3480068D049096888427A
:1052400005D9D0480068CD490968B0FBF1F727B906
:10525000CC4800680A21B0FBF1F78EE1FBF7F4FFC0
:105260008246FBF74BFFC849086000BF00BFFAF752
:10527000BFFF009000BFFBF757FF00BFC3480068A7
:10528000C34908600020C149086000BFFBF766FF02
:1052900000BF0098FAF7B0FF00BF00BFBD4800682C
:1052A000BB490968884248D9BA480068BA49884267
:1052B00005D242F2107003900120029023E0B5481D
:1052C0000068B649884205D24FF47A7003900A20EC
:1052D000029018E0AF480068B149884203D26420C8
:1052E000039002900FE0AB480068AE49884205D2B7
:1052F0000A2003904FF47A70029004E0012003909A
:1053000042F210700290A34801680298B1FBF0F9D4
:105310009F49039809684843B0FBF9F042F21071C5
:10532000081AA1490880A14800880988884208DA3B
:105330009D4800889D49088003E042F210709A4918
:105340000880FDF7B3FA002500BF00BFFAF750FF51
:10535000009000BFFBF7E8FE00BF9548046800BF5F
:10536000FBF7FCFE00BF0098FAF746FF00BF00BF46
:1053700072E000BF00BF00BFFAF73AFF009000BF25
:10538000FBF7D2FE00BF8B480078401C89490870AB
:1053900008460078012801D1FFF7C0FD00BFFBF7E8
:1053A000DDFE00BF0098FAF727FF00BF00BF00BF77
:1053B00054F8A00F6060002044F8A00900BF00BFAF
:1053C00000BFFAF715FF009000BFFBF7ADFE00BF6E
:1053D00078480078401E7749087008460078D0B9B0
:1053E000FFF7AAFD7448008800280BDD00BFFBF71B
:1053F000B5FE00BF0098FAF7FFFE00BF00BFFFF741
:1054000063FD11E000BFFBF7A9FE00BF0098FAF7AB
:10541000F3FE00BF08E000BFFBF7A0FE00BF00984E
:10542000FAF7EAFE00BF00BF00BFD4F8A4000544AD
:1054300000BF00BFFAF7DCFE009000BFFBF774FE70
:1054400000BFD4F8C44000BFFBF788FE00BF00983F
:10545000FAF7D2FE00BF00BF002C8AD145B34E48F8
:10546000854205D242F2107005904FF0010B1BE00F
:105470004A48854205D24FF47A7005904FF00A0BE6
:1054800012E04748854203D26420059083460BE032
:105490004448854204D20A2005904FF47A7B03E009
:1054A0000120059042F2107BB5FBFBF0049003E075
:1054B000002005900120049000BF00BFFAF798FE7D
:1054C000009000BFFBF730FE00BF3948046800BF02
:1054D000FBF744FE00BF0098FAF78EFE00BF00BF46
:1054E0002FE0D4F8A400059948430499B0FBF1F0EB
:1054F00086B242F21070864200D90646A4F8906047
:10550000B4F89200B04201DAA4F8926001AB04F161
:10551000B002111D2046FDF759FF00BF00BFFAF78A
:1055200067FE009000BFFBF7FFFD00BFD4F8C4404A
:1055300000BFFBF713FE00BF0098FAF75DFE00BF47
:1055400000BF002CCDD11D480078012805D10020D6
:105550001A49087001A8FDF775F8FBF775FEA0EB76
:105560000A0817480068404502D21548C0F8008074
:1055700001AA00213846FEF78DF96FE69C760008F7
:10558000CC000020B47600085C000020C0000020A1
:10559000C8000020C4000020801A060000093D0059
:1055A000005A62020084D717BC000020BE00002011
:1055B000D8000020A80000206C000020BA000020C5
:1055C000D000002010B58AB0044600201F490860B2
:1055D0001F4908601F4908601F4908701F4908706B
:1055E0001F48006820B946F62B6020800AB010BD25
:1055F0001C4800681C490968884203D246F62C60A2
:105600002080F3E7194800783F2803D346F62A6044
:105610002080EBE7032000210591CDE907040691E6
:10562000084610490968124A12680D4B1B68CDE9FB
:105630000132CDE903100D48007800230D4A0EA178
:1056400000901248FDF73CF900BFCFE7C0000020F2
:10565000C8000020C4000020CC000020BA000020B8
:10566000A0760008A8760008B076000898760008B2
:10567000A47600081152000875432F4F532D494955
:10568000492053746174205461736B000C5B0020DB
:1056900070B504460D4645B12A462146064800F03D
:1056A000D1FE032084F8360002E0022084F83600A0
:1056B0002046FFF7DBFB70BDF00000202DE9F04134
:1056C00004460D4600BF002694F8377094F8360063
:1056D00008285FD2DFE800F004191E1F1A1B2021E2
:1056E0002046FFF7C3FB84F8375094F83700FFF7E4
:1056F00041FA2C480068844203D12046FFF756FB4C
:1057000002E02046FFF772FB46E000BF00BF84F8CE
:10571000375041E000BF00BF00BF84F8375094F815
:105720003400082831D2DFE800F0300431050B06E0
:10573000073200BF00BF00BF2046FFF7E9F827E0AF
:105740002046FFF7E5F8206BC068466AAF4205DDEA
:1057500096F83700A84217DC002615E096F83700C7
:10576000B84211D13046FFF71BF8054696F83800CD
:10577000A84202DA96F8380000E02846054696F876
:105780003700A84200D1002602E000BF00BF00BFE2
:1057900000BF01E0BDE8F08100BF3446002C92D18B
:1057A00000BFF7E7180100200021C0F8C010094928
:1057B000096819B90021C0F8C41007E00549096853
:1057C000C0F8C41003490968C1F8C0000149086065
:1057D00070470000D8000020D0F8C020D0F8C410D6
:1057E0004AB90D4B196011B10023C1F8C030002334
:1057F000C0F8C4300FE029B90023C2F8C430C0F8A3
:10580000C03008E0C2F8C410C1F8C0200023C0F8BE
:10581000C430C0F8C0307047D80000200021044ACE
:105820001160044A1180044A116001807047000031
:10583000D8000020DC000020D400002070B5044611
:1058400000202060A0606060E06020616061A06175
:10585000E0612BA0206200206062A062E062206311
:10586000A4F84600A0642066A4F86400002104F1B6
:105870006800FEF7BFFE002044F8780F6060E0602B
:10588000A0822061783C002506E0002104F1800020
:1058900040F82510681CC5B2002DF6D00020343425
:1058A000A0616067A067E06084F85A00C4F88000D7
:1058B000E0672082E06120626062A062A4F85C0080
:1058C000A4F85E0020666066FBF7BEFC0646A6668E
:1058D0000020E066C4F88400C4F88800207060707E
:1058E000A0704020E07020710020A060C4F88C00FF
:1058F000C4F8900004A0C4F89400343C70BD0000CB
:105900003F5461736B000000200000002DE9FC474C
:1059100004460F4690469946DDE90A654FF0000AB5
:105920000020288000BF00BF00BFFAF761FC82465C
:1059300000BFFBF7F9FB00BF8C480078401C8B4987
:10594000087008460078012801D1FFF7E7FA00BF88
:10595000FBF704FC00BF5046FAF74EFC00BF00BF47
:1059600000BF0CB98248046894F8360008287CD23D
:10597000DFE800F00405484906074A4B00BF00BFB6
:1059800000BF4B464246394604F16800CDE9006548
:10599000FEF738FE00BF00BF00BFFAF729FC8246C1
:1059A00000BFFBF7C1FB00BF70480078401E6F4985
:1059B000087008460078D0B9FFF7BEFA6D48008835
:1059C00000280BDD00BFFBF7C9FB00BF5046FAF70C
:1059D00013FC00BF00BFFFF777FA11E000BFFBF731
:1059E000BDFB00BF5046FAF707FC00BF08E000BF50
:1059F000FBF7B4FB00BF5046FAF7FEFB00BF00BF49
:105A000000BFAFE000BF00BF00BF94F83400022821
:105A10002CD143463A46214600200096FFF708F86D
:105A200000BF00BF00BFFAF7E3FB824600BFFBF7F1
:105A30007BFB00BF4D480078401E4C49087008466B
:105A4000007808B9FFF778FA00BFFBF787FB00BFC3
:105A50005046FAF7D1FB00BF00BF00BF09F4004079
:105A6000002843D1FCF7B8FC40E040E04B464246FA
:105A7000394604F16800CDE90065FEF7C3FD00BFBB
:105A800000BF00BFFAF7B4FB824600BFFBF74CFB38
:105A900000BF36480078401E344908700846007838
:105AA000D0B9FFF749FA3348008800280BDD00BF62
:105AB000FBF754FB00BF5046FAF79EFB00BF00BF48
:105AC000FFF702FA11E000BFFBF748FB00BF5046AA
:105AD000FAF792FB00BF08E000BFFBF73FFB00BFF7
