:0A0A4E005365742054656D703A0082
:1009BE00C103C1040A294163742054656D703A0065
:1009CE000227000102250000023300190421000055
:0209DE00000017
:10094F00D2B7E4FF0FBF02FCC2B7E4FF0FBFC8FC72
:10095F00D2B7E4FF0FBF0AFCA2B79202E4FF0FBFAA
:06096F00C8FCD2B7A20291
:01097500225F
:100924007D08D2B7E4FE0EBE01FCC2B7EF1392B746
:10093400E4FE0EBE0BFCD2B7E4FE0EBE01FCEFC318
:0A09440013FFDDDEE4FE0EBE04FC2E
:01094E002286
:1008F500E4FF7E08D2B7E4FD0DBD01FCC2B7EFC32E
:1009050013FFE4FD0DBD01FCD2B7E4FD0DBD02FCF6
:0E09150030B703430780E4FD0DBD08FCDED6BD
:0109230022B1
:10057800C2AF12094F7FCC1209247F44120924E428
:10058800FFFE0FBF00010EBE19F8BF64F512094F38
:100598007FCC1209247FBE1209241208F58F191284
:1005A80008F58F18E518D394F8403E6318FF6319CF
:1005B800FFAC18E4120278E4FBFA79807843120061
:1005C800FBC004C005C006C007E5192401FDE433DB
:1005D800FCE4120273D003D002D001D00012000A4A
:1005E800E4FBFA798078BD8030AC18E4120278E434
:1005F800FBFA798078431200FBC004C005C006C02E
:1006080007AC19E4120278D003D002D001D000124E
:10061800000AE4FBFA7980783D1200FB8F178E16EA
:0C0628008D158C14AF17AE16AD15AC1478
:0106340022A3
:1007520090000212034624D0FFE434FFFE7C007DA9
:100762000A1203A7C006C00790000112034624D054
:10077200FFE434FFFE7D641203A7D0E02FFFD0E038
:100782003EFE90000312034624D0FDEC34FFCD2F31
:10079200FFED3EFEC3EF9464EE9400502DC3EF9440
:1007A2000AEE9400400812032D9000018014C3EE5B
:1007B2009400401612032D9000021203859000014E
:0A07C20074201203857420120373E3
:0107CC00220A
:0E0452008F178E168D158C148B188A19891A27
:10046000E4FFFEFDFCAB17AA16A915A814120201A1
:10047000AB18AA19A91A60094007742012037380E7
:100480001F742D120373AF17AE16AD15AC14E4FB39
:10049000FA798078BF1200FB8F178E168D158C1499
:1004A000AF17AE16AD15AC14E4FBFA79C87842125A
:1004B00000FB8F178E168D158C141202AC8E1B8FBD
:1004C0001C7C277D101203B9EF2430AB18AA19A9A0
:1004D0001A900001120385AE1BAF1C7C277D101201
:1004E00003B97E037FE8CFCDCFCECCCE1203B9EFD8
:1004F0002430AB18AA19A91A900002120385AE1B6A
:10050000AF1C7C037DE81203B97E007F64CFCDCFA2
:10051000CECCCE1203B9EF2430AB18AA19A91A9089
:100520000003120385900004742E120385AE1BAFE6
:100530001C7C007D641203B97E007F0ACFCDCFCE34
:10054000CCCE1203B9EF2430AB18AA19A91A900027
:1005500005120385AE1BAF1C7C007D0A1203B9EDAA
:100560002430AB18AA19A91A90000612038590002E
:0805700007E4120385020752A3
:0409FD007F057E00F4
:100A0100EF1FAA0670011E4A600BE4FDEDC394C8F6
:050A110050EE0D80F71E
:010A160022BD
:0E0A17007C001203A7C374109FFF74279EFE7D
:0B0A2500EF1FAC0670011E4C70F622A3
:100A3000C2A0D2A1D2A200000000E580339201C280
:030A4000A2A2016E
:010A43002290
:1009E100120A3040FBC2A0C2A1C2A200008F800047
:0C09F100000000D2A200000000C2A22200
:0B0976007C007D0A12040EED2430FF0F
:10098100120A3040FBD2A0C2A1C2A28F8000000097
:0A09910000D2A200000000C2A22262
:10099B007F011209E11209FD7F381209E11209FDED
:1009AB007F0C1209E11209FD7F061209E11F7E007F
:0309BB00020A012C
:070A5800EF4480FF0209E1F9
:1008C10012094F92011205788F0B8E0A8D098C083F
:1008D1001202AC8E258F26850B24850A23850922D9
:1008E100850821AF0BAE0AAD09AC087B007A00790F
:0408F1000C0204529F
:0A0A4400EF1F70011E144E70F72220
:10063500E4FF120A58E4FEEE900A4E93FF12098178
:100645000EBE09F37F0A120A58AE33AF347C007D23
:100655000A12040EEF2430FF120981AE33AF3412B3
:1006650009767F0E120A587F431209817F40120ACC
:1006750058E4FE74292EF8E6FF1209810EBE09F32F
:100685007F4A120A58AE25AF267C007D0A12040E59
:10069500120976AE25AF261209767F2E120981E45E
:1006A500FFFE7D207C41AB24AA23A922A8211200AC
:1006B500FB1202AC1209767F4E120A587F430209DB
:0106C50081B3
:10083300E5342402FFE43533FED3E5269FEE6480DE
:10084300F8E5256480984009D2B2D2B0C203C290C1
:1008530022E53424FEFFE53334FFFEC3E5269FEE95
:100863006480F8E5256480985009D2B2D2B1D203EE
:08087300C29022C2B2D2902211
:10087B0020B40F7F0A7E00120A2520B402B2043086
:10088B00B4FD30043020B5157F0A7E00120A2520F6
:10089B00B5080534E5347002053330B5FD20B615C7
:1008AB007F0A7E00120A2520B608E5341534700243
:0608BB00153330B6FD22EA
:1007CD0012099B800330000712094F920080F61228
:1007DD0005788F248E238D228C217F507EC3120AA3
:1007ED00441208C112063512083312087B30031B60
:1007FD00C2B0AE33AF347C007D961203A7120A252A
:10080D00D2B0AE33AF34120A1780D6C2B1AE25AF17
:10081D00267C007D961203A7120A25D2B1AE25AF14
:06082D0026120A1780BB31
:10000300020318E86480F8E933E83360110460F010
:10001300ED33EC337009E8FCE9FDEAFEEBFF220463
:1000230060DED3EB9FEA9EE99DE8C2E78CF0C2F75E
:1000330095F0400CE8CCF8E9CDF9EACEFAEBCFFB2A
:100043001202E385D0F05804700320D5B3E804709E
:10005300075002B2D502032292D5EC0460F7E4CC38
:10006300C0E0C398F8603B94186008400DD0E0FBF3
:100073000202FAE4FBFAC9FC8028E830E406E4C98A
:10008300FBE4CAFCE830E305E4C9CACBFCE8540747
:100093006010F8C3E913F9EA13FAEB13FBEC13FC52
:1000A300D8F130F52FC3E49CFCEF9BFFEE9AFEEDF5
:1000B30099FDD0E0FBEF4E4D4C701222DB0302039F
:1000C3001FEC2CFCEF33FFEE33FEED33FDED30E799
:1000D300EB0202FAEF2BFFEE3AFEED39FDD0E0FB27
:1000E30050130BBB0003020322ED13FDEE13FEEFCF
:0800F30013FFEC13FC0202FAFA
:1000FB00EC4D6011E8497017ED33EC3304600DE4FF
:10010B00FCFFFEFD22E933E8330470F802031812FA
:10011B0002E358046009E4CC2481500628500902FC
:10012B00032228400302031FC0E0EB4A7044B9804E
:10013B0006D0E0FB02030EEF4E701CBD8008EBFFF8
:10014B00EAFEE9FD80EBE98DF0A4FEE5F00201E4A7
:10015B00E9CDF9EAFEEBFFEF89F0A4FCE5F0CE89DF
:10016B00F0A42EFFE435F0CD89F0A42DFEE435F09C
:10017B008067EF4E7005BD80D780C3EF8BF0A4ACCA
:10018B00F0EE8BF0A42CFCE435F0F8EF8AF0A42C05
:10019B00E5F038FCE433CB8DF0A42CFCE5F03BF818
:1001AB00EE8AF0A42CFCE5F038F8E433CF89F0A408
:1001BB002CFCE5F038CF3400CE89F0A42FFFE5F00E
:1001CB003EFEE433C98DF0A42EFEE5F039CD8AF066
:1001DB00A42FFFE5F03EFEE43DFD33D0E0FB5007DE
:1001EB000BBB000F020322EC2CFCEF33FFEE33FEB4
:0601FB00ED33FD0202FAE3
:1002010074F8CC6480CCC86480C8F582046043C3B0
:10021100EB9FF5F0EA9E42F0E99D42F0E89C45F043
:1002210060305018E5825FFFE582F42B5582FB5068
:10023100210ABA001D09B90019088016E5825BFB85
:10024100E582F42F5582FF50090EBE00050DBD0059
:10025100010CC3EB9FF5F0EA9E42F0E99D42F0E804
:0D0261009C45F06007CC4820E701B3EC227B
:10026E0075F020800E75F010800575F0087D007E0B
:10027E00007F003392D530D503120444EC33401086
:10028E00EF33FFEE33FEED33FDEC33FCD5F0ED2214
:0E029E00E5F0247EA2D513CC92E7CDCEFF2250
:1002AC00EDD2E7CD33EC3392D524814006E4FFFE4A
:1002BC00FDFC22FCE4CFCECDCC24E0501174FF80A9
:1002CC00EDC3CC13CCCD13CDCE13CECF13CF047046
:0702DC00F030D5DE020444FE
:1002E300E9D2E7C933E833F892D5EDD2E7CD33EC61
:0702F30033FC5002B2D522DA
:1002FA00EC30E7100FBF000C0EBE00080DBD000465
:10030A000BEB6014A2D5EB13FCED92E7FD2274FF10
:10031A00FCFDFEFF22E480F8A2D574FF13FC7D8069
:03032A00E480EF7D
:030000000206C62F
:0C06C600787FE4F6D8FD75813402070D42
:10032D00BB010689828A83E0225002E722BBFE02CE
:09033D00E32289828A83E4932201
:10034600BB010CE58229F582E5833AF583E022506C
:1003560006E92582F8E622BBFE06E92582F8E222B6
:0D036600E58229F582E5833AF583E49322D0
:10037300BB010689828A83F0225002F722BBFE0169
:02038300F32263
:10038500F8BB010DE58229F582E5833AF583E8F0AE
:10039500225006E92582C8F622BBFE05E92582C85A
:0203A500F22242
:1003A700EF8DF0A4A8F0CF8CF0A428CE8DF0A42E6A
:0203B700FE2224
:1003B900BC000BBE0029EF8DF084FFADF022E4CC28
:1003C900F875F008EF2FFFEE33FEEC33FCEE9DECF1
:1003D900984005FCEE9DFE0FD5F0E9E4CEFD22ED37
:1003E900F8F5F0EE8420D21CFEADF075F008EF2F81
:1003F900FFED33FD4007985006D5F0F222C398FD72
:050409000FD5F0EA220E
:10040E00C2D5EC30E709B2D5E4C39DFDE49CFCEE09
:10041E0030E715B2D5E4C39FFFE49EFE1203B9C3C5
:10042E00E49DFDE49CFC80031203B930D507C3E4C0
:06043E009FFFE49EFE2278
:0E044400C3E49FFFE49EFEE49DFDE49CFC22C9
:1006D2000207CDE493A3F8E493A34003F68001F26A
:1006E20008DFF48029E493A3F85407240CC8C33329
:1006F200C4540F4420C8834004F456800146F6DFF8
:10070200E4800B01020408102040809009BEE47EC0
:10071200019360BCA3FF543F30E509541FFEE493EC
:10072200A360010ECF54C025E060A840B8E493A3B3
:10073200FAE493A3F8E493A3C8C582C8CAC583CADE
:10074200F0A3C8C582C8CAC583CADFE9DEE780BE96
:0109E0000016
:00000001FF
