:020000040800F2
:10000000A07600209D010008BD1D0008391C0008D5
:10001000911C00086B150008BD7A00080000000064
:100020000000000000000000000000007D760008D5
:10003000151A000800000000B1060008BD3F0008C6
:10004000D7010008D7010008D7010008D701000830
:10005000D7010008D7010008191A0008D7010008C5
:10006000D7010008D7010008D7010008D701000810
:10007000D7010008D7010008D7010008D701000800
:10008000D7010008D7010008D7010008D7010008F0
:10009000D7010008D7010008D7010008D7010008E0
:1000A000D7010008D7010008D7010008D7010008D0
:1000B000D7010008D7010008D7010008D7010008C0
:1000C000D7010008D7010008D7010008D7010008B0
:1000D000D701000815780008D7010008D7010008EB
:1000E000D7010008D7010008D7010008D701000890
:1000F000D7010008D7010008D7010008D701000880
:10010000D7010008D7010008D7010008D70100086F
:10011000D7010008D7010008D7010008D70100085F
:10012000D7010008D7010008D7010008D70100084F
:10013000D7010008D7010008D7010008D70100083F
:10014000D7010008D7010008D7010008D70100082F
:10015000D7010008D7010008D7010008D70100081F
:10016000D7010008D7010008D7010008D70100080F
:10017000D7010008D7010008D7010008D7010008FF
:10018000D7010008D7010008DFF80CD000F0FAF919
:100190000048004739800008A0760020DFF83800CA
:1001A000016841F470010160BFF34F8FDFF82C004C
:1001B000016821F040410160BFF36F8F084880471C
:1001C00008480047FEE7FEE7FEE7FEE7FEE7FEE73A
:1001D000FEE7FEE7FEE7FEE788ED00E034EF00E033
:1001E000AD7700088901000872B6704762B67047A3
:1001F000EFF3108072B6704780F31088704730BFFD
:10020000704720BF7047B0FA80F0704790FAA0F0B6
:10021000B0FA80F0704790FAA0F070472DE9F05FD7
:100220000546002092469B46884606468146402465
:100230001BE0284641464746224600F036F9534621
:100240005A46C01A914110D311461846224600F072
:100250001DF92D1A67EB01084F46224601200021A7
:1002600000F014F917EB00094E41201EA4F101041F
:10027000DFDC484631462A464346BDE8F09F2DE97B
:10028000FE4F81EA030404F0004421F00041009491
:100290004FF0000B23F0004350EA01045ED052EA15
:1002A00003045BD0C3F30A54C1F30A552C44A4F2EF
:1002B000F3340194A0FB0254C1F3130141F4801103
:1002C000C3F3130343F4801301FB024400FB034E0A
:1002D000840A970A44EA815447EA8357A4FB0768D3
:1002E00002958D0A05FB07854FEA932C04FB0C54FD
:1002F0002705029D4FEA065847EA1637B5EB080571
:100300006EEB070C870E920E47EA811742EA8312C2
:10031000A7FB0201B6EB0B0164EB00042B0D43EAD3
:100320000C335E1844EB1C50DA465146E7FB0201E1
:10033000C5F313044FEA0B3343EA14534FEA043274
:10034000019C43EA0603A4F10C040294009CCDE94D
:1003500000B400F0C9F803B0BDE8F08F00200146FA
:10036000F9E72DE9F04D81EA030404F0004B21F098
:10037000004514464FF0000A23F0004150EA050200
:1003800020D054EA01021DD0C5F30A570246C5F336
:100390001303C1F31300C1F30A5640F4801543F46C
:1003A0008013A7EB0608101BD64608F2FD3873EB46
:1003B000050002D308F1010801E092185B41B8F191
:1003C000000F03DA00200146BDE8F08D00204FF455
:1003D0008011064684460EE0171B73EB050705D314
:1003E000121B63EB050306434CEA010C49084FEA74
:1003F000300092185B4150EA0107EDD152EA030048
:1004000012D082EA040083EA0501084305D0101BDC
:10041000AB4106D20122002306E000224FF0004348
:1004200002E06FF0010253101AEB06004CEB08518A
:1004300010EB0A0041EB0B01BDE8F04D00F045B8B0
:100440000EB540F2334102910021CDE900110A4678
:100450000B4600F049F803B000BDC1F30A5210B5D5
:10046000C1F3130140F2FF3341F480119A4201DAE3
:10047000002010BD40F233439A42A2F2334203DC23
:10048000524200F012F810BD904010BD202A04DB4B
:10049000203A00FA02F1002070479140C2F1200397
:1004A00020FA03F3194390407047202A04DB203AD6
:1004B00021FA02F00021704721FA02F3D040C2F184
:1004C0002002914008431946704710B5141E73F17D
:1004D000000408DA401C41F1000192185B411A4304
:1004E00001D120F0010010BD2DE9F04D92469B4650
:1004F00011B1B1FA81F202E0B0FA80F220329046F6
:10050000FFF7C4FF04460F4640EA0A0041EA0B0128
:1005100053465A46084313D0114653EA010019D0F6
:10052000C8F140025046FFF7C0FF05460E46504650
:1005300059464246FFF7AAFF084305D0012004E0D0
:1005400020463946BDE8F08D0020054346EAE076B6
:100550002C4337430A986305E40AA0EB0800002205
:10056000FD0A44EA47540A3002D500200146E9E773
:10057000010510196941DDE9084500196941BDE827
:10058000F04DA2E7064C074D06E0E06840F001039D
:1005900094E8070098471034AC42F6D3FFF7F8FD13
:1005A00098820008B882000870B58C1810F8015BBA
:1005B00015F0070301D110F8013B2A1106D110F8FC
:1005C000012B03E010F8016B01F8016B5B1EF9D100
:1005D0002B0705D40023521E0DD401F8013BFAE786
:1005E00010F8013BCB1A921C03E013F8015B01F8F1
:1005F000015B521EF9D5A142D8D3002070BD000086
:10060000EFF3098141B1F1EE101A40F8041D20ED1D
:10061000200A3B490A6810607047B0EC200A02C803
:10062000E1EE101A37490A681060704772B64EF64C
:100630002250CEF2000040F2FF01C0F20001017032
:1006400040F22410C2F20000016881F3088840F2F1
:100650009200C2F2000040F29301C2F200010A7857
:10066000027040F21C15C2F2000540F22011C2F2E5
:1006700000010A682A60106880F30988EFF314808B
:1006800040F0020080F31488BFF36F8FBDE8F00FD5
:100690000FBCBDE8005006BC62B608471A484FF0D0
:1006A00080510160704718484FF0805101607047D9
:1006B00072B6EFF3098020E9F00F40F21C15C2F288
:1006C00000052E683060744603F044FB40F292004F
:1006D000C2F2000040F29301C2F200010A780270F7
:1006E00040F22011C2F200010A682A6044F0F40EC0
:1006F0001068B0E8F00F80F3098862B67047000018
:100700001C0100202001002004ED00E02DE9FF473E
:1007100000245DE0324830F8140085B2314830F9E9
:10072000140000282BDA684285B20A2095FBF0F10C
:1007300000FB1156642095FBF0F100FB11500A21DB
:1007400090FBF1F74FF47A7095FBF0F100FB11503C
:10075000642190FBF1F84FF47A7095FBF0F9214891
:10076000CDE90098CDE9027630F8140083B21D4837
:1007700030F91420611C1CA007F0A2F926E00A2021
:1007800095FBF0F100FB1156642095FBF0F100FBA6
:1007900011500A2190FBF1F74FF47A7095FBF0F1BC
:1007A00000FB1150642190FBF1F84FF47A7095FB37
:1007B000F0F90C48CDE90098CDE9027630F9143013
:1007C00030F91420611C12A007F07AF9601C84B281
:1007D000082C9FDB082118A007F072F9BDE8FF87FD
:1007E000D4420020E44200202043482564203D20DC
:1007F0002536642C30782530345820282D25642E59
:10080000256425642564205629200D0A0000000077
:100810002043482564203D202536642C307825303F
:10082000345820282025642E25642564256420560C
:1008300029200D0A000000001B5B25644100000018
:1008400010B5002326E0184600F02EF800B2134938
:1008500021F81300084630F8130084B210480078DD
:1008600058B941F28830604347F6FF7190FBF1F0D0
:1008700000B20C4921F813000AE042F21070604304
:1008800047F6FF7190FBF1F000B2064921F8130022
:10089000581CC3B2082BD6DB10BD0000E442002078
:1008A00010000020D44200200146012080F310886F
:1008B00000BF044830F81120002080F3108800BFEA
:1008C00010467047C442002010B58021114801F045
:1008D000A6F9F0B940210F4801F0AAF9002410E070
:1008E00007F076FB0C4921F8140007F071FB0A4968
:1008F00011F8141000EB0120074921F81400601CC6
:10090000C4B2082CECDB4021024801F093F900F05E
:1009100005F810BD000C0240C442002010B54FF491
:100920000051094801F084F94FF40051064801F0E4
:100930007FF94FF40051044801F07AF94FF4005167
:10094000014801F077F910BD0010024008B50024FD
:1009500006F080FC07F006FBB7E000BF00BF00BF59
:10096000FFF746FC044600BF00F09CFE00BF57485E
:100970000078401C5549087008460078012801D1CC
:1009800004F096FD00BF00F0A7FE00BF2046FFF771
:1009900033FC00BF00BF00BFFFF796FF00BF00BFE2
:1009A00000BFFFF725FC044600BF00F07BFE00BF40
:1009B00046480078401E4549087008460078D0B97E
:1009C00004F084FD4248008800280BDD00BF00F0E1
:1009D00083FE00BF2046FFF70FFC00BF00BF04F0FE
:1009E0003DFD11E000BF00F077FE00BF2046FFF79D
:1009F00003FC00BF08E000BF00F06EFE00BF204611
:100A0000FFF7FAFB00BF00BF00BFFFF719FF00BFF1
:100A100000BF00BFFFF7ECFB044600BF00F042FE42
:100A200000BF2A480078401C284908700846007812
:100A3000012801D104F03CFD00BF00F04DFE00BFD5
:100A40002046FFF7D9FB00BF00BF00BFFFF75EFEE7
:100A500000BF00BF00BFFFF7CBFB044600BF00F0A4
:100A600021FE00BF19480078401E1849087008464A
:100A70000078D0B904F02AFD1548008800280BDD65
:100A800000BF00F029FE00BF2046FFF7B5FB00BF06
:100A900000BF04F0E3FC11E000BF00F01DFE00BF4A
:100AA0002046FFF7A9FB00BF08E000BF00F014FEDE
:100AB00000BF2046FFF7A0FB00BF00BF00BF6A4693
:100AC00000214FF4FA7003F0AFF946E7AC000020C4
:100AD0007000002008B500244FF4A06001F0D4F9A4
:100AE00000F0C4FE2146002000F0A0FE0CE02046ED
:100AF00000F0E8FEB4F5486F00DD002432346A46A9
:100B00000021642003F090F9F1E708B54FF4486440
:100B10004FF4A06001F0B8F900F012FF2146002068
:100B200000F094FE0CE0204600F036FF0A2C01DABB
:100B30004FF44864323C6A460021642003F074F9A3
:100B4000F1E7000008B50027684603F031FA0546D2
:100B500000F0FCFC06468AE16B4600221146104676
:100B600002F0ACFD00F088FD044600BF00BF00BFEE
:100B7000FFF73EFB074600BF00F094FD00BFBC48F6
:100B80000078401CBA49087008460078012801D155
:100B900004F08EFC00BF00F09FFD00BF3846FFF759
:100BA0002BFB00BF00BF00BF642095FBF0F100FBF2
:100BB000115842F2107095FBF0F100FB11506421C6
:100BC00090FBF1F942F2107095FBF0FA43464A4669
:100BD0005146A8A006F074FFAE48B6FBF0F84146B7
:100BE000ADA006F06DFFAB48B6FBF0F0B4FBF0F83B
:100BF0004146AEA006F064FFA648B6FBF0F0B1494E
:100C00000968B1FBF0F84146AFA006F059FFB548BE
:100C10000168B5A006F054FFB9480088642190FB34
:100C2000F1F201FB1208B648008890FBF1F9424648
:100C30004946B4A006F044FFB8480088642190FB00
:100C4000F1F201FB1208B548008890FBF1F9424629
:100C50004946B3A006F034FFB848B0F890006421CC
:100C600090FBF1F201FB1208B448B0F8900090FB41
:100C7000F1F942464946B2A006F022FFAF48B0F86B
:100C80009200642190FBF1F201FB1208AB48B0F82E
:100C9000920090FBF1F942464946B1A006F010FFE0
:100CA000B848B0F89000642190FBF1F201FB120803
:100CB000B448B0F8900090FBF1F942464946B2A022
:100CC00006F0FEFEAF48B0F89200642190FBF1F20E
:100CD00001FB1208AB48B0F8920090FBF1F94246D4
:100CE0004946B1A006F0ECFEB948B0F89000642186
:100CF00090FBF1F201FB1208B548B0F8900090FBB0
:100D0000F1F942464946B3A006F0DAFEB048B0F821
:100D10009200642190FBF1F201FB1208AC48B0F89C
:100D2000920090FBF1F942464946B2A006F0C8FE97
:100D3000BA48B0F89000642190FBF1F201FB120870
:100D4000B648B0F8900090FBF1F942464946B4A08D
:100D500006F0B6FEB148B0F89200642190FBF1F2C3
:100D600001FB1208AD48B0F8920090FBF1F9424641
:100D70004946B3A006F0A4FEBB48B0F89000642139
:100D800090FBF1F201FB1208B748B0F8900090FB1D
:100D9000F1F942464946B5A006F092FEB248B0F8D5
:100DA0009200642190FBF1F201FB1208AE48B0F80A
:100DB000920090FBF1F942464946B5A006F080FE4C
:100DC0005E48D0F8B420D0F8B010BCA006F078FE91
:100DD0007F48D0F8B420D0F8B010C3A006F070FE61
:100DE0008E48D0F8B420D0F8B010CAA006F068FE43
:100DF0009D48D0F8B420D0F8B010D1A006F060FE25
:100E000000BF00BF00BFFFF7F3F9074600BF00F0C7
:100E100049FC00BF16480078401E15490870084676
:100E20000078D0B904F052FBD148008800280BDDCF
:100E300000BF00F051FC00BF3846FFF7DDF900BFEE
:100E400000BF04F00BFB11E000BF00F045FC00BF49
:100E50003846FFF7D1F900BF08E000BF00F03CFCC6
:100E600000BF3846FFF7C8F900BF00BF00BF73E6F8
:100E7000AC0000200D0A75432F4F53B0E6B1BEBA47
:100E8000C5A3BA5625642E253032642E253032642F
:100E90000D0A000040420F00435055D6F7C6B5A3D7
:100EA000BA2564204D487A0D0A000000D7EEB4F34D
:100EB000D6D0B6CFCAB1BCE4A3BA25642075730DF1
:100EC0000A000000A4000020D7EEB4F3CBF8B5F779
:100ED000B6C8C6F7CAB1BCE4A3BA25642075730DC1
:100EE0000A000000D8000020C8CECEF1C7D0BBBB9E
:100EF000D7DCB4CECAFDA3BA25640D0A00000000F9
:100F0000C0000020435055CAB9D3C3C2CAA3BA25F2
:100F1000642E256425250D0A00000000C200002073
:100F2000435055D7EEB4F3CAB9D3C3C2CAA3BA2546
:100F3000642E256425250D0A0000000030030020E2
:100F4000B4AEBFDAC8CECEF1B5C4435055CAB9D39A
:100F5000C3C2CAA3BA25642E256425250D0A000044
:100F6000B4AEBFDAC8CECEF1B5C4435055D7EEB457
:100F7000F3CAB9D3C3C2CAA3BA25642E25642525F2
:100F80000D0A0000FC030020B0B4BCFCC8CECEF1BA
:100F9000B5C4435055CAB9D3C3C2CAA3BA25642E37
:100FA000256425250D0A0000B0B4BCFCC8CECEF1E6
:100FB000B5C4435055D7EEB4F3CAB9D3C3C2CAA31C
:100FC000BA25642E25642525202020200D0A000046
:100FD0006006002044414331C8CECEF1B5C4435031
:100FE00055CAB9D3C3C2CAA3BA25642E2564252520
:100FF0000D0A000044414331C8CECEF1B5C4435080
:1010000055D7EEB4F3CAB9D3C3C2CAA3BA25642E66
:1010100025642525202020200D0A00002C07002013
:1010200044414332C8CECEF1B5C4435055CAB9D3BA
:10103000C3C2CAA3BA25642E256425250D0A000063
:1010400044414332C8CECEF1B5C4435055D7EEB477
:10105000F3CAB9D3C3C2CAA3BA25642E2564252511
:10106000202020200D0A0000F807002041444320E2
:10107000657874C8CECEF1B5C4435055CAB9D3C350
:10108000C2CAA3BA25642E256425250D0A000000D6
:1010900041444320657874C8CECEF1B5C443505561
:1010A000D7EEB4F3CAB9D3C3C2CAA3BA25642E25F6
:1010B000642525202020200D0A000000B4AEBFDAF0
:1010C000C8CECEF1B5C4D2D1D3C3BACDBFD5CFD05F
:1010D000B6D1D5BBB4F3D0A1B7D6B1F0CEAAA3BADE
:1010E00025642C25640D0A0044414331C8CECEF15D
:1010F000B5C4D2D1D3C3BACDBFD5CFD0B6D1D5BB6D
:10110000B4F3D0A1B7D6B1F0CEAAA3BA25642C25EA
:10111000640D0A0044414332C8CECEF1B5C4D2D1E9
:10112000D3C3BACDBFD5CFD0B6D1D5BBB4F3D0A140
:10113000B7D6B1F0CEAAA3BA25642C25640D0A0057
:1011400041444320657874C8CECEF1B5C4D2D1D322
:10115000C3BACDBFD5CFD0B6D1D5BBB4F3D0A1B72C
:10116000D6B1F0CEAAA3BA25642C25640D0A0000DE
:101170007000002008B50BE00648006880F0010010
:10118000044908606A4600214FF4FA7002F04CFEF0
:10119000F2E700001408024008B50BE006480068BA
:1011A00080F00800044908606A4600214FF4FA7094
:1011B00002F03AFEF2E70000140C024070B58AB06B
:1011C000064600F0D4F900F0C8F900F0BFF9044673
:1011D00065480068B4FBF0F5284602F00FFF00F008
:1011E00063FD09A801F0ACFD00F030FA09AA002166
:1011F000012001F041FC09A8042146235B4ACDE906
:1012000000105BA15E4800F0B3FF09A80321002293
:101210000592CDE90621089032204FF40071332267
:10122000584BCDE90132CDE9031003200023564A83
:1012300056A10090594801F00DFE09A80321002293
:101240000592CDE90621089032204FF40071332237
:10125000534BCDE90132CDE9031003200023514A5D
:1012600051A10090544801F0F5FD09A80321002286
:101270000592CDE90621089005204FF40071332234
:101280004E4BCDE90132CDE90310032000234C4A37
:101290004CA100904F4801F0DDFD09A80321002278
:1012A0000592CDE90621089005204FF40071332204
:1012B000494BCDE90132CDE9031003200023474A11
:1012C00047A100904A4801F0C5FD09A8032100226A
:1012D0000592CDE90621089005204FF400713322D4
:1012E000444BCDE90132CDE9031003200023424AEB
:1012F00042A10090454801F0ADFD09A8032100225C
:101300000592CDE90621089005204FF400713322A3
:101310003F4BCDE90132CDE90310032000233D4AC4
:101320003DA10090404801F095FD09A8032100224D
:101330000592CDE90621089005204FF40071332273
:101340003A4BCDE90132CDE9031003200023384A9E
:1013500038A100903B4801F07DFD09A9002001F073
:10136000C5FE0AB070BD0000F88000084C010020E6
:101370004D656D20466F7220546573740000000047
:101380002C010020C40A002049140008417070207C
:101390005461736B20557361727400003003002038
:1013A000C4120020450B0008417070205461736B1B
:1013B000204B657900000000FC030020C41A0020C7
:1013C00075110008417070205461736B204C656486
:1013D00031000000C8040020C42200209911000838
:1013E000417070205461736B204C656432000000C2
:1013F00094050020C42A0020D50A000841707020FE
:101400005461736B2044616331000000600600206A
:10141000C43200200B0B0008417070205461736BC4
:1014200020446163320000002C070020C43A0020F1
:101430004D090008417070205461736B2041646352
:1014400065000000F80700200EB500256DE002A839
:10145000002301AA19460090184601F087FF0446B0
:1014600000BF00BF00BFFEF7C3FE054600BF00F08F
:1014700019F900BF2D480078401C2C490870084617
:101480000078012801D104F013F800BF00F024F91E
:1014900000BF2846FEF7B0FE00BF00BF00BF2178A6
:1014A00023A006F00DFB2078312802D121A006F000
:1014B00007FB00BF00BF00BFFEF79AFE054600BF56
:1014C00000F0F0F800BF19480078401E1749087076
:1014D00008460078D0B903F0F9FF1A4800880028C0
:1014E0000BDD00BF00F0F8F800BF2846FEF784FED1
:1014F00000BF00BF03F0B2FF11E000BF00F0ECF846
:1015000000BF2846FEF778FE00BF08E000BF00F0ED
:10151000E3F800BF2846FEF76FFE00BF00BF00BF24
:1015200002AA2146084800F0FDFE90E7AC0000202A
:10153000256300002323232323232323232323237F
:1015400000000000700000202C0100201FB568463C
:1015500006F020F8019804B010BD10B500F0CCFAE8
:1015600000F06CFB06F056FA10BD00BFFEE710B5A8
:1015700000F0FEF800F004F800F0F4F810BD0000F0
:1015800070B50026002018490880184908801849BD
:101590000860184908601849086018490860184927
:1015A0000860002400BFFEF723FE064600BF0025AA
:1015B0000BE000201049086000F074F800F08CF88F
:1015C0000D4800680444681C85B2002DF1D00C4819
:1015D00004600020084908600849086000BF3046E0
:1015E000FEF70AFE00BF70BD180000201A000020A0
:1015F0001C00002020000020280000202C000020DB
:101600002400002001460846044A1268904203D98B
:10161000024A1268801A00E000207047240000206F
:1016200070B5002500BFFEF7E3FD054600BF064884
:10163000046800BF2846FEF7DFFD00BF2046FFF725
:10164000E1FF0646304670BD2800002070B5002539
:10165000FFF7E6FF044600BFFEF7CAFD054600BFE0
:1016600000200449086000BF2846FEF7C5FD00BF02
:10167000204670BD2800002070B5002500BFFEF791
:10168000B7FD054600BF0648046800BF2846FEF7C0
:10169000B3FD00BF2046FFF7B5FF0646304670BDDC
:1016A0002C00002010B509480088401C074908801C
:1016B0000748008818B900F085F806490860044812
:1016C0000088401C0249088010BD0000180000205E
:1016D0001A0000201C00002010B50F480088401E92
:1016E0000D49088008460088A0B900F06BF80B4946
:1016F0000860084600680A490968441A09480068F1
:10170000A04201D20748046007480068A04201D205
:101710000548046010BD00001A00002020000020D1
:101720001C000020280000202C00002010B5002400
:1017300000BF00BFFEF75CFD044600BFFFF7B2FF2D
:1017400000BF1021064800F0A5FA00BFFFF7C4FF54
:1017500000BF2046FEF750FD00BF00BF10BD0000D7
:10176000F442002010B5FFF7E1FF10BD00BFFEE717
:1017700010B500200249086000F00AF810BD000012
:101780001400002001490860704700001400002088
:1017900010B5FFF7DBFE04460848006840F0807093
:1017A000064908600020064948600846006840F085
:1017B000010008602046FFF7E5FF10BDFCED00E0EA
:1017C000001000E00149486870470000001000E088
:1017D00039B1084A1268012383401A43054B1A6045
:1017E00006E0044A1268012383409A43014B1A60C1
:1017F000704700000074004030B5002200230A4CFE
:10180000226840F6FE748440A243D1E900452C438F
:101810008D682C43CD6844EA050303FA00F42243A3
:10182000014C226030BD00000074004008B5002269
:101830000092054A009200F10802009B1A440092AF
:10184000009A116008BD00000074004008B5002235
:101850000092054A009200F11402009B1A44009283
:10186000009A116008BD00000074004000B587B008
:101870000121084605F05EFE0121480705F06AFED9
:101880001020059003208DF8180002208DF81B0011
:1018900005A90B4800F058F9002001900290039030
:1018A0000220049001A90020FFF7A6FF01210020DB
:1018B000FFF78EFF00210846FFF7B8FF07B000BD15
:1018C0000000024070B52DED048B04462046FEF763
:1018D000B7FD41EC180B9FED140B53EC102B51ECA2
:1018E000180BFEF73EFD41EC180B9FED110B53EC6E
:1018F000102B51EC180BFEF7C2FC41EC190B9FEDBD
:101900000E0B53EC102BFEF72CFD41EC180B51EC99
:10191000180BFEF7A2FD85B229460020FFF786FFCF
:10192000BDEC048B70BD00000000000000408F4043
:10193000000000000000B0406666666666660A4009
:1019400000B587B00121084605F0F4FD01214807E4
:1019500005F000FE2020059003208DF818000220DD
:101960008DF81B0005A90B4800F0EEF8002001904F
:10197000029003900220049001A91020FFF73CFF81
:1019800001211020FFF724FF00210846FFF75EFF2A
:1019900007B000BD0000024070B52DED048B044679
:1019A0002046FEF74DFD41EC180B9FED140B53EC58
:1019B000102B51EC180BFEF7D4FC41EC180B9FEDEB
:1019C000110B53EC102B51EC180BFEF758FC41ECAB
:1019D000190B9FED0E0B53EC102BFEF7C2FC41ECE4
:1019E000180B51EC180BFEF738FD85B22946002084
:1019F000FFF72CFFBDEC048B70BD00000000000061
:101A000000408F40000000000000B040666666663F
:101A100066660A407047000008B500F025FB01200B
:101A200000F014F838B16A460021044801F062FF62
:101A3000012000F005F800F02DFB08BDFC0300209C
:101A40000149086070470000143C01400146002035
:101A5000034A12680A400AB1012000E000207047E2
:101A6000143C0140002123498279002A3AD00A46D9
:101A7000126803689A430B461A600A1D12680368CD
:101A80009A430B1D1A60027911440A6803681A43CD
:101A90000A60184A0832126803689A43154B0833E3
:101AA0001A601A1D126803689A43124B0C331A60AD
:101AB0004279102A0ED11A1F126803681A430D4B7F
:101AC00008331A601A1D126803681A43094B0C3355
:101AD0001A600DE00749427911440A6803681A4305
:101AE0000A6005E0027911440A6803689A430A60B3
:101AF00070470000003C01401FB50121084605F079
:101B000019FD0120029000208DF80C0002208DF8B4
:101B10000F0002A90B4800F017F80021084605F055
:101B2000AFFD0120009000208DF8040008208DF802
:101B3000050001208DF806006846FFF793FF00F0CE
:101B40003EF91FBD00000240F0B50A460021002307
:101B5000002400BF3DE0012505FA01F3156805EA00
:101B600003049C4234D105684F000326BE40B543B0
:101B7000056015794E00B540066835430560157956
:101B8000012D02D01579022D16D185684F0003264C
:101B9000BE40B543856055794E00B54086683543F3
:101BA0008560456801268E40B54345604568967955
:101BB0008E40B6B235434560C5684F000326BE402F
:101BC000B543C560D5794E00B540C6683543C5609C
:101BD000491C1029BFD3F0BDF0B5002300244D07E8
:101BE000ED0E02FA05F3CE1000F1200555F826504F
:101BF0004E07F70E0F26BE40B543CF1000F120066A
:101C000046F82750CE1000F1200555F8265045EA39
:101C10000304CE1000F1200545F82640F0BD024631
:101C2000002013690B400BB1012000E00020704739
:101C3000418370470183704700BFFEE71CB5012157
:101C40000C2005F077FC012000908DF804000020A6
:101C50008DF8060001208DF8070000208DF80500A2
:101C600069460948FFF770FF082000906946074859
:101C7000FFF76AFF01200449183108800820034952
:101C80001A3108801CBD000000080240000C024010
:101C900000BFFEE730B505460C4622460021284627
:101CA00000F062F830BD00003EB500200C4908602D
:101CB0000C4C02A801214FF440632246CDE90010EC
:101CC00009490AA000F016F8BDF8080042F21071A8
:101CD000884203D000BFFFF749FD00BF3EBD0000B2
:101CE0003000002004430020044F0020486561704C
:101CF000000000002DE9F84F05460E4617461C4629
:101D0000DDE90A894FF0000A00BF00BFFEF770FA54
:101D1000824600BFFFF7C6FC00BF43463A46314645
:101D20002846009400F010F800BFFFF7D5FC00BF74
:101D30005046FEF761FA00BF00BF42F21070A9F8EA
:101D40000000BDE8F88F000030B5039C0A60651EF6
:101D500015444D608A60034D2D68CD600B61014DC7
:101D6000296030BD300000202DE9F04105460B46CA
:101D700094460027002402E03F021F43641C042C09
:101D8000FAD3604605F00306294646B1344603E01F
:101D900001F8013B401E641C08B1042CF8D30A462C
:101DA00001E080C2001F0428FBD2114602E001F8C6
:101DB000013B401E0028FAD1BDE8F081704708B50C
:101DC0004FF4C06000F060F806208DF8000000209D
:101DD0008DF801008DF8020001208DF8030068469F
:101DE00000F016F808BD08B54FF4E06000F04CF8BC
:101DF00025208DF8000000208DF8010001208DF8CD
:101E000002008DF80300684600F002F808BD0000EB
:101E100070B5002100230F22C4781CB3174C24682E
:101E200004F4E064C4F5E064C4F30721C1F10404E0
:101E3000E3B20A4144789C40E1B2847814402143E3
:101E40000C07210E0E4C05786155047804F01F052F
:101E50000124AC4005786D11AD0005F1E025C5F811
:101E6000004109E0047804F01F050124AC40054D51
:101E70000678761145F8264070BD00000CED00E0B4
:101E800000E400E080E100E002490143024A116001
:101E9000704700000000FA050CED00E070470000FC
:101EA00010B50348006810B101480068804710BDB4
:101EB0004800002070B5044600F0C2F800204849F0
:101EC00008704849087048490870484908604849FE
:101ED00008604849087048490870484908704849EE
:101EE00008604849086048490860484908704848FF
:101EF00000680A21B0FBF1F04649086046480068D6
:101F000058B14648056845B14348066803E0761E67
:101F1000002028602D1D002EF9D1002040490860C6
:101F200040490860404908604049086040490860ED
:101F300040490860404908604049087003F0D8F8FB
:101F400003F0D6F9204602F047F9208800B170BDB1
:101F5000204602F079FD208800B1F8E7204602F023
:101F60007FFD208800B1F2E7204602F007FF2088BD
:101F700000B1ECE7204603F0EBF8208800B1E6E77B
:101F8000204603F037FB208800B1E0E7204603F04D
:101F90000FFF208800B1DAE7204602F0ADFC208870
:101FA00000B1D4E7204602F0B9FA208800B1CEE7AC
:101FB000204604F0CDFF208800B1C8E7204603F09A
:101FC000CBFD208800B1C2E7204605F025F8208827
:101FD00000B1BCE702F02AF8FFF760FF00BFB6E7E8
:101FE0005C00002064000020AC0000201C010020E8
:101FF0002001002092000020930000209400002087
:10200000A0000020A4000020A8000020B4000020B0
:10201000F8800008B0000020C8800008C4800008D4
:102020003C00002040000020440000204800002028
:102030004C0000205000002054000020E20000204E
:10204000064800680649096800EB810005490860F8
:102050000846006820F0070008607047C480000848
:10206000C88000082401002008480078012800D01A
:10207000704707480078FA2800DBF9E70448007841
:10208000401C0349087000BFF2E700006400002014
:102090005C00002010B500242D480078012800D0F5
:1020A00010BD00BFFEF7A4F8044600BF2948007821
:1020B00028B900BF2046FEF79FF800BFF0E725488B
:1020C0000078401E2349087008460078002805DD86
:1020D00000BF2046FEF790F800BFE1E71E480078F9
:1020E000002805DD00BF2046FEF786F800BFD7E7D1
:1020F00002F0EAFF194908700846007800EB40003A
:10210000174951F820001749086008460068164929
:102110000968884205D100BF2046FEF76DF800BF70
:10212000BEE710480068D0F89400401C0D490968CB
:10213000C1F894000D480068401C0C490860FEF787
:10214000B2FA00BF2046FEF757F800BF00BFA7E76E
:10215000640000205C000020AC0000209300002000
:102160000C610020200100201C010020D80000206C
:102170002DE9FF4F83B0044615461F46DDE9109652
:10218000002000902DB945F2BB60308007B0BDE85B
:10219000F08F022F03DA45F2BC603080F6E7B9F128
:1021A000040F03D245F2C1603080EFE74FF0030A1D
:1021B000BAF1000F0DD005EA0A0018B145F2BB6074
:1021C0003080E3E709EA0A0018B145F2C1603080C7
:1021D000DCE7AB46A846781E80B201900020029052
:1021E00007E0C844CBF80080C3460298401C80B288
:1021F0000290DDE901108842F3DB0020CBF80000FB
:1022000000BF00BF00BFFDF7F3FF009000BFFFF766
:1022100049FA00BF24480078401C2349087008464A
:102220000078012801D103F043F900BFFFF754FA09
:1022300000BF0098FDF7E0FF00BF00BF00BF1B48D4
:1022400020600498A0606560E560A7826782A4F8BA
:102250001090204602F0E4FB15480088401C144909
:10226000088000BF00BF00BFFDF7C2FF009000BFA5
:10227000FFF718FA00BF0C480078401E0A490870A2
:102280000846007808B903F021F900BFFFF724FAE7
:1022900000BF0098FDF7B0FF00BF00BF00BF0020E7
:1022A000308000BF72E70000AC0000204D454D209B
:1022B000880000202DE9F04104460D4600272CB986
:1022C00045F2BF6028800020BDE8F08100BF00BF5C
:1022D000FDF78EFF074600BFFFF7E4F900BFA08AB5
:1022E00068B900BFFFF7F8F900BF3846FDF784FF73
:1022F00000BF00BF45F2C26028800020E4E7E66826
:102300003068E060A08A401EA08200BFFFF7E4F9B9
:1023100000BF3846FDF770FF00BF00BF00202880D7
:102320003046D1E72DE9F04104460E461546002718
:1023300024B945F2BF602880BDE8F0811EB945F29E
:10234000BE602880F8E700BF00BFFDF751FF0746D9
:1023500000BFFFF7A7F900BFA08A618A88420CDBA3
:1023600000BFFFF7B9F900BF3846FDF745FF00BFD2
:1023700000BF45F2BA602880DEE7E0683060E660C2
:10238000A08A401CA08200BFFFF7A6F900BF384614
:10239000FDF732FF00BF00BF0020288000BFCBE761
:1023A0002DE9F04104460E461546002724B945F6AE
:1023B000C3502880BDE8F08100BF00BF00BFFDF71B
:1023C00017FF074600BFFFF76DF900BF25480078EB
:1023D000401C2449087008460078012801D103F008
:1023E00067F800BFFFF778F900BF3846FDF704FF34
:1023F00000BF00BF00BF1C48206066600020206254
:10240000606284F82800E06204F1080002F067FDD1
:10241000204602F043FC15480088401C1349088000
:1024200000BF00BF00BFFDF7E3FE074600BFFFF798
:1024300039F900BF0B480078401E0A490870084669
:10244000007808B903F042F800BFFFF745F900BF74
:102450003846FDF7D1FE00BF00BF00BF0020288036
:1024600000BFA7E7AC0000204D5554589000002055
:102470002DE9F04788B00546894617461C46109E50
:102480004FF0000A2DB945F6C350308008B0BDE8C2
:10249000F0871FB1B7F5004F02D100E000BF03E0A5
:1024A00045F625603080F1E700BF7F492868884203
:1024B00003D045F6C4503080E8E70CB1002020601E
:1024C00000BF00BFFDF794FE824600BFFFF7EAF8A9
:1024D00000BF95F82800C8B97448006868620120F8
:1024E00085F828000CB1E86A206029466F4800682A
:1024F00002F0ECFB00BFFFF7EFF800BF5046FDF71E
:102500007BFE00BF00BF00203080BFE76749686ADC
:102510000968884214D195F82800401C85F82800E5
:102520000CB1E86A206000BFFFF7D6F800BF504644
:10253000FDF762FE00BF00BF45F282703080A5E764
:1025400007F4004060B100BFFFF7C6F800BF504677
:10255000FDF752FE00BF00BF46F2B010308095E795
:102560005348007800280CDD00BFFFF7B5F800BF26
:102570005046FDF741FE00BF00BF46F66350308075
:1025800084E700BF4A480078401C49490870084663
:102590000078012801D102F08BFF00BFFFF79CF803
:1025A00000BF5046FDF728FE00BF00BF00BFD5F8B2
:1025B000248098F837003D49096891F8371088421F
:1025C00006DD3A48006890F83710404603F040FBBB
:1025D0004B4604222946684602F0DCFB00BF00BFE0
:1025E00000BFFDF705FE824600BFFFF75BF800BFA6
:1025F0002F480078401E2E4908700846007808B918
:1026000002F064FF00BFFFF767F800BF5046FDF718
:10261000F3FD00BF00BF00BF00F0A8F900BF00BF7E
:10262000FDF7E6FD824600BFFFF73CF800BF1F48FC
:10263000006890F8350030B101280CD002281AD07B
:10264000032821D110E01CB118480068806C20607C
:10265000002030801CE01CB114480068806C2060B1
:1026600046F2A910308013E00CB10020206047F240
:10267000D92030800CE01CB10C480068806C2060D0
:1026800045F6C250308003E046F62E60308000BF31
:1026900000BF00BFFFF720F800BF5046FDF7ACFDBC
:1026A00000BF00BF00BFF1E64D5554581C0100208B
:1026B000AC0000202DE9F84F0446894615464FF03E
:1026C000000B24B945F6C3502880BDE8F88FB9F156
:1026D000000F03D0B9F5004F02D100E000BF03E0C6
:1026E00045F625602880F0E700BF9B4920688842B6
:1026F00003D045F6C4502880E7E700BF00BFFDF7D0
:1027000077FD834600BFFEF7CDFF00BF9349606AA7
:10271000096888420CD000BFFEF7DEFF00BF5846B4
:10272000FDF76AFD00BF00BF45F281702880CCE74D
:1027300000BF8B480078401C894908700846007823
:10274000012801D102F0B4FE00BFFEF7C5FF00BFB3
:102750005846FDF751FD00BF00BF00BFFFF732F83C
:1027600080462834C4F804802078401E207014F875
:10277000280900283ADD00BF00BF00BFFDF738FD83
:10278000834600BFFEF78EFF00BF75480078401EED
:102790007349087008460078D0B902F097FE714876
:1027A000008800280BDD00BFFEF796FF00BF5846EB
:1027B000FDF722FD00BF00BF02F050FE11E000BF98
:1027C000FEF78AFF00BF5846FDF716FD00BF08E080
:1027D00000BFFEF781FF00BF5846FDF70DFD00BFAB
:1027E00000BF00BF45F2837028806EE721465B483A
:1027F000006802F0B5FA04F1080ABAF8080080BBD4
:102800000020606284F8280000BF00BF00BFFDF711
:10281000EFFC834600BFFEF745FF00BF504800783D
:10282000401E4F49087008460078D8B902F04EFEA5
:102830004C48008800280BDD00BFFEF74DFF00BFAD
:102840005846FDF7D9FC00BF00BF02F007FE12E0BA
:1028500000BFFEF741FF00BF5846FDF7CDFC00BFAB
:1028600009E00CE000BFFEF737FF00BF5846FDF758
:10287000C3FC00BF00BF00BF0020288025E7374809
:10288000006890F837003549096891F83810884297
:1028900028D03248006802F04DFA06462F480068FA
:1028A00090F83810B14204DA2C48006890F83800EB
:1028B00000E0304606462948006890F83700B042EC
:1028C00010DA2648006802F09BFD2448006880F872
:1028D0003760304602F018FC2048006802F050FDD6
:1028E00021480670DAF8000087686762012084F8E2
:1028F00028002146384602F0E9F900231A463946F5
:102900002046CDF8008002F05DFB00BF00BF00BF95
:10291000FDF76EFC834600BFFEF7C4FE00BF104803
:102920000078401E0E4908700846007808B902F089
:10293000CDFD00BFFEF7D0FE00BF5846FDF75CFCA2
:1029400000BF00BF00BF09F4004008B900F00EF856
:102950000020288000BFB8E64D5554581C010020C7
:10296000AC000020700000209200002010B5002470
:1029700020480078002800DD10BD1F48007800289E
:1029800000DDF9E700BFFDF733FC044600BF02F0AD
:102990009BFB1A4908700846007800EB4000184974
:1029A00051F8200017490860084600681649096870
:1029B000884205D100BF2046FDF71EFC00BFDBE7C3
:1029C00010480068D0F89400401C0E490968C1F80E
:1029D00094000E480068401C0C490860FDF75EFE3C
:1029E00000BF2046FDF708FC00BFBFF36F8F00BF9C
:1029F000C2E700005C000020AC0000209300002033
:102A00000C610020200100201C010020D8000020C3
:102A100070B50446002516480078012803D045F615
:102A20008960208070BD13480078FA2803DB45F2E6
:102A300009202080F6E700BF00BFFDF7D9FB05465F
:102A400000BFFEF72FFE00BF0A480078401C09496E
:102A5000087002F02DFD00BFFEF73EFE00BF2846C5
:102A6000FDF7CAFB00BF00BF0020208000BFD9E7F0
:102A700064000020AC0000202DE9F04105460C4622
:102A80001646002700BF00BFFDF7B2FB074600BF98
:102A9000FEF708FE00BF012D03D000200E4908708C
:102AA00002E001200C49087014B10C48046006E0F3
:102AB0000B4800680A21B0FBF1F00849086000BF2C
:102AC000FEF70AFE00BF3846FDF796FB00BF00BFC9
:102AD00000203080BDE8F081B4000020B00000206C
:102AE000F880000870B5044600251F4800780128CA
:102AF00003D045F68960208070BD1C48007818B965
:102B000046F664502080F7E700BF00BFFDF770FB7A
:102B1000054600BFFEF7C6FD00BF14480078401E02
:102B2000124908700846007800280CDD00BFFEF747
:102B3000D3FD00BF2846FDF75FFB00BF00BF46F690
:102B400063502080D8E702F0C1FC00BFFEF7C4FD4F
:102B500000BF2846FDF750FB00BF00BFFFF706FF90
:102B60000020208000BFC7E764000020AC000020E8
:102B700010B5044612480078E8B902F0A5FA1149E8
:102B8000087008460078104908700E48007800EB7D
:102B900040000E4951F820000D49086008460068C1
:102BA0000C490860012006490870FDF73FFD43F617
:102BB0009920208002E045F68A60208010BD000048
:102BC0006400002093000020920000200C6100208F
:102BD000200100201C0100202DE9F04107464FF0A4
:102BE000000800BF00BFFDF703FB804600BFFEF7F3
:102BF00059FD00BF00204749086047490880474900
:102C000008804749086047490860474908604749C4
:102C10000860474908604749088100BFFEF75CFD2E
:102C200000BF4046FDF7E8FA00BF00BF00BF00BF8D
:102C3000FDF7DEFA804600BFFEF734FD00BF3E48D8
:102C4000046800BFFEF748FD00BF4046FDF7D4FA18
:102C500000BF00BF26E000BF00BFFDF7C9FA8046F5
:102C600000BFFEF71FFD00BF00207C34E06320643E
:102C700020602063A061A082E0826062A062FEF713
:102C8000A1FD20627C3C04F168060020B081D4F8EC
:102C9000C44000BFFEF720FD00BF4046FDF7ACFA80
:102CA00000BF00BF002CD6D100BF00BFFDF7A0FAC7
:102CB000804600BFFEF7F6FC00BF2048056800BF55
:102CC000FEF70AFD00BF4046FDF796FA00BF00BFC1
:102CD00016E000BF00BFFDF78BFA804600BFFEF78D
:102CE000E1FC00BF05F120060020B081AD6900BF06
:102CF000FEF7F2FC00BF4046FDF77EFA00BF00BFC2
:102D0000002DE6D103F036FF04F02CFA00203880C5
:102D1000BDE8F0817800002072000020C200002091
:102D2000D4000020E80000200C01002060000020FA
:102D3000A400002000610020DC000020980000209A
:102D4000F8B5044600266946364800F0D3FFBDF8C2
:102D5000000018B1BDF800002080F8BD6A460021CF
:102D6000022001F061F8BDF8000018B1BDF80000C4
:102D70002080F2E700BF00BFFDF73AFA064600BF29
:102D8000FEF790FC00BF00202749086000BFFEF757
:102D9000A3FC00BF3046FDF72FFA00BF00BF00259F
:102DA0002248006822490968884205D91F480068FE
:102DB0001F490968B0FBF1F525B91C4800680A21D4
:102DC000B0FBF1F56A460021284601F02DF869466E
:102DD000144800F023FCBDF8000018B1BDF8000055
:102DE0002080BAE700BF00BFFDF702FA064600BF29
:102DF000FEF758FC00BF00200E4908600A48006832
:102E00000D49086001200D49087000BFFEF764FC01
:102E100000BF3046FDF7F0F900BF00BF0020208062
:102E200000BF9AE7D4650020C4000020F8800008A5
:102E3000E0800008D4000020C8000020D00000205E
:102E400010B50348006810B101480068804710BD04
:102E50004C0000202DE9FF4F87B004469146DDE984
:102E60001BA5DDF85C80DDE91467002003902CB918
:102E700047F2AD1028800BB0BDE8F08FB9F1000F1C
:102E800003D147F24F102880F5E71FB946F62F60AF
:102E90002880F0E787480068804503D246F6306016
:102EA0002880E8E71698404503D346F6316028802D
:102EB000E1E7402E03D346F273202880DBE736B9E2
:102EC0007D48844203D046F273202880D3E73F2E0A
:102ED00006D17A48844203D046F273202880CAE79C
:102EE000204602F075FF002028800AF0010090B112
:102EF0000AF0020078B105970020069008E0002152
:102F0000059801600598001D05900698401C0690E4
:102F100006984045F3D3169807EB80000490CDE95E
:102F2000008A3A464846049B0A9900F081FD0590C4
:102F3000C4F828900A98E0620898206284F8376004
:102F400084F83860059820600498A0601998A065FE
:102F5000199818B95A480068E06501E01998E065C9
:102F60001A9860606762C4F84080A4F844A04FF0EB
:102F7000000B08E0002104F1800040F82B100BF159
:102F8000010000F0FF0BBBF1000FF3D004F168006B
:102F9000189901F0F9FD204600F09CF800BF00BF31
:102FA00000BFFDF725F9039000BFFEF77BFB00BFD4
:102FB00044480078401C43490870084600780128BE
:102FC00001D102F075FA00BFFEF786FB00BF03983F
:102FD000FDF712F900BF00BF00BF94F8370002F000
:102FE00093F8204602F0CCF9204602F0A7FE3648BE
:102FF0000088401C3449088034480078012837D0C4
:1030000000BF00BF00BFFDF7F3F8039000BFFEF75D
:1030100049FB00BF2B480078401E2A49087008462B
:103020000078D0B902F052FA2948008800280BDD58
:1030300000BFFEF751FB00BF0398FDF7DDF800BFAE
:1030400000BF02F00BFA11E000BFFEF745FB00BF26
:103050000398FDF7D1F800BF08E000BFFEF73CFB86
:1030600000BF0398FDF7C8F800BF00BF00BF02E72C
:1030700000BF00BF00BFFDF7BBF8039000BFFEF725
:1030800011FB00BF0F480078401E0E49087008462B
:10309000007808B902F01AFA00BFFEF71DFB00BF66
:1030A0000398FDF7A9F800BF00BF00BFFFF75EFC63
:1030B00000BFE0E6F480000834600020685F002074
:1030C000B0000020AC000020E000002064000020E0
:1030D0007000002010B504460348006818B120466F
:1030E00001490968884710BD3C0000202DE9F041E6
:1030F00004460E464FF000089048844204D147F23F
:103100004C103080BDE8F0818D48844203D147F2F5
:103110004D103080F6E79CB900BF00BFFDF768F89E
:10312000804600BFFEF7BEFA00BF8648046800BFB5
:10313000FEF7D2FA00BF4046FDF75EF800BF00BFC1
:1031400000BF00BF00BFFDF753F8804600BFFEF789
:10315000A9FA00BF7C480078401C7B4908700846EB
:103160000078012801D102F0A3F900BFFEF7B4FAFC
:1031700000BF4046FDF740F800BF00BF00BF94F815
:103180003600082860D2DFE800F004090E10080AB3
:103190000F11204602F034F991E090E000BF204684
:1031A00003F0BCFC8BE000BF00BF00BF94F834000C
:1031B00008283BD2DFE800F0040705080E090A06DC
:1031C00000BF00BF33E000BF00BF00BF204601F0DA
:1031D000BEFE2CE0206BC068456A15F8377F20469C
:1031E00001F0B5FE28786978373D884212D095F80D
:1031F000370094F8371088420CD1284601F09AFD28
:10320000074695F83800B84202DA95F8380000E031
:1032100038460746002084F8340095F83700B84255
:1032200003D03946284602F013FD00E000BF00BF7E
:1032300094F83600032803D094F83600072802D10A
:10324000204603F06BFC3AE000BF00BF00BFFCF774
:10325000CFFF804600BFFEF725FA00BF3A4800784E
:10326000401E3949087008460078D0B902F02EF99E
:103270003648008800280BDD00BFFEF72DFA00BF9E
:103280004046FCF7B9FF00BF00BF02F0E7F811E0CD
:1032900000BFFEF721FA00BF4046FCF7ADFF00BFBC
:1032A00008E000BFFEF718FA00BF4046FCF7A4FF95
:1032B00000BF00BF00BF46F62D60308022E700BF90
:1032C000E06B10B1204601F005FD04F1680001F04B
:1032D00005FC204600F03EF8204602F047FD1C4861
:1032E0000088401E1A490880204602F071FDFF2028
:1032F00084F8360000BF00BF00BFFCF779FF8046AE
:1033000000BFFEF7CFF900BF0F480078401E0E49FE
:1033100008700846007808B902F0D8F800BFFEF738
:10332000DBF900BF4046FCF767FF00BF00BF00BFEE
:1033300000203080FFF71AFB00BFE3E6685F002043
:10334000346000201C010020AC0000207000002030
:10335000E000002010B504460348006818B120467C
:1033600001490968884710BD400000202DE9F05F41
:1033700080460F4616461C460A9D4FF0000B2EB99C
:1033800046F2D52028800020BDE8F09F1FB1B7F598
:10339000004F02D100E000BF04E045F62560288020
:1033A0000020F1E700BF0CB10020206000BF00BF8B
:1033B000FCF71EFF834600BFFEF774F900BF764896
:1033C000006800F168092B4622463146484601F064
:1033D000A7FB8246288800BBA4B1FEF7F3F9216859
:1033E000401A6D49096888676B480068C06F6A4970
:1033F0000968896F884205D267480068806F66490E
:103400000968C86700BFFEF767F900BF5846FCF7B8
:10341000F3FE00BF00BF5046B6E707F4004068B1B6
:1034200046F2B010288000BFFEF756F900BF58469C
:10343000FCF7E2FE00BF00BF0020A5E75748007878
:1034400000280DDD00BFFEF747F900BF5846FCF726
:10345000D3FE00BF00BF46F663502880002093E7EC
:1034600000BF4E480078401C4C4908700846007860
:10347000012801D102F01CF800BFFEF72DF900BFB2
:103480005846FCF7B9FE00BF00BF00BF434602220A
:103490000021084601F07EFC00BF00BF00BFFCF722
:1034A000A7FE834600BFFEF7FDF800BF3B4800784B
:1034B000401E3A4908700846007808B902F006F83C
:1034C00000BFFEF709F900BF5846FCF795FE00BFA4
:1034D00000BF00BFFFF74AFA00BF00BFFCF788FE3D
:1034E000834600BFFEF7DEF800BF2B48006890F867
:1034F000350020B101282AD0032832D132E02648F5
:103500000068D0F860A024480068B0F864003080FB
:10351000D4B121480068806C2060FEF753F91E4941
:103520000968896C401A1C49096888671A4800684C
:10353000C06F19490968896F884205D2164800682A
:10354000806F15490968C8670020288017E04FF090
:10355000000A0020308004B1206046F2A9102880C3
:103560000DE000BF4FF0000A002030801CB10A4877
:103570000068806C206047F2D920288000BF00BF1F
:1035800000BFFEF7A9F800BF5846FCF735FE00BFA4
:1035900000BF5046F8E600001C010020AC000020EF
:1035A0002DE9FF470746884691461D460C9E4DB1C2
:1035B000102D08D0B5F5004F06D0A5F50040103805
:1035C00020B902E000BF00BF00BF04E045F625605F
:1035D0003080BDE8FF8700BFFEF7F4F804460D48D1
:1035E000007800280BDD00204B4642463946CDE9E5
:1035F0000246CDE90005084800F0C8FFE9E72B4680
:103600004A4641463846CDE9004602F049FC00BF33
:10361000DFE700005C000020544D53477FB50446AF
:103620000D46002600BF00BFFCF7E2FD064600BFC6
:10363000FEF738F800BF1CB11748006884420CD16F
:1036400000BFFEF749F800BF3046FCF7D5FD00BFCC
:1036500000BF47F2571028807FBD00BFFEF73CF83F
:1036600000BF3046FCF7C8FD00BF00BF0B48007824
:1036700000280BDD00200090019003460246214601
:10368000CDE90205064800F081FFE5E7294620461E
:1036900002F03CFD00BFDFE71C0100205C000020C1
:1036A0005452455310B504460348006818B12046EB
:1036B00001490968884710BD440000202DE9F04702
:1036C00080460E4614461D464FF000091EB1B6F561
:1036D000004F02D100E000BF05E045F625602880DC
:1036E0000020BDE8F08700BF0CB10020206000BFC3
:1036F00000BFFCF77DFD814600BFFDF7D3FF00BF93
:103700007A480068C06CB8B378480068C06C401E46
:1037100076490968C86475480068C76C1CB173486D
:103720000068806C2060FEF74DF870490968896C6C
:10373000401A6E490968C1F8A8006C480068D0F8C2
:10374000AC006A490968D1F8A810884207D26748D6
:103750000068D0F8A80065490968C1F8AC0000BF4E
:10376000FDF7BAFF00BF4846FCF746FD00BF00BFAB
:10377000002028803846B4E7FFE706F4004068B12F
:1037800000BFFDF7A9FF00BF4846FCF735FD00BFAD
:1037900000BF46F2B01028800020A2E7544800780D
:1037A00000280DDD00BFFDF797FF00BF4846FCF77E
:1037B00023FD00BF00BF46F663502880002090E73D
:1037C00000BF4B480078401C494908700846007803
:1037D000012801D101F06CFE00BFFDF77DFF00BFA5
:1037E0004846FCF709FD00BF00BF00BF4346072263
:1037F0000021084601F0CEFA00BF00BF00BFFCF771
:10380000F7FC814600BFFDF74DFF00BF3848007848
:10381000401E374908700846007808B901F056FE86
:1038200000BFFDF759FF00BF4846FCF7E5FC00BFAD
:1038300000BF00BFFFF79AF800BF00BFFCF7D8FC3D
:10384000814600BFFDF72EFF00BF2848006890F8B2
:10385000350020B1012826D0032834D12CE0FCB15A
:1038600022480068806C2060FDF7ACFF1F490968A2
:10387000896C401A1D490968C1F8A8001B480068F6
:10388000D0F8AC0019490968D1F8A810884207D2CD
:1038900016480068D0F8A80014490968C1F8AC00BF
:1038A0000020288013E01CB110480068806C206064
:1038B00046F2A91028800AE00CB10020206047F2EF
:1038C000D920288003E046F62E60288000BF00BF84
:1038D00006480068C76C00BFFDF7FEFE00BF484603
:1038E000FCF78AFC00BF00BF3846FAE61C01002046
:1038F000AC0000202DE9FF4106460F4614461FB1DB
:10390000B7F5004F02D100E000BF06E045F62560A4
:103910002080002004B0BDE8F08100BFFDF752FF19
:1039200005460D48007800280CDD00200090034675
:1039300002463146CDE902540190084800F026FEC7
:103940000020E7E723462A463946304602F0A8FC25
:1039500080464046DEE700005C00002054534947A3
:103960002DE9F04704460E4617461D464FF0000A63
:1039700026B946F2D5202880BDE8F0871FB946F267
:10398000D5202880F8E700BF00BFFCF731FC824655
:1039900000BFFDF787FE00BF0CB92448046820680B
:1039A00078B900BFFDF798FE00BF5046FCF724FC35
:1039B00000BF00BF00203060386047F252102880FE
:1039C000DAE794F8440000F0010078B900BFFDF791
:1039D00083FE00BF5046FCF70FFC00BF00BF002075
:1039E0003060386047F254102880C5E700BFFDF70B
:1039F00073FE00BF5046FCF7FFFB00BF00BF4FF057
:103A00000008D4F8249003E009F1040908F1010842
:103A1000D9F800000028F7D0C6F80080206CA0EB91
:103A2000080038600020288000BFA5E71C010020A6
:103A3000F0B50446DDE9055602EB850020F00700ED
:103A40004FF0807C071F3846C7F800C0071F384674
:103A50003C60DFF834C2071F3846C7F800C04FF09B
:103A6000123C071F3846C7F800C04FF0033C071F41
:103A70003846C7F800C04FF0023C071F3846C7F869
:103A800000C0071F38463B60071F384639604FF0BB
:103A9000113C071F3846C7F800C04FF0103C071F05
:103AA0003846C7F800C04FF0093C071F3846C7F832
:103AB00000C04FF0083C071F3846C7F800C04FF061
:103AC000073C071F3846C7F800C04FF0063C071FE9
:103AD0003846C7F800C04FF0053C071F3846C7F806
:103AE00000C04FF0043C071F3846C7F800C006F07E
:103AF0000407002F7ED04FF0007C071F3846C7F820
:103B000000C0DFF888C1071F3846C7F800C0DFF8DB
:103B100080C1071F3846C7F800C0DFF878C1071F0B
:103B20003846C7F800C0DFF870C1071F3846C7F82D
:103B300000C0DFF868C1071F3846C7F800C0DFF8CB
:103B400060C1071F3846C7F800C0DFF858C1071F1B
:103B50003846C7F800C0DFF850C1071F3846C7F81D
:103B600000C0DFF848C1071F3846C7F800C0DFF8BB
:103B700040C1071F3846C7F800C0DFF838C1071F2B
:103B80003846C7F800C0DFF830C1071F3846C7F80D
:103B900000C0DFF828C1071F3846C7F800C0DFF8AB
:103BA00020C1071F3846C7F800C0DFF818C1071F3B
:103BB0003846C7F800C04FF0834C071F3846C7F897
:103BC00000C0DFF804C1071F3846C7F800C0DFF89F
:103BD000FCC0071F3846C7F800C0DFF8F4C0071F55
:103BE0003846C7F800C0DFF8ECC0071F3846C7F8F2
:103BF00000C000E047E0DFF8E0C0071F3846C7F824
:103C000000C0DFF8D8C0071F3846C7F800C0DFF88B
:103C1000D0C0071F3846C7F800C04FF0824C071FBE
:103C20003846C7F800C0DFF8BCC0071F3846C7F8E1
:103C300000C0DFF8B4C0071F3846C7F800C0DFF87F
:103C4000ACC0071F3846C7F800C04FF0814C071FB3
:103C50003846C7F800C0DFF898C0071F3846C7F8D5
:103C600000C04FF0804C071F3846C7F800C04FF027
:103C70007E5C071F3846C7F800C04FF0000C071FD6
:103C80003846C7F800C0F0BD896200080000F8415E
:103C90000000F0410000E8410000E0410000D84190
:103CA0000000D0410000C8410000C0410000B84100
:103CB0000000B0410000A8410000A0410000984170
:103CC0000000904100008841000070410000604108
:103CD0000000504100004041000030410000204100
:103CE000000010410000E0400000C0400000A04083
:103CF000000040407FB505460C461248854203D17E
:103D000047F25B1020807FBD0F48854203D147F208
:103D10005C102080F7E70D48007800280BDD0020BC
:103D200000900190034602462946CDE90204084866
:103D300000F02CFCE7E72146284602F085FD00BF95
:103D4000E1E70000685F0020346000205C00002094
:103D50005453555370B53048006890F8440000F053
:103D6000040020B12C4909680868FCF749FC2B487D
:103D7000006890F8440000F0040020B12749096869
:103D80000868FCF74AFC2648006810B1244800681F
:103D90008047FDF717FD04461F4800681F49096862
:103DA000884215D01C480068D0F89C00201A1A4997
:103DB0000968C1F8980018480068D0F8A0001649B2
:103DC0000968D1F89810084413490968C1F8A0009F
:103DD00012480068C0F89C40FDF738FC05460E48C4
:103DE0000068D0F8B800A84203D20B480068C0F8B9
:103DF000B85009480068D0F8BC000A4909688842F0
:103E000005D20848006804490968C1F8BC000020D0
:103E10000449086070BD00001C0100202001002042
:103E200050000020A80000202DE9F04105460E4674
:103E30001446002746480078002804DD46F6635003
:103E40002080BDE8F08136B1022E05D0042E0AD0C4
:103E5000082E09D101E000BF00BF1DB947F27E2046
:103E60002080EEE704E003E045F625602080E8E7E7
:103E700000BF00BF00BF00BFFCF7BAF9074600BF94
:103E8000FDF710FC00BF32480078401C3049087034
:103E900008460078012801D101F00AFB00BFFDF7B8
:103EA0001BFC00BF3846FCF7A7F900BF00BF00BFEE
:103EB0002346324629462748006802F0D1FD208873
:103EC000F0B100BF00BF00BFFCF792F9074600BF8A
:103ED000FDF7E8FB00BF1E480078401E1C49087033
:103EE0000846007808B901F0F1FA00BFFDF7F4FBCD
:103EF00000BF3846FCF780F900BF00BF00BFA0E755
:103F00001448006801F07CFA00BF00BF00BFFCF756
:103F10006FF9074600BFFDF7C5FB00BF0C480078EE
:103F2000401E0B4908700846007808B901F0CEFA27
:103F300000BFFDF7D1FB00BF3846FCF75DF900BFBD
:103F400000BF00BFFEF712FD0020208000BF78E711
:103F5000AC0000201C01002010B586B000F01EF857
:103F6000FDF730FC044605A800210091CDE90114BD
:103F700003900748007800EB4000064A02EB8001FE
:103F800000231A46044800F001FB06B010BD0000F3
:103F9000920000200C6100205449434B10B50348A7
:103FA000006810B101480068804710BD540000202F
:103FB00001460020088047F2C460704710B5002415
:103FC00000BF00BFFCF714F9044600BFFDF76AFB11
:103FD00000BF09480078401C0749087000BFFDF782
:103FE0007BFB00BF2046FCF707F900BF00BFFFF7CF
:103FF000B3FFFEF74FF810BD5C00002001464A1EDB
:104000004FF0E0235A61084A106820F07F4000BF5B
:1040100010601A46126942F005021A611A461269C6
:1040200042F002021A61704720ED00E0244A25495F
:10403000254A264A2649274A2748284A284A294AFB
:10404000294A2A482A482B482B4A2C482C4A2D48D2
:104050002D4A2E482E482F482F48304A304A314AA0
:104060003148324A324A3348334834483448354874
:1040700035483648364A374A374A384A3848394840
:1040800039483A4A3A4A3B4A3B483C483C483D4911
:104090003D483E4A3E4A3F4A3F4A404A404A414ADA
:1040A0004148424A424A43484348444A444A4548B0
:1040B000454A464A4648474800BF00BF00BF7047D0
:1040C0002C810008948200082D8100082E810008B0
:1040D00030810008348100083881000835810008EB
:1040E0006081000861810008628100086481000825
:1040F00066810008688100086A8100086C810008F8
:104100008C8100088E81000890810008928100084F
:10411000948100089681000898810008C8810008F1
:10412000C9810008CA810008CC810008CE8100083E
:10413000CF810008D0810008D2810008D481000816
:10414000D6810008D8810008DA810008DC810008E7
:104150000C8200080D8200080E8200080F82000801
:104160001082000812820008148200083C820008B5
:104170003D8200083E8200083F820008408200081D
:1041800042820008448200084882000849820008F0
:104190004A8200084B8200084C8200084D820008C9
:1041A0004E8200084F8200085082000852820008A8
:1041B0005382000854820008568200085882000882
:1041C000598200085C8200088C8200088D820008F9
:1041D0008E820008908200080021034A1160034A81
:1041E00011800180704700007C00002080000020CA
:1041F0002DE9F04F85B00446894692469B46DDF88E
:1042000038800020009000BF00BFFBF7F1FF009056
:1042100000BFFDF747FA00BFBAF1000F0AD0BAF1AC
:10422000010F0DD0BAF5004F05D06FF40040504497
:1042300060B906E000BF206A40EA0900206216E08B
:1042400000BF206A20EA0900206210E000BFFDF7ED
:1042500043FA00BF0098FBF7CFFF00BF00BF45F651
:104260002560A8F80000002005B0BDE8F08F00BF71
:10427000C4F824B004F1080001900198008968B9DD
:1042800000BFFDF729FA00BF0098FBF7B5FF00BF9C
:1042900000BF0020A8F80000206AE5E700BF7148D1
:1042A0000078401C6F49087008460078012801D149
:1042B00001F0FEF800BFFDF70FFA00BF0098FBF712
:1042C0009BFF00BF00BF00BF01980768BD6889E081
:1042D0007868029095F88C0000F00F000390039826
:1042E000012821D002282ED0042802D0082836D157
:1042F0000EE0206AD5F8841000EA0106D5F88400A3
:10430000B04204D15A463146284600F0AFF863E087
:10431000206AD5F8841000EA010626B15A463146D3
:10432000284600F0A3F857E0D5F88400216A20EA77
:104330000106D5F88400B04204D15A4631462846D9
:1043400000F094F848E0D5F88400216A20EA0106DC
:1043500026B15A463146284600F088F83CE000BFB6
:1043600000BF00BFFBF744FF009000BFFDF79AF9C4
:1043700000BF3C480078401E3A4908700846007863
:10438000D0B901F0A3F83848008800280BDD00BF41
:10439000FDF7A2F900BF0098FBF72EFF00BF00BF9A
:1043A00001F05CF811E000BFFDF796F900BF00983E
:1043B000FBF722FF00BF08E000BFFDF78DF900BF4B
:1043C0000098FBF719FF00BF00BF00BF43F6FF20B6
:1043D000A8F80000002047E700BF029F0FB1BD68AA
:1043E00000E00025002D7FF473AF00BF00BF00BFC9
:1043F000FBF7FEFE009000BFFDF754F900BF19481F
:104400000078401E174908700846007808B901F086
:104410005DF800BFFDF760F900BF0098FBF7ECFE08
:1044200000BF00BF00BF0AF4004008B9FEF79EFAC3
:1044300000BF00BFFBF7DCFE009000BFFDF732F9C4
:1044400000BF206A049000BFFDF746F900BF009846
:10445000FBF7D2FE00BF00BF0020A8F800000498C0
:1044600002E70000AC0000207000002070B5044698
:104470000E46154634346665002060702070656114
:10448000A078343C08281DD2DFE800F004050809B4
:104490000706171800BF00BF00BF14E000BF94F864
:1044A0003600032802D1204602F038FB204600F0F7
:1044B00031FF002084F8360005E000BF042084F8B6
:1044C000360000E000BF00BF204600F040FD70BD98
:1044D00000241DE000BF00BFFBF78AFE044600BFBA
:1044E000FDF7E0F800BF0B480068401C0949086070
:1044F00009480068401C0849086000BFFDF7ECF857
:1045000000BF2046FBF778FE00BF00BFFDF7C8FCE8
:10451000E0E7000058000020C400002010B58AB079
:10452000044600200E4908600B2000210591CDE9CA
:104530000704069108460B4909680B4A12680B4BA1
:104540001B68CDE90132CDE903103F200023084A62
:1045500008A100900C48FEF77DFC0AB010BD0000D9
:1045600058000020A08000089C8000089880000867
:10457000D144000875432F4F532D494949204964C0
:104580006C65205461736B00685F00202DE9F84F63
:1045900004460D4616461F46DDE90BABDDF82890B4
:1045A000DDF834800020009000BF00BFFBF720FE44
:1045B000009000BFFDF776F800BF2C4800882C491A
:1045C000098888423EDA29480088401C274908802B
:1045D000284800880988884203DA24480088254949
:1045E00008802548006804602348006885602248E8
:1045F0000068C6602048006807821F480068C0F84D
:1046000014901D480068A0F818A01B480068C0F866
:104610001CB0194800684068174908600120174914
:104620000881174808604860002000F06DFD1548BB
:10463000007818B113480078134908700020A8F8D2
:10464000000008E011480088401C1049088044F22E
:104650005360A8F8000000BFFDF73EF800BF0098C7
:10466000FBF7CAFD00BF00BFBDE8F88F7000002057
:10467000AC80000872000020680000200C6100205F
:10468000346000209200002094000020740000207C
:104690003EB5594800680068584A811A904279D05E
:1046A0000FDC5749084400283ED056490844A8B1B9
:1046B00055490844002860D05449084400286AD16C
:1046C0003FE053480844002850D05249084400288D
:1046D00062D0514908440028F1D110E002A8464DAB
:1046E00000902D68EB69444D2D682A8B424D2D6852
:1046F0006969414D2D68A868FFF77AFD7AE002A943
:104700003D480068C0693C4DCDE900012D682B8B08
:10471000394D2D682A8A384D2D68E968364D2D6847
:10472000A86800F021FD65E0334B1B68DA69324B65
:104730001B68198B304B1B68986802AB00F066FF52
:1047400058E002A92C480068C0692B4DCDE9000152
:104750002D682B8B284D2D682A8A274D2D68E968F6
:10476000254D2D68A86801F09BFB43E022490968AC
:10477000886802A901F0CAFC3CE01F4B1B68DA699B
:104780001D4B1B68198B1C4B1B68986802AB01F012
:1047900087FD2FE007E02CE017490968886802A927
:1047A00002F052F826E01D49097801EB41011C4A4C
:1047B00002EB810000F0A8FE0F48006802AB002168
:1047C000C269184801F06CFD17480068401E164980
:1047D00008600846006858B9144800680860FCF78B
:1047E000F1FF044602AB22460021114801F058FDBA
:1047F00000E000BF00BF3EBD6C0000205449434BA9
:10480000ADBAB2BE0DF90BFAF2F8F7FF0006F6FFEB
:1048100000F7FDF700FFEFFF03FE0FFE94000020FE
:104820000C610020D8640020180100201401002031
:10483000D4650020002756E0002652E000BF00BFEC
:10484000FBF7D6FC074600BFFCF72CFF00BF26484D
:10485000008898B90020254908810860486000F068
:1048600065FC00BFFCF738FF00BF3846FBF7C4FC0F
:1048700000BF00BFFEF77AF8012632E000BFFCF768
:104880002BFF00BF3846FBF7B7FC00BF00BFFCF7AB
:1048900099FF0546FFF7FCFEFCF794FF441B144804
:1048A0000068A04201D21248046000BF00BFFBF7BD
:1048B0009FFC074600BFFCF7F5FE00BF0D480068EF
:1048C00040680C49086008480088401E0649088076
:1048D00000BFFCF701FF00BF3846FBF78DFC00BFAF
:1048E00000BF002EAAD0A7E7700000200C610020B6
:1048F000780000206C000020F0B589B0054600204B
:10490000314908803148006820B944F2526028805B
:1049100009B0F0BD2E480088022803DA44F2546042
:104920002880F5E700202B490860284804682646BF
:10493000203600270CE0284820600020A060E060BE
:10494000208260612083666020342036781C87B224
:104950001F4800888742EEDB203C1C4806686660E2
:104960001E4806601E48066000201E4908801E4939
:1049700008801E48006818B944F255602880C7E7CF
:104980001B4800681B490968884203D244F25660FC
:104990002880BDE7032000210591CDE90705069198
:1049A00013480068144A1268104B1B68CDE90301D4
:1049B000CDE9013200910B46104A11A11748FEF7CC
:1049C00049FA00BFA4E7000074000020A880000896
:1049D000AC800008780000204E4F4E456800002053
:1049E0006C0000207000002072000020B4800008DD
:1049F000BC800008F4800008B88000083548000832
:104A000075432F4F532D4949492049535220517521
:104A1000657565205461736B0000000034600020F0
:104A2000002181610749096811B90021C16105E0D0
:104A300004490968C161034909688861014908603E
:104A400070470000840000200021034A1160034ADF
:104A50001180018070470000840000208800002041
:104A600070B501461A4D2D681DB945F21E750D80B1
:104A700070BD184D2D881DB945F21D750D80F7E7E5
:104A8000134D28682A681032124D2D886D1EACB265
:104A9000002308E00260002545600581C5601030F4
:104AA00010325D1CABB2A342F4DB0025056045600B
:104AB0000581C560064D2D68074E3560054D2D8872
:104AC000B5800025F58035810D8000BFD0E700005E
:104AD000D8800008D08000080061002010B5014691
:104AE00048894B89002B17DD0A680C4B1B68136043
:104AF0000A4C4B6823602346DB884C891B1B074C00
:104B0000E38023469B884C892344044CA3800023E4
:104B10004B818B810B604B6010BD00000061002059
:104B2000F0B504460D46608940B90020288002B1E6
:104B3000106046F2925018800020F0BD61684E6807
:104B4000088928800AB1C8681060086860606068D9
:104B500018B900202060608102E06089401E6081F9
:104B6000084800680860074801608088401C054FBD
:104B7000B8803846C088401EF88000201880304633
:104B8000DBE7000000610020018100224281828178
:104B900002604260704700002DE9F0410D46DDE9FA
:104BA0000674B0F80AC0B0F80880C44505DB46F2C8
:104BB000935CA4F800C0BDE8F081DFF8DCC0BCF86D
:104BC00004C0BCF1000F04D145F21D7CA4F800C064
:104BD000F1E7DFF8C4C0DCF80010DFF8BC80D1F8E2
:104BE00000C0C8F800C0C446BCF804C0ACF1010C59
:104BF000A8F804C0C446BCF806C00CF1010CA8F823
:104C000006C0C446BCF808C0B8F80680C44507DA38
:104C1000DFF884C0BCF806C0DFF87C80A8F808C0C4
:104C2000B0F80AC0BCF1000F0AD1016041604FF03A
:104C3000010CA0F80AC04FF0000CC1F800C017E04A
:104C400003F0100CBCF1000F07D106683160016061
:104C50004FF0000CC1F800C004E0D0F804C0C1F867
:104C600000C04160B0F80AC00CF1010CA0F80AC005
:104C7000B0F80CC0B0F80A80C44503DAB0F80AC036
:104C8000A0F80CC04D600A81CF604FF0000CA4F872
:104C900000C000BF8FE700000061002009A1C161D2
:104CA000002141610849096811B90021816105E0CD
:104CB0000549096881610449096848610249086039
:104CC00070470000200000008C000020C26B0A62C8
:104CD000C16370472DE9F8430546EC6B26E0D4F834
:104CE0002090FCF76FFD0646E6622146284600F05C
:104CF00037F804F10808B8F8080020B9002084F853
:104D00002800606211E0D8F8000087686562012021
:104D100084F8280021463846FFF7D8FF00231A46BA
:104D200039462046009600F04DF94C46002CD6D16D
:104D3000BDE8F88330B504463F2004F13C010BE0A8
:104D40000D68AB682BB19D6895F83720824200DA78
:104D500010460D6805F120010D68002DF0D130BD21
:104D6000024602F13C0002E0036803F12000036800
:104D70008B42F9D103681B6A036070470021034A24
:104D80001160034A11800180704700008C000020F0
:104D9000900000202DE9F04105460C4616461F46BE
:104DA0001548006880F8346000201349096881F8CC
:104DB000350039461048006800F034FF6CB104F14A
:104DC0000808EC60012229460B48006800F016F83C
:104DD0002946404600F088F807E0002006490968A7
:104DE000A1F84600044909680863034801682046A1
:104DF00000F018F8BDE8F0811C01002010B5A0F803
:104E00004620016300230AE000244C600C600C6122
:104E10004C610C83CC61886020315C1CA3B293424E
:104E2000F2DB10BD30B548B14568C1F8C85000F19B
:104E30000804226893681D6AC56113E091F8345034
:104E4000022D02D0072D08D103E007A5C1F8C850F4
:104E500007E007A5C1F8C85003E008A5C1F8C8508D
:104E600000BF00BF30BD00005461736B20510000D3
:104E70005461736B2053656D00000000200000003A
:104E800030B507A5C1F8C85000F1080422681AB16E
:104E900093681D6AC56101E001A5C56130BD0000D0
:104EA000200000002DE9F0410446256BB4F846705F
:104EB00011E0D5F80C8008F108063089012807D9DF
:104EC0002946304600F05DF82946304600F00CF8DF
:104ED0002035781E87B2002FEBD1BDE8F08100218C
:104EE0000160416001817047F0B58E6896F83750D7
:104EF00007893FB90127078100274F600F600160D4
:104F0000416023E007897F1C0781026806E09468FE
:104F100094F83770AF4200DD02E05268002AF6D103
:104F200000BF32B900274F6043680B605960416091
:104F30000CE017682FB9116000270F604A6001600C
:104F400004E013680B604A6059601160F0BD2DE900
:104F5000F0410446256BB4F846600AE0D5F80C80B1
:104F600008F108072946384600F00BF82035701E76
:104F700086B2002EF2DC0020A4F846002063BDE8D3
:104F8000F08110B50489012C03D100240460446031
:104F900011E00C6824B94A680024146002600AE039
:104FA0004C6824B90B6800245C60436003E00B6824
:104FB0004A685A6013600489641E048100244C60AE
:104FC0000C6010BD2DE9F84306460C46174698467E
:104FD000089D94F8360008285BD2DFE800F004054D
:104FE00008090607323300BF00BF00BF52E000BF10
:104FF00094F83400032807D143463A462146304608
:10500000009500F04AF803E02766A4F86480A564E0
:1050100036B12046FFF79BFF21463046FFF730FFB1
:1050200094F83600032802D1204601F077FD20468F
:1050300000F070F900203434A070607004F8340976
:1050400028E000BF94F83400032807D143463A46CD
:1050500021463046009500F020F803E02766A4F8CA
:105060006480A56436B12046FFF771FF21463046C3
:10507000FFF706FF94F83600072802D1204601F01A
:105080004DFD04203434A0700020607004F8340911
:1050900000E000BF00BFBDE8F883F0B50446059E00
:1050A000086BB1F846500AE0C768A74204D1046112
:1050B00042610383C66104E020306F1EBDB2002D43
:1050C000F2DC00BFF0BD000070B50025074C03E026
:1050D00005F12000C5B2241D20680028F8D0206802
:1050E000FBF791F82844C5B2284670BD3400002073
:1050F000002004E00021034A42F82010401C02284E
:10510000F8D370473400002030B5420900F01F0387
:105110000121C3F11F04A140034C54F822400C4369
:10512000014D45F8224030BD3400002030B5420921
:1051300000F01F030121C3F11F04A140034C54F8E8
:1051400022408C43014D45F8224030BD3400002000
:105150000021034A1160034A11800180704700005A
:10516000980000209C0000202DE9F04F85B00746F4
:105170008A4693461C460020029000BF00BF00BF35
:10518000FBF736F8029000BFFCF78CFA00BF5648D8
:105190000078401C5449087008460078012801D165
:1051A00000F086F900BFFCF797FA00BF0298FBF702
:1051B00023F800BF00BF00BF07F1080630890028B0
:1051C0004CD104F0100010B94FF0000801E04FF08E
:1051D0001008DDE90E0143465A46CDE9000151466B
:1051E00007F12000FFF7D8FC00BF00BF00BFFAF7AF
:1051F000FFFF029000BFFCF755FA00BF3A48007865
:10520000401E3949087008460078D0B900F05EF9B0
:105210003648008800280BDD00BFFCF75DFA00BFB0
:105220000298FAF7E9FF00BF00BF00F017F911E09C
:1052300000BFFCF751FA00BF0298FAF7DDFF00BF8C
:1052400008E000BFFCF748FA00BF0298FAF7D4FF65
:1052500000BF00BF00BF05B0BDE8F08F04F40070D0
:1052600008B1358900E00125D6F8009011E0D9F8A1
:1052700008000390D9F8040004900E985B4652464B
:10528000009038460399FFF79DFEDDF81090681EE8
:1052900085B2002DEBD100BF00BF00BFFAF7A8FF19
:1052A000029000BFFCF7FEF900BF0F480078401ED7
:1052B0000D4908700846007808B900F007F900BFEA
:1052C000FCF70AFA00BF0298FAF796FF00BF00BF8A
:1052D00000BF04F4004008B9FDF748FB00210F9817
:1052E000018000BFB7E70000AC0000207000002084
:1052F00000210AE001EB4102054B03EB8200002292
:105300000281026042604A1CD1B24029F2D3704748
:105310000C61002010B5044694F83700FFF7F4FE46
:1053200094F8370005490978884203D1204600F0F7
:1053300027F802E0204600F003F810BD920000209C
:1053400010B590F8373003EB43030C4C04EB8301AA
:105350000B893BB901230B810023C3600361086003
:10536000486009E00B895B1C0B810B68C36000235C
:1053700003610A681061086010BD00000C61002024
:1053800010B590F8373003EB43030B4C04EB83016B
:105390000B893BB901230B810023C36003610860C3
:1053A000486008E00B895B1C0B810023C3604A68DE
:1053B0000261D060486010BD0C61002010B501464C
:1053C0000C8924B1012C03D0022C0CD101E000BFC8
:1053D00014E008684A6802610024C4601461D06067
:1053E0000A6048600AE008684A68C36800241C61D3
:1053F000C4600261D0600B60486000BF00BF10BD98
:105400002DE9F041054695F8370000EB40001249C0
:1054100001EB80042F69EE6887B946B9002020812E
:105420002060606095F83700FFF780FE0EE020896D
:10543000401E208100203061266007E02089401E48
:105440002081FE600EB9676000E0376100202861AE
:10545000E860BDE8F08100000C61002010B5002478
:1054600000BFFAF7C5FE044600BF00200C490870D3
:105470000C480D49086008460068D0F89400401CAC
:105480000968C1F8940009480068401C0749086091
:10549000FBF704F900BF2046FAF7AEFE00BF10BDCF
:1054A000930000203460002020010020D80000205C
:1054B00010B504480078012803D1FCF783F90249AC
:1054C000086010BDAC000020A000002010B50A4804
:1054D000007880B9FCF776F908490968441A084849
:1054E0000068A04201D20648046006480068A04255
:1054F00001D20448046010BDAC000020A0000020D0
:10550000A4000020A800002070B5054600263548FC
:105510000078012800D070BD00BF00BFFAF768FE18
:10552000064600BFFCF7BEF800BF2C684CB900BFB0
:10553000FCF7D2F800BF3046FAF75EFE00BF00BFAE
:10554000E9E72948844209D100BFFCF7C5F800BF4C
:105550003046FAF751FE00BF00BFDCE7E06D10B146
:10556000E06D401EE065E06D48B100BFFCF7B4F8A7
:1055700000BF3046FAF740FE00BF00BFCBE72889E6
:10558000022809DA00BFFCF7A7F800BF3046FAF797
:1055900033FE00BF00BFBEE714480078002809DDD5
:1055A00000BFFCF799F800BF3046FAF725FE00BFB0
:1055B00000BFB0E72846FFF701FF2C68A06D18B9BF
:1055C0000B480068E06501E0A06DE06500BFFCF7F6
:1055D00083F800BF3046FAF70FFE00BF00BF00BFE0
:1055E00099E70000B4000020685F0020AC000020B4
:1055F000B00000200021034A1160034A118001809D
:1056000070470000B8000020BC0000202DE9FF5FBB
:105610000446884691461D460020019000BF00BF09
:10562000FAF7E6FD019000BFFCF73CF800BF04F17B
:1056300008073889002857D10420012804D00228FF
:1056400016D004283AD127E0206AFF280FD100BFE6
:10565000FCF742F800BF0198FAF7CEFD00BF00BF8B
:1056600046F6C5502880002004B0BDE8F09F26E033
:105670004FF6FF71206A88420DD100BFFCF72CF86D
:1056800000BF0198FAF7B8FD00BF00BF46F6C5504D
:1056900028800020E8E712E0206A401C68B900BFBB
:1056A000FCF71AF800BF0198FAF7A6FD00BF00BF8B
:1056B00046F6C55028800020D6E700E000BF00BFB6
:1056C000206A401C2062D4F820A0C4F8249000BFB7
:1056D000FCF702F800BF0198FAF78EFD00BF00BF8B
:1056E000002028805046BFE700BF2D480078401CAE
:1056F0002B49087008460078012801D1FFF7D8FE31
:1057000000BFFBF7E9FF00BF0198FAF775FD00BF86
:1057100000BF00BF08F4007008B13E8900E0012618
:10572000D7F800B011E0DBF808000290DBF80400C5
:10573000039000231A46CDF8009020460299FFF707
:1057400041FCDDF80CB0701E86B2002EEBD1D4F80F
:1057500020A000BF00BF00BFFAF74AFD019000BFC4
:10576000FBF7A0FF00BF0E480078401E0C490870F0
:105770000846007808B9FFF7A9FE00BFFBF7ACFFA9
:1057800000BF0198FAF738FD00BF00BF00BF08F462
:10579000004008B9FDF7EAF800202880504663E78A
:1057A000AC00002086B00020009006E0D8490968CF
:1057B000480001AA0021FEF737FBD64800780128EF
:1057C000F4D101A8FDF708FA0027D3480068D049B2
:1057D0000968884205D9D0480068CD490968B0FBFE
:1057E000F1F727B9CC4800680A21B0FBF1F78EE148
:1057F000FBF7E8FF8246FBF73FFFC849086000BFA0
:1058000000BFFAF7F5FC009000BFFBF74BFF00BFAD
:10581000C3480068C34908600020C149086000BF50
:10582000FBF75AFF00BF0098FAF7E6FC00BF00BF85
:10583000BD480068BB490968884248D9BA48006831
:10584000BA49884205D242F21070039001200290BA
:1058500023E0B5480068B649884205D24FF47A7013
:1058600003900A20029018E0AF480068B1498842CE
:1058700003D26420039002900FE0AB480068AE4969
:10588000884205D20A2003904FF47A70029004E017
:105890000120039042F210700290A3480168029820
:1058A000B1FBF0F99F49039809684843B0FBF9F050
:1058B00042F21071081AA1490880A148008809889D
:1058C000884208DA9D4800889D49088003E042F23A
:1058D00010709A490880FDF7B3FA002500BF00BF99
:1058E000FAF786FC009000BFFBF7DCFE00BF95488E
:1058F000046800BFFBF7F0FE00BF0098FAF77CFCDD
:1059000000BF00BF72E000BF00BF00BFFAF770FC2D
:10591000009000BFFBF7C6FE00BF8B480078401C1C
:105920008949087008460078012801D1FFF7C0FDB9
:1059300000BFFBF7D1FE00BF0098FAF75DFC00BF87
:1059400000BF00BF54F8A00F6060002044F8A00919
:1059500000BF00BF00BFFAF74BFC009000BFFBF791
:10596000A1FE00BF78480078401E774908700846BD
:105970000078D0B9FFF7AAFD7448008800280BDD35
:1059800000BFFBF7A9FE00BF0098FAF735FC00BF87
:1059900000BFFFF763FD11E000BFFBF79DFE00BFF6
:1059A0000098FAF729FC00BF08E000BFFBF794FE5F
:1059B00000BF0098FAF720FC00BF00BF00BFD4F87A
:1059C000A400054400BF00BFFAF712FC009000BF1E
:1059D000FBF768FE00BFD4F8C44000BFFBF77CFEB5
:1059E00000BF0098FAF708FC00BF00BF002C8AD166
:1059F00045B34E48854205D242F2107005904FF0F3
:105A0000010B1BE04A48854205D24FF47A7005909D
:105A10004FF00A0B12E04748854203D264200590FC
:105A200083460BE04448854204D20A2005904FF497
:105A30007A7B03E00120059042F2107BB5FBFBF07E
:105A4000049003E0002005900120049000BF00BFF7
:105A5000FAF7CEFB009000BFFBF724FE00BF3948E9
:105A6000046800BFFBF738FE00BF0098FAF7C4FBDC
:105A700000BF00BF2FE0D4F8A40005994843049963
:105A8000B0FBF1F086B242F21070864200D90646B1
:105A9000A4F89060B4F89200B04201DAA4F89260E1
:105AA00001AB04F1B002111D2046FDF759FF00BF04
:105AB00000BFFAF79DFB009000BFFBF7F3FD00BFAE
:105AC000D4F8C44000BFFBF707FE00BF0098FAF708
:105AD00093FB00BF00BF002CCDD11D4800780128EA
