:020000040800F2
:10000000E86100209D0100086B0D00083909000817
:10001000670D0008A10600084D1A00080000000046
:10002000000000000000000000000000C9130008EC
:100030005307000800000000F90D0008B91400087B
:10004000B7010008B7010008B7010008B7010008B0
:10005000B7010008B7010008B7010008B7010008A0
:10006000B7010008B7010008B7010008B701000890
:10007000B7010008B7010008B7010008B701000880
:10008000B7010008B7010008B7010008B701000870
:10009000B7010008B7010008B7010008B701000860
:1000A000B7010008B7010008B7010008B701000850
:1000B000B7010008B7010008B7010008B701000840
:1000C000B7010008B7010008B7010008B701000830
:1000D000B7010008AD150008BD150008CD150008D2
:1000E000B7010008B7010008B7010008B701000810
:1000F000B7010008B7010008B7010008B701000800
:10010000B7010008B7010008B7010008B7010008EF
:10011000B7010008B7010008B7010008B7010008DF
:10012000B7010008B7010008B7010008B7010008CF
:10013000B7010008B7010008B7010008B7010008BF
:10014000B7010008B7010008B7010008B7010008AF
:10015000B7010008B7010008B7010008F51500084D
:10016000B7010008B7010008B7010008B70100088F
:10017000B7010008B7010008B7010008B70100087F
:10018000B7010008B7010008DFF80CD000F04AF80A
:100190000048004799240008E8610020064880478D
:1001A00006480047FEE7FEE7FEE7FEE7FEE7FEE75C
:1001B000FEE7FEE7FEE7FEE74515000889010008B7
:1001C0002DE9F05F0546002092469B46884606468C
:1001D000814640241BE0284641464746224600F01F
:1001E00042F853465A46C01A914110D31146184658
:1001F000224600F029F82D1A67EB01084F462246E7
:100200000120002100F020F817EB00094E41201ECC
:10021000A4F10104DFDC484631462A464346BDE8E6
:10022000F09F0000064C074D06E0E06840F0010337
:1002300094E8070098471034AC42F6D3FFF7A8FFC4
:10024000EC2400080C250008202A04DB203A00FAE0
:1002500002F1002070479140C2F1200320FA03F31D
:10026000194390407047202A04DB203A21FA02F01B
:100270000021704721FA02F3D040C2F120029140E0
:1002800008431946704700001CB501215A2000F0B0
:10029000F7FF01208DF8040000208DF806008DF88E
:1002A000070003208DF805000120009069462248D0
:1002B00000F0CAFA082000906946204800F0C4FA0D
:1002C0002020009069461D4800F0BEFA02200090F0
:1002D0006946194800F0B8FA80200090694618482D
:1002E00000F0B2FA042000906946134800F0ACFA1E
:1002F0004FF4004000906946124800F0A5FA8020B3
:100300000F491831088004200B49488340030D49E8
:100310001A31088000208DF804008DF806008DF851
:10032000070002208DF8050040200090694604482F
:1003300000F08AFA1CBD00000010024000040240D8
:10034000000C0240001802402DE9F04F8DB05FA173
:1003500003C9CDE90B015FA000680A905EA207CA3D
:1003600007AB07C3002576E05E4830F8150084B27D
:10037000681CC0B28DF832009DF832009DF8311033
:100380009DF830209DF82F30CDE90032CDE90210E4
:100390009DF82E309DF82D209DF82C1052A001F0D4
:1003A00057FB554830F91500002824DA604284B222
:1003B0000A2094FBF0F100FB1148642094FBF0F15B
:1003C00000FB11400A2190FBF1F94FF47A7094FB85
:1003D000F0F100FB1140642190FBF1FA4FF47A70C8
:1003E00094FBF0FB4B465246594644A0CDF80080A2
:1003F00001F02EFB21E00A2094FBF0F100FB1148F4
:10040000642094FBF0F100FB11400A2190FBF1F90C
:100410004FF47A7094FBF0F100FB1140642190FBE3
:10042000F1FA4FF47A7094FBF0FB4B465246594672
:1004300035A0CDF8008001F00BFB9DF82B0000905B
:100440009DF82A309DF829209DF8281031A001F050
:10045000FFFA681C85B2082D86DB9DF825009DF803
:1004600024209DF823109DF82230CDE90331CDE9F9
:1004700005209DF821009DF820109DF81F20CDE952
:10048000002102909DF81E309DF81D209DF81C1043
:1004900023A001F0DDFA1848C088C0F307261648EB
:1004A00087793A4631461CA001F0D2FA9DF82B001C
:1004B00000909DF82A309DF829209DF8281015A05D
:1004C00001F0C6FA0DB0BDE8F08F0000EEB11000EB
:1004D00000000000FFFCFFFFEEB132000000090049
:1004E0000002000038000020256325632563256392
:1004F0002563256325630000480000202D25642E18
:1005000025642564256400002B25642E256425645C
:100510002564000025632563256325630000000032
:10052000256325632563256325632563256325638B
:10053000256325630000000070B5002424E02046F8
:1005400000F02CF8124921F81400084630F9145034
:100550001048007858B941F28830684347F6FF7177
:1005600090FBF1F000B20C4921F814000AE042F2CD
:100570001070684347F6FF7190FBF1F000B2064936
:1005800021F81400601CC4B2082CD8DB70BD000038
:10059000480000200E000020380000200146012005
:1005A00080F3108800BF044830F91120002080F348
:1005B000108800BF10467047D821002010B50221D6
:1005C0000D4800F0B7F901210B4800F0B1F9012105
:1005D000094800F0AFF90121074800F0ABF901210B
:1005E000054800F0A7F90121034800F0A3F9012113
:1005F000014800F09DF910BD0010024010B54021E7
:10060000124800F08CF9F8B90221114800F090F975
:10061000002411E001F0D0FE0E4921F8140001F091
:10062000CBFE0C4911F8141000EB012000B209496F
:1006300021F81400601CC4B2082CEBDB0221044832
:1006400000F078F900F018F810BD0000000C02402E
:1006500000100240D821002010B5044624B9202102
:10066000044800F065F903E02021024800F062F937
:1006700010BD00000004024010B50821074800F03A
:1006800057F90821054800F053F90821034800F004
:100690004FF90821014800F04DF910BD0004024057
:1006A00000BFFEE7014609B90B487047012901D197
:1006B0000A48FAE7022901D10948F6E7032901D1DE
:1006C0000020F2E7042901D10020EEE7052901D13D
:1006D0000448EAE70020E8E738010020600900202C
:1006E00088110020B019002008B54FF4E06000F038
:1006F00079FB25208DF8000000208DF802000120F4
:100700008DF80300684600F031FB26208DF80000CC
:1007100001208DF802008DF80300684600F026FBEA
:1007200027208DF8000002208DF8020001208DF8AE
:100730000300684600F01AFB47208DF800000520F2
:100740008DF8020001208DF80300684600F00EFBD2
:1007500008BD704708B501201949087001F052FE24
:100760001421002001F0CEFD00F02CF827E001F06C
:1007700047FC002001F0C4FB28B1FFF73FFFFFF763
:10078000DBFEFFF7E1FD6946002001F04DFEB0B150
:100790009DF8000031280ED10948007818B90120D1
:1007A0000749087002E000200549087004490878EC
:1007B000FFF752FF02E000F005F800BF00BFD6E7E8
:1007C0000E00002010B506A001F042F912A001F0C1
:1007D0003FF916A001F03CF91AA001F039F910BD5B
:1007E0000D0A2D2D2D2D2D2D2D2D2D2D2D2D2D2D7C
:1007F0002D2D2D2D2D2D2D2D2D2D2D2D2D2D2D2D29
:100800002D2D2D2D2D2D2D2D2D2D2D2D2D2D2D2D18
:100810002D2D0D0A00000000C7EBD1A1D4F1B2D9F3
:10082000D7F7C3FCC1EE3A0D0A00000031202D209D
:10083000C7D0BBBBC1BFB3CC283556BBF231305695
:10084000290D0A000D0A0000F0B50A460021002318
:10085000002400BF3DE0012505FA01F3156805EA13
:1008600003049C4234D105684F000326BE40B543C3
:10087000056015794E00B540066835430560157969
:10088000012D02D01579022D16D185684F0003265F
:10089000BE40B543856055794E00B5408668354306
:1008A0008560456801268E40B54345604568967968
:1008B0008E40B6B235434560C5684F000326BE4042
:1008C000B543C560D5794E00B540C6683543C560AF
:1008D000491C1029BFD3F0BDF0B5002300244D07FB
:1008E000ED0E02FA05F3CE1000F1200555F8265062
:1008F0004E07F70E0F26BE40B543CF1000F120067D
:1009000046F82750CE1000F1200555F8265045EA4C
:100910000304CE1000F1200545F82640F0BD024644
:10092000002013690B400BB1012000E0002070474C
:10093000418370470183704709A100200BE00A5CE6
:10094000124B9A8000BF114A128802F04002002A1E
:10095000F9D0421CD0B22A28F1D300BFFEE7000034
:100960000D0A456E74657220486172644661756C4B
:10097000745F48616E646C65722C20537973746582
:100980006D2048616C742E0D0A00000000100140BB
:1009900000B587B00121084600F072FC012110204B
:1009A00000F08EFC07220921AB48FFF795FF0722D4
:1009B0000A21A948FFF790FF00208DF81A000120B6
:1009C0008DF81B0002208DF818000002059002200F
:1009D0008DF8190005A9A048FFF736FF02208DF811
:1009E00018004002059005A99B48FFF72DFF4FF422
:1009F000E13001900020ADF80800ADF80A00ADF834
:100A00000C00ADF810000C20ADF80E0001A99348C1
:100A100000F05CFE012240F22551904800F031FECA
:100A200001218E4800F0F7FD40218C4800F0EAFDDE
:100A30000121084600F024FC0121480400F030FCAC
:100A4000072203218448FFF747FF00208DF81A0092
:100A500001208DF81B0002208DF818008DF8180079
:100A60000820059002208DF8190005A97A48FFF7A3
:100A7000EBFE4FF4165001900020ADF80800ADF8E1
:100A80000A00ADF80C00ADF810000420ADF80E001F
:100A900001A9734800F01AFE012240F22551704866
:100AA00000F0EFFD01216E4800F0B5FD40216C48DB
:100AB00000F0A8FD0121022000F0E2FB01208DF8EA
:100AC000180000208DF81A008DF81B0003208DF807
:100AD00019000420059005A96248FFF7B5FE012121
:100AE000022000F0CDFB0121880400F0D9FB072291
:100AF0000A215C48FFF7F0FE07220B215948FFF757
:100B0000EBFE00208DF81A0001208DF81B0002205A
:100B10008DF818004002059002208DF8190005A9F3
:100B20005048FFF791FE02208DF8180080020590D2
:100B300005A94C48FFF788FE4FF41650019000209D
:100B4000ADF80800ADF80A00ADF80C00ADF81000E3
:100B50000C20ADF80E0001A9434800F0B7FD0122BA
:100B600040F22551404800F08CFD01213E4800F044
:100B700052FD40213C4800F045FD0121442000F099
:100B80007FFB0121202000F09BFB08220E2137482B
:100B9000FFF7A2FE082207213548FFF79DFE082235
:100BA00011463248FFF798FE08220F212F48FFF721
:100BB00093FE00208DF81A0001208DF81B00022002
:100BC0008DF818004003059002208DF8190005A942
:100BD0002648FFF739FE02208DF818008020059086
:100BE00005A92348FFF730FE02208DF81800C00148
:100BF000059005A91D48FFF727FE02208DF8180073
:100C00008003059005A91948FFF71EFE4FF4E13057
:100C100001900020ADF80800ADF80A00ADF80C0016
:100C20004FF44070ADF810000C20ADF80E0001A993
:100C3000104800F04BFD012240F225510D4800F014
:100C400020FD01210B4800F0E6FC4021094800F09E
:100C5000D9FC07B000BD00000000024000100140B8
:100C600000440040000402400048004000180240D8
:100C700000080240001401400448006900F480703C
:100C800008B9012070470020FCE700000020024066
:100C900010B5FFF7F1FF20B100F006F808B1012010
:100CA00010BD0020FCE700000448006800F400507C
:100CB00008B9012070470020FCE70000100802403E
:100CC0000448006900F4006008B901207047002062
:100CD000FCE70000002002400448006800F0040027
:100CE00008B9012070470020FCE70000101C0240FA
:100CF0000448006800F0080008B90120704700208F
:100D0000FCE70000101C02400448006800F400608A
:100D100008B9012070470020FCE7000010140240D1
:100D20000448006800F0800008B9012070470020E6
:100D3000FCE70000101802400448006800F400407E
:100D400008B9012070470020FCE70000101C024099
:100D500010B5FFF791FF20B1FFF7A6FF08B1012002
:100D600010BD0020FCE700BFFEE7704770B5002112
:100D700000230F22C4781CB3174C246804F4E064E9
:100D8000C4F5E064C4F30721C1F10404E3B20A41ED
:100D900044789C40E1B28478144021430C07210E32
:100DA0000E4C05786155047804F01F050124AC4011
:100DB00005786D11AD0005F1E025C5F8004109E0A9
:100DC000047804F01F050124AC40054D0678761127
:100DD00045F8264070BD00000CED00E000E400E0A6
:100DE00080E100E002490143024A116070470000BF
:100DF0000000FA050CED00E07047000010B517A0E8
:100E000000F026FE19A000F023FE20A000F020FE36
:100E100029A000F01DFE32A000F01AFE3BA000F059
:100E200017FE45A000F014FE4EA000F011FE5AA0DF
:100E300000F00EFE63A000F00BFE6EA000F008FEB6
:100E40007AA000F005FE87A000F002FE93A000F05B
:100E5000FFFD9DA000F0FCFD10BD0000BDD3CFDF65
:100E6000B7BDB7A83A200D0A00000000414437364C
:100E70003036C4A3BFE92020202020202009737031
:100E800069C4A3CABD200D0A0000000020202B3534
:100E900056202020202020203C2D2D2D2D2D2D20B2
:100EA0002020352E30562020202020203556B9A96C
:100EB000B5E70D0A000000002020474E4420202006
:100EC000202020202D2D2D2D2D2D2D202020474E72
:100ED0004420202020202020B5D80D0A000000004A
:100EE0002020435320202020202020203C2D2D2D69
:100EF0002D2D2D2020205044362020202020202061
:100F00005350495F43530D0A000000002020524413
:100F10002F53434C4B2020203C2D2D2D2D2D2D20AB
:100F20002020504233202020202020205350495F91
:100F300053434C4B0D0A000020204442372F444FAE
:100F4000555420202D2D2D2D2D2D3E20202050427A
:100F500034202020202020205350495F4D49534FFA
:100F60000D0A00002020524147452020202020204B
:100F70003C2D2D2D2D2D2D202020504235202020A0
:100F800020202020C4A3C4E2D0C5BAC5CAE4C8EB5F
:100F9000C1BFB3CC0D0A00002020525354202020A2
:100FA000202020203C2D2D2D2D2D2D20202050487F
:100FB0003130202020202020B8B4CEBBD0C5BAC507
:100FC0000D0A000020204356412043564220202095
:100FD0003C2D2D2D2D2D2D20202050483920202036
:100FE00020202020C6F4B6AF4144D7AABBBB0D0ACF
:100FF0000000000020204F533020202020202020FF
:101000003C2D2D2D2D2D2D202020474E44202020FD
:1010100020202020B9FDB2C9D1F9D2FDBDC53028AC
:10102000C4ACC8CFBDD3B5D8290D0A0020204F537A
:1010300031202020202020203C2D2D2D2D2D2D2035
:101040002020474E4420202020202020B9FDB2C976
:10105000D1F9D2FDBDC53128C4ACC8CFBDD3B5D8F8
:10106000290D0A0020204F5332202020202020204C
:101070003C2D2D2D2D2D2D202020474E442020208D
:1010800020202020B9FDB2C9D1F9D2FDBDC532283A
:10109000C4ACC8CFBDD3B5D8290D0A002020425515
:1010A00053592020202020202D2D2D2D2D2D3E2068
:1010B00020205048372020202020202042555359FE
:1010C000D0C5BAC50D0A0000B4F2D3A1B2C9BCAFF5
:1010D000CAFDBEDD3A200D0A0000000010B512A0C6
:1010E00000F0B6FC20A12CA000F0B2FC2FA130A093
:1010F00000F0AEFC33A136A000F0AAFC00230322CE
:10110000012138A000F0A4FC44A000F0A1FC45A0FF
:1011100000F09EFC49A000F09BFC4FA000F098FC62
:1011200001A000F095FC10BD2A2A2A2A2A2A2A2A80
:101130002A2A2A2A2A2A2A2A2A2A2A2A2A2A2A2A0F
:101140002A2A2A2A2A2A2A2A2A2A2A2A2A2A2A2AFF
:101150002A2A2A2A2A2A2A2A2A2A2A2A2A2A2A2AEF
:101160002A2A2A2A2A0A0D0056352D313230625F8A
:10117000414437363036A3A838CDA8B5C03136CE75
:10118000BBCDACB2BD414443A3A9737069C4A3CA2B
:10119000BDC0FDB3CC0000002A20C0FDB3CCC3FB12
:1011A000B3C62020203A2025730D0A00312E3000CE
:1011B0002A20C0FDB3CCB0E6B1BE2020203A2025C5
:1011C000730D0A00323031352D31312D30360000AB
:1011D0002A20B7A2B2BCC8D5C6DA2020203A2025E2
:1011E000730D0A002A20B9CCBCFEBFE2B0E6B1BE46
:1011F000203A205625642E25642E25642028535439
:101200004D3332463478785F537464506572697038
:10121000685F447269766572290D0A002A200A0DFA
:10122000000000002A205151202020203A20313295
:101230003935373434363330200D0A002A20456DD5
:1012400061696C203A2061726D666C794071712E13
:10125000636F6D200D0A00002A20436F7079726958
:10126000676874207777772E61726D666C792E636C
:101270006F6D20B0B2B8BBC0B3B5E7D7D30D0A00CD
:1012800029B1064A12680243044B1A6004E0034A7B
:1012900012688243014B1A607047000030380240E8
:1012A00029B1064A12680243044B1A6004E0034A5B
:1012B00012688243014B1A607047000040380240B8
:1012C00029B1064A12680243044B1A6004E0034A3B
:1012D00012688243014B1A60704700004438024094
:1012E000F0B5002100220024022500260223324FFF
:1012F0003F6807F00C0121B1042905D0082937D136
:1013000005E02E4F076036E02D4F076033E02A4F8F
:101310003F1F3F68C7F38056274F3F1F3F6807F0C6
:101320003F036EB1264FB7FBF3F7DFF88CC0ACF18B
:10133000040CDCF800C0CCF3881C07FB0CF40CE0B8
:101340001E4FB7FBF3F7DFF870C0ACF1040CDCF80C
:1013500000C0CCF3881C07FB0CF4174F3F1F3F68FD
:10136000C7F301477F1C7D00B4FBF5F7076002E07F
:10137000124F076000BF00BF0F4F3F6807F0F0013A
:101380000909104F7A5C0768D74047600A4F3F68E9
:1013900007F4E051890A0B4F7A5C4768D7408760B1
:1013A000054F3F6807F46041490B064F7A5C476878
:1013B000D740C760F0BD0000083802400024F400A8
:1013C00000127A000F000020704700000CB50020CA
:1013D000019000903448006840F480303249086041
:1013E00000BF3148006800F4003000900198401CB4
:1013F0000190009818B90198B0F5A04FF1D12A4892
:10140000006800F4003010B10120009001E00020DD
:1014100000900098012846D123484030006840F0F1
:1014200080502149403108602048006840F4404025
:101430001E4908601C48083000681B4908310860D4
:101440000846006840F4004008600846006840F420
:10145000A05008601648091F0860081F006840F087
:101460008070091F086000BF0F48006800F000701E
:101470000028F9D040F205700E4908600A4808308B
:10148000006820F003000849083108600846006839
:1014900040F00200086000BF03480830006800F018
:1014A0000C000828F8D10CBD003802400070004044
:1014B00019544007003C024010B500F001F810BD7F
:1014C00010B51B48006840B119480068401E184913
:1014D000086010B9012017490870002408E004EBE7
:1014E0004401154A02EB810000F0FDFE601CC4B20D
:1014F000042CF4DB11480068401C104908600846C1
:1015000000686FF00041884202D100200B4908605A
:1015100000F0E8FE0A480078401CC0B20849087094
:101520000A2803DB0020087000F0D8FE10BD000080
:101530000000002004000020080100200800002016
:101540000C00002010B51548006840F470001349E5
:1015500008601348006840F001001149086000204D
:101560000F49083108600E4800680E4908400C49D0
:1015700008600D48091D0860081F006820F48020DD
:10158000091F0860002006490C310860FFF71EFFA4
:101590004FF0006001498039086010BD88ED00E01F
:1015A00000380240FFFFF6FE1030002410B502485C
:1015B00000F024F910BD00003801002010B50248E9
:1015C00000F01CF910BD00006009002010B50248B1
:1015D00000F014F910BD000088110020042001491A
:1015E00008807047180402400420014908807047B1
:1015F0001A04024010B5024800F000F910BD0000C6
:10160000B019002001F40072B2F5007F00D100BFD4
:10161000CA430280704721B1828942F4005282811C
:1016200004E082894DF6FF731A408281704770B5DD
:101630000246002400230025002040F66A16B1422D
:1016400000D100BFC1F3421501F01F03012606FAC5
:1016500003F3012D02D19689334006E0022D02D119
:10166000168A334001E0968A33400C12012606FAAE
:1016700004F41688344013B10CB1012000E00020BE
:1016800070BDF0B50346002400260025002040F67A
:101690006A17B94200D100BF1846C1F3421401F0E5
:1016A0001F06012707FA06F5012C01D10C3004E0D2
:1016B000022C01D1103000E014301AB107682F431A
:1016C000076002E00768AF430760F0BD2DE9FF4700
:1016D00005460E460024A14600BFA046B08900B1D1
:1016E00000BF2C8A24F44054F08804432C82AC8937
:1016F00041F20C608443B088318908437189084302
:101700000443AC81AC8A24F44074B0890443AC82B5
:101710006846FFF7E5FD2048854202D01F48854214
:1017200002D1DDF80C9001E0DDF80890A88900F402
:10173000004040B109EBC90000EB091031684900D5
:10174000B0FBF1F707E009EBC90000EB09103168C5
:101750008900B0FBF1F76420B7FBF0F00401200929
:10176000642101FB1078A88900F4004040B13220C8
:1017700000EBC800B0FBF1F000F00700044308E004
:10178000322000EB08106421B0FBF1F000F00F00F4
:1017900004432C81BDE8FF87001001400014014084
:1017A00001468888C0F308007047C1F308028280B0
:1017B000704770B504460D46012000F06BF9668B4A
:1017C000002000F067F90EB9002070BD218BA068E1
:1017D000405C2870012000F05DF9208B401C80B235
:1017E0002083E189884201DB00202083608B401E3A
:1017F0006083002000F04EF90120E6E710B50446B2
:1018000040F225512068FFF712FFE0B12068FFF792
:10181000C7FFE28AA1688854E08A401C80B2E08257
:10182000E189884201DB0020E082608BE189884207
:1018300002DA608B401C6083608B012803D1606AF0
:1018400008B1606A804740F227712068FFF7EFFE19
:1018500008B3A08A60B9002240F227712068FFF720
:1018600010FF012240F226612068FFF70AFF37E0EF
:10187000638A6268D15C2068FFF797FF608A401C2A
:1018800080B26082A189884201DB00206082A08A48
:10189000401EA08224E040F226612068FFF7C7FEC8
:1018A000F0B1A08A50B9002240F226612068FFF70B
:1018B000E8FE206AA0B1206A804711E0638A62686E
:1018C000D15C2068FFF771FF608A401C80B26082A3
:1018D000A189884201DB00206082A08A401EA0828C
:1018E00010BD2DE9F04104460E461746002527E0BD
:1018F0000CE0012000F0CEF8B4F81480002000F0D5
:10190000C9F8A089404500DD01E000BFF1E700BF54
:10191000705D228A61688854012000F0BBF8208A3B
:10192000401C80B22082A189884201DB00202082F5
:10193000A08A401CA082002000F0ACF8681C85B290
:10194000BD42D5DB012240F227712068FFF799FEE6
:10195000BDE8F0812B482C4908602C4848602C4891
:1019600088604FF480608881C881002008824882A6
:10197000C882088348838882C86108624862254813
:1019800025490860254848602548886001208881ED
:10199000C002C881002008824882C8820883488328
:1019A0008882C861086248621E481F4908601F4853
:1019B00048601F4888604FF480608881C88100209B
:1019C00008824882C8820883488388821948C8618F
:1019D00019480862002048621848194908601948E7
:1019E0004860194888604FF480608881C881002071
:1019F00008824882C882088348838882C861086256
:101A0000486270470010014038010020600100204A
:101A10006005002000440040600900200D00002007
:101A2000880900200048004088110020B0110020E3
:101A3000B0150020DD150008E9150008001401406C
:101A4000B0190020D8190020D81D002000BFFEE7E3
:101A50000FB4054B10B503A9044A029800F01EF814
:101A600010BC5DF814FB0000852400083400002041
:101A700002E008C8121F08C1002AFAD17047704757
:101A8000002001E001C1121F002AFBD1704780F342
:101A90001088704780F31088704700002DE9FF4FD1
:101AA0008DB00F460546002606E025280BD0DDE95F
:101AB0000F1290476D1C761C28780028F5D111B0C4
:101AC0003046BDE8F08F0024A246A1460122EC4931
:101AD00000E0044315F8013F203B02FA03F00842FE
:101AE000F7D128782A2810D06FF02F022878A0F19B
:101AF0003001092914D80AEB8A0102EB410144F0B4
:101B0000020400EB010A6D1CF0E701CF5FEA000A56
:101B100003D544F40054CAF1000A44F002046D1CD9
:101B200028782E2817D115F8010F44F004042A282C
:101B30000ED06FF02F022878A0F1300109290AD8C1
:101B400009EB890102EB410100EB01096D1CF2E791
:101B500057F8049B6D1C28786C280FD006DC4C28A5
:101B600017D068280DD06A2814D104E0742810D04A
:101B70007A280FD10DE044F400140AE044F48014F4
:101B800001E044F440146978814202D104F58014E4
:101B90006D1C6D1C2A786E2A1FD00CDC632A31D094
:101BA00004DC002A8BD0582A11D1A3E0642A68D023
:101BB000692A0CD165E0732A2ED004DC6F2A73D019
:101BC000702A04D19BE0752A6FD0782A6ED0104617
:101BD000DDE90F129047761C50E1C4F30250022851
:101BE00006D0032809D0042801CF09D0066045E1BA
:101BF00001CFF117C0E9006140E101CF06803DE16E
:101C000006703BE117F8040B8DF8000000208DF8FA
:101C10000100EB46012003E057F804BB4FF0FF3012
:101C200061074FF0000102D40DE008F10101884680
:101C300049450FDA8045F8DB1BF808100029F4D17C
:101C400008E008F1010188468142FADB1BF8081020
:101C50000029F6D1DDE90F23AAEB080081462146D1
:101C600000F036F9304400EB080604E0DDE90F121D
:101C70001BF8010B9047B8F10108F7D221464846FE
:101C8000F7E00A21C4F302534FF0000B0891022B36
:101C900004D001CFC117032B09D00AE0FF1D27F0A4
:101CA0000707F7E8020108E032E01FE020E000B299
:101CB000C117042B01D140B2C117031E71F10003FB
:101CC00007DA4FF0000CD0EB0C006CEB01012D2378
:101CD00002E0230504D52B238DF82430012303E0F3
:101CE000E30701D02023F7E7984658E00A2110E0E7
:101CF00010210EE010204FF0000B08900CE0102196
:101D00004FF0000B44F004044FF00809089103E081
:101D100008214FF0000B0891C4F30253022B04D0AA
:101D200001CF0021032B06D006E0FF1D27F0070797
:101D3000F7E8020103E080B2042B00D1C0B24FF0FB
:101D4000000823072BD5702A07D0DDF820C08CF0BF
:101D5000100C5CEA0B0C05D00EE040238DF824300B
:101D6000012308E050EA010306D030238DF8243027
:101D70008DF8252002239846DDF820C08CF0080C51
:101D80005CEA0B0C0BD150EA010301D1630706D5C5
:101D900030238DF824304FF00108A9F10109582AA9
:101DA00004D038A20B9208AA0A920BE03AA2F9E7F3
:101DB0005B46089AFEF704FA0B9B9B5C0A9A521E3C
:101DC0000A92137050EA0102F2D10A98ADEB0000BA
:101DD00000F1200B600702D524F4803401E04FF0BD
:101DE0000109D94502DDA9EB0B0000E0002000EB62
:101DF0000B0141440890AAEB010AE00306D4DDE997
:101E00000F232146504600F063F806444FF00009C6
:101E100008E009A911F80900DDE90F12904709F15E
:101E20000109761CC145F4DBE0030CD5DDE90F2385
:101E30002146504600F04CF8064404E0DDE90F125C
:101E400030209047761C0899481E08900029F5DC40
:101E500008E00A980A990078491C0A91DDE90F12F6
:101E60009047761CBBF10001ABF1010BF1DC214680
:101E70005046DDE90F2300F019F806446D1C1BE6FF
:101E80000928010030313233343536373839616250
:101E90006364656600000000303132333435363714
:101EA0003839414243444546000000002DE9F041E5
:101EB000044600251E461746880404D405E039462A
:101EC0002020B0476D1C641EF9D52846BDE8F0817E
:101ED0002DE9F041044600251E469046C80301D571
:101EE000302700E02027880404D505E04146384625
:101EF000B0476D1C641EF9D52846BDE8F08100008E
:101F00000146042901DB0020704701EB4100084A2B
:101F100002EB80004078012808D1002001EB41024B
:101F2000034B03EB820250700120EDE70020EBE74A
:101F30000801002070B50546304800EB0514206804
:101F4000804700283ED02079052802DA052020713C
:101F500052E020790A2803DA2079401C20714BE0F6
:101F6000A07A38B90120A07205EB4501491CC8B21E
:101F700000F0A4F9208900283EDDE088218988420C
:101F80000DDAE088401C80B2E0802189884233D19C
:101F900005EB4501C91CC8B200F090F92CE0E07ACD
:101FA000002829DD207B401CC0B22073E17A8842E2
:101FB00022DB0020207305EB4501491CC8B200F06C
:101FC0007DF919E02079052802DD0520207110E057
:101FD000207918B12079401E20710AE0A07A0128EA
:101FE00007D10020A07205EB4501891CC8B200F0A2
:101FF00065F90020E080207370BD000058000020CB
:10200000704710B500F046F900F005F800F0F6F85A
:1020100000F0C2F810BD10B500F054F800F002F85E
:1020200010BD00001CB501214FF4F270FFF728F934
:1020300000208DF804008DF806008DF807000220BE
:102040008DF80500C001009069461948FEF7FCFBB9
:102050004FF40050009069461648FEF7F5FB4FF428
:102060000060009069461248FEF7EEFB04200090E5
:1020700069461148FEF7E8FB0820009069460E48C3
:10208000FEF7E2FB4FF40060009069460B48FEF754
:10209000DBFB8020009069460948FEF7D5FB4FF432
:1020A0000040009069460448FEF7CEFB1CBD0000CE
:1020B0000020024000080240001C024000140240C0
:1020C000001802400021284A9172D1721173002039
:1020D00018E06421254A02EB001211810221234AF3
:1020E00002EB001211710021204A02EB00129172E2
:1020F0001E4A02EB0012D1721C4A02EB001211734D
:10210000411CC8B20A28E4DB642218490A87052268
:1021100081F83B206422A1F84820052281F84B2059
:102120006422A1F85820052281F85B206422A1F8DE
:102130006820052281F86B200D490C4A11600D4979
:1021400011610D4911620D4911630D4911640D4969
:1021500011650D4911660D4911670D49C2F88010CE
:102160000C49C2F890107047F80000205800002079
:10217000790C0008A90C0008C10C0008D90C000853
:10218000F10C0008090D0008210D0008390D0008A8
:10219000510D0008910C00081CB501214820FFF7E3
:1021A0006FF801208DF8040000208DF806008DF8EE
:1021B000070001208DF805000003009069460D48D6
:1021C000FEF742FB0420009069460B48FEF73CFBFB
:1021D00000208DF804008DF806008DF8070001201E
:1021E0008DF805002020009069460348FEF72CFB7F
:1021F0001CBD000000180240000C024070B5002019
:1022000016E0002100EB40021E4B03EB82025160FE
:1022100000EB400203EB8202916000EB400203EB13
:102220008202517000EB400203F82210411CC8B238
:102230000428E6DB144909684FF47A73B1FBF3F222
:10224000511EB1F1807F00D31BE0511E4FF0E023FF
:10225000596159170F23002907DA1C07260E0B4C6A
:1022600001F00F052D1F665503E01C07250E084CD5
:10227000655400BF00214FF0E023996107211961E7
:1022800000BF70BD080100202000002018ED00E014
:1022900000E400E010B5FFF75DFBFEF779FBFEF709
:1022A00023FA10BD10B5002404E02046FFF742FEDB
:1022B000601CC4B20A2CF8DB10BD00000649C97AC4
:1022C000054A50541146C97A491CC9B2D1720A292B
:1022D00001DB0021D1727047F800002010B5FFF734
:1022E000E1FF10BD7047416851B14168491E41602E
:1022F00031B9012141700178012901D18168416022
:102300007047000070B504460D46042C06DB124AE7
:1023100012A11DA0FFF79CFB00BFFEE70120FFF705
:10232000B6FB04EB4400204901EB8000456004EB60
:10233000440001EB80008560002004EB44011A4A50
:1023400002EB81014870012004EB440102F82100F6
:102350000020FFF79CFB70BDCB2400082E2E5C2EC6
:102360002E5C557365725C6273705F73746D33328B
:10237000663478785C7372635C6273705F74696DE5
:1023800065722E63000000004572726F723A20661B
:10239000696C652025732C2066756E6374696F6E99
:1023A00020257328290D0A0008010020002000E0E4
:1023B000401C0528FCD3704770B50024002519E0A7
:1023C0004FF480510D48FEF7B3FAFFF7EFFF6006B8
:1023D000040E20210A48FEF7A2FA012801D1601C50
:1023E000C4B24FF480510548FEF7A4FAFFF7DEFFB0
:1023F000681CC5B2082DE3DB204670BD0018024002
:10240000000C024010B5FDF73FFF05490878FEF7C4
:1024100023F9FEF7D3F808210248FEF78BFA10BD26
:102420000E0000200004024070B505460E46284606
:10243000FEF738F904460CB9002070BD314620463D
:10244000FFF7B7F9F9E72DE9F04105460E461746C3
:102450002846FEF727F904460CB9BDE8F081E0698B
:1024600008B1E06980473A4631462046FFF739FA1D
:1024700000BFF2E713B50446012201A92046FFF789
:10248000E2FF1CBD70B504460D46E1B20020FFF727
:10249000F1FF204670BD000010B5FFF7B2FD05A0AA
:1024A000FFF7D6FAFEF71AFEFEF7A8FCFEF752F980
:1024B000002010BD1B5B324A000000006273705F99
:1024C000537461727454696D6572006273705F5306
:1024D000746172744175746F54696D6572006273D2
:1024E000705F53746F7054696D6572000C2500083D
:1024F0000000002038000000701A00084425000881
:1025000038000020B0610000801A000800000000C0
:1025100000000000000000000000000000000001BA
:10252000020304010203040607080900007A030AF3
:102530000000000000000000010203040607080973
:042540000000000097
:040000050800018965
:00000001FF
