:020000040800F2
:10000000187D00209D0100085D2700086D2500086F
:10001000312600083D1E000889810008000000000C
:10002000000000000000000000000000497D000802
:10003000E522000800000000B10600086949000838
:10004000D7010008D7010008D7010008D701000830
:10005000D7010008D7010008E9220008D7010008ED
:10006000D7010008D7010008D7010008D701000810
:10007000D7010008D7010008D7010008D701000800
:10008000D7010008D7010008D7010008D7010008F0
:10009000D7010008D7010008D7010008D7010008E0
:1000A000D7010008D7010008D7010008D7010008D0
:1000B000D7010008D7010008D7010008D7010008C0
:1000C000D7010008D7010008D7010008D7010008B0
:1000D000D7010008E17E0008D7010008D701000819
:1000E00011230008D7010008D7010008D701000834
:1000F000D7010008D7010008D7010008D701000880
:10010000D7010008D7010008D7010008D70100086F
:10011000D7010008D7010008D7010008D70100085F
:10012000D7010008D7010008D7010008D70100084F
:10013000D7010008D7010008D7010008D70100083F
:10014000D7010008D7010008D7010008D70100082F
:10015000D7010008D7010008D7010008D70100081F
:10016000D7010008D7010008D7010008D70100080F
:10017000D7010008D7010008D7010008D7010008FF
:10018000D7010008D7010008DFF80CD000F0FAF919
:100190000048004791870008187D0020DFF83800EC
:1001A000016841F470010160BFF34F8FDFF82C004C
:1001B000016821F040410160BFF36F8F084880471C
:1001C00008480047FEE7FEE7FEE7FEE7FEE7FEE73A
:1001D000FEE7FEE7FEE7FEE788ED00E034EF00E033
:1001E000797E00088901000872B6704762B67047D0
:1001F000EFF3108072B6704780F31088704730BFFD
:10020000704720BF7047B0FA80F0704790FAA0F0B6
:10021000B0FA80F0704790FAA0F070472DE9F05FD7
:100220000546002092469B46884606468146402465
:100230001BE0284641464746224600F036F9534621
:100240005A46C01A914110D311461846224600F072
:100250001DF92D1A67EB01084F46224601200021A7
:1002600000F014F917EB00094E41201EA4F101041F
:10027000DFDC484631462A464346BDE8F09F2DE97B
:10028000FE4F81EA030404F0004421F00041009491
:100290004FF0000B23F0004350EA01045ED052EA15
:1002A00003045BD0C3F30A54C1F30A552C44A4F2EF
:1002B000F3340194A0FB0254C1F3130141F4801103
:1002C000C3F3130343F4801301FB024400FB034E0A
:1002D000840A970A44EA815447EA8357A4FB0768D3
:1002E00002958D0A05FB07854FEA932C04FB0C54FD
:1002F0002705029D4FEA065847EA1637B5EB080571
:100300006EEB070C870E920E47EA811742EA8312C2
:10031000A7FB0201B6EB0B0164EB00042B0D43EAD3
:100320000C335E1844EB1C50DA465146E7FB0201E1
:10033000C5F313044FEA0B3343EA14534FEA043274
:10034000019C43EA0603A4F10C040294009CCDE94D
:1003500000B400F0C9F803B0BDE8F08F00200146FA
:10036000F9E72DE9F04D81EA030404F0004B21F098
:10037000004514464FF0000A23F0004150EA050200
:1003800020D054EA01021DD0C5F30A570246C5F336
:100390001303C1F31300C1F30A5640F4801543F46C
:1003A0008013A7EB0608101BD64608F2FD3873EB46
:1003B000050002D308F1010801E092185B41B8F191
:1003C000000F03DA00200146BDE8F08D00204FF455
:1003D0008011064684460EE0171B73EB050705D314
:1003E000121B63EB050306434CEA010C49084FEA74
:1003F000300092185B4150EA0107EDD152EA030048
:1004000012D082EA040083EA0501084305D0101BDC
:10041000AB4106D20122002306E000224FF0004348
:1004200002E06FF0010253101AEB06004CEB08518A
:1004300010EB0A0041EB0B01BDE8F04D00F045B8B0
:100440000EB540F2334102910021CDE900110A4678
:100450000B4600F049F803B000BDC1F30A5210B5D5
:10046000C1F3130140F2FF3341F480119A4201DAE3
:10047000002010BD40F233439A42A2F2334203DC23
:10048000524200F012F810BD904010BD202A04DB4B
:10049000203A00FA02F1002070479140C2F1200397
:1004A00020FA03F3194390407047202A04DB203AD6
:1004B00021FA02F00021704721FA02F3D040C2F184
:1004C0002002914008431946704710B5141E73F17D
:1004D000000408DA401C41F1000192185B411A4304
:1004E00001D120F0010010BD2DE9F04D92469B4650
:1004F00011B1B1FA81F202E0B0FA80F220329046F6
:10050000FFF7C4FF04460F4640EA0A0041EA0B0128
:1005100053465A46084313D0114653EA010019D0F6
:10052000C8F140025046FFF7C0FF05460E46504650
:1005300059464246FFF7AAFF084305D0012004E0D0
:1005400020463946BDE8F08D0020054346EAE076B6
:100550002C4337430A986305E40AA0EB0800002205
:10056000FD0A44EA47540A3002D500200146E9E773
:10057000010510196941DDE9084500196941BDE827
:10058000F04DA2E7064C074D06E0E06840F001039D
:1005900094E8070098471034AC42F6D3FFF7F8FD13
:1005A000208B0008408B000870B58C1810F8015B98
:1005B00015F0070301D110F8013B2A1106D110F8FC
:1005C000012B03E010F8016B01F8016B5B1EF9D100
:1005D0002B0705D40023521E0DD401F8013BFAE786
:1005E00010F8013BCB1A921C03E013F8015B01F8F1
:1005F000015B521EF9D5A142D8D3002070BD000086
:10060000EFF3098141B1F1EE101A40F8041D20ED1D
:10061000200A3B490A6810607047B0EC200A02C803
:10062000E1EE101A37490A681060704772B64EF64C
:100630002250CEF2000040F2FF01C0F20001017032
:1006400040F22C10C2F20000016881F3088840F2E9
:100650009A00C2F2000040F29B01C2F200010A7847
:10066000027040F22415C2F2000540F22811C2F2D5
:1006700000010A682A60106880F30988EFF314808B
:1006800040F0020080F31488BFF36F8FBDE8F00FD5
:100690000FBCBDE8005006BC62B608471A484FF0D0
:1006A00080510160704718484FF0805101607047D9
:1006B00072B6EFF3098020E9F00F40F22415C2F280
:1006C00000052E683060744604F01AF840F29A0073
:1006D000C2F2000040F29B01C2F200010A780270EF
:1006E00040F22811C2F200010A682A6044F0F40EB8
:1006F0001068B0E8F00F80F3098862B67047000018
:10070000240100202801002004ED00E01CB5012197
:100710005A2007F075FA01208DF8040000208DF8AA
:1007200006008DF8070003208DF805004FF40070D7
:10073000009069461F4801F0A1FE4FF480600090D0
:1007400069461C4801F09AFE0120009069461A484B
:1007500001F094FE4FF4004000906946174801F004
:100760008DFE4FF4005000906946144801F086FE5B
:10077000042000906946114801F080FE4FF40040CB
:10078000009069460E4801F079FE4FF400500B4985
:10079000488300208DF804008DF806008DF80700CE
:1007A00002208DF80500400300906946034801F0DF
:1007B00065FE1CBD000C0240000402400010024017
:1007C000001802402DE9FF4700245DE0304830F872
:1007D000140085B22F4830F9140000282BDA684243
:1007E00085B20A2095FBF0F100FB1156642095FBC1
:1007F000F0F100FB11500A2190FBF1F74FF47A70F1
:1008000095FBF0F100FB1150642190FBF1F84FF4DF
:100810007A7095FBF0F91F48CDE90098CDE9027692
:1008200030F8140083B21B4830F91420611C1AA060
:1008300007F0ACFC26E00A2095FBF0F100FB115616
:10084000642095FBF0F100FB11500A2190FBF1F7B9
:100850004FF47A7095FBF0F100FB1150642190FB8E
:10086000F1F84FF47A7095FBF0F90A48CDE9009859
:10087000CDE9027630F9143030F91420611C10A053
:1008800007F084FC601C84B2082C9FDBBDE8FF8766
:1008900040490020504900202043482564203D2045
:1008A0002536642C30782530345820282D25642EA8
:1008B000256425642564205629200D0A00000000C7
:1008C0002043482564203D202536642C307825308F
:1008D000345820282025642E25642564256420565C
:1008E00029200D0A0000000010B500234DE0184635
:1008F00000F054F800B2264921F81300084630F9F8
:10090000130000281EDB084630F8130084B221488B
:10091000007858B941F28830604347F6FF7190FB88
:10092000F1F000B21C4921F813002CE042F21070E3
:10093000604347F6FF7190FBF1F000B2164921F8D1
:10094000130020E0124830F81300404284B21148EE
:10095000007860B941F288306043404247F6FF7149
:1009600090FBF1F000B20C4921F813000BE042F2C9
:1009700010706043404247F6FF7190FBF1F000B207
:10098000054921F81300581CC3B2082BAFDB10BD7A
:10099000504900201000002040490020014601205D
:1009A00080F3108800BF044830F81120002080F345
:1009B000108800BF104670473049002010B54FF432
:1009C0000041114801F0D0FD4FF400710F4801F0D3
:1009D000C9FD4FF400710D4801F0C6FD4FF40071E0
:1009E0000A4801F0C1FD4FF40071084801F0BCFD58
:1009F0004FF40071054801F0B7FD4FF40071034852
:100A000001F0B0FD10BD000000100240000C0240DB
:100A100010B54FF48041134801F09BFD00BB4FF42B
:100A20000041104801F09EFD002410E007F038FE60
:100A30000D4921F8140007F033FE0B4911F814108A
:100A400000EB0120084921F81400601CC4B2082CF6
:100A5000ECDB4FF40041034801F086FD00F016F88E
:100A600010BD0000001002403049002010B50446BF
:100A700024B90121044801F075FD03E00121024879
:100A800001F072FD10BD00000004024010B54FF4EB
:100A90008061094801F066FD4FF48061064801F06D
:100AA00061FD4FF48061044801F05CFD4FF480610A
:100AB000014801F059FD10BD000C024008B50024AA
:100AC00062E000BF00BF00BFFFF792FB044600BF1B
:100AD00001F050FA00BF2D480078401C2B490870E7
:100AE00008460078012801D105F0B8F900BF01F0EF
:100AF0005BFA00BF2046FFF77FFB00BF00BF00BFCF
:100B0000012023490870FFF783FFFFF7EDFE00BFC8
:100B100000BF00BFFFF76CFB044600BF01F02AFADC
:100B200000BF1A480078401E18490870084600782F
:100B3000D0B905F0A1F91748008800280BDD00BFE7
:100B400001F032FA00BF2046FFF756FB00BF00BF9E
:100B500005F05AF911E000BF01F026FA00BF204667
:100B6000FFF74AFB00BF08E000BF01F01DFA00BF1D
:100B70002046FFF741FB00BF00BF00BF6A460021CF
:100B80004FF47A7003F026FE9BE70000B4000020CB
:100B900010000020780000208CB00025012001F01A
:100BA000E7FC7FE10BA800230AAA1946009018462B
:100BB00003F0B2F804462079E1780A2212FB010022
:100BC000B94948700846407806287DD2DFE800F031
:100BD0007C03C4C5FDFCA07900285BD100BF00BF29
:100BE00000BFFFF705FB054600BF01F0C3F900BFDA
:100BF000AE480078401CAD490870084600780128CE
:100C000001D105F02BF900BF01F0CEF900BF284655
:100C1000FFF7F2FA00BF00BF00BF032001F0A8FCFD
:100C200000BF00BF00BFFFF7E3FA054600BF01F0B9
:100C3000A1F900BF9D480078401E9C4908700846F5
:100C40000078D0B905F018F99948008800280BDD24
:100C500000BF01F0A9F900BF2846FFF7CDFA00BF99
:100C600000BF05F0D1F811E000BF01F09DF900BF11
:100C70002846FFF7C1FA00BF08E000BF01F094F971
:100C800000BF2846FFF7B8FA00BF00BF00BF012031
:100C900085490870A07901285DD100BF00BF00BF61
:100CA000FFF7A6FA054600BF01F064F900BF7F48D0
:100CB0000078401C7D49087008460078012801D161
:100CC00005F0CCF800BF00E0E5E001F06DF900BFF1
:100CD0002846FFF791FA00BF00BF00BF022001F0D5
:100CE00047FC00BF00BF00BFFFF782FA054600BF08
:100CF00001F040F900BF6D480078401E6B49087054
:100D000008460078D0B905F0B7F86948008800288F
:100D10000BDD00BF01F048F900BF2846FFF76CFA71
:100D200000BF00BF05F070F811E000BF01F03CF912
:100D300000BF2846FFF760FA00BF08E000BF01F0DF
:100D400033F900BF2846FFF757FA00BF00BF00BFC6
:100D50000020554908709FE09EE0A07952498870B4
:100D600000BF00BF00BFFFF743FA054600BF01F018
:100D700001F900BF4D480078401C4C4908700846F6
:100D80000078012801D105F069F800BF01F00CF9E5
:100D900000BF2846FFF730FA00BF00BF00BF0420A5
:100DA00001F0E6FB00BF00BF00BFFFF721FA0546D8
:100DB00000BF01F0DFF800BF3C480078401E3B490F
:100DC00008700846007801E04CE026E0D0B905F054
:100DD00053F83748008800280BDD00BF01F0E4F825
:100DE00000BF2846FFF708FA00BF00BF05F00CF867
:100DF00011E000BF01F0D8F800BF2846FFF7FCF96A
:100E000000BF08E000BF01F0CFF800BF2846FFF7A1
:100E1000F3F900BF00BF00BF3EE0A079012802D176
:100E2000E07A2149C870A079022802D1E07A1E49EF
:100E30000871A079032802D1E07A1B494871A07992
:100E4000042802D1E07A18498871A079052802D1D6
:100E5000E07A1549C871A079062802D1E07A1249D2
:100E6000087219E00BA8032100220592CDE90621A2
:100E7000089005204FF4007133220E4BCDE901326A
:100E8000CDE90310042000230B4A0CA100900F4869
:100E900002F0B6FC00BF00BF00BF0BAA21460C4801
:100EA00001F016FF7EE6000060490020B40000203B
:100EB00078000020303D0020E11D000841707020C6
:100EC0005461736B20576F726B000000980900200B
:100ED0003401002008B500240CE0204601F05AF946
:100EE000B4F5486F00DD002432346A4600210A2040
:100EF00003F070FCF1E708B54FF448640CE02046BD
:100F000001F0B2F90A2C01DA4FF44864323C6A4627
:100F100000210A2003F05EFCF1E7000008B500277D
:100F2000684603F01BFD054600F063FF0646FCE340
:100F30006B4600221146104603F096F801F004F8C3
:100F4000044600BF00BF00BFFFF752F9074600BFCD
:100F500001F010F800BFD9480078401CD74908704C
:100F600008460078012801D104F078FF00BF01F0A5
:100F70001BF800BF3846FFF73FF900BF00BF00BFB6
:100F8000642095FBF0F100FB115842F2107095FBC4
:100F9000F0F100FB1150642190FBF1F942F2107066
:100FA00095FBF0FA43464A465146C5A007F0EEF8D5
:100FB000CB48B6FBF0F84146CAA007F0E7F8C848AE
:100FC000B6FBF0F0B4FBF0F84146CBA007F0DEF83A
:100FD000C348B6FBF0F0CE490968B1FBF0F84146D2
:100FE000CCA007F0D3F8D2480168D2A007F0CEF821
:100FF000D6480088642190FBF1F201FB1208D34827
:10100000008890FBF1F942464946D1A007F0BEF8AE
:10101000D5480088642190FBF1F201FB1208D24808
:10102000008890FBF1F942464946D0A007F0AEF89F
:10103000D548B0F89000642190FBF1F201FB120852
:10104000D148B0F8900090FBF1F942464946CFA054
:1010500007F09CF8CC48B0F89200642190FBF1F2C4
:1010600001FB1208C848B0F8920090FBF1F9424623
:101070004946CEA007F08AF8D548B0F89000642120
:1010800090FBF1F201FB1208D148B0F8900090FB00
:10109000F1F942464946CFA007F078F8CC48B0F8BD
:1010A0009200642190FBF1F201FB1208C848B0F8ED
:1010B000920090FBF1F942464946CEA007F066F84F
:1010C000D648B0F89000642190FBF1F201FB1208C1
:1010D000D248B0F8900090FBF1F942464946D0A0C2
:1010E00007F054F8CD48B0F89200642190FBF1F27B
:1010F00001FB1208C948B0F8920090FBF1F9424692
:101100004946CFA007F042F8D748B0F890006421D4
:1011100090FBF1F201FB1208D348B0F8900090FB6D
:10112000F1F942464946D1A007F030F8CE48B0F870
:101130009200642190FBF1F201FB1208CA48B0F85A
:10114000920090FBF1F942464946D0A007F01EF804
:10115000D848B0F89000642190FBF1F201FB12082E
:10116000D448B0F8900090FBF1F942464946D2A02D
:1011700007F00CF8CF48B0F89200642190FBF1F230
:1011800001FB1208CB48B0F8920090FBF1F94246FF
:101190004946D1A006F0FAFFD948B0F89000642182
:1011A00090FBF1F201FB1208D548B0F8900090FBDB
:1011B000F1F942464946D3A006F0E8FFD048B0F81E
:1011C0009200642190FBF1F201FB1208CC48B0F8C8
:1011D000920090FBF1F942464946D2A006F0D6FFB4
:1011E000DA48B0F89000642190FBF1F201FB12089C
:1011F000D648B0F8900090FBF1F942464946D4A099
:1012000006F0C4FFD148B0F89200642190FBF1F2DF
:1012100001FB1208CD48B0F8920090FBF1F942466C
:101220004946D4A006F0B2FFDD48B0F89000642132
:1012300090FBF1F201FB1208D948B0F8900090FB46
:10124000F1F942464946D7A006F0A0FFD448B0F8CD
:101250009200642190FBF1F201FB1208D048B0F833
:10126000920090FBF1F942464946D7A006F08EFF66
:101270004548D0F8B420D0F8B010DEA006F086FFC4
:101280005348D0F8B420D0F8B010E5A006F07EFFA7
:101290006248D0F8B420D0F8B010EDA006F076FF88
:1012A0007148D0F8B420D0F8B010F5A006F06EFF69
:1012B0008048D0F8B420D0F8B010F7E1B400002096
:1012C0000D0A75432F4F53B0E6B1BEBAC5A3BA5647
:1012D00025642E253032642E253032640D0A00003C
:1012E00040420F00435055D6F7C6B5A3BA25642037
:1012F0004D487A0D0A000000D7EEB4F3D6D0B6CF31
:10130000CAB1BCE4A3BA25642075730D0A000000BD
:10131000AC000020D7EEB4F3CBF8B5F7B6C8C6F7EB
:10132000CAB1BCE4A3BA25642075730D0A0000009D
:10133000E0000020C8CECEF1C7D0BBBBD7DCB4CE16
:10134000CAFDA3BA25640D0A00000000C8000020F1
:10135000435055CAB9D3C3C2CAA3BA25642E256463
:1013600025250D0A00000000CA000020435055D773
:10137000EEB4F3CAB9D3C3C2CAA3BA25642E256496
:1013800025250D0A0000000038030020B4AEBFDAA6
:10139000C8CECEF1B5C4435055CAB9D3C3C2CAA34F
:1013A000BA25642E256425250D0A0000B4AEBFDAE7
:1013B000C8CECEF1B5C4435055D7EEB4F3CAB9D3B5
:1013C000C3C2CAA3BA25642E256425250D0A0000D0
:1013D00004040020B0B4BCFC31C8CECEF1B5C44387
:1013E0005055CAB9D3C3C2CAA3BA25642E256425F1
:1013F000250D0A00B0B4BCFC31C8CECEF1B5C44353
:101400005055D7EEB4F3CAB9D3C3C2CAA3BA256440
:101410002E25642525202020200D0A00D004002040
:10142000B0B4BCFC32C8CECEF1B5C4435055CAB935
:10143000D3C3C2CAA3BA25642E256425250D0A008C
:10144000B0B4BCFC32C8CECEF1B5C4435055D7EED3
:10145000B4F3CAB9D3C3C2CAA3BA25642E2564257E
:1014600025202020200D0A009C0500204C4544C862
:10147000CECEF1B5C4435055CAB9D3C3C2CAA3BA7C
:1014800025642E256425250D0A0000004C4544C81E
:10149000CECEF1B5C4435055D7EEB4F3CAB9D3C3D9
:1014A000C2CAA3BA25642E25642525202020200D3C
:1014B0000A0000006806002044414331C8CECEF146
:1014C000B5C4435055CAB9D3C3C2CAA3BA25642E02
:1014D000256425250D0A000044414331C8CECEF1D4
:1014E000B5C4435055D7EEB4F3CAB9D3C3C2CAA3E7
:1014F000BA25642E25642525202020200D0A000011
:101500003407002044414332C8CECEF1B5C4435025
:1015100055CAB9D3C3C2CAA3BA25642E25642525EA
:101520000D0A000044414332C8CECEF1B5C4435049
:1015300055D7EEB4F3CAB9D3C3C2CAA3BA25642E31
:1015400025642525202020200D0A00000008002009
:1015500041444320657874C8CECEF1B5C44350559C
:10156000CAB9D3C3C2CAA3BA25642E256425250DE2
:101570000A00000041444320657874C8CECEF1B51E
:10158000C4435055D7EEB4F3CAB9D3C3C2CAA3BA41
:1015900025642E25642525202020200D0A0000002A
:1015A000CC080020434D44BDE2CEF6C8CECEF1B506
:1015B000C4435055CAB9D3C3C2CAA3BA25642E25A1
:1015C0006425250D0A000000434D44BDE2CEF6C857
:1015D000CECEF1B5C4435055D7EEB4F3CAB9D3C398
:1015E000C2CAA3BA25642E25642525202020200DFB
:1015F0000A000000B4AEBFDAC8CECEF1B5C4D2D175
:10160000D3C3BACDBFD5CFD0B6D1D5BBB4F3D0A15B
:10161000B7D6B1F0CEAAA3BA25642C25640D0A0072
:10162000B0B4BCFC31C8CECEF1B5C4D2D1D3C3BAAC
:10163000CDBFD5CFD0B6D1D5BBB4F3D0A1B7D6B13D
:10164000F0CEAAA3BA25642C25640D0A0000000080
:10165000B0B4BCFC32C8CECEF1B5C4D2D1D3C3BA7B
:10166000CDBFD5CFD0B6D1D5BBB4F3D0A1B7D6B10D
:10167000F0CEAAA3BA25642C25640D0A0000000050
:101680004C4544C8CECEF1B5C4D2D1D3C3BACDBF38
:10169000D5CFD0B6D1D5BBB4F3D0A1B7D6B1F0CEAB
:1016A000AAA3BA25642C25640D0A00002AA006F01E
:1016B0006DFD3448D0F8B420D0F8B01032A006F058
:1016C00065FD3C48D0F8B420D0F8B0103AA006F040
:1016D0005DFD4548D0F8B420D0F8B01043A006F026
:1016E00055FD00BF00BF00BFFEF782FD074600BFEB
:1016F00000F040FC00BF49480078401E4749087090
:1017000008460078D8B904F0B7FB4548008800289F
:101710000CDD00BF00F048FC00BF3846FEF76CFD52
:1017200000BF00BF04F070FB12E012E000BF00F049
:101730003BFC00BF3846FEF75FFD00BF08E000BF7E
:1017400000F032FC00BF3846FEF756FD00BF00BF78
:1017500000BFFFF7EDBB000044414331C8CECEF1DE
:10176000B5C4D2D1D3C3BACDBFD5CFD0B6D1D5BBF6
:10177000B4F3D0A1B7D6B1F0CEAAA3BA25642C2574
:10178000640D0A003407002044414332C8CECEF134
:10179000B5C4D2D1D3C3BACDBFD5CFD0B6D1D5BBC6
:1017A000B4F3D0A1B7D6B1F0CEAAA3BA25642C2544
:1017B000640D0A000008002041444320657874C885
:1017C000CECEF1B5C4D2D1D3C3BACDBFD5CFD0B66A
:1017D000D1D5BBB4F3D0A1B7D6B1F0CEAAA3BA2568
:1017E000642C25640D0A0000CC080020434D44BD44
:1017F000E2CEF6C8CECEF1B5C4D2D1D3C3BACDBFF6
:10180000D5CFD0B6D1D5BBB4F3D0A1B7D6B1F0CE39
:10181000AAA3BA25642C25640D0A0000B400002098
:101820007800002008B5002460E06B4600221146D5
:10183000104602F019FC00BF00BF00BFFEF7D8FC45
:10184000044600BF00F096FB00BF29480078401C0A
:101850002749087008460078012801D104F0FEFAF3
:1018600000BF00F0A1FB00BF2046FEF7C5FC00BF93
:1018700000BF00BF1F4806F0BDFFFEF7A3FF00BF7B
:1018800000BF00BFFEF7B4FC044600BF00F072FBCF
:1018900000BF17480078401E1549087008460078B8
:1018A000D0B904F0E9FA1448008800280BDD00BF25
:1018B00000F07AFB00BF2046FEF79EFC00BF00BF91
:1018C00004F0A2FA11E000BF00F06EFB00BF20465A
:1018D000FEF792FC00BF08E000BF00F065FB00BF10
:1018E0002046FEF789FC00BF00BF00BF9DE7000057
:1018F000B4000020604900207800002008B511E005
:101900000948006880F0010007490860074800683E
:1019100080F00800054908606A4600214FF4FA701B
:1019200002F058FFECE7000014080240140C0240DB
:1019300070B58AB0064600F083FA00F061FA00F054
:1019400058FA04467C480068B4FBF0F5284603F0DA
:101950002BF800F079FE09A801F0C8FE00F0DEFACD
:1019600009AA0021012001F05DFD09A804214623F8
:10197000724ACDE9001072A1754801F0CFF809A8AC
:10198000032100220592CDE90621089032204FF470
:10199000007133226F4BCDE90132CDE903100420F1
:1019A00000236D4A6DA10090704801F029FF09A83D
:1019B000032100220592CDE90621089032204FF440
:1019C000807119226A4BCDE90132CDE903100A205A
:1019D0000023684A68A100906B4801F011FF09A834
:1019E000032100220592CDE90621089032204FF410
:1019F00080711922654BCDE90132CDE903100A202F
:101A00000023634A63A10090664801F0F9FE09A82B
:101A1000032100220592CDE90621089005208021AE
:101A20000C22614BCDE90132CDE903100A200023DD
:101A30005E4A5FA10090624801F0E2FE09A803211E
:101A400000220592CDE90621089005204FF480710F
:101A500019225C4BCDE90132CDE9031003200023AC
:101A6000594A5AA100905D4801F0CAFE09A8032115
:101A700000220592CDE90621089005204FF48071DF
:101A80001922574BCDE90132CDE903100320002381
:101A9000544A55A10090584801F0B2FE09A803210C
:101AA00000220592CDE90621089005204FF400712F
:101AB0003322524BCDE90310CDE9013200900023CF
:101AC0004F4A50A1534801F09BFE09A80321002270
:101AD0000592CDE90621089005204FF400713322CC
:101AE0004D4BCDE90132CDE90310042000234B4AD0
:101AF0004BA100904E4801F083FE09A8032100226B
:101B00000592CDE90621089005204FF48071192235
:101B1000484BCDE90132CDE903100A200023464AA3
:101B200046A10090494801F06BFE09A9002001F090
:101B3000B3FF0AB070BD0000808900085401002086
:101B40004D656D20466F722054657374000000006F
:101B50003401002030130020651C00084170702003
:101B60005461736B20557361727400003803002058
:101B7000301B00201D0F0008417070205461736BF2
:101B8000204B65793100000004040020301F002044
:101B900025180008417070205461736B204B6579E3
:101BA00032000000D004002030230020FD1800087F
:101BB000417070205461736B204C6564000000001C
:101BC0009C05002030250020D50E000841707020B3
:101BD0005461736B2044616331000000680600208B
:101BE00030290020F70E0008417070205461736B9B
:101BF000204461633200000034070020302D0020B3
:101C0000BD0A0008417070205461736B2041646309
:101C1000650000000008002030350020990B000806
:101C2000417070205461736B20436D6400000000AC
:101C3000CC08002030450020511C00084170702065
:101C40005461736B2054455354000000640A002013
:101C500008B505E06A4600214FF47A7002F0BAFD3B
:101C6000F8E700009EB000250026ABE01DA8002389
:101C70001CAA19460090184602F04EF80446207837
:101C800051490978884200D10126012E7ED1207861
:101C900003A94855681CC5B220784C490978884288
:101CA00023D1FF208DF808009DF80900FC2807D1FA
:101CB0009DF80A00FF2803D18DF80B00002614E0E0
:101CC0009DF80900FC2806D1FF208DF80A000020AD
:101CD0008DF80B0009E0FF208DF8080000208DF83A
:101CE00009008DF80A008DF80B00207837494978F3
:101CF000884210D19DF80800FF2803D1FC208DF800
:101D0000090008E000208DF808008DF809008DF822
:101D10000A008DF80B0020782D49C978884218D127
:101D20009DF80800FF280BD19DF80900FC2807D179
:101D30009DF80A00FF2803D18DF80B00002608E06B
:101D400000208DF808008DF809008DF80A008DF844
:101D50000B0020781D490978884212D020781B4951
:101D6000497888420DD020781949C978884208D02E
:101D700000208DF808008DF809008DF80A008DF814
:101D80000B009DF80B00FF2817D100E015E00020A4
:101D90008DF808008DF809008DF80A008DF80B0009
:101DA00003A90CA006F0F2F91DA800232A4603A9F6
:101DB0000090094802F0CAF800251DAA21460748EC
:101DC00000F086FF52E70000110000201200002002
:101DD0001600002025730000CC08002034010020EC
:101DE00008B505E06A4600214FF47A7002F0F2FC73
:101DF000F8E71FB5684605F033FF019804B010BD41
:101E000010B500F0F7FA00F0E9FB06F069F900F010
:101E100095F90021084600F071F900F0F9F9002168
:101E2000084600F07BF906F003FC01200249087027
:101E300006F05CFC10BD00001000002000BFFEE7B3
:101E400010B500F0FDF800F003F800F0F3F810BD55
:101E500070B50026002018490880184908801849E4
:101E6000086018490860184908601849086018494E
:101E70000860002400BFFEF7BBF9064600BF00253E
:101E80000BE000201049086000F074F800F08CF8B6
:101E90000D4800680444681C85B2002DF1D00C4840
:101EA00004600020084908600849086000BF304607
:101EB000FEF7A2F900BF70BD200000202200002024
:101EC00024000020280000203000002034000020E2
:101ED0002C00002001460846044A1268904203D9AB
:101EE000024A1268801A00E0002070472C0000208F
:101EF00070B5002500BFFEF77BF9054600BF064818
:101F0000046800BF2846FEF777F900BF2046FFF7B8
:101F1000E1FF0646304670BD3000002070B5002558
:101F2000FFF7E6FF044600BFFEF762F9054600BF73
:101F300000200449086000BF2846FEF75DF900BF95
:101F4000204670BD3000002070B5002500BFFEF7B0
:101F50004FF9054600BF0648046800BF2846FEF753
:101F60004BF900BF2046FFF7B5FF0646304670BD6F
:101F70003400002010B509480088401C074908803B
:101F80000748008818B900F085F806490860044839
:101F90000088401C0249088010BD0000200000207D
:101FA000220000202400002010B50F480088401EA9
:101FB0000D49088008460088A0B900F06BF80B496D
:101FC0000860084600680A490968441A0948006818
:101FD000A04201D20748046007480068A04201D22D
:101FE0000548046010BD00002200002028000020E9
:101FF00024000020300000203400002010B5002410
:1020000000BF00BFFEF7F4F8044600BFFFF7B2FFC1
:1020100000BF1021064800F00DFB00BFFFF7C4FF12
:1020200000BF2046FEF7E8F800BF00BF10BD00006B
:102030006949002010B5FFF7E1FF10BD00BFFEE7C2
:1020400010B500200249086000F00AF810BD000039
:102050001C00002001490860704700001C0000209F
:1020600010B5FFF7C6FE04460848006840F08070CF
:10207000064908600020064948600846006840F0AC
:10208000010008602046FFF7E5FF10BDFCED00E011
:10209000001000E00149486870470000001000E0AF
:1020A00039B1084A1268012383401A43054B1A606C
:1020B00006E0044A1268012383409A43014B1A60E8
:1020C000704700000074004030B5002200230A4C25
:1020D000226840F6FE748440A243D1E900452C43B7
:1020E0008D682C43CD6844EA050303FA00F42243CB
:1020F000014C226030BD00000074004008B5002291
:102100000092054A009200F10802009B1A440092D6
:10211000009A116008BD00000074004008B500225C
:102120000092054A009200F11402009B1A440092AA
:10213000009A116008BD00000074004000B587B02F
:102140000121084605F05CFD0121480705F068FD06
:102150001020059003208DF8180002208DF81B0038
:1021600005A90B4800F08AF9002001900290039025
:102170000220049001A90020FFF7A6FF0121002002
:10218000FFF78EFF00210846FFF7B8FF07B000BD3C
:102190000000024070B52DED048B04462046FEF78A
:1021A0004FF941EC180B9FED140B53EC102B51EC35
:1021B000180BFEF7D6F841EC180B9FED110B53EC02
:1021C000102B51EC180BFEF75AF841EC190B9FED50
:1021D0000E0B53EC102BFEF7C4F841EC180B51EC2E
:1021E000180BFEF73AF985B229460020FFF786FF63
:1021F000BDEC048B70BD00000000000000408F406B
:10220000000000000000B0406666666666660A4030
:1022100000B587B00121084605F0F2FC012148070E
:1022200005F0FEFC2020059003208DF81800022008
:102230008DF81B0005A90B4800F020F90020019043
:10224000029003900220049001A91020FFF73CFFA8
:1022500001211020FFF724FF00210846FFF75EFF51
:1022600007B000BD0000024070B52DED048B0446A0
:102270002046FEF7E5F841EC180B9FED140B53ECEC
:10228000102B51EC180BFEF76CF841EC180B9FED7E
:10229000110B53EC102B51EC180BFDF7F0FF41EC38
:1022A000190B9FED0E0B53EC102BFEF75AF841EC77
:1022B000180B51EC180BFEF7D0F885B22946002018
:1022C000FFF72CFFBDEC048B70BD00000000000088
:1022D00000408F40000000000000B0406666666667
:1022E00066660A407047000008B500F093FB0120C5
:1022F00000F02AF838B16A460021044801F0D0FF06
:10230000012000F01BF800F09BFB08BD0404002036
:1023100008B500F07FFB4FF4006000F015F840B105
:102320006A460021044801F0BBFF4FF4006000F052
:1023300005F800F085FB08BDD004002001490860C5
:1023400070470000143C014001460020034A126817
:102350000A400AB1012000E000207047143C01400F
:10236000002123498279002A3AD00A46126803687C
:102370009A430B461A600A1D126803689A430B1DA4
:102380001A60027911440A6803681A430A60184AFD
:102390000832126803689A43154B08331A601A1DF5
:1023A000126803689A43124B0C331A604279102A60
:1023B0000ED11A1F126803681A430D4B08331A60B6
:1023C0001A1D126803681A43094B0C331A600DE09A
:1023D0000749427911440A6803681A430A6005E014
:1023E000027911440A6803689A430A607047000042
:1023F000003C01401FB50121880305F021FC0121AB
:10240000084605F0FDFB0120029000208DF80C002D
:1024100002208DF80F0002A9164800F02FF80121C4
:10242000202005F0EDFB4FF40060029002A9124855
:1024300000F024F80021084605F088FC0B21052057
:1024400005F084FC0120009000208DF80400082095
:102450008DF8050001208DF806006846FFF780FF23
:102460004FF4006000906846FFF77AFF00F077F9BC
:102470001FBD00000000024000140240F0B50A46F3
:1024800000210023002400BF3DE0012505FA01F3EF
:10249000156805EA03049C4234D105684F00032601
:1024A000BE40B543056015794E00B540066835431A
:1024B00005601579012D02D01579022D16D1856898
:1024C0004F000326BE40B543856055794E00B540A8
:1024D000866835438560456801268E40B543456072
:1024E000456896798E40B6B235434560C5684F0061
:1024F0000326BE40B543C560D5794E00B540C668D9
:102500003543C560491C1029BFD3F0BDF0B5002389
:1025100000244D07ED0E02FA05F3CE1000F1200560
:1025200055F826504E07F70E0F26BE40B543CF1084
:1025300000F1200646F82750CE1000F1200555F88E
:10254000265045EA0304CE1000F1200545F8264048
:10255000F0BD0246002013690B400BB1012000E0E2
:1025600000207047418370470183704700BFFEE73A
:102570001CB504461248006801901248017812A068
:1025800005F004FE9DF807002044C0B28DF8070056
:102590009DF8070000909DF806309DF805209DF8F5
:1025A00004100AA005F0F2FD0B48C07800900A481C
:1025B00083784278017805A005F0E8FD1CBD000095
:1025C0001C89000811000020256300002563256395
:1025D0002563256300000000120000201CB50121C6
:1025E0000C2005F00DFB012000908DF80400002068
:1025F0008DF8060001208DF8070000208DF80500F9
:1026000069460948FFF73AFF0820009069460748E5
:10261000FFF734FF012004491831088008200349DE
:102620001A3108801CBD000000080240000C024066
:1026300000BFFEE730B505460C462246002128467D
:1026400000F062F830BD00003EB500200C49086083
:102650000C4C02A801214FF440632246CDE9001042
:1026600009490AA000F016F8BDF8080042F21071FE
:10267000884203D000BFFFF7E1FC00BF3EBD000071
:10268000380000207C4900207C550020486561709E
:10269000000000002DE9F84F05460E4617461C467F
:1026A000DDE90A894FF0000A00BF00BFFDF7A0FD79
:1026B000824600BFFFF75EFC00BF43463A46314604
:1026C0002846009400F010F800BFFFF76DFC00BF33
:1026D0005046FDF791FD00BF00BF42F21070A9F80F
:1026E0000000BDE8F88F000030B5039C0A60651E4D
:1026F00015444D608A60034D2D68CD600B61014D1E
:10270000296030BD380000202DE9F04105460B4618
:1027100094460027002402E03F021F43641C042C5F
:10272000FAD3604605F00306294646B1344603E075
:1027300001F8013B401E641C08B1042CF8D30A4682
:1027400001E080C2001F0428FBD2114602E001F81C
:10275000013B401E0028FAD1BDE8F081704708B562
:102760004FF4C06000F066F806208DF800000020ED
:102770008DF801008DF8020001208DF803006846F5
:1027800000F01CF828208DF80000684600F016F8CC
:1027900008BD08B54FF4E06000F04CF825208DF836
:1027A000000000208DF8010001208DF802008DF856
:1027B0000300684600F002F808BD000070B5002173
:1027C00000230F22C4781CB3174C246804F4E0647F
:1027D000C4F5E064C4F30721C1F10404E3B20A4183
:1027E00044789C40E1B28478144021430C07210EC8
:1027F0000E4C05786155047804F01F050124AC40A7
:1028000005786D11AD0005F1E025C5F8004109E03E
:10281000047804F01F050124AC40054D06787611BC
:1028200045F8264070BD00000CED00E000E400E03B
:1028300080E100E002490143024A11607047000054
:102840000000FA050CED00E07047000010B50348E9
:10285000006810B101480068804710BD500000209A
:1028600070B5044600F0C2F8002048490870484995
:102870000870484908704849086048490860484954
:102880000870484908704849087048490860484934
:1028900008604849086048490870484800680A21AB
:1028A000B0FBF1F0464908604648006858B1464818
:1028B000056845B14348066803E0761E002028609D
:1028C0002D1D002EF9D100204049086040490860C4
:1028D0004049086040490860404908604049086034
:1028E000404908604049087003F0D8F803F0D6F971
:1028F000204602F047F9208800B170BD204602F062
:1029000079FD208800B1F8E7204602F07FFD20889D
:1029100000B1F2E7204602F007FF208800B1ECE7A3
:10292000204603F0EBF8208800B1E6E7204603F0EC
:1029300037FB208800B1E0E7204603F00FFF208836
:1029400000B1DAE7204602F0ADFC208800B1D4E700
:10295000204602F0B9FA208800B1CEE7204604F004
:10296000CDFF208800B1C8E7204603F0CBFD2088CA
:1029700000B1C2E7204605F025F8208800B1BCE789
:1029800002F02AF8FFF760FF00BFB6E764000020FE
:102990006C000020B4000020240100202801002049
:1029A0009A0000209B0000209C000020A80000202E
:1029B000AC000020B0000020BC000020808900088E
:1029C000B8000020508900084C890008440000200D
:1029D000480000204C00002050000020540000203F
:1029E000580000205C000020EA0000200648006833
:1029F0000649096800EB810005490860084600683F
:102A000020F00700086070474C89000850890008D2
:102A10002C01002008480078012800D070470748A2
:102A20000078FA2800DBF9E704480078401C0349E5
:102A3000087000BFF2E700006C0000206400002076
:102A400010B500242D480078012800D010BD00BF2B
:102A5000FDF7CEFB044600BF2948007828B900BF27
:102A60002046FDF7C9FB00BFF0E725480078401E6F
:102A70002349087008460078002805DD00BF20467D
:102A8000FDF7BAFB00BFE1E71E480078002805DD2E
:102A900000BF2046FDF7B0FB00BFD7E702F0EAFF1A
:102AA000194908700846007800EB4000174951F8B2
:102AB00020001749086008460068164909688842DE
:102AC00005D100BF2046FDF797FB00BFBEE71048C9
:102AD0000068D0F89400401C0D490968C1F89400C2
:102AE0000D480068401C0C490860FDF7DCFD00BF84
:102AF0002046FDF781FB00BF00BFA7E76C00002068
:102B000064000020B40000209B00002084670020A7
:102B10002801002024010020E00000202DE9FF4FC3
:102B200083B0044615461F46DDE91096002000904C
:102B30002DB945F2BB60308007B0BDE8F08F022FA1
:102B400003DA45F2BC603080F6E7B9F1040F03D236
:102B500045F2C1603080EFE74FF0030ABAF1000F91
:102B60000DD005EA0A0018B145F2BB603080E3E7FA
:102B700009EA0A0018B145F2C1603080DCE7AB46D3
:102B8000A846781E80B201900020029007E0C84459
:102B9000CBF80080C3460298401C80B20290DDE969
:102BA00001108842F3DB0020CBF8000000BF00BF1B
:102BB00000BFFDF71DFB009000BFFFF7DBF900BF72
:102BC00024480078401C23490870084600780128F2
:102BD00001D103F043F900BFFFF7E6F900BF009809
:102BE000FDF70AFB00BF00BF00BF1B482060049830
:102BF000A0606560E560A7826782A4F81090204617
:102C000002F0E4FB15480088401C1449088000BF0E
:102C100000BF00BFFDF7ECFA009000BFFFF7AAF974
:102C200000BF0C480078401E0A490870084600782A
:102C300008B903F021F900BFFFF7B6F900BF00980B
:102C4000FDF7DAFA00BF00BF00BF0020308000BFF0
:102C500072E70000B40000204D454D209000002098
:102C60002DE9F04104460D4600272CB945F2BF601E
:102C700028800020BDE8F08100BF00BFFDF7B8FA52
:102C8000074600BFFFF776F900BFA08A68B900BF0A
:102C9000FFF78AF900BF3846FDF7AEFA00BF00BF64
:102CA00045F2C26028800020E4E7E6683068E06012
:102CB000A08A401EA08200BFFFF776F900BF384609
:102CC000FDF79AFA00BF00BF002028803046D1E708
:102CD0002DE9F04104460E461546002724B945F279
:102CE000BF602880BDE8F0811EB945F2BE60288033
:102CF000F8E700BF00BFFDF77BFA074600BFFFF70C
:102D000039F900BFA08A618A88420CDB00BFFFF757
:102D10004BF900BF3846FDF76FFA00BF00BF45F220
:102D2000BA602880DEE7E0683060E660A08A401C78
:102D3000A08200BFFFF738F900BF3846FDF75CFA04
:102D400000BF00BF0020288000BFCBE72DE9F04185
:102D500004460E461546002724B945F6C350288080
:102D6000BDE8F08100BF00BF00BFFDF741FA074694
:102D700000BFFFF7FFF800BF25480078401C24493A
:102D8000087008460078012801D103F067F800BFF9
:102D9000FFF70AF900BF3846FDF72EFA00BF00BF63
:102DA00000BF1C482060666000202062606284F8DA
:102DB0002800E06204F1080002F067FD204602F0FE
:102DC00043FC15480088401C1349088000BF00BF21
:102DD00000BFFDF70DFA074600BFFFF7CBF800BFB5
:102DE0000B480078401E0A4908700846007808B968
:102DF00003F042F800BFFFF7D7F800BF3846FDF7F1
:102E0000FBF900BF00BF00BF0020288000BFA7E77C
:102E1000B40000204D555458980000202DE9F0478B
:102E200088B00546894617461C46109E4FF0000A9A
:102E30002DB945F6C350308008B0BDE8F0871FB10A
:102E4000B7F5004F02D100E000BF03E045F6256072
:102E50003080F1E700BF7F492868884203D045F6FB
:102E6000C4503080E8E70CB10020206000BF00BFF4
:102E7000FDF7BEF9824600BFFFF77CF800BF95F86A
:102E80002800C8B9744800686862012085F82800E5
:102E90000CB1E86A206029466F48006802F0ECFB3C
:102EA00000BFFFF781F800BF5046FDF7A5F900BF4E
:102EB00000BF00203080BFE76749686A0968884220
:102EC00014D195F82800401C85F828000CB1E86A58
:102ED000206000BFFFF768F800BF5046FDF78CF98F
:102EE00000BF00BF45F282703080A5E707F40040C4
:102EF00060B100BFFFF758F800BF5046FDF77CF9FE
:102F000000BF00BF46F2B010308095E7534800780C
:102F100000280CDD00BFFFF747F800BF5046FDF763
:102F20006BF900BF00BF46F66350308084E700BFF6
:102F30004A480078401C4949087008460078012832
:102F400001D102F08BFF00BFFFF72EF800BF504603
:102F5000FDF752F900BF00BF00BFD5F8248098F8F4
:102F600037003D49096891F83710884206DD3A4834
:102F7000006890F83710404603F040FB4B460422AF
:102F80002946684602F0DCFB00BF00BF00BFFDF72A
:102F90002FF9824600BFFEF7EDFF00BF2F480078F3
:102FA000401E2E4908700846007808B902F064FFF8
:102FB00000BFFEF7F9FF00BF5046FDF71DF900BF47
:102FC00000BF00BF00F0A8F900BF00BFFDF710F977
:102FD000824600BFFEF7CEFF00BF1F48006890F892
:102FE000350030B101280CD002281AD0032821D195
:102FF00010E01CB118480068806C20600020308010
:103000001CE01CB114480068806C206046F2A910D6
:10301000308013E00CB10020206047F2D9203080CE
:103020000CE01CB10C480068806C206045F6C25072
:10303000308003E046F62E60308000BF00BF00BF46
:10304000FEF7B2FF00BF5046FDF7D6F800BF00BF45
:1030500000BFF1E64D55545824010020B400002073
:103060002DE9F84F0446894615464FF0000B24B968
:1030700045F6C3502880BDE8F88FB9F1000F03D0A2
:10308000B9F5004F02D100E000BF03E045F625602E
:103090002880F0E700BF9B492068884203D045F6AE
:1030A000C4502880E7E700BF00BFFDF7A1F88346C2
:1030B00000BFFEF75FFF00BF9349606A096888425E
:1030C0000CD000BFFEF770FF00BF5846FDF794F824
:1030D00000BF00BF45F281702880CCE700BF8B485D
:1030E0000078401C8949087008460078012801D101
:1030F00002F0B4FE00BFFEF757FF00BF5846FDF7D1
:103100007BF800BF00BF00BFFEF7C4FF8046283435
:10311000C4F804802078401E207014F82809002884
:103120003ADD00BF00BF00BFFDF762F8834600BF75
:10313000FEF720FF00BF75480078401E73490870F5
:1031400008460078D0B902F097FE71480088002840
:103150000BDD00BFFEF728FF00BF5846FDF74CF817
:1031600000BF00BF02F050FE11E000BFFEF71CFFE1
:1031700000BF5846FDF740F800BF08E000BFFEF76B
:1031800013FF00BF5846FDF737F800BF00BF00BF70
:1031900045F2837028806EE721465B48006802F0A4
:1031A000B5FA04F1080ABAF8080080BB0020606292
:1031B00084F8280000BF00BF00BFFDF719F8834660
:1031C00000BFFEF7D7FE00BF50480078401E4F49B1
:1031D000087008460078D8B902F04EFE4C480088C6
:1031E00000280BDD00BFFEF7DFFE00BF5846FDF7ED
:1031F00003F800BF00BF02F007FE12E000BFFEF7B9
:10320000D3FE00BF5846FCF7F7FF00BF09E00CE013
:1032100000BFFEF7C9FE00BF5846FCF7EDFF00BF38
:1032200000BF00BF0020288025E73748006890F8DD
:1032300037003549096891F83810884228D032485B
:10324000006802F04DFA06462F48006890F83810E2
:10325000B14204DA2C48006890F8380000E03046AB
:1032600006462948006890F83700B04210DA264830
:10327000006802F09BFD2448006880F83760304603
:1032800002F018FC2048006802F050FD214806704A
:10329000DAF8000087686762012084F82800214678
:1032A000384602F0E9F900231A4639462046CDF89F
:1032B000008002F05DFB00BF00BF00BFFCF798FF7D
:1032C000834600BFFEF756FE00BF10480078401E40
:1032D0000E4908700846007808B902F0CDFD00BF1D
:1032E000FEF762FE00BF5846FCF786FF00BF00BF36
:1032F00000BF09F4004008B900F00EF80020288053
:1033000000BFB8E64D55545824010020B4000020F9
:10331000780000209A00002010B500242048007892
:10332000002800DD10BD1F480078002800DDF9E707
:1033300000BFFCF75DFF044600BF02F09BFB1A498B
:1033400008700846007800EB4000184951F820004A
:10335000174908600846006816490968884205D17F
:1033600000BF2046FCF748FF00BFDBE710480068BD
:10337000D0F89400401C0E490968C1F894000E482A
:103380000068401C0C490860FDF788F900BF204622
:10339000FCF732FF00BFBFF36F8F00BFC2E7000032
:1033A00064000020B40000209B00002084670020FF
:1033B0002801002024010020E000002070B5044610
:1033C000002516480078012803D045F68960208042
:1033D00070BD13480078FA2803DB45F209202080ED
:1033E000F6E700BF00BFFCF703FF054600BFFEF78E
:1033F000C1FD00BF0A480078401C0949087002F06E
:103400002DFD00BFFEF7D0FD00BF2846FCF7F4FEFF
:1034100000BF00BF0020208000BFD9E76C00002063
:10342000B40000202DE9F04105460C461646002761
:1034300000BF00BFFCF7DCFE074600BFFEF79AFDA9
:1034400000BF012D03D000200E49087002E00120CA
:103450000C49087014B10C48046006E00B48006881
:103460000A21B0FBF1F00849086000BFFEF79CFD9F
:1034700000BF3846FCF7C0FE00BF00BF0020308010
:10348000BDE8F081BC000020B80000208089000861
:1034900070B5044600251F480078012803D045F682
:1034A0008960208070BD1C48007818B946F66450C9
:1034B0002080F7E700BF00BFFCF79AFE054600BF7B
:1034C000FEF758FD00BF14480078401E12490870EE
:1034D0000846007800280CDD00BFFEF765FD00BF40
:1034E0002846FCF789FE00BF00BF46F663502080E7
:1034F000D8E702F0C1FC00BFFEF756FD00BF28462A
:10350000FCF77AFE00BF00BFFFF706FF0020208017
:1035100000BFC7E76C000020B400002010B50446CF
:1035200012480078E8B902F0A5FA11490870084677
:103530000078104908700E48007800EB40000E49F2
:1035400051F820000D490860084600680C490860E1
:10355000012006490870FDF769F843F6992020809C
:1035600002E045F68A60208010BD00006C0000205B
:103570009B0000209A000020846700202801002082
:10358000240100202DE9F04107464FF0000800BF5C
:1035900000BFFCF72DFE804600BFFEF7EBFC00BF2E
:1035A0000020474908604749088047490880474943
:1035B000086047490860474908604749086047492B
:1035C00008604749088100BFFEF7EEFC00BF404697
:1035D000FCF712FE00BF00BF00BF00BFFCF708FEF3
:1035E000804600BFFEF7C6FC00BF3E48046800BF2F
:1035F000FEF7DAFC00BF4046FCF7FEFD00BF00BF4F
:1036000026E000BF00BFFCF7F3FD804600BFFEF7D9
:10361000B1FC00BF00207C34E063206420602063A4
:10362000A061A082E0826062A062FEF733FD2062AA
:103630007C3C04F168060020B081D4F8C44000BF8F
:10364000FEF7B2FC00BF4046FCF7D6FD00BF00BF4E
:10365000002CD6D100BF00BFFCF7CAFD804600BFDA
:10366000FEF788FC00BF2048056800BFFEF79CFC01
:1036700000BF4046FCF7C0FD00BF00BF16E000BF22
:1036800000BFFCF7B5FD804600BFFEF773FC00BF2E
:1036900005F120060020B081AD6900BFFEF784FC73
:1036A00000BF4046FCF7A8FD00BF00BF002DE6D1DB
:1036B00003F036FF04F02CFA00203880BDE8F081DA
:1036C000800000207A000020CA000020DC000020DA
:1036D000F00000201401002068000020AC00002051
:1036E00078670020E4000020A0000020F8B5044620
:1036F00000266946364800F0D3FFBDF8000018B137
:10370000BDF800002080F8BD6A460021022001F0CB
:1037100061F8BDF8000018B1BDF800002080F2E7A4
:1037200000BF00BFFCF764FD064600BFFEF722FCA9
:1037300000BF00202749086000BFFEF735FC00BF2E
:103740003046FCF759FD00BF00BF00252248006845
:1037500022490968884205D91F4800681F4909683D
:10376000B0FBF1F525B91C4800680A21B0FBF1F562
:103770006A460021284601F02DF86946144800F0F9
:1037800023FCBDF8000018B1BDF800002080BAE7A6
:1037900000BF00BFFCF72CFD064600BFFEF7EAFBAA
:1037A00000BF00200E4908600A4800680D49086003
:1037B00001200D49087000BFFEF7F6FB00BF304640
:1037C000FCF71AFD00BF00BF0020208000BF9AE771
:1037D0004C6C0020CC00002080890008688900081B
:1037E000DC000020D0000020D800002010B50348E5
:1037F000006810B101480068804710BD54000020E7
:103800002DE9FF4F87B004469146DDE91BA5DDF8A1
:103810005C80DDE91467002003902CB947F2AD10FD
:1038200028800BB0BDE8F08FB9F1000F03D147F24B
:103830004F102880F5E71FB946F62F602880F0E783
:1038400087480068804503D246F630602880E8E764
:103850001698404503D346F631602880E1E7402EB4
:1038600003D346F273202880DBE736B97D488442D3
:1038700003D046F273202880D3E73F2E06D17A4842
:10388000844203D046F273202880CAE7204602F023
:1038900075FF002028800AF0010090B10AF00200B4
:1038A00078B105970020069008E000210598016096
:1038B0000598001D05900698401C06900698404506
:1038C000F3D3169807EB80000490CDE9008A3A46BE
:1038D0004846049B0A9900F081FD0590C4F82890A1
:1038E0000A98E0620898206284F8376084F83860AB
:1038F000059820600498A0601998A065199818B9D7
:103900005A480068E06501E01998E0651A9860601F
:103910006762C4F84080A4F844A04FF0000B08E0B0
:10392000002104F1800040F82B100BF1010000F0A1
:10393000FF0BBBF1000FF3D004F16800189901F000
:10394000F9FD204600F09CF800BF00BF00BFFCF767
:103950004FFC039000BFFEF70DFB00BF444800780A
:10396000401C4349087008460078012801D102F044
:1039700075FA00BFFEF718FB00BF0398FCF73CFC8C
:1039800000BF00BF00BF94F8370002F093F8204654
:1039900002F0CCF9204602F0A7FE36480088401C11
:1039A0003449088034480078012837D000BF00BF70
:1039B00000BFFCF71DFC039000BFFEF7DBFA00BF61
:1039C0002B480078401E2A49087008460078D0B974
:1039D00002F052FA2948008800280BDD00BFFEF7EC
:1039E000E3FA00BF0398FCF707FC00BF00BF02F03A
:1039F0000BFA11E000BFFEF7D7FA00BF0398FCF7FF
:103A0000FBFB00BF08E000BFFEF7CEFA00BF039843
:103A1000FCF7F2FB00BF00BF00BF02E700BF00BF22
:103A200000BFFCF7E5FB039000BFFEF7A3FA00BF61
:103A30000F480078401E0E4908700846007808B903
:103A400002F01AFA00BFFEF7AFFA00BF0398FCF7C6
:103A5000D3FB00BF00BF00BFFFF75EFC00BFE0E686
:103A60007C890008AC660020E0650020B8000020DA
:103A7000B4000020E80000206C0000207800002046
:103A800010B504460348006818B12046014909688A
:103A9000884710BD440000202DE9F04104460E4641
:103AA0004FF000089048844204D147F24C10308017
:103AB000BDE8F0818D48844203D147F24D1030803B
:103AC000F6E79CB900BF00BFFCF792FB804600BF41
:103AD000FEF750FA00BF8648046800BFFEF764FA9C
:103AE00000BF4046FCF788FB00BF00BF00BF00BF1F
:103AF00000BFFCF77DFB804600BFFEF73BFA00BF2E
:103B00007C480078401C7B490870084600780128F2
:103B100001D102F0A3F900BFFEF746FA00BF40460C
:103B2000FCF76AFB00BF00BF00BF94F8360008280E
:103B300060D2DFE800F004090E10080A0F112046D9
:103B400002F034F991E090E000BF204603F0BCFCA5
:103B50008BE000BF00BF00BF94F8340008283BD2C0
:103B6000DFE800F0040705080E090A0600BF00BFE1
:103B700033E000BF00BF00BF204601F0BEFE2CE0D6
:103B8000206BC068456A15F8377F204601F0B5FE06
:103B900028786978373D884212D095F8370094F834
:103BA000371088420CD1284601F09AFD074695F857
:103BB0003800B84202DA95F8380000E03846074687
:103BC000002084F8340095F83700B84203D0394615
:103BD000284602F013FD00E000BF00BF94F8360055
:103BE000032803D094F83600072802D1204603F0BA
:103BF0006BFC3AE000BF00BF00BFFCF7F9FA80465B
:103C000000BFFEF7B7F900BF3A480078401E3949B7
:103C1000087008460078D0B902F02EF936480088BE
:103C200000280BDD00BFFEF7BFF900BF4046FCF7E0
:103C3000E3FA00BF00BF02F0E7F811E000BFFEF7B3
:103C4000B3F900BF4046FCF7D7FA00BF08E000BF59
:103C5000FEF7AAF900BF4046FCF7CEFA00BF00BF4E
:103C600000BF46F62D60308022E700BFE06B10B148
:103C7000204601F005FD04F1680001F005FC204636
:103C800000F03EF8204602F047FD1C480088401E28
:103C90001A490880204602F071FDFF2084F83600A2
:103CA00000BF00BF00BFFCF7A3FA804600BFFEF7CD
:103CB00061F900BF0F480078401E0E4908700846A1
:103CC000007808B902F0D8F800BFFEF76DF900BF20
:103CD0004046FCF791FA00BF00BF00BF00203080D3
:103CE000FFF71AFB00BFE3E6E0650020AC660020AA
:103CF00024010020B400002078000020E80000200B
:103D000010B504460348006818B120460149096807
:103D1000884710BD480000202DE9F05F80460F461F
:103D200016461C460A9D4FF0000B2EB946F2D520D0
:103D300028800020BDE8F09F1FB1B7F5004F02D1E9
:103D400000E000BF04E045F6256028800020F1E790
:103D500000BF0CB10020206000BF00BFFCF748FA94
:103D6000834600BFFEF706F900BF7648006800F101
:103D700068092B4622463146484601F0A7FB824699
:103D8000288800BBA4B1FEF785F92168401A6D4967
:103D9000096888676B480068C06F6A490968896F5D
:103DA000884205D267480068806F66490968C8671D
:103DB00000BFFEF7F9F800BF5846FCF71DFA00BF38
:103DC00000BF5046B6E707F4004068B146F2B010B5
:103DD000288000BFFEF7E8F800BF5846FCF70CFA51
:103DE00000BF00BF0020A5E75748007800280DDD80
:103DF00000BFFEF7D9F800BF5846FCF7FDF900BF39
:103E000000BF46F663502880002093E700BF4E486D
:103E10000078401C4C49087008460078012801D100
:103E200002F01CF800BFFEF7BFF800BF5846FCF7D1
:103E3000E3F900BF00BF00BF43460222002108464D
:103E400001F07EFC00BF00BF00BFFCF7D1F9834644
:103E500000BFFEF78FF800BF3B480078401E3A498C
:103E600008700846007808B902F006F800BFFEF7AF
:103E70009BF800BF5846FCF7BFF900BF00BF00BF6A
:103E8000FFF74AFA00BF00BFFCF7B2F9834600BF54
:103E9000FEF770F800BF2B48006890F8350020B19D
:103EA00001282AD0032832D132E026480068D0F811
:103EB00060A024480068B0F864003080D4B1214884
:103EC0000068806C2060FEF7E5F81E490968896C7F
:103ED000401A1C49096888671A480068C06F194968
:103EE0000968896F884205D216480068806F1549B5
:103EF0000968C8670020288017E04FF0000A0020FA
:103F0000308004B1206046F2A91028800DE000BF87
:103F10004FF0000A002030801CB10A480068806C15
:103F2000206047F2D920288000BF00BF00BFFEF705
:103F30003BF800BF5846FCF75FF900BF00BF504692
:103F4000F8E6000024010020B40000202DE9FF471E
:103F50000746884691461D460C9E4DB1102D08D04F
:103F6000B5F5004F06D0A5F50040103820B902E0A5
:103F700000BF00BF00BF04E045F625603080BDE80B
:103F8000FF8700BFFEF786F804460D48007800283A
:103F90000BDD00204B4642463946CDE90246CDE9CD
:103FA0000005084800F0C8FFE9E72B464A464146AD
:103FB0003846CDE9004602F049FC00BFDFE70000CB
:103FC00064000020544D53477FB504460D4600263B
:103FD00000BF00BFFCF70CF9064600BFFDF7CAFFA3
:103FE00000BF1CB11748006884420CD100BFFDF728
:103FF000DBFF00BF3046FCF7FFF800BF00BF47F211
:10400000571028807FBD00BFFDF7CEFF00BF3046B0
:10401000FCF7F2F800BF00BF0B48007800280BDD6A
:10402000002000900190034602462146CDE902059A
:10403000064800F081FFE5E72946204602F03CFDF6
:1040400000BFDFE7240100206400002054524553E4
:1040500010B504460348006818B1204601490968B4
:10406000884710BD4C0000202DE9F04780460E46E1
:1040700014461D464FF000091EB1B6F5004F02D19F
:1040800000E000BF05E045F6256028800020BDE87F
:10409000F08700BF0CB10020206000BF00BFFCF71C
:1040A000A7F8814600BFFDF765FF00BF7A480068AA
:1040B000C06CB8B378480068C06C401E7649096887
:1040C000C86475480068C76C1CB173480068806C90
:1040D0002060FDF7DFFF70490968896C401A6E495E
:1040E0000968C1F8A8006C480068D0F8AC006A49BB
:1040F0000968D1F8A810884207D267480068D0F84C
:10410000A80065490968C1F8AC0000BFFDF74CFF85
:1041100000BF4846FCF770F800BF00BF00202880B1
:104120003846B4E7FFE706F4004068B100BFFDF78A
:104130003BFF00BF4846FCF75FF800BF00BF46F2F8
:10414000B01028800020A2E75448007800280DDD38
:1041500000BFFDF729FF00BF4846FCF74DF800BF40
:1041600000BF46F663502880002090E700BF4B4810
:104170000078401C4949087008460078012801D1A0
:1041800001F06CFE00BFFDF70FFF00BF4846FCF7D3
:1041900033F800BF00BF00BF434607220021084696
:1041A00001F0CEFA00BF00BF00BFFCF721F8814646
:1041B00000BFFDF7DFFE00BF38480078401E3749DA
:1041C00008700846007808B901F056FE00BFFDF7F8
:1041D000EBFE00BF4846FCF70FF800BF00BF00BF72
:1041E000FFF79AF800BF00BFFCF702F8814600BF56
:1041F000FDF7C0FE00BF2848006890F8350020B1E8
:10420000012826D0032834D12CE0FCB122480068D4
:10421000806C2060FDF73EFF1F490968896C401AD9
:104220001D490968C1F8A8001B480068D0F8AC0017
:1042300019490968D1F8A810884207D216480068C1
:10424000D0F8A80014490968C1F8AC000020288003
:1042500013E01CB110480068806C206046F2A91081
:1042600028800AE00CB10020206047F2D920288085
:1042700003E046F62E60288000BF00BF06480068B5
:10428000C76C00BFFDF790FE00BF4846FBF7B4FFC8
:1042900000BF00BF3846FAE624010020B400002029
:1042A0002DE9FF4106460F4614461FB1B7F5004FF2
:1042B00002D100E000BF06E045F625602080002026
:1042C00004B0BDE8F08100BFFDF7E4FE05460D48EF
:1042D000007800280CDD002000900346024631469D
:1042E000CDE902540190084800F026FE0020E7E7DF
:1042F00023462A463946304602F0A8FC804640460E
:10430000DEE7000064000020545349472DE9F047E0
:1043100004460E4617461D464FF0000A26B946F2DF
:10432000D5202880BDE8F0871FB946F2D520288027
:10433000F8E700BF00BFFBF75BFF824600BFFDF759
:1043400019FE00BF0CB924480468206878B900BF82
:10435000FDF72AFE00BF5046FBF74EFF00BF00BF2F
:1043600000203060386047F252102880DAE794F875
:10437000440000F0010078B900BFFDF715FE00BF52
:104380005046FBF739FF00BF00BF002030603860A7
:1043900047F254102880C5E700BFFDF705FE00BFB7
:1043A0005046FBF729FF00BF00BF4FF00008D4F8CC
:1043B000249003E009F1040908F10108D9F800008C
:1043C0000028F7D0C6F80080206CA0EB0800386009
:1043D0000020288000BFA5E724010020F0B5044696
:1043E000DDE9055602EB850020F007004FF0807CE8
:1043F000071F3846C7F800C0071F38463C60DFF883
:1044000034C2071F3846C7F800C04FF0123C071FE0
:104410003846C7F800C04FF0033C071F3846C7F8BE
:1044200000C04FF0023C071F3846C7F800C0071F06
:1044300038463B60071F384639604FF0113C071F74
:104440003846C7F800C04FF0103C071F3846C7F881
:1044500000C04FF0093C071F3846C7F800C04FF0B6
:10446000083C071F3846C7F800C04FF0073C071F3D
:104470003846C7F800C04FF0063C071F3846C7F85B
:1044800000C04FF0053C071F3846C7F800C04FF08A
:10449000043C071F3846C7F800C006F00407002F89
:1044A0007ED04FF0007C071F3846C7F800C0DFF809
:1044B00088C1071F3846C7F800C0DFF880C1071F52
:1044C0003846C7F800C0DFF878C1071F3846C7F87C
:1044D00000C0DFF870C1071F3846C7F800C0DFF81A
:1044E00068C1071F3846C7F800C0DFF860C1071F62
:1044F0003846C7F800C0DFF858C1071F3846C7F86C
:1045000000C0DFF850C1071F3846C7F800C0DFF809
:1045100048C1071F3846C7F800C0DFF840C1071F71
:104520003846C7F800C0DFF838C1071F3846C7F85B
:1045300000C0DFF830C1071F3846C7F800C0DFF8F9
:1045400028C1071F3846C7F800C0DFF820C1071F81
:104550003846C7F800C0DFF818C1071F3846C7F84B
:1045600000C04FF0834C071F3846C7F800C0DFF883
:1045700004C1071F3846C7F800C0DFF8FCC0071F9A
:104580003846C7F800C0DFF8F4C0071F3846C7F840
:1045900000C0DFF8ECC0071F3846C7F800C000E0D5
:1045A00047E0DFF8E0C0071F3846C7F800C0DFF873
:1045B000D8C0071F3846C7F800C0DFF8D0C0071FB3
:1045C0003846C7F800C04FF0824C071F3846C7F87E
:1045D00000C0DFF8BCC0071F3846C7F800C0DFF8CE
:1045E000B4C0071F3846C7F800C0DFF8ACC0071FCB
:1045F0003846C7F800C04FF0814C071F3846C7F84F
:1046000000C0DFF898C0071F3846C7F800C04FF059
:10461000804C071F3846C7F800C04FF07E5C071F6C
:104620003846C7F800C04FF0000C071F3846C7F8DF
:1046300000C0F0BD356C00080000F8410000F041FA
:104640000000E8410000E0410000D8410000D041F6
:104650000000C8410000C0410000B8410000B04166
:104660000000A8410000A0410000984100009041D6
:10467000000088410000704100006041000050418E
:104680000000404100003041000020410000104186
:104690000000E0400000C0400000A040000040409A
:1046A0007FB505460C461248854203D147F25B10A0
:1046B00020807FBD0F48854203D147F25C102080E7
:1046C000F7E70D48007800280BDD002000900190EE
:1046D000034602462946CDE90204084800F02CFCB6
:1046E000E7E72146284602F085FD00BFE1E700002C
:1046F000E0650020AC660020640000205453555350
:1047000070B53048006890F8440000F0040020B113
:104710002C4909680868FBF773FF2B48006890F87C
:10472000440000F0040020B1274909680868FBF73D
:1047300074FF2648006810B1244800688047FDF7E0
:10474000A9FC04461F4800681F490968884215D023
:104750001C480068D0F89C00201A1A490968C1F862
:10476000980018480068D0F8A00016490968D1F8E8
:104770009810084413490968C1F8A000124800685D
:10478000C0F89C40FDF7CAFB05460E480068D0F80B
:10479000B800A84203D20B480068C0F8B8500948D6
:1047A0000068D0F8BC000A490968884205D2084868
:1047B000006804490968C1F8BC0000200449086089
:1047C00070BD0000240100202801002058000020B6
:1047D000B00000202DE9F04105460E4614460027A2
:1047E00046480078002804DD46F663502080BDE886
:1047F000F08136B1022E05D0042E0AD0082E09D140
:1048000001E000BF00BF1DB947F27E202080EEE727
:1048100004E003E045F625602080E8E700BF00BF24
:1048200000BF00BFFBF7E4FC074600BFFDF7A2FB9B
:1048300000BF32480078401C3049087008460078B4
:10484000012801D101F00AFB00BFFDF7ADFB00BF5D
:104850003846FBF7D1FC00BF00BF00BF23463246FD
:1048600029462748006802F0D1FD2088F0B100BF3A
:1048700000BF00BFFBF7BCFC074600BFFDF77AFB9B
:1048800000BF1E480078401E1C490870084600788A
:1048900008B901F0F1FA00BFFDF786FB00BF38460A
:1048A000FBF7AAFC00BF00BF00BFA0E714480068E8
:1048B00001F07CFA00BF00BF00BFFBF799FC074680
:1048C00000BFFDF757FB00BF0C480078401E0B49A6
:1048D00008700846007808B901F0CEFA00BFFDF76D
:1048E00063FB00BF3846FBF787FC00BF00BF00BF7B
:1048F000FEF712FD0020208000BF78E7B400002002
:104900002401002010B586B000F01EF8FDF7C2FBB0
:10491000044605A800210091CDE901140390074841
:10492000007800EB4000064A02EB800100231A46A3
:10493000044800F001FB06B010BD00009A00002002
:10494000846700205449434B10B50348006810B1F8
:1049500001480068804710BD5C000020014600202F
:10496000088047F2C460704710B5002400BF00BF44
:10497000FBF73EFC044600BFFDF7FCFA00BF094808
:104980000078401C0749087000BFFDF70DFB00BF11
:104990002046FBF731FC00BF00BFFFF7B3FFFEF777
:1049A0004FF810BD6400002001464A1E4FF0E0237E
:1049B0005A61084A106820F07F4000BF10601A4614
:1049C000126942F005021A611A46126942F00202A7
:1049D0001A61704720ED00E0244A2549254A264AFD
:1049E0002649274A2748284A284A294A294A2A483C
:1049F0002A482B482B4A2C482C4A2D482D4A2E4811
:104A00002E482F482F48304A304A314A3148324ADE
:104A1000324A3348334834483448354835483648B4
:104A2000364A374A374A384A3848394839483A4A7C
:104A30003A4A3B4A3B483C483C483D493D483E4A4F
:104A40003E4A3F4A3F4A404A404A414A4148424A18
:104A5000424A43484348444A444A4548454A464AEC
:104A60004648474800BF00BF00BF7047B4890008F0
:104A70001C8B0008B5890008B6890008B8890008B1
:104A8000BC890008C0890008BD890008E8890008C1
:104A9000E9890008EA890008EC890008EE89000825
:104AA000F0890008F2890008F4890008148A0008D7
:104AB000168A0008188A00081A8A00081C8A00084A
:104AC0001E8A0008208A0008508A0008518A0008BF
:104AD000528A0008548A0008568A0008578A00083B
:104AE000588A00085A8A00085C8A00085E8A000812
:104AF000608A0008628A0008648A0008948A0008B4
:104B0000958A0008968A0008978A0008988A000803
:104B10009A8A00089C8A0008C48A0008C58A00088E
:104B2000C68A0008C78A0008C88A0008CA8A00081E
:104B3000CC8A0008D08A0008D18A0008D28A0008EE
:104B4000D38A0008D48A0008D58A0008D68A0008CB
:104B5000D78A0008D88A0008DA8A0008DB8A0008A9
:104B6000DC8A0008DE8A0008E08A0008E18A000882
:104B7000E48A0008148B0008158B0008168B0008C7
:104B8000188B00080021034A1160034A118001803C
:104B90007047000084000020880000202DE9F04FBD
:104BA00085B00446894692469B46DDF83880002051
:104BB000009000BF00BFFBF71BFB009000BFFDF79C
:104BC000D9F900BFBAF1000F0AD0BAF1010F0DD028
:104BD000BAF5004F05D06FF40040504460B906E0CC
:104BE00000BF206A40EA0900206216E000BF206A88
:104BF00020EA0900206210E000BFFDF7D5F900BFF0
:104C00000098FBF7F9FA00BF00BF45F62560A8F849
:104C10000000002005B0BDE8F08F00BFC4F824B04C
:104C200004F1080001900198008968B900BFFDF700
:104C3000BBF900BF0098FBF7DFFA00BF00BF002000
:104C4000A8F80000206AE5E700BF71480078401C22
:104C50006F49087008460078012801D101F0FEF87C
:104C600000BFFDF7A1F900BF0098FBF7C5FA00BF30
:104C700000BF00BF01980768BD6889E078680290AE
:104C800095F88C0000F00F0003900398012821D0C4
:104C900002282ED0042802D0082836D10EE0206A3F
:104CA000D5F8841000EA0106D5F88400B04204D19A
:104CB0005A463146284600F0AFF863E0206AD5F83E
:104CC000841000EA010626B15A463146284600F013
:104CD000A3F857E0D5F88400216A20EA0106D5F848
:104CE0008400B04204D15A463146284600F094F878
:104CF00048E0D5F88400216A20EA010626B15A4628
:104D00003146284600F088F83CE000BF00BF00BFF5
:104D1000FBF76EFA009000BFFDF72CF900BF3C488E
:104D20000078401E3A49087008460078D0B901F072
:104D3000A3F83848008800280BDD00BFFDF734F9E0
:104D400000BF0098FBF758FA00BF00BF01F05CF805
:104D500011E000BFFDF728F900BF0098FBF74CFAFF
:104D600000BF08E000BFFDF71FF900BF0098FBF788
:104D700043FA00BF00BF00BF43F6FF20A8F80000C1
:104D8000002047E700BF029F0FB1BD6800E000258B
:104D9000002D7FF473AF00BF00BF00BFFBF728FA00
:104DA000009000BFFDF7E6F800BF19480078401EEC
:104DB000174908700846007808B901F05DF800BF8F
:104DC000FDF7F2F800BF0098FBF716FA00BF00BF2E
:104DD00000BF0AF4004008B9FEF79EFA00BF00BF0A
:104DE000FBF706FA009000BFFDF7C4F800BF206A89
:104DF000049000BFFDF7D8F800BF0098FBF7FCF95E
:104E000000BF00BF0020A8F80000049802E70000DF
:104E1000B40000207800002070B504460E46154608
:104E2000343466650020607020706561A078343C81
:104E300008281DD2DFE800F0040508090706171846
:104E400000BF00BF00BF14E000BF94F83600032885
:104E500002D1204602F038FB204600F031FF00204E
:104E600084F8360005E000BF042084F8360000E036
:104E700000BF00BF204600F040FD70BD00241DE0D3
:104E800000BF00BFFBF7B4F9044600BFFDF772F89E
:104E900000BF0B480068401C0949086009480068C9
:104EA000401C0849086000BFFDF77EF800BF20469F
:104EB000FBF7A2F900BF00BFFDF7C8FCE0E7000068
:104EC00060000020CC00002010B58AB0044600200D
:104ED0000E4908600B2000210591CDE907040691D9
:104EE00008460B4909680B4A12680B4B1B68CDE951
:104EF0000132CDE903103F200023084A08A10090A9
:104F00000C48FEF77DFC0AB010BD000060000020D8
:104F10002889000824890008208900087D4E00089F
:104F200075432F4F532D4949492049646C652054DE
:104F300061736B00E06500202DE9F84F04460D46D3
:104F400016461F46DDE90BABDDF82890DDF834800E
:104F50000020009000BF00BFFBF74AF9009000BF9F
:104F6000FDF708F800BF2C4800882C4909888842C2
:104F70003EDA29480088401C2749088028480088D4
:104F80000988884203DA2448008825490880254892
:104F90000068046023480068856022480068C66095
:104FA0002048006807821F480068C0F814901D4818
:104FB0000068A0F818A01B480068C0F81CB0194889
:104FC00000684068174908600120174908811748A0
:104FD00008604860002000F06DFD1548007818B1A9
:104FE00013480078134908700020A8F8000008E072
:104FF00011480088401C1049088044F25360A8F80A
:10500000000000BFFCF7D0FF00BF0098FBF7F4F8EA
:1050100000BF00BFBDE8F88F780000203489000889
:105020007A0000207000002084670020AC66002019
:105030009A0000209C0000207C0000203EB55948CA
:1050400000680068584A811A904279D00FDC5749AD
:10505000084400283ED056490844A8B155490844A0
:10506000002860D05449084400286AD13FE05348E2
:105070000844002850D052490844002862D05149C1
:1050800008440028F1D110E002A8464D00902D6898
:10509000EB69444D2D682A8B424D2D686969414D5D
:1050A0002D68A868FFF77AFD7AE002A93D480068FC
:1050B000C0693C4DCDE900012D682B8B394D2D6821
:1050C0002A8A384D2D68E968364D2D68A86800F0A9
:1050D00021FD65E0334B1B68DA69324B1B68198B85
:1050E000304B1B68986802AB00F066FF58E002A9DD
:1050F0002C480068C0692B4DCDE900012D682B8B31
:10510000284D2D682A8A274D2D68E968254D2D6880
:10511000A86801F09BFB43E022490968886802A95E
:1051200001F0CAFC3CE01F4B1B68DA691D4B1B6891
:10513000198B1C4B1B68986802AB01F087FD2FE0B0
:1051400007E02CE017490968886802A902F052F8C4
:1051500026E01D49097801EB41011C4A02EB810060
:1051600000F0A8FE0F48006802AB0021C269184891
:1051700001F06CFD17480068401E1649086008469B
:10518000006858B9144800680860FCF783FF0446BB
:1051900002AB22460021114801F058FD00E000BF9B
:1051A00000BF3EBD740000205449434BADBAB2BEAF
:1051B0000DF90BFAF2F8F7FF0006F6FF00F7FDF71E
:1051C00000FFEFFF03FE0FFE9C000020846700201D
:1051D000506B0020200100201C0100204C6C00209E
:1051E000002756E0002652E000BF00BFFBF700F8A2
:1051F000074600BFFCF7BEFE00BF2648008898B9EE
:105200000020254908810860486000F065FC00BF67
:10521000FCF7CAFE00BF3846FAF7EEFF00BF00BF3A
:10522000FEF77AF8012632E000BFFCF7BDFE00BFB2
:105230003846FAF7E1FF00BF00BFFCF72BFF054639
:10524000FFF7FCFEFCF726FF441B14480068A04251
:1052500001D21248046000BF00BFFAF7C9FF074639
:1052600000BFFCF787FE00BF0D48006840680C498E
:10527000086008480088401E0649088000BFFCF707
:1052800093FE00BF3846FAF7B7FF00BF00BF002EFD
:10529000AAD0A7E7780000208467002080000020C3
:1052A00074000020F0B589B005460020314908801F
:1052B0003148006820B944F25260288009B0F0BD3E
:1052C0002E480088022803DA44F254602880F5E76B
:1052D00000202B490860284804682646203600270D
:1052E0000CE0284820600020A060E060208260611F
:1052F0002083666020342036781C87B21F480088DF
:105300008742EEDB203C1C48066866601E4806604B
:105310001E48066000201E4908801E4908801E485D
:10532000006818B944F255602880C7E71B48006838
:105330001B490968884203D244F256602880BDE7C1
:10534000032000210591CDE9070506911348006867
:10535000144A1268104B1B68CDE90301CDE90132F4
:1053600000910B46104A11A11748FEF749FA00BFF9
:10537000A4E700007C000020308900083489000880
:10538000800000204E4F4E45700000207400002029
:10539000780000207A0000203C8900084489000839
:1053A0007C89000840890008E151000875432F4FAF
:1053B000532D49494920495352205175657565203F
:1053C0005461736B00000000AC6600200021816115
:1053D0000749096811B90021C16105E0044909685C
:1053E000C16103490968886101490860704700008C
:1053F0008C0000200021034A1160034A11800180C3
:10540000704700008C0000209000002070B501461D
:105410001A4D2D681DB945F21E750D8070BD184DD1
:105420002D881DB945F21D750D80F7E7134D2868CD
:105430002A681032124D2D886D1EACB2002308E090
:105440000260002545600581C560103010325D1C8A
:10545000ABB2A342F4DB0025056045600581C56061
:10546000064D2D68074E3560054D2D88B580002509
:10547000F58035810D8000BFD0E70000608900080D
:10548000588900087867002010B5014648894B8983
:10549000002B17DD0A680C4B1B6813600A4C4B6825
:1054A00023602346DB884C891B1B074CE380234683
:1054B0009B884C892344044CA38000234B818B811F
:1054C0000B604B6010BD000078670020F0B504460B
:1054D0000D46608940B90020288002B1106046F274
:1054E000925018800020F0BD61684E6808892880BD
:1054F0000AB1C868106008686060606818B9002068
:105500002060608102E06089401E60810848006878
:105510000860074801608088401C054FB880384605
:10552000C088401EF880002018803046DBE700006D
:1055300078670020018100224281828102604260FE
:10554000704700002DE9F0410D46DDE90674B0F822
:105550000AC0B0F80880C44505DB46F2935CA4F8A5
:1055600000C0BDE8F081DFF8DCC0BCF804C0BCF1CD
:10557000000F04D145F21D7CA4F800C0F1E7DFF86C
:10558000C4C0DCF80010DFF8BC80D1F800C0C8F857
:1055900000C0C446BCF804C0ACF1010CA8F804C0BB
:1055A000C446BCF806C00CF1010CA8F806C0C446FD
:1055B000BCF808C0B8F80680C44507DADFF884C034
:1055C000BCF806C0DFF87C80A8F808C0B0F80AC0B4
:1055D000BCF1000F0AD1016041604FF0010CA0F84E
:1055E0000AC04FF0000CC1F800C017E003F0100C27
:1055F000BCF1000F07D10668316001604FF0000C6C
:10560000C1F800C004E0D0F804C0C1F800C0416097
:10561000B0F80AC00CF1010CA0F80AC0B0F80CC038
:10562000B0F80A80C44503DAB0F80AC0A0F80CC08C
:105630004D600A81CF604FF0000CA4F800C000BF9D
:105640008FE700007867002009A1C1610021416156
:105650000849096811B90021816105E00549096817
:105660008161044909684861024908607047000087
:105670002000000094000020C26B0A62C1637047E2
:105680002DE9F8430546EC6B26E0D4F82090FCF7B2
:1056900001FD0646E6622146284600F037F804F18F
:1056A0000808B8F8080020B9002084F828006062D3
:1056B00011E0D8F8000087686562012084F82800AE
:1056C00021463846FFF7D8FF00231A4639462046C0
:1056D000009600F04DF94C46002CD6D1BDE8F88379
:1056E00030B504463F2004F13C010BE00D68AB6887
:1056F0002BB19D6895F83720824200DA10460D687C
:1057000005F120010D68002DF0D130BD024602F1F7
:105710003C0002E0036803F1200003688B42F9D1EA
:1057200003681B6A036070470021034A1160034A43
:105730001180018070470000940000209800002034
:105740002DE9F04105460C4616461F4615480068EF
:1057500080F8346000201349096881F83500394623
:105760001048006800F034FF6CB104F10808EC60E8
:10577000012229460B48006800F016F829464046E9
:1057800000F088F807E0002006490968A1F8460003
:1057900004490968086303480168204600F018F8C6
:1057A000BDE8F0812401002010B5A0F84620016377
:1057B00000230AE000244C600C600C614C610C83F7
:1057C000CC61886020315C1CA3B29342F2DB10BD37
:1057D00030B548B14568C1F8C85000F108042268E6
:1057E00093681D6AC56113E091F83450022D02D010
:1057F000072D08D103E007A5C1F8C85007E007A5A9
:10580000C1F8C85003E008A5C1F8C85000BF00BFE8
:1058100030BD00005461736B205100005461736B04
:105820002053656D000000002000000030B507A582
:10583000C1F8C85000F1080422681AB193681D6AC3
:10584000C56101E001A5C56130BD00002000000078
:105850002DE9F0410446256BB4F8467011E0D5F807
:105860000C8008F108063089012807D929463046FE
:1058700000F05DF82946304600F00CF82035781E1F
:1058800087B2002FEBD1BDE8F081002101604160BB
:1058900001817047F0B58E6896F8375007893FB997
:1058A0000127078100274F600F600160416023E0FE
:1058B00007897F1C0781026806E0946894F83770B6
:1058C000AF4200DD02E05268002AF6D100BF32B9D3
:1058D00000274F6043680B60596041600CE0176817
:1058E0002FB9116000270F604A60016004E013685F
:1058F0000B604A6059601160F0BD2DE9F04104462B
:10590000256BB4F846600AE0D5F80C8008F108076A
:105910002946384600F00BF82035701E86B2002E5E
:10592000F2DC0020A4F846002063BDE8F08110B549
:105930000489012C03D100240460446011E00C6848
:1059400024B94A680024146002600AE04C6824B953
:105950000B6800245C60436003E00B684A685A608F
:1059600013600489641E048100244C600C6010BD27
:105970002DE9F84306460C4617469846089D94F8CC
:10598000360008285BD2DFE800F0040508090607A6
:10599000323300BF00BF00BF52E000BF94F83400B4
:1059A000032807D143463A4621463046009500F089
:1059B0004AF803E02766A4F86480A56436B120465F
:1059C000FFF79BFF21463046FFF730FF94F8360083
:1059D000032802D1204601F077FD204600F070F93F
:1059E00000203434A070607004F8340928E000BF4F
:1059F00094F83400032807D143463A4621463046FE
:105A0000009500F020F803E02766A4F86480A56400
:105A100036B12046FFF771FF21463046FFF706FFFB
:105A200094F83600072802D1204601F04DFD0420ED
:105A30003434A0700020607004F8340900E000BF26
:105A400000BFBDE8F883F0B50446059E086BB1F8C9
:105A500046500AE0C768A74204D10461426103834B
:105A6000C66104E020306F1EBDB2002DF2DC00BF25
:105A7000F0BD000070B50025074C03E005F12000E3
:105A8000C5B2241D20680028F8D02068FAF7BBFBB7
:105A90002844C5B2284670BD3C000020002004E028
:105AA0000021034A42F82010401C0228F8D3704716
:105AB0003C00002030B5420900F01F030121C3F172
:105AC0001F04A140034C54F822400C43014D45F8FB
:105AD000224030BD3C00002030B5420900F01F03D9
